{
	"contracts/BSideToken.sol": {
		"BSideToken": {
			"abi": [
				{
					"inputs": [
						{
							"internalType": "uint256",
							"name": "initialSupply",
							"type": "uint256"
						}
					],
					"stateMutability": "nonpayable",
					"type": "constructor"
				},
				{
					"anonymous": false,
					"inputs": [
						{
							"indexed": true,
							"internalType": "address",
							"name": "owner",
							"type": "address"
						},
						{
							"indexed": true,
							"internalType": "address",
							"name": "spender",
							"type": "address"
						},
						{
							"indexed": false,
							"internalType": "uint256",
							"name": "value",
							"type": "uint256"
						}
					],
					"name": "Approval",
					"type": "event"
				},
				{
					"anonymous": false,
					"inputs": [
						{
							"indexed": true,
							"internalType": "address",
							"name": "from",
							"type": "address"
						},
						{
							"indexed": false,
							"internalType": "uint256",
							"name": "amount",
							"type": "uint256"
						}
					],
					"name": "Burn",
					"type": "event"
				},
				{
					"anonymous": false,
					"inputs": [
						{
							"indexed": true,
							"internalType": "address",
							"name": "to",
							"type": "address"
						},
						{
							"indexed": false,
							"internalType": "uint256",
							"name": "amount",
							"type": "uint256"
						}
					],
					"name": "Mint",
					"type": "event"
				},
				{
					"anonymous": false,
					"inputs": [
						{
							"indexed": true,
							"internalType": "address",
							"name": "from",
							"type": "address"
						},
						{
							"indexed": true,
							"internalType": "address",
							"name": "to",
							"type": "address"
						},
						{
							"indexed": false,
							"internalType": "uint256",
							"name": "value",
							"type": "uint256"
						}
					],
					"name": "Transfer",
					"type": "event"
				},
				{
					"inputs": [
						{
							"internalType": "address",
							"name": "owner",
							"type": "address"
						},
						{
							"internalType": "address",
							"name": "spender",
							"type": "address"
						}
					],
					"name": "allowance",
					"outputs": [
						{
							"internalType": "uint256",
							"name": "",
							"type": "uint256"
						}
					],
					"stateMutability": "view",
					"type": "function"
				},
				{
					"inputs": [
						{
							"internalType": "address",
							"name": "spender",
							"type": "address"
						},
						{
							"internalType": "uint256",
							"name": "amount",
							"type": "uint256"
						}
					],
					"name": "approve",
					"outputs": [
						{
							"internalType": "bool",
							"name": "",
							"type": "bool"
						}
					],
					"stateMutability": "nonpayable",
					"type": "function"
				},
				{
					"inputs": [
						{
							"internalType": "address",
							"name": "account",
							"type": "address"
						}
					],
					"name": "balanceOf",
					"outputs": [
						{
							"internalType": "uint256",
							"name": "",
							"type": "uint256"
						}
					],
					"stateMutability": "view",
					"type": "function"
				},
				{
					"inputs": [
						{
							"internalType": "uint256",
							"name": "amount",
							"type": "uint256"
						}
					],
					"name": "burn",
					"outputs": [],
					"stateMutability": "nonpayable",
					"type": "function"
				},
				{
					"inputs": [],
					"name": "decimals",
					"outputs": [
						{
							"internalType": "uint8",
							"name": "",
							"type": "uint8"
						}
					],
					"stateMutability": "view",
					"type": "function"
				},
				{
					"inputs": [
						{
							"internalType": "address",
							"name": "to",
							"type": "address"
						},
						{
							"internalType": "uint256",
							"name": "amount",
							"type": "uint256"
						}
					],
					"name": "mint",
					"outputs": [],
					"stateMutability": "nonpayable",
					"type": "function"
				},
				{
					"inputs": [],
					"name": "name",
					"outputs": [
						{
							"internalType": "string",
							"name": "",
							"type": "string"
						}
					],
					"stateMutability": "view",
					"type": "function"
				},
				{
					"inputs": [],
					"name": "symbol",
					"outputs": [
						{
							"internalType": "string",
							"name": "",
							"type": "string"
						}
					],
					"stateMutability": "view",
					"type": "function"
				},
				{
					"inputs": [],
					"name": "totalSupply",
					"outputs": [
						{
							"internalType": "uint256",
							"name": "",
							"type": "uint256"
						}
					],
					"stateMutability": "view",
					"type": "function"
				},
				{
					"inputs": [
						{
							"internalType": "address",
							"name": "recipient",
							"type": "address"
						},
						{
							"internalType": "uint256",
							"name": "amount",
							"type": "uint256"
						}
					],
					"name": "transfer",
					"outputs": [
						{
							"internalType": "bool",
							"name": "",
							"type": "bool"
						}
					],
					"stateMutability": "nonpayable",
					"type": "function"
				},
				{
					"inputs": [
						{
							"internalType": "address",
							"name": "sender",
							"type": "address"
						},
						{
							"internalType": "address",
							"name": "recipient",
							"type": "address"
						},
						{
							"internalType": "uint256",
							"name": "amount",
							"type": "uint256"
						}
					],
					"name": "transferFrom",
					"outputs": [
						{
							"internalType": "bool",
							"name": "",
							"type": "bool"
						}
					],
					"stateMutability": "nonpayable",
					"type": "function"
				},
				{
					"inputs": [],
					"name": "withdraw",
					"outputs": [],
					"stateMutability": "nonpayable",
					"type": "function"
				},
				{
					"stateMutability": "payable",
					"type": "receive"
				}
			],
			"devdoc": {
				"kind": "dev",
				"methods": {},
				"version": 1
			},
			"evm": {
				"assembly": "    /* \"contracts/BSideToken.sol\":81:2016  contract BSideToken is ERC20 {... */\n  mstore(0x40, 0xa0)\n    /* \"contracts/BSideToken.sol\":145:163  1_000_000 * 10**18 */\n  0xd3c21bcecceda1000000\n    /* \"contracts/BSideToken.sol\":116:163  uint256 private _maxSupply = 1_000_000 * 10**18 */\n  0x07\n  sstore\n    /* \"contracts/BSideToken.sol\":1329:1426  constructor(uint256 initialSupply)... */\n  callvalue\n  dup1\n  iszero\n  tag_1\n  jumpi\n  0x00\n  dup1\n  revert\ntag_1:\n  pop\n  mload(0x40)\n  sub(codesize, bytecodeSize)\n  dup1\n  bytecodeSize\n  dup4\n  codecopy\n  dup2\n  dup2\n  add\n  0x40\n  mstore\n  dup2\n  add\n  swap1\n  tag_2\n  swap2\n  swap1\n  tag_3\n  jump\t// in\ntag_2:\n    /* \"contracts/ERC20.sol\":2334:2752  constructor(... */\n  mload(0x40)\n  dup1\n  0x40\n  add\n  0x40\n  mstore\n  dup1\n  0x0a\n  dup2\n  mstore\n  0x20\n  add\n  0x4253696465546f6b656e00000000000000000000000000000000000000000000\n  dup2\n  mstore\n  pop\n  mload(0x40)\n  dup1\n  0x40\n  add\n  0x40\n  mstore\n  dup1\n  0x05\n  dup2\n  mstore\n  0x20\n  add\n  0x4253494445000000000000000000000000000000000000000000000000000000\n  dup2\n  mstore\n  pop\n    /* \"contracts/BSideToken.sol\":1401:1403  18 */\n  0x12\n    /* \"contracts/BSideToken.sol\":1405:1418  initialSupply */\n  dup4\n    /* \"contracts/ERC20.sol\":2487:2497  msg.sender */\n  caller\n    /* \"contracts/ERC20.sol\":2478:2497  _owner = msg.sender */\n  0xffffffffffffffffffffffffffffffffffffffff\n  and\n  0x80\n  dup2\n  0xffffffffffffffffffffffffffffffffffffffff\n  and\n  dup2\n  mstore\n  pop\n  pop\n    /* \"contracts/ERC20.sol\":2514:2519  _name */\n  dup4\n    /* \"contracts/ERC20.sol\":2507:2511  name */\n  0x00\n    /* \"contracts/ERC20.sol\":2507:2519  name = _name */\n  swap1\n  dup2\n  tag_7\n  swap2\n  swap1\n  tag_8\n  jump\t// in\ntag_7:\n  pop\n    /* \"contracts/ERC20.sol\":2538:2545  _symbol */\n  dup3\n    /* \"contracts/ERC20.sol\":2529:2535  symbol */\n  0x01\n    /* \"contracts/ERC20.sol\":2529:2545  symbol = _symbol */\n  swap1\n  dup2\n  tag_9\n  swap2\n  swap1\n  tag_8\n  jump\t// in\ntag_9:\n  pop\n    /* \"contracts/ERC20.sol\":2566:2575  _decimals */\n  dup2\n    /* \"contracts/ERC20.sol\":2555:2563  decimals */\n  0x02\n  0x00\n    /* \"contracts/ERC20.sol\":2555:2575  decimals = _decimals */\n  0x0100\n  exp\n  dup2\n  sload\n  dup2\n  0xff\n  mul\n  not\n  and\n  swap1\n  dup4\n  0xff\n  and\n  mul\n  or\n  swap1\n  sstore\n  pop\n    /* \"contracts/ERC20.sol\":2628:2637  _decimals */\n  dup2\n    /* \"contracts/ERC20.sol\":2620:2638  uint256(_decimals) */\n  0xff\n  and\n    /* \"contracts/ERC20.sol\":2616:2618  10 */\n  0x0a\n    /* \"contracts/ERC20.sol\":2616:2638  10**uint256(_decimals) */\n  tag_10\n  swap2\n  swap1\n  tag_11\n  jump\t// in\ntag_10:\n    /* \"contracts/ERC20.sol\":2600:2613  initialSupply */\n  dup2\n    /* \"contracts/ERC20.sol\":2600:2638  initialSupply * 10**uint256(_decimals) */\n  tag_12\n  swap2\n  swap1\n  tag_13\n  jump\t// in\ntag_12:\n    /* \"contracts/ERC20.sol\":2585:2597  _totalSupply */\n  0x03\n    /* \"contracts/ERC20.sol\":2585:2638  _totalSupply = initialSupply * 10**uint256(_decimals) */\n  dup2\n  swap1\n  sstore\n  pop\n    /* \"contracts/ERC20.sol\":2672:2684  _totalSupply */\n  sload(0x03)\n    /* \"contracts/ERC20.sol\":2648:2657  _balances */\n  0x05\n    /* \"contracts/ERC20.sol\":2648:2669  _balances[msg.sender] */\n  0x00\n    /* \"contracts/ERC20.sol\":2658:2668  msg.sender */\n  caller\n    /* \"contracts/ERC20.sol\":2648:2669  _balances[msg.sender] */\n  0xffffffffffffffffffffffffffffffffffffffff\n  and\n  0xffffffffffffffffffffffffffffffffffffffff\n  and\n  dup2\n  mstore\n  0x20\n  add\n  swap1\n  dup2\n  mstore\n  0x20\n  add\n  0x00\n  keccak256\n    /* \"contracts/ERC20.sol\":2648:2684  _balances[msg.sender] = _totalSupply */\n  dup2\n  swap1\n  sstore\n  pop\n    /* \"contracts/ERC20.sol\":2720:2730  msg.sender */\n  caller\n    /* \"contracts/ERC20.sol\":2699:2745  Transfer(address(0), msg.sender, _totalSupply) */\n  0xffffffffffffffffffffffffffffffffffffffff\n  and\n    /* \"contracts/ERC20.sol\":2716:2717  0 */\n  0x00\n    /* \"contracts/ERC20.sol\":2699:2745  Transfer(address(0), msg.sender, _totalSupply) */\n  0xffffffffffffffffffffffffffffffffffffffff\n  and\n  0xddf252ad1be2c89b69c2b068fc378daa952ba7f163c4a11628f55a4df523b3ef\n    /* \"contracts/ERC20.sol\":2732:2744  _totalSupply */\n  sload(0x03)\n    /* \"contracts/ERC20.sol\":2699:2745  Transfer(address(0), msg.sender, _totalSupply) */\n  mload(0x40)\n  tag_14\n  swap2\n  swap1\n  tag_15\n  jump\t// in\ntag_14:\n  mload(0x40)\n  dup1\n  swap2\n  sub\n  swap1\n  log3\n    /* \"contracts/ERC20.sol\":2334:2752  constructor(... */\n  pop\n  pop\n  pop\n  pop\n    /* \"contracts/BSideToken.sol\":1329:1426  constructor(uint256 initialSupply)... */\n  pop\n    /* \"contracts/BSideToken.sol\":81:2016  contract BSideToken is ERC20 {... */\n  jump(tag_17)\n    /* \"#utility.yul\":88:205   */\ntag_19:\n    /* \"#utility.yul\":197:198   */\n  0x00\n    /* \"#utility.yul\":194:195   */\n  dup1\n    /* \"#utility.yul\":187:199   */\n  revert\n    /* \"#utility.yul\":334:411   */\ntag_21:\n    /* \"#utility.yul\":371:378   */\n  0x00\n    /* \"#utility.yul\":400:405   */\n  dup2\n    /* \"#utility.yul\":389:405   */\n  swap1\n  pop\n    /* \"#utility.yul\":334:411   */\n  swap2\n  swap1\n  pop\n  jump\t// out\n    /* \"#utility.yul\":417:539   */\ntag_22:\n    /* \"#utility.yul\":490:514   */\n  tag_54\n    /* \"#utility.yul\":508:513   */\n  dup2\n    /* \"#utility.yul\":490:514   */\n  tag_21\n  jump\t// in\ntag_54:\n    /* \"#utility.yul\":483:488   */\n  dup2\n    /* \"#utility.yul\":480:515   */\n  eq\n    /* \"#utility.yul\":470:533   */\n  tag_55\n  jumpi\n    /* \"#utility.yul\":529:530   */\n  0x00\n    /* \"#utility.yul\":526:527   */\n  dup1\n    /* \"#utility.yul\":519:531   */\n  revert\n    /* \"#utility.yul\":470:533   */\ntag_55:\n    /* \"#utility.yul\":417:539   */\n  pop\n  jump\t// out\n    /* \"#utility.yul\":545:688   */\ntag_23:\n    /* \"#utility.yul\":602:607   */\n  0x00\n    /* \"#utility.yul\":633:639   */\n  dup2\n    /* \"#utility.yul\":627:640   */\n  mload\n    /* \"#utility.yul\":618:640   */\n  swap1\n  pop\n    /* \"#utility.yul\":649:682   */\n  tag_57\n    /* \"#utility.yul\":676:681   */\n  dup2\n    /* \"#utility.yul\":649:682   */\n  tag_22\n  jump\t// in\ntag_57:\n    /* \"#utility.yul\":545:688   */\n  swap3\n  swap2\n  pop\n  pop\n  jump\t// out\n    /* \"#utility.yul\":694:1045   */\ntag_3:\n    /* \"#utility.yul\":764:770   */\n  0x00\n    /* \"#utility.yul\":813:815   */\n  0x20\n    /* \"#utility.yul\":801:810   */\n  dup3\n    /* \"#utility.yul\":792:799   */\n  dup5\n    /* \"#utility.yul\":788:811   */\n  sub\n    /* \"#utility.yul\":784:816   */\n  slt\n    /* \"#utility.yul\":781:900   */\n  iszero\n  tag_59\n  jumpi\n    /* \"#utility.yul\":819:898   */\n  tag_60\n  tag_19\n  jump\t// in\ntag_60:\n    /* \"#utility.yul\":781:900   */\ntag_59:\n    /* \"#utility.yul\":939:940   */\n  0x00\n    /* \"#utility.yul\":964:1028   */\n  tag_61\n    /* \"#utility.yul\":1020:1027   */\n  dup5\n    /* \"#utility.yul\":1011:1017   */\n  dup3\n    /* \"#utility.yul\":1000:1009   */\n  dup6\n    /* \"#utility.yul\":996:1018   */\n  add\n    /* \"#utility.yul\":964:1028   */\n  tag_23\n  jump\t// in\ntag_61:\n    /* \"#utility.yul\":954:1028   */\n  swap2\n  pop\n    /* \"#utility.yul\":910:1038   */\n  pop\n    /* \"#utility.yul\":694:1045   */\n  swap3\n  swap2\n  pop\n  pop\n  jump\t// out\n    /* \"#utility.yul\":1051:1150   */\ntag_24:\n    /* \"#utility.yul\":1103:1109   */\n  0x00\n    /* \"#utility.yul\":1137:1142   */\n  dup2\n    /* \"#utility.yul\":1131:1143   */\n  mload\n    /* \"#utility.yul\":1121:1143   */\n  swap1\n  pop\n    /* \"#utility.yul\":1051:1150   */\n  swap2\n  swap1\n  pop\n  jump\t// out\n    /* \"#utility.yul\":1156:1336   */\ntag_25:\n    /* \"#utility.yul\":1204:1281   */\n  0x4e487b7100000000000000000000000000000000000000000000000000000000\n    /* \"#utility.yul\":1201:1202   */\n  0x00\n    /* \"#utility.yul\":1194:1282   */\n  mstore\n    /* \"#utility.yul\":1301:1305   */\n  0x41\n    /* \"#utility.yul\":1298:1299   */\n  0x04\n    /* \"#utility.yul\":1291:1306   */\n  mstore\n    /* \"#utility.yul\":1325:1329   */\n  0x24\n    /* \"#utility.yul\":1322:1323   */\n  0x00\n    /* \"#utility.yul\":1315:1330   */\n  revert\n    /* \"#utility.yul\":1342:1522   */\ntag_26:\n    /* \"#utility.yul\":1390:1467   */\n  0x4e487b7100000000000000000000000000000000000000000000000000000000\n    /* \"#utility.yul\":1387:1388   */\n  0x00\n    /* \"#utility.yul\":1380:1468   */\n  mstore\n    /* \"#utility.yul\":1487:1491   */\n  0x22\n    /* \"#utility.yul\":1484:1485   */\n  0x04\n    /* \"#utility.yul\":1477:1492   */\n  mstore\n    /* \"#utility.yul\":1511:1515   */\n  0x24\n    /* \"#utility.yul\":1508:1509   */\n  0x00\n    /* \"#utility.yul\":1501:1516   */\n  revert\n    /* \"#utility.yul\":1528:1848   */\ntag_27:\n    /* \"#utility.yul\":1572:1578   */\n  0x00\n    /* \"#utility.yul\":1609:1610   */\n  0x02\n    /* \"#utility.yul\":1603:1607   */\n  dup3\n    /* \"#utility.yul\":1599:1611   */\n  div\n    /* \"#utility.yul\":1589:1611   */\n  swap1\n  pop\n    /* \"#utility.yul\":1656:1657   */\n  0x01\n    /* \"#utility.yul\":1650:1654   */\n  dup3\n    /* \"#utility.yul\":1646:1658   */\n  and\n    /* \"#utility.yul\":1677:1695   */\n  dup1\n    /* \"#utility.yul\":1667:1748   */\n  tag_66\n  jumpi\n    /* \"#utility.yul\":1733:1737   */\n  0x7f\n    /* \"#utility.yul\":1725:1731   */\n  dup3\n    /* \"#utility.yul\":1721:1738   */\n  and\n    /* \"#utility.yul\":1711:1738   */\n  swap2\n  pop\n    /* \"#utility.yul\":1667:1748   */\ntag_66:\n    /* \"#utility.yul\":1795:1797   */\n  0x20\n    /* \"#utility.yul\":1787:1793   */\n  dup3\n    /* \"#utility.yul\":1784:1798   */\n  lt\n    /* \"#utility.yul\":1764:1782   */\n  dup2\n    /* \"#utility.yul\":1761:1799   */\n  sub\n    /* \"#utility.yul\":1758:1842   */\n  tag_67\n  jumpi\n    /* \"#utility.yul\":1814:1832   */\n  tag_68\n  tag_26\n  jump\t// in\ntag_68:\n    /* \"#utility.yul\":1758:1842   */\ntag_67:\n    /* \"#utility.yul\":1579:1848   */\n  pop\n    /* \"#utility.yul\":1528:1848   */\n  swap2\n  swap1\n  pop\n  jump\t// out\n    /* \"#utility.yul\":1854:1995   */\ntag_28:\n    /* \"#utility.yul\":1903:1907   */\n  0x00\n    /* \"#utility.yul\":1926:1929   */\n  dup2\n    /* \"#utility.yul\":1918:1929   */\n  swap1\n  pop\n    /* \"#utility.yul\":1949:1952   */\n  dup2\n    /* \"#utility.yul\":1946:1947   */\n  0x00\n    /* \"#utility.yul\":1939:1953   */\n  mstore\n    /* \"#utility.yul\":1983:1987   */\n  0x20\n    /* \"#utility.yul\":1980:1981   */\n  0x00\n    /* \"#utility.yul\":1970:1988   */\n  keccak256\n    /* \"#utility.yul\":1962:1988   */\n  swap1\n  pop\n    /* \"#utility.yul\":1854:1995   */\n  swap2\n  swap1\n  pop\n  jump\t// out\n    /* \"#utility.yul\":2001:2094   */\ntag_29:\n    /* \"#utility.yul\":2038:2044   */\n  0x00\n    /* \"#utility.yul\":2085:2087   */\n  0x20\n    /* \"#utility.yul\":2080:2082   */\n  0x1f\n    /* \"#utility.yul\":2073:2078   */\n  dup4\n    /* \"#utility.yul\":2069:2083   */\n  add\n    /* \"#utility.yul\":2065:2088   */\n  div\n    /* \"#utility.yul\":2055:2088   */\n  swap1\n  pop\n    /* \"#utility.yul\":2001:2094   */\n  swap2\n  swap1\n  pop\n  jump\t// out\n    /* \"#utility.yul\":2100:2207   */\ntag_30:\n    /* \"#utility.yul\":2144:2152   */\n  0x00\n    /* \"#utility.yul\":2194:2199   */\n  dup3\n    /* \"#utility.yul\":2188:2192   */\n  dup3\n    /* \"#utility.yul\":2184:2200   */\n  shl\n    /* \"#utility.yul\":2163:2200   */\n  swap1\n  pop\n    /* \"#utility.yul\":2100:2207   */\n  swap3\n  swap2\n  pop\n  pop\n  jump\t// out\n    /* \"#utility.yul\":2213:2606   */\ntag_31:\n    /* \"#utility.yul\":2282:2288   */\n  0x00\n    /* \"#utility.yul\":2332:2333   */\n  0x08\n    /* \"#utility.yul\":2320:2330   */\n  dup4\n    /* \"#utility.yul\":2316:2334   */\n  mul\n    /* \"#utility.yul\":2355:2452   */\n  tag_73\n    /* \"#utility.yul\":2385:2451   */\n  0xffffffffffffffffffffffffffffffffffffffffffffffffffffffffffffffff\n    /* \"#utility.yul\":2374:2383   */\n  dup3\n    /* \"#utility.yul\":2355:2452   */\n  tag_30\n  jump\t// in\ntag_73:\n    /* \"#utility.yul\":2473:2512   */\n  tag_74\n    /* \"#utility.yul\":2503:2511   */\n  dup7\n    /* \"#utility.yul\":2492:2501   */\n  dup4\n    /* \"#utility.yul\":2473:2512   */\n  tag_30\n  jump\t// in\ntag_74:\n    /* \"#utility.yul\":2461:2512   */\n  swap6\n  pop\n    /* \"#utility.yul\":2545:2549   */\n  dup1\n    /* \"#utility.yul\":2541:2550   */\n  not\n    /* \"#utility.yul\":2534:2539   */\n  dup5\n    /* \"#utility.yul\":2530:2551   */\n  and\n    /* \"#utility.yul\":2521:2551   */\n  swap4\n  pop\n    /* \"#utility.yul\":2594:2598   */\n  dup1\n    /* \"#utility.yul\":2584:2592   */\n  dup7\n    /* \"#utility.yul\":2580:2599   */\n  and\n    /* \"#utility.yul\":2573:2578   */\n  dup5\n    /* \"#utility.yul\":2570:2600   */\n  or\n    /* \"#utility.yul\":2560:2600   */\n  swap3\n  pop\n    /* \"#utility.yul\":2289:2606   */\n  pop\n  pop\n    /* \"#utility.yul\":2213:2606   */\n  swap4\n  swap3\n  pop\n  pop\n  pop\n  jump\t// out\n    /* \"#utility.yul\":2612:2672   */\ntag_32:\n    /* \"#utility.yul\":2640:2643   */\n  0x00\n    /* \"#utility.yul\":2661:2666   */\n  dup2\n    /* \"#utility.yul\":2654:2666   */\n  swap1\n  pop\n    /* \"#utility.yul\":2612:2672   */\n  swap2\n  swap1\n  pop\n  jump\t// out\n    /* \"#utility.yul\":2678:2820   */\ntag_33:\n    /* \"#utility.yul\":2728:2737   */\n  0x00\n    /* \"#utility.yul\":2761:2814   */\n  tag_77\n    /* \"#utility.yul\":2779:2813   */\n  tag_78\n    /* \"#utility.yul\":2788:2812   */\n  tag_79\n    /* \"#utility.yul\":2806:2811   */\n  dup5\n    /* \"#utility.yul\":2788:2812   */\n  tag_21\n  jump\t// in\ntag_79:\n    /* \"#utility.yul\":2779:2813   */\n  tag_32\n  jump\t// in\ntag_78:\n    /* \"#utility.yul\":2761:2814   */\n  tag_21\n  jump\t// in\ntag_77:\n    /* \"#utility.yul\":2748:2814   */\n  swap1\n  pop\n    /* \"#utility.yul\":2678:2820   */\n  swap2\n  swap1\n  pop\n  jump\t// out\n    /* \"#utility.yul\":2826:2901   */\ntag_34:\n    /* \"#utility.yul\":2869:2872   */\n  0x00\n    /* \"#utility.yul\":2890:2895   */\n  dup2\n    /* \"#utility.yul\":2883:2895   */\n  swap1\n  pop\n    /* \"#utility.yul\":2826:2901   */\n  swap2\n  swap1\n  pop\n  jump\t// out\n    /* \"#utility.yul\":2907:3176   */\ntag_35:\n    /* \"#utility.yul\":3017:3056   */\n  tag_82\n    /* \"#utility.yul\":3048:3055   */\n  dup4\n    /* \"#utility.yul\":3017:3056   */\n  tag_33\n  jump\t// in\ntag_82:\n    /* \"#utility.yul\":3078:3169   */\n  tag_83\n    /* \"#utility.yul\":3127:3168   */\n  tag_84\n    /* \"#utility.yul\":3151:3167   */\n  dup3\n    /* \"#utility.yul\":3127:3168   */\n  tag_34\n  jump\t// in\ntag_84:\n    /* \"#utility.yul\":3119:3125   */\n  dup5\n    /* \"#utility.yul\":3112:3116   */\n  dup5\n    /* \"#utility.yul\":3106:3117   */\n  sload\n    /* \"#utility.yul\":3078:3169   */\n  tag_31\n  jump\t// in\ntag_83:\n    /* \"#utility.yul\":3072:3076   */\n  dup3\n    /* \"#utility.yul\":3065:3170   */\n  sstore\n    /* \"#utility.yul\":2983:3176   */\n  pop\n    /* \"#utility.yul\":2907:3176   */\n  pop\n  pop\n  pop\n  jump\t// out\n    /* \"#utility.yul\":3182:3255   */\ntag_36:\n    /* \"#utility.yul\":3227:3230   */\n  0x00\n    /* \"#utility.yul\":3182:3255   */\n  swap1\n  jump\t// out\n    /* \"#utility.yul\":3261:3450   */\ntag_37:\n    /* \"#utility.yul\":3338:3370   */\n  tag_87\n  tag_36\n  jump\t// in\ntag_87:\n    /* \"#utility.yul\":3379:3444   */\n  tag_88\n    /* \"#utility.yul\":3437:3443   */\n  dup2\n    /* \"#utility.yul\":3429:3435   */\n  dup5\n    /* \"#utility.yul\":3423:3427   */\n  dup5\n    /* \"#utility.yul\":3379:3444   */\n  tag_35\n  jump\t// in\ntag_88:\n    /* \"#utility.yul\":3314:3450   */\n  pop\n    /* \"#utility.yul\":3261:3450   */\n  pop\n  pop\n  jump\t// out\n    /* \"#utility.yul\":3456:3642   */\ntag_38:\n    /* \"#utility.yul\":3516:3636   */\ntag_90:\n    /* \"#utility.yul\":3533:3536   */\n  dup2\n    /* \"#utility.yul\":3526:3531   */\n  dup2\n    /* \"#utility.yul\":3523:3537   */\n  lt\n    /* \"#utility.yul\":3516:3636   */\n  iszero\n  tag_92\n  jumpi\n    /* \"#utility.yul\":3587:3626   */\n  tag_93\n    /* \"#utility.yul\":3624:3625   */\n  0x00\n    /* \"#utility.yul\":3617:3622   */\n  dup3\n    /* \"#utility.yul\":3587:3626   */\n  tag_37\n  jump\t// in\ntag_93:\n    /* \"#utility.yul\":3560:3561   */\n  0x01\n    /* \"#utility.yul\":3553:3558   */\n  dup2\n    /* \"#utility.yul\":3549:3562   */\n  add\n    /* \"#utility.yul\":3540:3562   */\n  swap1\n  pop\n    /* \"#utility.yul\":3516:3636   */\n  jump(tag_90)\ntag_92:\n    /* \"#utility.yul\":3456:3642   */\n  pop\n  pop\n  jump\t// out\n    /* \"#utility.yul\":3648:4191   */\ntag_39:\n    /* \"#utility.yul\":3749:3751   */\n  0x1f\n    /* \"#utility.yul\":3744:3747   */\n  dup3\n    /* \"#utility.yul\":3741:3752   */\n  gt\n    /* \"#utility.yul\":3738:4184   */\n  iszero\n  tag_95\n  jumpi\n    /* \"#utility.yul\":3783:3821   */\n  tag_96\n    /* \"#utility.yul\":3815:3820   */\n  dup2\n    /* \"#utility.yul\":3783:3821   */\n  tag_28\n  jump\t// in\ntag_96:\n    /* \"#utility.yul\":3867:3896   */\n  tag_97\n    /* \"#utility.yul\":3885:3895   */\n  dup5\n    /* \"#utility.yul\":3867:3896   */\n  tag_29\n  jump\t// in\ntag_97:\n    /* \"#utility.yul\":3857:3865   */\n  dup2\n    /* \"#utility.yul\":3853:3897   */\n  add\n    /* \"#utility.yul\":4050:4052   */\n  0x20\n    /* \"#utility.yul\":4038:4048   */\n  dup6\n    /* \"#utility.yul\":4035:4053   */\n  lt\n    /* \"#utility.yul\":4032:4081   */\n  iszero\n  tag_98\n  jumpi\n    /* \"#utility.yul\":4071:4079   */\n  dup2\n    /* \"#utility.yul\":4056:4079   */\n  swap1\n  pop\n    /* \"#utility.yul\":4032:4081   */\ntag_98:\n    /* \"#utility.yul\":4094:4174   */\n  tag_99\n    /* \"#utility.yul\":4150:4172   */\n  tag_100\n    /* \"#utility.yul\":4168:4171   */\n  dup6\n    /* \"#utility.yul\":4150:4172   */\n  tag_29\n  jump\t// in\ntag_100:\n    /* \"#utility.yul\":4140:4148   */\n  dup4\n    /* \"#utility.yul\":4136:4173   */\n  add\n    /* \"#utility.yul\":4123:4134   */\n  dup3\n    /* \"#utility.yul\":4094:4174   */\n  tag_38\n  jump\t// in\ntag_99:\n    /* \"#utility.yul\":3753:4184   */\n  pop\n  pop\n    /* \"#utility.yul\":3738:4184   */\ntag_95:\n    /* \"#utility.yul\":3648:4191   */\n  pop\n  pop\n  pop\n  jump\t// out\n    /* \"#utility.yul\":4197:4314   */\ntag_40:\n    /* \"#utility.yul\":4251:4259   */\n  0x00\n    /* \"#utility.yul\":4301:4306   */\n  dup3\n    /* \"#utility.yul\":4295:4299   */\n  dup3\n    /* \"#utility.yul\":4291:4307   */\n  shr\n    /* \"#utility.yul\":4270:4307   */\n  swap1\n  pop\n    /* \"#utility.yul\":4197:4314   */\n  swap3\n  swap2\n  pop\n  pop\n  jump\t// out\n    /* \"#utility.yul\":4320:4489   */\ntag_41:\n    /* \"#utility.yul\":4364:4370   */\n  0x00\n    /* \"#utility.yul\":4397:4448   */\n  tag_103\n    /* \"#utility.yul\":4445:4446   */\n  0x00\n    /* \"#utility.yul\":4441:4447   */\n  not\n    /* \"#utility.yul\":4433:4438   */\n  dup5\n    /* \"#utility.yul\":4430:4431   */\n  0x08\n    /* \"#utility.yul\":4426:4439   */\n  mul\n    /* \"#utility.yul\":4397:4448   */\n  tag_40\n  jump\t// in\ntag_103:\n    /* \"#utility.yul\":4393:4449   */\n  not\n    /* \"#utility.yul\":4478:4482   */\n  dup1\n    /* \"#utility.yul\":4472:4476   */\n  dup4\n    /* \"#utility.yul\":4468:4483   */\n  and\n    /* \"#utility.yul\":4458:4483   */\n  swap2\n  pop\n    /* \"#utility.yul\":4371:4489   */\n  pop\n    /* \"#utility.yul\":4320:4489   */\n  swap3\n  swap2\n  pop\n  pop\n  jump\t// out\n    /* \"#utility.yul\":4494:4789   */\ntag_42:\n    /* \"#utility.yul\":4570:4574   */\n  0x00\n    /* \"#utility.yul\":4716:4745   */\n  tag_105\n    /* \"#utility.yul\":4741:4744   */\n  dup4\n    /* \"#utility.yul\":4735:4739   */\n  dup4\n    /* \"#utility.yul\":4716:4745   */\n  tag_41\n  jump\t// in\ntag_105:\n    /* \"#utility.yul\":4708:4745   */\n  swap2\n  pop\n    /* \"#utility.yul\":4778:4781   */\n  dup3\n    /* \"#utility.yul\":4775:4776   */\n  0x02\n    /* \"#utility.yul\":4771:4782   */\n  mul\n    /* \"#utility.yul\":4765:4769   */\n  dup3\n    /* \"#utility.yul\":4762:4783   */\n  or\n    /* \"#utility.yul\":4754:4783   */\n  swap1\n  pop\n    /* \"#utility.yul\":4494:4789   */\n  swap3\n  swap2\n  pop\n  pop\n  jump\t// out\n    /* \"#utility.yul\":4794:6189   */\ntag_8:\n    /* \"#utility.yul\":4911:4948   */\n  tag_107\n    /* \"#utility.yul\":4944:4947   */\n  dup3\n    /* \"#utility.yul\":4911:4948   */\n  tag_24\n  jump\t// in\ntag_107:\n    /* \"#utility.yul\":5013:5031   */\n  0xffffffffffffffff\n    /* \"#utility.yul\":5005:5011   */\n  dup2\n    /* \"#utility.yul\":5002:5032   */\n  gt\n    /* \"#utility.yul\":4999:5055   */\n  iszero\n  tag_108\n  jumpi\n    /* \"#utility.yul\":5035:5053   */\n  tag_109\n  tag_25\n  jump\t// in\ntag_109:\n    /* \"#utility.yul\":4999:5055   */\ntag_108:\n    /* \"#utility.yul\":5079:5117   */\n  tag_110\n    /* \"#utility.yul\":5111:5115   */\n  dup3\n    /* \"#utility.yul\":5105:5116   */\n  sload\n    /* \"#utility.yul\":5079:5117   */\n  tag_27\n  jump\t// in\ntag_110:\n    /* \"#utility.yul\":5164:5231   */\n  tag_111\n    /* \"#utility.yul\":5224:5230   */\n  dup3\n    /* \"#utility.yul\":5216:5222   */\n  dup3\n    /* \"#utility.yul\":5210:5214   */\n  dup6\n    /* \"#utility.yul\":5164:5231   */\n  tag_39\n  jump\t// in\ntag_111:\n    /* \"#utility.yul\":5258:5259   */\n  0x00\n    /* \"#utility.yul\":5282:5286   */\n  0x20\n    /* \"#utility.yul\":5269:5286   */\n  swap1\n  pop\n    /* \"#utility.yul\":5314:5316   */\n  0x1f\n    /* \"#utility.yul\":5306:5312   */\n  dup4\n    /* \"#utility.yul\":5303:5317   */\n  gt\n    /* \"#utility.yul\":5331:5332   */\n  0x01\n    /* \"#utility.yul\":5326:5944   */\n  dup2\n  eq\n  tag_113\n  jumpi\n    /* \"#utility.yul\":5988:5989   */\n  0x00\n    /* \"#utility.yul\":6005:6011   */\n  dup5\n    /* \"#utility.yul\":6002:6079   */\n  iszero\n  tag_114\n  jumpi\n    /* \"#utility.yul\":6054:6063   */\n  dup3\n    /* \"#utility.yul\":6049:6052   */\n  dup8\n    /* \"#utility.yul\":6045:6064   */\n  add\n    /* \"#utility.yul\":6039:6065   */\n  mload\n    /* \"#utility.yul\":6030:6065   */\n  swap1\n  pop\n    /* \"#utility.yul\":6002:6079   */\ntag_114:\n    /* \"#utility.yul\":6105:6172   */\n  tag_115\n    /* \"#utility.yul\":6165:6171   */\n  dup6\n    /* \"#utility.yul\":6158:6163   */\n  dup3\n    /* \"#utility.yul\":6105:6172   */\n  tag_42\n  jump\t// in\ntag_115:\n    /* \"#utility.yul\":6099:6103   */\n  dup7\n    /* \"#utility.yul\":6092:6173   */\n  sstore\n    /* \"#utility.yul\":5961:6183   */\n  pop\n    /* \"#utility.yul\":5296:6183   */\n  jump(tag_112)\n    /* \"#utility.yul\":5326:5944   */\ntag_113:\n    /* \"#utility.yul\":5378:5382   */\n  0x1f\n    /* \"#utility.yul\":5374:5383   */\n  not\n    /* \"#utility.yul\":5366:5372   */\n  dup5\n    /* \"#utility.yul\":5362:5384   */\n  and\n    /* \"#utility.yul\":5412:5449   */\n  tag_116\n    /* \"#utility.yul\":5444:5448   */\n  dup7\n    /* \"#utility.yul\":5412:5449   */\n  tag_28\n  jump\t// in\ntag_116:\n    /* \"#utility.yul\":5471:5472   */\n  0x00\n    /* \"#utility.yul\":5485:5693   */\ntag_117:\n    /* \"#utility.yul\":5499:5506   */\n  dup3\n    /* \"#utility.yul\":5496:5497   */\n  dup2\n    /* \"#utility.yul\":5493:5507   */\n  lt\n    /* \"#utility.yul\":5485:5693   */\n  iszero\n  tag_119\n  jumpi\n    /* \"#utility.yul\":5578:5587   */\n  dup5\n    /* \"#utility.yul\":5573:5576   */\n  dup10\n    /* \"#utility.yul\":5569:5588   */\n  add\n    /* \"#utility.yul\":5563:5589   */\n  mload\n    /* \"#utility.yul\":5555:5561   */\n  dup3\n    /* \"#utility.yul\":5548:5590   */\n  sstore\n    /* \"#utility.yul\":5629:5630   */\n  0x01\n    /* \"#utility.yul\":5621:5627   */\n  dup3\n    /* \"#utility.yul\":5617:5631   */\n  add\n    /* \"#utility.yul\":5607:5631   */\n  swap2\n  pop\n    /* \"#utility.yul\":5676:5678   */\n  0x20\n    /* \"#utility.yul\":5665:5674   */\n  dup6\n    /* \"#utility.yul\":5661:5679   */\n  add\n    /* \"#utility.yul\":5648:5679   */\n  swap5\n  pop\n    /* \"#utility.yul\":5522:5526   */\n  0x20\n    /* \"#utility.yul\":5519:5520   */\n  dup2\n    /* \"#utility.yul\":5515:5527   */\n  add\n    /* \"#utility.yul\":5510:5527   */\n  swap1\n  pop\n    /* \"#utility.yul\":5485:5693   */\n  jump(tag_117)\ntag_119:\n    /* \"#utility.yul\":5721:5727   */\n  dup7\n    /* \"#utility.yul\":5712:5719   */\n  dup4\n    /* \"#utility.yul\":5709:5728   */\n  lt\n    /* \"#utility.yul\":5706:5885   */\n  iszero\n  tag_120\n  jumpi\n    /* \"#utility.yul\":5779:5788   */\n  dup5\n    /* \"#utility.yul\":5774:5777   */\n  dup10\n    /* \"#utility.yul\":5770:5789   */\n  add\n    /* \"#utility.yul\":5764:5790   */\n  mload\n    /* \"#utility.yul\":5822:5870   */\n  tag_121\n    /* \"#utility.yul\":5864:5868   */\n  0x1f\n    /* \"#utility.yul\":5856:5862   */\n  dup10\n    /* \"#utility.yul\":5852:5869   */\n  and\n    /* \"#utility.yul\":5841:5850   */\n  dup3\n    /* \"#utility.yul\":5822:5870   */\n  tag_41\n  jump\t// in\ntag_121:\n    /* \"#utility.yul\":5814:5820   */\n  dup4\n    /* \"#utility.yul\":5807:5871   */\n  sstore\n    /* \"#utility.yul\":5729:5885   */\n  pop\n    /* \"#utility.yul\":5706:5885   */\ntag_120:\n    /* \"#utility.yul\":5931:5932   */\n  0x01\n    /* \"#utility.yul\":5927:5928   */\n  0x02\n    /* \"#utility.yul\":5919:5925   */\n  dup9\n    /* \"#utility.yul\":5915:5929   */\n  mul\n    /* \"#utility.yul\":5911:5933   */\n  add\n    /* \"#utility.yul\":5905:5909   */\n  dup9\n    /* \"#utility.yul\":5898:5934   */\n  sstore\n    /* \"#utility.yul\":5333:5944   */\n  pop\n  pop\n  pop\n    /* \"#utility.yul\":5296:6183   */\ntag_112:\n  pop\n    /* \"#utility.yul\":4886:6189   */\n  pop\n  pop\n  pop\n    /* \"#utility.yul\":4794:6189   */\n  pop\n  pop\n  jump\t// out\n    /* \"#utility.yul\":6195:6375   */\ntag_43:\n    /* \"#utility.yul\":6243:6320   */\n  0x4e487b7100000000000000000000000000000000000000000000000000000000\n    /* \"#utility.yul\":6240:6241   */\n  0x00\n    /* \"#utility.yul\":6233:6321   */\n  mstore\n    /* \"#utility.yul\":6340:6344   */\n  0x11\n    /* \"#utility.yul\":6337:6338   */\n  0x04\n    /* \"#utility.yul\":6330:6345   */\n  mstore\n    /* \"#utility.yul\":6364:6368   */\n  0x24\n    /* \"#utility.yul\":6361:6362   */\n  0x00\n    /* \"#utility.yul\":6354:6369   */\n  revert\n    /* \"#utility.yul\":6381:6483   */\ntag_44:\n    /* \"#utility.yul\":6423:6431   */\n  0x00\n    /* \"#utility.yul\":6470:6475   */\n  dup2\n    /* \"#utility.yul\":6467:6468   */\n  0x01\n    /* \"#utility.yul\":6463:6476   */\n  shr\n    /* \"#utility.yul\":6442:6476   */\n  swap1\n  pop\n    /* \"#utility.yul\":6381:6483   */\n  swap2\n  swap1\n  pop\n  jump\t// out\n    /* \"#utility.yul\":6489:7337   */\ntag_45:\n    /* \"#utility.yul\":6550:6555   */\n  0x00\n    /* \"#utility.yul\":6557:6561   */\n  dup1\n    /* \"#utility.yul\":6581:6587   */\n  dup3\n    /* \"#utility.yul\":6572:6587   */\n  swap2\n  pop\n    /* \"#utility.yul\":6605:6610   */\n  dup4\n    /* \"#utility.yul\":6596:6610   */\n  swap1\n  pop\n    /* \"#utility.yul\":6619:7331   */\ntag_125:\n    /* \"#utility.yul\":6640:6641   */\n  0x01\n    /* \"#utility.yul\":6630:6638   */\n  dup6\n    /* \"#utility.yul\":6627:6642   */\n  gt\n    /* \"#utility.yul\":6619:7331   */\n  iszero\n  tag_127\n  jumpi\n    /* \"#utility.yul\":6735:6739   */\n  dup1\n    /* \"#utility.yul\":6730:6733   */\n  dup7\n    /* \"#utility.yul\":6726:6740   */\n  div\n    /* \"#utility.yul\":6720:6724   */\n  dup2\n    /* \"#utility.yul\":6717:6741   */\n  gt\n    /* \"#utility.yul\":6714:6764   */\n  iszero\n  tag_128\n  jumpi\n    /* \"#utility.yul\":6744:6762   */\n  tag_129\n  tag_43\n  jump\t// in\ntag_129:\n    /* \"#utility.yul\":6714:6764   */\ntag_128:\n    /* \"#utility.yul\":6794:6795   */\n  0x01\n    /* \"#utility.yul\":6784:6792   */\n  dup6\n    /* \"#utility.yul\":6780:6796   */\n  and\n    /* \"#utility.yul\":6777:7228   */\n  iszero\n  tag_130\n  jumpi\n    /* \"#utility.yul\":7209:7213   */\n  dup1\n    /* \"#utility.yul\":7202:7207   */\n  dup3\n    /* \"#utility.yul\":7198:7214   */\n  mul\n    /* \"#utility.yul\":7189:7214   */\n  swap2\n  pop\n    /* \"#utility.yul\":6777:7228   */\ntag_130:\n    /* \"#utility.yul\":7259:7263   */\n  dup1\n    /* \"#utility.yul\":7253:7257   */\n  dup2\n    /* \"#utility.yul\":7249:7264   */\n  mul\n    /* \"#utility.yul\":7241:7264   */\n  swap1\n  pop\n    /* \"#utility.yul\":7289:7321   */\n  tag_131\n    /* \"#utility.yul\":7312:7320   */\n  dup6\n    /* \"#utility.yul\":7289:7321   */\n  tag_44\n  jump\t// in\ntag_131:\n    /* \"#utility.yul\":7277:7321   */\n  swap5\n  pop\n    /* \"#utility.yul\":6619:7331   */\n  jump(tag_125)\ntag_127:\n    /* \"#utility.yul\":6489:7337   */\n  swap5\n  pop\n  swap5\n  swap3\n  pop\n  pop\n  pop\n  jump\t// out\n    /* \"#utility.yul\":7343:8416   */\ntag_46:\n    /* \"#utility.yul\":7397:7402   */\n  0x00\n    /* \"#utility.yul\":7588:7596   */\n  dup3\n    /* \"#utility.yul\":7578:7618   */\n  tag_133\n  jumpi\n    /* \"#utility.yul\":7609:7610   */\n  0x01\n    /* \"#utility.yul\":7600:7610   */\n  swap1\n  pop\n    /* \"#utility.yul\":7611:7616   */\n  jump(tag_132)\n    /* \"#utility.yul\":7578:7618   */\ntag_133:\n    /* \"#utility.yul\":7637:7641   */\n  dup2\n    /* \"#utility.yul\":7627:7663   */\n  tag_134\n  jumpi\n    /* \"#utility.yul\":7654:7655   */\n  0x00\n    /* \"#utility.yul\":7645:7655   */\n  swap1\n  pop\n    /* \"#utility.yul\":7656:7661   */\n  jump(tag_132)\n    /* \"#utility.yul\":7627:7663   */\ntag_134:\n    /* \"#utility.yul\":7723:7727   */\n  dup2\n    /* \"#utility.yul\":7771:7772   */\n  0x01\n    /* \"#utility.yul\":7766:7793   */\n  dup2\n  eq\n  tag_136\n  jumpi\n    /* \"#utility.yul\":7807:7808   */\n  0x02\n    /* \"#utility.yul\":7802:7993   */\n  dup2\n  eq\n  tag_137\n  jumpi\n    /* \"#utility.yul\":7716:7993   */\n  jump(tag_135)\n    /* \"#utility.yul\":7766:7793   */\ntag_136:\n    /* \"#utility.yul\":7784:7785   */\n  0x01\n    /* \"#utility.yul\":7775:7785   */\n  swap2\n  pop\n    /* \"#utility.yul\":7786:7791   */\n  pop\n  jump(tag_132)\n    /* \"#utility.yul\":7802:7993   */\ntag_137:\n    /* \"#utility.yul\":7847:7850   */\n  0xff\n    /* \"#utility.yul\":7837:7845   */\n  dup5\n    /* \"#utility.yul\":7834:7851   */\n  gt\n    /* \"#utility.yul\":7831:7874   */\n  iszero\n  tag_138\n  jumpi\n    /* \"#utility.yul\":7854:7872   */\n  tag_139\n  tag_43\n  jump\t// in\ntag_139:\n    /* \"#utility.yul\":7831:7874   */\ntag_138:\n    /* \"#utility.yul\":7903:7911   */\n  dup4\n    /* \"#utility.yul\":7900:7901   */\n  0x02\n    /* \"#utility.yul\":7896:7912   */\n  exp\n    /* \"#utility.yul\":7887:7912   */\n  swap2\n  pop\n    /* \"#utility.yul\":7938:7941   */\n  dup5\n    /* \"#utility.yul\":7931:7936   */\n  dup3\n    /* \"#utility.yul\":7928:7942   */\n  gt\n    /* \"#utility.yul\":7925:7965   */\n  iszero\n  tag_140\n  jumpi\n    /* \"#utility.yul\":7945:7963   */\n  tag_141\n  tag_43\n  jump\t// in\ntag_141:\n    /* \"#utility.yul\":7925:7965   */\ntag_140:\n    /* \"#utility.yul\":7978:7983   */\n  pop\n  jump(tag_132)\n    /* \"#utility.yul\":7716:7993   */\ntag_135:\n  pop\n    /* \"#utility.yul\":8102:8104   */\n  0x20\n    /* \"#utility.yul\":8092:8100   */\n  dup4\n    /* \"#utility.yul\":8089:8105   */\n  lt\n    /* \"#utility.yul\":8083:8086   */\n  0x0133\n    /* \"#utility.yul\":8077:8081   */\n  dup4\n    /* \"#utility.yul\":8074:8087   */\n  lt\n    /* \"#utility.yul\":8070:8106   */\n  and\n    /* \"#utility.yul\":8052:8054   */\n  0x4e\n    /* \"#utility.yul\":8042:8050   */\n  dup5\n    /* \"#utility.yul\":8039:8055   */\n  lt\n    /* \"#utility.yul\":8034:8036   */\n  0x0b\n    /* \"#utility.yul\":8028:8032   */\n  dup5\n    /* \"#utility.yul\":8025:8037   */\n  lt\n    /* \"#utility.yul\":8021:8056   */\n  and\n    /* \"#utility.yul\":8005:8116   */\n  or\n    /* \"#utility.yul\":8002:8248   */\n  iszero\n  tag_142\n  jumpi\n    /* \"#utility.yul\":8158:8166   */\n  dup3\n    /* \"#utility.yul\":8152:8156   */\n  dup3\n    /* \"#utility.yul\":8148:8167   */\n  exp\n    /* \"#utility.yul\":8139:8167   */\n  swap1\n  pop\n    /* \"#utility.yul\":8193:8196   */\n  dup4\n    /* \"#utility.yul\":8186:8191   */\n  dup2\n    /* \"#utility.yul\":8183:8197   */\n  gt\n    /* \"#utility.yul\":8180:8220   */\n  iszero\n  tag_143\n  jumpi\n    /* \"#utility.yul\":8200:8218   */\n  tag_144\n  tag_43\n  jump\t// in\ntag_144:\n    /* \"#utility.yul\":8180:8220   */\ntag_143:\n    /* \"#utility.yul\":8233:8238   */\n  jump(tag_132)\n    /* \"#utility.yul\":8002:8248   */\ntag_142:\n    /* \"#utility.yul\":8273:8315   */\n  tag_145\n    /* \"#utility.yul\":8311:8314   */\n  dup5\n    /* \"#utility.yul\":8301:8309   */\n  dup5\n    /* \"#utility.yul\":8295:8299   */\n  dup5\n    /* \"#utility.yul\":8292:8293   */\n  0x01\n    /* \"#utility.yul\":8273:8315   */\n  tag_45\n  jump\t// in\ntag_145:\n    /* \"#utility.yul\":8258:8315   */\n  swap3\n  pop\n  swap1\n  pop\n    /* \"#utility.yul\":8347:8351   */\n  dup2\n    /* \"#utility.yul\":8342:8345   */\n  dup5\n    /* \"#utility.yul\":8338:8352   */\n  div\n    /* \"#utility.yul\":8331:8336   */\n  dup2\n    /* \"#utility.yul\":8328:8353   */\n  gt\n    /* \"#utility.yul\":8325:8376   */\n  iszero\n  tag_146\n  jumpi\n    /* \"#utility.yul\":8356:8374   */\n  tag_147\n  tag_43\n  jump\t// in\ntag_147:\n    /* \"#utility.yul\":8325:8376   */\ntag_146:\n    /* \"#utility.yul\":8405:8409   */\n  dup2\n    /* \"#utility.yul\":8398:8403   */\n  dup2\n    /* \"#utility.yul\":8394:8410   */\n  mul\n    /* \"#utility.yul\":8385:8410   */\n  swap1\n  pop\n    /* \"#utility.yul\":7343:8416   */\ntag_132:\n  swap4\n  swap3\n  pop\n  pop\n  pop\n  jump\t// out\n    /* \"#utility.yul\":8422:8707   */\ntag_11:\n    /* \"#utility.yul\":8482:8487   */\n  0x00\n    /* \"#utility.yul\":8506:8529   */\n  tag_149\n    /* \"#utility.yul\":8524:8528   */\n  dup3\n    /* \"#utility.yul\":8506:8529   */\n  tag_21\n  jump\t// in\ntag_149:\n    /* \"#utility.yul\":8498:8529   */\n  swap2\n  pop\n    /* \"#utility.yul\":8550:8577   */\n  tag_150\n    /* \"#utility.yul\":8568:8576   */\n  dup4\n    /* \"#utility.yul\":8550:8577   */\n  tag_21\n  jump\t// in\ntag_150:\n    /* \"#utility.yul\":8538:8577   */\n  swap3\n  pop\n    /* \"#utility.yul\":8596:8700   */\n  tag_151\n    /* \"#utility.yul\":8633:8699   */\n  0xffffffffffffffffffffffffffffffffffffffffffffffffffffffffffffffff\n    /* \"#utility.yul\":8623:8631   */\n  dup5\n    /* \"#utility.yul\":8617:8621   */\n  dup5\n    /* \"#utility.yul\":8596:8700   */\n  tag_46\n  jump\t// in\ntag_151:\n    /* \"#utility.yul\":8587:8700   */\n  swap1\n  pop\n    /* \"#utility.yul\":8422:8707   */\n  swap3\n  swap2\n  pop\n  pop\n  jump\t// out\n    /* \"#utility.yul\":8713:9123   */\ntag_13:\n    /* \"#utility.yul\":8753:8760   */\n  0x00\n    /* \"#utility.yul\":8776:8796   */\n  tag_153\n    /* \"#utility.yul\":8794:8795   */\n  dup3\n    /* \"#utility.yul\":8776:8796   */\n  tag_21\n  jump\t// in\ntag_153:\n    /* \"#utility.yul\":8771:8796   */\n  swap2\n  pop\n    /* \"#utility.yul\":8810:8830   */\n  tag_154\n    /* \"#utility.yul\":8828:8829   */\n  dup4\n    /* \"#utility.yul\":8810:8830   */\n  tag_21\n  jump\t// in\ntag_154:\n    /* \"#utility.yul\":8805:8830   */\n  swap3\n  pop\n    /* \"#utility.yul\":8865:8866   */\n  dup3\n    /* \"#utility.yul\":8862:8863   */\n  dup3\n    /* \"#utility.yul\":8858:8867   */\n  mul\n    /* \"#utility.yul\":8887:8917   */\n  tag_155\n    /* \"#utility.yul\":8905:8916   */\n  dup2\n    /* \"#utility.yul\":8887:8917   */\n  tag_21\n  jump\t// in\ntag_155:\n    /* \"#utility.yul\":8876:8917   */\n  swap2\n  pop\n    /* \"#utility.yul\":9066:9067   */\n  dup3\n    /* \"#utility.yul\":9057:9064   */\n  dup3\n    /* \"#utility.yul\":9053:9068   */\n  div\n    /* \"#utility.yul\":9050:9051   */\n  dup5\n    /* \"#utility.yul\":9047:9069   */\n  eq\n    /* \"#utility.yul\":9027:9028   */\n  dup4\n    /* \"#utility.yul\":9020:9029   */\n  iszero\n    /* \"#utility.yul\":9000:9083   */\n  or\n    /* \"#utility.yul\":8977:9116   */\n  tag_156\n  jumpi\n    /* \"#utility.yul\":9096:9114   */\n  tag_157\n  tag_43\n  jump\t// in\ntag_157:\n    /* \"#utility.yul\":8977:9116   */\ntag_156:\n    /* \"#utility.yul\":8761:9123   */\n  pop\n    /* \"#utility.yul\":8713:9123   */\n  swap3\n  swap2\n  pop\n  pop\n  jump\t// out\n    /* \"#utility.yul\":9129:9247   */\ntag_47:\n    /* \"#utility.yul\":9216:9240   */\n  tag_159\n    /* \"#utility.yul\":9234:9239   */\n  dup2\n    /* \"#utility.yul\":9216:9240   */\n  tag_21\n  jump\t// in\ntag_159:\n    /* \"#utility.yul\":9211:9214   */\n  dup3\n    /* \"#utility.yul\":9204:9241   */\n  mstore\n    /* \"#utility.yul\":9129:9247   */\n  pop\n  pop\n  jump\t// out\n    /* \"#utility.yul\":9253:9475   */\ntag_15:\n    /* \"#utility.yul\":9346:9350   */\n  0x00\n    /* \"#utility.yul\":9384:9386   */\n  0x20\n    /* \"#utility.yul\":9373:9382   */\n  dup3\n    /* \"#utility.yul\":9369:9387   */\n  add\n    /* \"#utility.yul\":9361:9387   */\n  swap1\n  pop\n    /* \"#utility.yul\":9397:9468   */\n  tag_161\n    /* \"#utility.yul\":9465:9466   */\n  0x00\n    /* \"#utility.yul\":9454:9463   */\n  dup4\n    /* \"#utility.yul\":9450:9467   */\n  add\n    /* \"#utility.yul\":9441:9447   */\n  dup5\n    /* \"#utility.yul\":9397:9468   */\n  tag_47\n  jump\t// in\ntag_161:\n    /* \"#utility.yul\":9253:9475   */\n  swap3\n  swap2\n  pop\n  pop\n  jump\t// out\n    /* \"contracts/BSideToken.sol\":81:2016  contract BSideToken is ERC20 {... */\ntag_17:\n  mload(0x80)\n  codecopy(0x00, dataOffset(sub_0), dataSize(sub_0))\n  0x00\n  assignImmutable(\"0x790f8a845e36d8b142306322ce55c864d89e0f8e82809ac312279445c94debe5\")\n  return(0x00, dataSize(sub_0))\nstop\n\nsub_0: assembly {\n        /* \"contracts/BSideToken.sol\":81:2016  contract BSideToken is ERC20 {... */\n      mstore(0x40, 0x80)\n      jumpi(tag_1, lt(calldatasize, 0x04))\n      shr(0xe0, calldataload(0x00))\n      dup1\n      0x40c10f19\n      gt\n      tag_15\n      jumpi\n      dup1\n      0x40c10f19\n      eq\n      tag_9\n      jumpi\n      dup1\n      0x42966c68\n      eq\n      tag_10\n      jumpi\n      dup1\n      0x70a08231\n      eq\n      tag_11\n      jumpi\n      dup1\n      0x95d89b41\n      eq\n      tag_12\n      jumpi\n      dup1\n      0xa9059cbb\n      eq\n      tag_13\n      jumpi\n      dup1\n      0xdd62ed3e\n      eq\n      tag_14\n      jumpi\n      jump(tag_2)\n    tag_15:\n      dup1\n      0x06fdde03\n      eq\n      tag_3\n      jumpi\n      dup1\n      0x095ea7b3\n      eq\n      tag_4\n      jumpi\n      dup1\n      0x18160ddd\n      eq\n      tag_5\n      jumpi\n      dup1\n      0x23b872dd\n      eq\n      tag_6\n      jumpi\n      dup1\n      0x313ce567\n      eq\n      tag_7\n      jumpi\n      dup1\n      0x3ccfd60b\n      eq\n      tag_8\n      jumpi\n      jump(tag_2)\n    tag_1:\n      jumpi(tag_2, calldatasize)\n      stop\n    tag_2:\n      0x00\n      dup1\n      revert\n        /* \"contracts/ERC20.sol\":861:879  string public name */\n    tag_3:\n      callvalue\n      dup1\n      iszero\n      tag_18\n      jumpi\n      0x00\n      dup1\n      revert\n    tag_18:\n      pop\n      tag_19\n      tag_20\n      jump\t// in\n    tag_19:\n      mload(0x40)\n      tag_21\n      swap2\n      swap1\n      tag_22\n      jump\t// in\n    tag_21:\n      mload(0x40)\n      dup1\n      swap2\n      sub\n      swap1\n      return\n        /* \"contracts/ERC20.sol\":3491:3675  function approve(address spender, uint256 amount)... */\n    tag_4:\n      callvalue\n      dup1\n      iszero\n      tag_23\n      jumpi\n      0x00\n      dup1\n      revert\n    tag_23:\n      pop\n      tag_24\n      0x04\n      dup1\n      calldatasize\n      sub\n      dup2\n      add\n      swap1\n      tag_25\n      swap2\n      swap1\n      tag_26\n      jump\t// in\n    tag_25:\n      tag_27\n      jump\t// in\n    tag_24:\n      mload(0x40)\n      tag_28\n      swap2\n      swap1\n      tag_29\n      jump\t// in\n    tag_28:\n      mload(0x40)\n      dup1\n      swap2\n      sub\n      swap1\n      return\n        /* \"contracts/ERC20.sol\":2758:2856  function totalSupply() public view override returns (uint256) {... */\n    tag_5:\n      callvalue\n      dup1\n      iszero\n      tag_30\n      jumpi\n      0x00\n      dup1\n      revert\n    tag_30:\n      pop\n      tag_31\n      tag_32\n      jump\t// in\n    tag_31:\n      mload(0x40)\n      tag_33\n      swap2\n      swap1\n      tag_34\n      jump\t// in\n    tag_33:\n      mload(0x40)\n      dup1\n      swap2\n      sub\n      swap1\n      return\n        /* \"contracts/ERC20.sol\":3681:3969  function transferFrom(... */\n    tag_6:\n      callvalue\n      dup1\n      iszero\n      tag_35\n      jumpi\n      0x00\n      dup1\n      revert\n    tag_35:\n      pop\n      tag_36\n      0x04\n      dup1\n      calldatasize\n      sub\n      dup2\n      add\n      swap1\n      tag_37\n      swap2\n      swap1\n      tag_38\n      jump\t// in\n    tag_37:\n      tag_39\n      jump\t// in\n    tag_36:\n      mload(0x40)\n      tag_40\n      swap2\n      swap1\n      tag_29\n      jump\t// in\n    tag_40:\n      mload(0x40)\n      dup1\n      swap2\n      sub\n      swap1\n      return\n        /* \"contracts/ERC20.sol\":911:932  uint8 public decimals */\n    tag_7:\n      callvalue\n      dup1\n      iszero\n      tag_41\n      jumpi\n      0x00\n      dup1\n      revert\n    tag_41:\n      pop\n      tag_42\n      tag_43\n      jump\t// in\n    tag_42:\n      mload(0x40)\n      tag_44\n      swap2\n      swap1\n      tag_45\n      jump\t// in\n    tag_44:\n      mload(0x40)\n      dup1\n      swap2\n      sub\n      swap1\n      return\n        /* \"contracts/ERC20.sol\":4838:4993  function withdraw() external onlyOwner {... */\n    tag_8:\n      callvalue\n      dup1\n      iszero\n      tag_46\n      jumpi\n      0x00\n      dup1\n      revert\n    tag_46:\n      pop\n      tag_47\n      tag_48\n      jump\t// in\n    tag_47:\n      stop\n        /* \"contracts/BSideToken.sol\":1748:2014  function mint(address to, uint256 amount) ... */\n    tag_9:\n      callvalue\n      dup1\n      iszero\n      tag_49\n      jumpi\n      0x00\n      dup1\n      revert\n    tag_49:\n      pop\n      tag_50\n      0x04\n      dup1\n      calldatasize\n      sub\n      dup2\n      add\n      swap1\n      tag_51\n      swap2\n      swap1\n      tag_26\n      jump\t// in\n    tag_51:\n      tag_52\n      jump\t// in\n    tag_50:\n      stop\n        /* \"contracts/BSideToken.sol\":1432:1742  function burn(uint256 amount)... */\n    tag_10:\n      callvalue\n      dup1\n      iszero\n      tag_53\n      jumpi\n      0x00\n      dup1\n      revert\n    tag_53:\n      pop\n      tag_54\n      0x04\n      dup1\n      calldatasize\n      sub\n      dup2\n      add\n      swap1\n      tag_55\n      swap2\n      swap1\n      tag_56\n      jump\t// in\n    tag_55:\n      tag_57\n      jump\t// in\n    tag_54:\n      stop\n        /* \"contracts/ERC20.sol\":2862:3046  function balanceOf(address account)... */\n    tag_11:\n      callvalue\n      dup1\n      iszero\n      tag_58\n      jumpi\n      0x00\n      dup1\n      revert\n    tag_58:\n      pop\n      tag_59\n      0x04\n      dup1\n      calldatasize\n      sub\n      dup2\n      add\n      swap1\n      tag_60\n      swap2\n      swap1\n      tag_61\n      jump\t// in\n    tag_60:\n      tag_62\n      jump\t// in\n    tag_59:\n      mload(0x40)\n      tag_63\n      swap2\n      swap1\n      tag_34\n      jump\t// in\n    tag_63:\n      mload(0x40)\n      dup1\n      swap2\n      sub\n      swap1\n      return\n        /* \"contracts/ERC20.sol\":885:905  string public symbol */\n    tag_12:\n      callvalue\n      dup1\n      iszero\n      tag_64\n      jumpi\n      0x00\n      dup1\n      revert\n    tag_64:\n      pop\n      tag_65\n      tag_66\n      jump\t// in\n    tag_65:\n      mload(0x40)\n      tag_67\n      swap2\n      swap1\n      tag_22\n      jump\t// in\n    tag_67:\n      mload(0x40)\n      dup1\n      swap2\n      sub\n      swap1\n      return\n        /* \"contracts/ERC20.sol\":3052:3242  function transfer(address recipient, uint256 amount)... */\n    tag_13:\n      callvalue\n      dup1\n      iszero\n      tag_68\n      jumpi\n      0x00\n      dup1\n      revert\n    tag_68:\n      pop\n      tag_69\n      0x04\n      dup1\n      calldatasize\n      sub\n      dup2\n      add\n      swap1\n      tag_70\n      swap2\n      swap1\n      tag_26\n      jump\t// in\n    tag_70:\n      tag_71\n      jump\t// in\n    tag_69:\n      mload(0x40)\n      tag_72\n      swap2\n      swap1\n      tag_29\n      jump\t// in\n    tag_72:\n      mload(0x40)\n      dup1\n      swap2\n      sub\n      swap1\n      return\n        /* \"contracts/ERC20.sol\":3248:3485  function allowance(address owner, address spender)... */\n    tag_14:\n      callvalue\n      dup1\n      iszero\n      tag_73\n      jumpi\n      0x00\n      dup1\n      revert\n    tag_73:\n      pop\n      tag_74\n      0x04\n      dup1\n      calldatasize\n      sub\n      dup2\n      add\n      swap1\n      tag_75\n      swap2\n      swap1\n      tag_76\n      jump\t// in\n    tag_75:\n      tag_77\n      jump\t// in\n    tag_74:\n      mload(0x40)\n      tag_78\n      swap2\n      swap1\n      tag_34\n      jump\t// in\n    tag_78:\n      mload(0x40)\n      dup1\n      swap2\n      sub\n      swap1\n      return\n        /* \"contracts/ERC20.sol\":861:879  string public name */\n    tag_20:\n      0x00\n      dup1\n      sload\n      tag_79\n      swap1\n      tag_80\n      jump\t// in\n    tag_79:\n      dup1\n      0x1f\n      add\n      0x20\n      dup1\n      swap2\n      div\n      mul\n      0x20\n      add\n      mload(0x40)\n      swap1\n      dup2\n      add\n      0x40\n      mstore\n      dup1\n      swap3\n      swap2\n      swap1\n      dup2\n      dup2\n      mstore\n      0x20\n      add\n      dup3\n      dup1\n      sload\n      tag_81\n      swap1\n      tag_80\n      jump\t// in\n    tag_81:\n      dup1\n      iszero\n      tag_82\n      jumpi\n      dup1\n      0x1f\n      lt\n      tag_83\n      jumpi\n      0x0100\n      dup1\n      dup4\n      sload\n      div\n      mul\n      dup4\n      mstore\n      swap2\n      0x20\n      add\n      swap2\n      jump(tag_82)\n    tag_83:\n      dup3\n      add\n      swap2\n      swap1\n      0x00\n      mstore\n      keccak256(0x00, 0x20)\n      swap1\n    tag_84:\n      dup2\n      sload\n      dup2\n      mstore\n      swap1\n      0x01\n      add\n      swap1\n      0x20\n      add\n      dup1\n      dup4\n      gt\n      tag_84\n      jumpi\n      dup3\n      swap1\n      sub\n      0x1f\n      and\n      dup3\n      add\n      swap2\n    tag_82:\n      pop\n      pop\n      pop\n      pop\n      pop\n      dup2\n      jump\t// out\n        /* \"contracts/ERC20.sol\":3491:3675  function approve(address spender, uint256 amount)... */\n    tag_27:\n        /* \"contracts/ERC20.sol\":3590:3594  bool */\n      0x00\n        /* \"contracts/ERC20.sol\":3610:3647  _approve(msg.sender, spender, amount) */\n      tag_86\n        /* \"contracts/ERC20.sol\":3619:3629  msg.sender */\n      caller\n        /* \"contracts/ERC20.sol\":3631:3638  spender */\n      dup5\n        /* \"contracts/ERC20.sol\":3640:3646  amount */\n      dup5\n        /* \"contracts/ERC20.sol\":3610:3618  _approve */\n      tag_87\n        /* \"contracts/ERC20.sol\":3610:3647  _approve(msg.sender, spender, amount) */\n      jump\t// in\n    tag_86:\n        /* \"contracts/ERC20.sol\":3664:3668  true */\n      0x01\n        /* \"contracts/ERC20.sol\":3657:3668  return true */\n      swap1\n      pop\n        /* \"contracts/ERC20.sol\":3491:3675  function approve(address spender, uint256 amount)... */\n      swap3\n      swap2\n      pop\n      pop\n      jump\t// out\n        /* \"contracts/ERC20.sol\":2758:2856  function totalSupply() public view override returns (uint256) {... */\n    tag_32:\n        /* \"contracts/ERC20.sol\":2811:2818  uint256 */\n      0x00\n        /* \"contracts/ERC20.sol\":2837:2849  _totalSupply */\n      sload(0x03)\n        /* \"contracts/ERC20.sol\":2830:2849  return _totalSupply */\n      swap1\n      pop\n        /* \"contracts/ERC20.sol\":2758:2856  function totalSupply() public view override returns (uint256) {... */\n      swap1\n      jump\t// out\n        /* \"contracts/ERC20.sol\":3681:3969  function transferFrom(... */\n    tag_39:\n        /* \"contracts/ERC20.sol\":3809:3813  bool */\n      0x00\n        /* \"contracts/ERC20.sol\":3825:3861  _transfer(sender, recipient, amount) */\n      tag_90\n        /* \"contracts/ERC20.sol\":3835:3841  sender */\n      dup5\n        /* \"contracts/ERC20.sol\":3843:3852  recipient */\n      dup5\n        /* \"contracts/ERC20.sol\":3854:3860  amount */\n      dup5\n        /* \"contracts/ERC20.sol\":3825:3834  _transfer */\n      tag_91\n        /* \"contracts/ERC20.sol\":3825:3861  _transfer(sender, recipient, amount) */\n      jump\t// in\n    tag_90:\n        /* \"contracts/ERC20.sol\":3871:3941  _approve(sender, msg.sender, _allowances[sender][msg.sender] - amount) */\n      tag_92\n        /* \"contracts/ERC20.sol\":3880:3886  sender */\n      dup5\n        /* \"contracts/ERC20.sol\":3888:3898  msg.sender */\n      caller\n        /* \"contracts/ERC20.sol\":3934:3940  amount */\n      dup5\n        /* \"contracts/ERC20.sol\":3900:3911  _allowances */\n      0x06\n        /* \"contracts/ERC20.sol\":3900:3919  _allowances[sender] */\n      0x00\n        /* \"contracts/ERC20.sol\":3912:3918  sender */\n      dup10\n        /* \"contracts/ERC20.sol\":3900:3919  _allowances[sender] */\n      0xffffffffffffffffffffffffffffffffffffffff\n      and\n      0xffffffffffffffffffffffffffffffffffffffff\n      and\n      dup2\n      mstore\n      0x20\n      add\n      swap1\n      dup2\n      mstore\n      0x20\n      add\n      0x00\n      keccak256\n        /* \"contracts/ERC20.sol\":3900:3931  _allowances[sender][msg.sender] */\n      0x00\n        /* \"contracts/ERC20.sol\":3920:3930  msg.sender */\n      caller\n        /* \"contracts/ERC20.sol\":3900:3931  _allowances[sender][msg.sender] */\n      0xffffffffffffffffffffffffffffffffffffffff\n      and\n      0xffffffffffffffffffffffffffffffffffffffff\n      and\n      dup2\n      mstore\n      0x20\n      add\n      swap1\n      dup2\n      mstore\n      0x20\n      add\n      0x00\n      keccak256\n      sload\n        /* \"contracts/ERC20.sol\":3900:3940  _allowances[sender][msg.sender] - amount */\n      tag_93\n      swap2\n      swap1\n      tag_94\n      jump\t// in\n    tag_93:\n        /* \"contracts/ERC20.sol\":3871:3879  _approve */\n      tag_87\n        /* \"contracts/ERC20.sol\":3871:3941  _approve(sender, msg.sender, _allowances[sender][msg.sender] - amount) */\n      jump\t// in\n    tag_92:\n        /* \"contracts/ERC20.sol\":3958:3962  true */\n      0x01\n        /* \"contracts/ERC20.sol\":3951:3962  return true */\n      swap1\n      pop\n        /* \"contracts/ERC20.sol\":3681:3969  function transferFrom(... */\n      swap4\n      swap3\n      pop\n      pop\n      pop\n      jump\t// out\n        /* \"contracts/ERC20.sol\":911:932  uint8 public decimals */\n    tag_43:\n      0x02\n      0x00\n      swap1\n      sload\n      swap1\n      0x0100\n      exp\n      swap1\n      div\n      0xff\n      and\n      dup2\n      jump\t// out\n        /* \"contracts/ERC20.sol\":4838:4993  function withdraw() external onlyOwner {... */\n    tag_48:\n        /* \"contracts/ERC20.sol\":1218:1224  _owner */\n      immutable(\"0x790f8a845e36d8b142306322ce55c864d89e0f8e82809ac312279445c94debe5\")\n        /* \"contracts/ERC20.sol\":1204:1224  msg.sender == _owner */\n      0xffffffffffffffffffffffffffffffffffffffff\n      and\n        /* \"contracts/ERC20.sol\":1204:1214  msg.sender */\n      caller\n        /* \"contracts/ERC20.sol\":1204:1224  msg.sender == _owner */\n      0xffffffffffffffffffffffffffffffffffffffff\n      and\n      eq\n        /* \"contracts/ERC20.sol\":1196:1263  require(msg.sender == _owner, \"Only owner can access this action.\") */\n      tag_96\n      jumpi\n      mload(0x40)\n      0x08c379a000000000000000000000000000000000000000000000000000000000\n      dup2\n      mstore\n      0x04\n      add\n      tag_97\n      swap1\n      tag_98\n      jump\t// in\n    tag_97:\n      mload(0x40)\n      dup1\n      swap2\n      sub\n      swap1\n      revert\n    tag_96:\n        /* \"contracts/ERC20.sol\":4947:4953  _owner */\n      immutable(\"0x790f8a845e36d8b142306322ce55c864d89e0f8e82809ac312279445c94debe5\")\n        /* \"contracts/ERC20.sol\":4939:4963  payable(_owner).transfer */\n      0xffffffffffffffffffffffffffffffffffffffff\n      and\n        /* \"contracts/ERC20.sol\":4939:4986  payable(_owner).transfer(address(this).balance) */\n      0x08fc\n        /* \"contracts/ERC20.sol\":4964:4985  address(this).balance */\n      selfbalance\n        /* \"contracts/ERC20.sol\":4939:4986  payable(_owner).transfer(address(this).balance) */\n      swap1\n      dup2\n      iszero\n      mul\n      swap1\n      mload(0x40)\n      0x00\n      mload(0x40)\n      dup1\n      dup4\n      sub\n      dup2\n      dup6\n      dup9\n      dup9\n      call\n      swap4\n      pop\n      pop\n      pop\n      pop\n      iszero\n      dup1\n      iszero\n      tag_101\n      jumpi\n      returndatasize\n      0x00\n      dup1\n      returndatacopy\n      revert(0x00, returndatasize)\n    tag_101:\n      pop\n        /* \"contracts/ERC20.sol\":4838:4993  function withdraw() external onlyOwner {... */\n      jump\t// out\n        /* \"contracts/BSideToken.sol\":1748:2014  function mint(address to, uint256 amount) ... */\n    tag_52:\n        /* \"contracts/ERC20.sol\":1218:1224  _owner */\n      immutable(\"0x790f8a845e36d8b142306322ce55c864d89e0f8e82809ac312279445c94debe5\")\n        /* \"contracts/ERC20.sol\":1204:1224  msg.sender == _owner */\n      0xffffffffffffffffffffffffffffffffffffffff\n      and\n        /* \"contracts/ERC20.sol\":1204:1214  msg.sender */\n      caller\n        /* \"contracts/ERC20.sol\":1204:1224  msg.sender == _owner */\n      0xffffffffffffffffffffffffffffffffffffffff\n      and\n      eq\n        /* \"contracts/ERC20.sol\":1196:1263  require(msg.sender == _owner, \"Only owner can access this action.\") */\n      tag_103\n      jumpi\n      mload(0x40)\n      0x08c379a000000000000000000000000000000000000000000000000000000000\n      dup2\n      mstore\n      0x04\n      add\n      tag_104\n      swap1\n      tag_98\n      jump\t// in\n    tag_104:\n      mload(0x40)\n      dup1\n      swap2\n      sub\n      swap1\n      revert\n    tag_103:\n        /* \"contracts/BSideToken.sol\":1850:1856  amount */\n      dup1\n        /* \"contracts/BSideToken.sol\":253:263  _maxSupply */\n      sload(0x07)\n        /* \"contracts/BSideToken.sol\":243:249  amount */\n      dup2\n        /* \"contracts/BSideToken.sol\":228:240  _totalSupply */\n      sload(0x03)\n        /* \"contracts/BSideToken.sol\":228:249  _totalSupply + amount */\n      tag_106\n      swap2\n      swap1\n      tag_107\n      jump\t// in\n    tag_106:\n        /* \"contracts/BSideToken.sol\":228:263  _totalSupply + amount <= _maxSupply */\n      gt\n      iszero\n        /* \"contracts/BSideToken.sol\":220:291  require(_totalSupply + amount <= _maxSupply, \"Insufficient max supply\") */\n      tag_108\n      jumpi\n      mload(0x40)\n      0x08c379a000000000000000000000000000000000000000000000000000000000\n      dup2\n      mstore\n      0x04\n      add\n      tag_109\n      swap1\n      tag_110\n      jump\t// in\n    tag_109:\n      mload(0x40)\n      dup1\n      swap2\n      sub\n      swap1\n      revert\n    tag_108:\n        /* \"contracts/BSideToken.sol\":1877:1879  to */\n      dup3\n        /* \"contracts/BSideToken.sol\":1881:1887  amount */\n      dup3\n        /* \"contracts/BSideToken.sol\":373:387  uint256 _total */\n      0x00\n        /* \"contracts/BSideToken.sol\":390:402  _totalSupply */\n      sload(0x03)\n        /* \"contracts/BSideToken.sol\":373:402  uint256 _total = _totalSupply */\n      swap1\n      pop\n        /* \"contracts/BSideToken.sol\":412:425  uint256 _user */\n      0x00\n        /* \"contracts/BSideToken.sol\":428:437  _balances */\n      0x05\n        /* \"contracts/BSideToken.sol\":428:441  _balances[to] */\n      0x00\n        /* \"contracts/BSideToken.sol\":438:440  to */\n      dup6\n        /* \"contracts/BSideToken.sol\":428:441  _balances[to] */\n      0xffffffffffffffffffffffffffffffffffffffff\n      and\n      0xffffffffffffffffffffffffffffffffffffffff\n      and\n      dup2\n      mstore\n      0x20\n      add\n      swap1\n      dup2\n      mstore\n      0x20\n      add\n      0x00\n      keccak256\n      sload\n        /* \"contracts/BSideToken.sol\":412:441  uint256 _user = _balances[to] */\n      swap1\n      pop\n        /* \"contracts/ERC20.sol\":1452:1459  _locked */\n      0x04\n      0x00\n      swap1\n      sload\n      swap1\n      0x0100\n      exp\n      swap1\n      div\n      0xff\n      and\n        /* \"contracts/ERC20.sol\":1451:1459  !_locked */\n      iszero\n        /* \"contracts/ERC20.sol\":1443:1495  require(!_locked, \"Rentrant calls are not allowed.\") */\n      tag_113\n      jumpi\n      mload(0x40)\n      0x08c379a000000000000000000000000000000000000000000000000000000000\n      dup2\n      mstore\n      0x04\n      add\n      tag_114\n      swap1\n      tag_115\n      jump\t// in\n    tag_114:\n      mload(0x40)\n      dup1\n      swap2\n      sub\n      swap1\n      revert\n    tag_113:\n        /* \"contracts/ERC20.sol\":1515:1519  true */\n      0x01\n        /* \"contracts/ERC20.sol\":1505:1512  _locked */\n      0x04\n      0x00\n        /* \"contracts/ERC20.sol\":1505:1519  _locked = true */\n      0x0100\n      exp\n      dup2\n      sload\n      dup2\n      0xff\n      mul\n      not\n      and\n      swap1\n      dup4\n      iszero\n      iszero\n      mul\n      or\n      swap1\n      sstore\n      pop\n        /* \"contracts/BSideToken.sol\":1937:1943  amount */\n      dup6\n        /* \"contracts/BSideToken.sol\":1921:1933  _totalSupply */\n      0x03\n      0x00\n        /* \"contracts/BSideToken.sol\":1921:1943  _totalSupply += amount */\n      dup3\n      dup3\n      sload\n      tag_117\n      swap2\n      swap1\n      tag_107\n      jump\t// in\n    tag_117:\n      swap3\n      pop\n      pop\n      dup2\n      swap1\n      sstore\n      pop\n        /* \"contracts/BSideToken.sol\":1970:1976  amount */\n      dup6\n        /* \"contracts/BSideToken.sol\":1953:1962  _balances */\n      0x05\n        /* \"contracts/BSideToken.sol\":1953:1966  _balances[to] */\n      0x00\n        /* \"contracts/BSideToken.sol\":1963:1965  to */\n      dup10\n        /* \"contracts/BSideToken.sol\":1953:1966  _balances[to] */\n      0xffffffffffffffffffffffffffffffffffffffff\n      and\n      0xffffffffffffffffffffffffffffffffffffffff\n      and\n      dup2\n      mstore\n      0x20\n      add\n      swap1\n      dup2\n      mstore\n      0x20\n      add\n      0x00\n      keccak256\n      0x00\n        /* \"contracts/BSideToken.sol\":1953:1976  _balances[to] += amount */\n      dup3\n      dup3\n      sload\n      tag_118\n      swap2\n      swap1\n      tag_107\n      jump\t// in\n    tag_118:\n      swap3\n      pop\n      pop\n      dup2\n      swap1\n      sstore\n      pop\n        /* \"contracts/BSideToken.sol\":1996:1998  to */\n      dup7\n        /* \"contracts/BSideToken.sol\":1991:2007  Mint(to, amount) */\n      0xffffffffffffffffffffffffffffffffffffffff\n      and\n      0x0f6798a560793a54c3bcfe86a93cde1e73087d944c0ea20544137d4121396885\n        /* \"contracts/BSideToken.sol\":2000:2006  amount */\n      dup8\n        /* \"contracts/BSideToken.sol\":1991:2007  Mint(to, amount) */\n      mload(0x40)\n      tag_119\n      swap2\n      swap1\n      tag_34\n      jump\t// in\n    tag_119:\n      mload(0x40)\n      dup1\n      swap2\n      sub\n      swap1\n      log2\n        /* \"contracts/ERC20.sol\":1550:1555  false */\n      0x00\n        /* \"contracts/ERC20.sol\":1540:1547  _locked */\n      0x04\n      0x00\n        /* \"contracts/ERC20.sol\":1540:1555  _locked = false */\n      0x0100\n      exp\n      dup2\n      sload\n      dup2\n      0xff\n      mul\n      not\n      and\n      swap1\n      dup4\n      iszero\n      iszero\n      mul\n      or\n      swap1\n      sstore\n      pop\n        /* \"contracts/BSideToken.sol\":489:501  _totalSupply */\n      sload(0x03)\n        /* \"contracts/BSideToken.sol\":479:485  amount */\n      dup4\n        /* \"contracts/BSideToken.sol\":470:476  _total */\n      dup4\n        /* \"contracts/BSideToken.sol\":470:485  _total + amount */\n      tag_120\n      swap2\n      swap1\n      tag_107\n      jump\t// in\n    tag_120:\n        /* \"contracts/BSideToken.sol\":470:501  _total + amount == _totalSupply */\n      eq\n        /* \"contracts/BSideToken.sol\":462:517  require(_total + amount == _totalSupply, \"Mint failed\") */\n      tag_121\n      jumpi\n      mload(0x40)\n      0x08c379a000000000000000000000000000000000000000000000000000000000\n      dup2\n      mstore\n      0x04\n      add\n      tag_122\n      swap1\n      tag_123\n      jump\t// in\n    tag_122:\n      mload(0x40)\n      dup1\n      swap2\n      sub\n      swap1\n      revert\n    tag_121:\n        /* \"contracts/BSideToken.sol\":553:562  _balances */\n      0x05\n        /* \"contracts/BSideToken.sol\":553:566  _balances[to] */\n      0x00\n        /* \"contracts/BSideToken.sol\":563:565  to */\n      dup6\n        /* \"contracts/BSideToken.sol\":553:566  _balances[to] */\n      0xffffffffffffffffffffffffffffffffffffffff\n      and\n      0xffffffffffffffffffffffffffffffffffffffff\n      and\n      dup2\n      mstore\n      0x20\n      add\n      swap1\n      dup2\n      mstore\n      0x20\n      add\n      0x00\n      keccak256\n      sload\n        /* \"contracts/BSideToken.sol\":543:549  amount */\n      dup4\n        /* \"contracts/BSideToken.sol\":535:540  _user */\n      dup3\n        /* \"contracts/BSideToken.sol\":535:549  _user + amount */\n      tag_124\n      swap2\n      swap1\n      tag_107\n      jump\t// in\n    tag_124:\n        /* \"contracts/BSideToken.sol\":535:566  _user + amount == _balances[to] */\n      eq\n        /* \"contracts/BSideToken.sol\":527:582  require(_user + amount == _balances[to], \"Mint failed\") */\n      tag_125\n      jumpi\n      mload(0x40)\n      0x08c379a000000000000000000000000000000000000000000000000000000000\n      dup2\n      mstore\n      0x04\n      add\n      tag_126\n      swap1\n      tag_123\n      jump\t// in\n    tag_126:\n      mload(0x40)\n      dup1\n      swap2\n      sub\n      swap1\n      revert\n    tag_125:\n        /* \"contracts/BSideToken.sol\":363:589  {... */\n      pop\n      pop\n        /* \"contracts/BSideToken.sol\":301:302  _ */\n      pop\n      pop\n        /* \"contracts/ERC20.sol\":1273:1274  _ */\n      pop\n        /* \"contracts/BSideToken.sol\":1748:2014  function mint(address to, uint256 amount) ... */\n      pop\n      pop\n      jump\t// out\n        /* \"contracts/BSideToken.sol\":1432:1742  function burn(uint256 amount)... */\n    tag_57:\n        /* \"contracts/BSideToken.sol\":1501:1511  msg.sender */\n      caller\n        /* \"contracts/ERC20.sol\":1352:1353  0 */\n      0x00\n        /* \"contracts/ERC20.sol\":1339:1354  a != address(0) */\n      0xffffffffffffffffffffffffffffffffffffffff\n      and\n        /* \"contracts/ERC20.sol\":1339:1340  a */\n      dup2\n        /* \"contracts/ERC20.sol\":1339:1354  a != address(0) */\n      0xffffffffffffffffffffffffffffffffffffffff\n      and\n      sub\n        /* \"contracts/ERC20.sol\":1331:1388  require(a != address(0), \"Must specify a valid address.\") */\n      tag_128\n      jumpi\n      mload(0x40)\n      0x08c379a000000000000000000000000000000000000000000000000000000000\n      dup2\n      mstore\n      0x04\n      add\n      tag_129\n      swap1\n      tag_130\n      jump\t// in\n    tag_129:\n      mload(0x40)\n      dup1\n      swap2\n      sub\n      swap1\n      revert\n    tag_128:\n        /* \"contracts/BSideToken.sol\":1536:1542  amount */\n      dup2\n        /* \"contracts/BSideToken.sol\":663:675  _totalSupply */\n      sload(0x03)\n        /* \"contracts/BSideToken.sol\":653:659  amount */\n      dup2\n        /* \"contracts/BSideToken.sol\":653:675  amount <= _totalSupply */\n      gt\n      iszero\n        /* \"contracts/BSideToken.sol\":645:705  require(amount <= _totalSupply, \"Insufficient total supply\") */\n      tag_132\n      jumpi\n      mload(0x40)\n      0x08c379a000000000000000000000000000000000000000000000000000000000\n      dup2\n      mstore\n      0x04\n      add\n      tag_133\n      swap1\n      tag_134\n      jump\t// in\n    tag_133:\n      mload(0x40)\n      dup1\n      swap2\n      sub\n      swap1\n      revert\n    tag_132:\n        /* \"contracts/BSideToken.sol\":733:742  _balances */\n      0x05\n        /* \"contracts/BSideToken.sol\":733:754  _balances[msg.sender] */\n      0x00\n        /* \"contracts/BSideToken.sol\":743:753  msg.sender */\n      caller\n        /* \"contracts/BSideToken.sol\":733:754  _balances[msg.sender] */\n      0xffffffffffffffffffffffffffffffffffffffff\n      and\n      0xffffffffffffffffffffffffffffffffffffffff\n      and\n      dup2\n      mstore\n      0x20\n      add\n      swap1\n      dup2\n      mstore\n      0x20\n      add\n      0x00\n      keccak256\n      sload\n        /* \"contracts/BSideToken.sol\":723:729  amount */\n      dup2\n        /* \"contracts/BSideToken.sol\":723:754  amount <= _balances[msg.sender] */\n      gt\n      iszero\n        /* \"contracts/BSideToken.sol\":715:779  require(amount <= _balances[msg.sender], \"Insufficient balance\") */\n      tag_135\n      jumpi\n      mload(0x40)\n      0x08c379a000000000000000000000000000000000000000000000000000000000\n      dup2\n      mstore\n      0x04\n      add\n      tag_136\n      swap1\n      tag_137\n      jump\t// in\n    tag_136:\n      mload(0x40)\n      dup1\n      swap2\n      sub\n      swap1\n      revert\n    tag_135:\n        /* \"contracts/BSideToken.sol\":1563:1569  amount */\n      dup3\n        /* \"contracts/BSideToken.sol\":849:861  uint256 _max */\n      0x00\n        /* \"contracts/BSideToken.sol\":864:874  _maxSupply */\n      sload(0x07)\n        /* \"contracts/BSideToken.sol\":849:874  uint256 _max = _maxSupply */\n      swap1\n      pop\n        /* \"contracts/BSideToken.sol\":884:898  uint256 _total */\n      0x00\n        /* \"contracts/BSideToken.sol\":901:913  _totalSupply */\n      sload(0x03)\n        /* \"contracts/BSideToken.sol\":884:913  uint256 _total = _totalSupply */\n      swap1\n      pop\n        /* \"contracts/BSideToken.sol\":923:936  uint256 _user */\n      0x00\n        /* \"contracts/BSideToken.sol\":939:948  _balances */\n      0x05\n        /* \"contracts/BSideToken.sol\":939:960  _balances[msg.sender] */\n      0x00\n        /* \"contracts/BSideToken.sol\":949:959  msg.sender */\n      caller\n        /* \"contracts/BSideToken.sol\":939:960  _balances[msg.sender] */\n      0xffffffffffffffffffffffffffffffffffffffff\n      and\n      0xffffffffffffffffffffffffffffffffffffffff\n      and\n      dup2\n      mstore\n      0x20\n      add\n      swap1\n      dup2\n      mstore\n      0x20\n      add\n      0x00\n      keccak256\n      sload\n        /* \"contracts/BSideToken.sol\":923:960  uint256 _user = _balances[msg.sender] */\n      swap1\n      pop\n        /* \"contracts/ERC20.sol\":1452:1459  _locked */\n      0x04\n      0x00\n      swap1\n      sload\n      swap1\n      0x0100\n      exp\n      swap1\n      div\n      0xff\n      and\n        /* \"contracts/ERC20.sol\":1451:1459  !_locked */\n      iszero\n        /* \"contracts/ERC20.sol\":1443:1495  require(!_locked, \"Rentrant calls are not allowed.\") */\n      tag_140\n      jumpi\n      mload(0x40)\n      0x08c379a000000000000000000000000000000000000000000000000000000000\n      dup2\n      mstore\n      0x04\n      add\n      tag_141\n      swap1\n      tag_115\n      jump\t// in\n    tag_141:\n      mload(0x40)\n      dup1\n      swap2\n      sub\n      swap1\n      revert\n    tag_140:\n        /* \"contracts/ERC20.sol\":1515:1519  true */\n      0x01\n        /* \"contracts/ERC20.sol\":1505:1512  _locked */\n      0x04\n      0x00\n        /* \"contracts/ERC20.sol\":1505:1519  _locked = true */\n      0x0100\n      exp\n      dup2\n      sload\n      dup2\n      0xff\n      mul\n      not\n      and\n      swap1\n      dup4\n      iszero\n      iszero\n      mul\n      or\n      swap1\n      sstore\n      pop\n        /* \"contracts/BSideToken.sol\":1617:1623  amount */\n      dup7\n        /* \"contracts/BSideToken.sol\":1603:1613  _maxSupply */\n      0x07\n      0x00\n        /* \"contracts/BSideToken.sol\":1603:1623  _maxSupply -= amount */\n      dup3\n      dup3\n      sload\n      tag_143\n      swap2\n      swap1\n      tag_94\n      jump\t// in\n    tag_143:\n      swap3\n      pop\n      pop\n      dup2\n      swap1\n      sstore\n      pop\n        /* \"contracts/BSideToken.sol\":1649:1655  amount */\n      dup7\n        /* \"contracts/BSideToken.sol\":1633:1645  _totalSupply */\n      0x03\n      0x00\n        /* \"contracts/BSideToken.sol\":1633:1655  _totalSupply -= amount */\n      dup3\n      dup3\n      sload\n      tag_144\n      swap2\n      swap1\n      tag_94\n      jump\t// in\n    tag_144:\n      swap3\n      pop\n      pop\n      dup2\n      swap1\n      sstore\n      pop\n        /* \"contracts/BSideToken.sol\":1690:1696  amount */\n      dup7\n        /* \"contracts/BSideToken.sol\":1665:1674  _balances */\n      0x05\n        /* \"contracts/BSideToken.sol\":1665:1686  _balances[msg.sender] */\n      0x00\n        /* \"contracts/BSideToken.sol\":1675:1685  msg.sender */\n      caller\n        /* \"contracts/BSideToken.sol\":1665:1686  _balances[msg.sender] */\n      0xffffffffffffffffffffffffffffffffffffffff\n      and\n      0xffffffffffffffffffffffffffffffffffffffff\n      and\n      dup2\n      mstore\n      0x20\n      add\n      swap1\n      dup2\n      mstore\n      0x20\n      add\n      0x00\n      keccak256\n      0x00\n        /* \"contracts/BSideToken.sol\":1665:1696  _balances[msg.sender] -= amount */\n      dup3\n      dup3\n      sload\n      tag_145\n      swap2\n      swap1\n      tag_94\n      jump\t// in\n    tag_145:\n      swap3\n      pop\n      pop\n      dup2\n      swap1\n      sstore\n      pop\n        /* \"contracts/BSideToken.sol\":1716:1726  msg.sender */\n      caller\n        /* \"contracts/BSideToken.sol\":1711:1735  Burn(msg.sender, amount) */\n      0xffffffffffffffffffffffffffffffffffffffff\n      and\n      0xcc16f5dbb4873280815c1ee09dbd06736cffcc184412cf7a71a0fdb75d397ca5\n        /* \"contracts/BSideToken.sol\":1728:1734  amount */\n      dup9\n        /* \"contracts/BSideToken.sol\":1711:1735  Burn(msg.sender, amount) */\n      mload(0x40)\n      tag_146\n      swap2\n      swap1\n      tag_34\n      jump\t// in\n    tag_146:\n      mload(0x40)\n      dup1\n      swap2\n      sub\n      swap1\n      log2\n        /* \"contracts/ERC20.sol\":1550:1555  false */\n      0x00\n        /* \"contracts/ERC20.sol\":1540:1547  _locked */\n      0x04\n      0x00\n        /* \"contracts/ERC20.sol\":1540:1555  _locked = false */\n      0x0100\n      exp\n      dup2\n      sload\n      dup2\n      0xff\n      mul\n      not\n      and\n      swap1\n      dup4\n      iszero\n      iszero\n      mul\n      or\n      swap1\n      sstore\n      pop\n        /* \"contracts/BSideToken.sol\":1006:1016  _maxSupply */\n      sload(0x07)\n        /* \"contracts/BSideToken.sol\":996:1002  amount */\n      dup5\n        /* \"contracts/BSideToken.sol\":989:993  _max */\n      dup5\n        /* \"contracts/BSideToken.sol\":989:1002  _max - amount */\n      tag_147\n      swap2\n      swap1\n      tag_94\n      jump\t// in\n    tag_147:\n        /* \"contracts/BSideToken.sol\":989:1016  _max - amount == _maxSupply */\n      eq\n        /* \"contracts/BSideToken.sol\":981:1045  require(_max - amount == _maxSupply, \"Burn was not successful.\") */\n      tag_148\n      jumpi\n      mload(0x40)\n      0x08c379a000000000000000000000000000000000000000000000000000000000\n      dup2\n      mstore\n      0x04\n      add\n      tag_149\n      swap1\n      tag_150\n      jump\t// in\n    tag_149:\n      mload(0x40)\n      dup1\n      swap2\n      sub\n      swap1\n      revert\n    tag_148:\n        /* \"contracts/BSideToken.sol\":1082:1094  _totalSupply */\n      sload(0x03)\n        /* \"contracts/BSideToken.sol\":1072:1078  amount */\n      dup5\n        /* \"contracts/BSideToken.sol\":1063:1069  _total */\n      dup4\n        /* \"contracts/BSideToken.sol\":1063:1078  _total - amount */\n      tag_151\n      swap2\n      swap1\n      tag_94\n      jump\t// in\n    tag_151:\n        /* \"contracts/BSideToken.sol\":1063:1094  _total - amount == _totalSupply */\n      eq\n        /* \"contracts/BSideToken.sol\":1055:1123  require(_total - amount == _totalSupply, \"Burn was not successful.\") */\n      tag_152\n      jumpi\n      mload(0x40)\n      0x08c379a000000000000000000000000000000000000000000000000000000000\n      dup2\n      mstore\n      0x04\n      add\n      tag_153\n      swap1\n      tag_150\n      jump\t// in\n    tag_153:\n      mload(0x40)\n      dup1\n      swap2\n      sub\n      swap1\n      revert\n    tag_152:\n        /* \"contracts/BSideToken.sol\":1159:1168  _balances */\n      0x05\n        /* \"contracts/BSideToken.sol\":1159:1180  _balances[msg.sender] */\n      0x00\n        /* \"contracts/BSideToken.sol\":1169:1179  msg.sender */\n      caller\n        /* \"contracts/BSideToken.sol\":1159:1180  _balances[msg.sender] */\n      0xffffffffffffffffffffffffffffffffffffffff\n      and\n      0xffffffffffffffffffffffffffffffffffffffff\n      and\n      dup2\n      mstore\n      0x20\n      add\n      swap1\n      dup2\n      mstore\n      0x20\n      add\n      0x00\n      keccak256\n      sload\n        /* \"contracts/BSideToken.sol\":1149:1155  amount */\n      dup5\n        /* \"contracts/BSideToken.sol\":1141:1146  _user */\n      dup3\n        /* \"contracts/BSideToken.sol\":1141:1155  _user - amount */\n      tag_154\n      swap2\n      swap1\n      tag_94\n      jump\t// in\n    tag_154:\n        /* \"contracts/BSideToken.sol\":1141:1180  _user - amount == _balances[msg.sender] */\n      eq\n        /* \"contracts/BSideToken.sol\":1133:1209  require(_user - amount == _balances[msg.sender], \"Burn was not successful.\") */\n      tag_155\n      jumpi\n      mload(0x40)\n      0x08c379a000000000000000000000000000000000000000000000000000000000\n      dup2\n      mstore\n      0x04\n      add\n      tag_156\n      swap1\n      tag_150\n      jump\t// in\n    tag_156:\n      mload(0x40)\n      dup1\n      swap2\n      sub\n      swap1\n      revert\n    tag_155:\n        /* \"contracts/BSideToken.sol\":839:1216  {... */\n      pop\n      pop\n      pop\n        /* \"contracts/BSideToken.sol\":789:790  _ */\n      pop\n        /* \"contracts/ERC20.sol\":1398:1399  _ */\n      pop\n        /* \"contracts/BSideToken.sol\":1432:1742  function burn(uint256 amount)... */\n      pop\n      pop\n      jump\t// out\n        /* \"contracts/ERC20.sol\":2862:3046  function balanceOf(address account)... */\n    tag_62:\n        /* \"contracts/ERC20.sol\":2991:2998  uint256 */\n      0x00\n        /* \"contracts/ERC20.sol\":2965:2972  account */\n      dup2\n        /* \"contracts/ERC20.sol\":1352:1353  0 */\n      0x00\n        /* \"contracts/ERC20.sol\":1339:1354  a != address(0) */\n      0xffffffffffffffffffffffffffffffffffffffff\n      and\n        /* \"contracts/ERC20.sol\":1339:1340  a */\n      dup2\n        /* \"contracts/ERC20.sol\":1339:1354  a != address(0) */\n      0xffffffffffffffffffffffffffffffffffffffff\n      and\n      sub\n        /* \"contracts/ERC20.sol\":1331:1388  require(a != address(0), \"Must specify a valid address.\") */\n      tag_158\n      jumpi\n      mload(0x40)\n      0x08c379a000000000000000000000000000000000000000000000000000000000\n      dup2\n      mstore\n      0x04\n      add\n      tag_159\n      swap1\n      tag_130\n      jump\t// in\n    tag_159:\n      mload(0x40)\n      dup1\n      swap2\n      sub\n      swap1\n      revert\n    tag_158:\n        /* \"contracts/ERC20.sol\":3021:3030  _balances */\n      0x05\n        /* \"contracts/ERC20.sol\":3021:3039  _balances[account] */\n      0x00\n        /* \"contracts/ERC20.sol\":3031:3038  account */\n      dup5\n        /* \"contracts/ERC20.sol\":3021:3039  _balances[account] */\n      0xffffffffffffffffffffffffffffffffffffffff\n      and\n      0xffffffffffffffffffffffffffffffffffffffff\n      and\n      dup2\n      mstore\n      0x20\n      add\n      swap1\n      dup2\n      mstore\n      0x20\n      add\n      0x00\n      keccak256\n      sload\n        /* \"contracts/ERC20.sol\":3014:3039  return _balances[account] */\n      swap2\n      pop\n        /* \"contracts/ERC20.sol\":2862:3046  function balanceOf(address account)... */\n      pop\n      swap2\n      swap1\n      pop\n      jump\t// out\n        /* \"contracts/ERC20.sol\":885:905  string public symbol */\n    tag_66:\n      0x01\n      dup1\n      sload\n      tag_161\n      swap1\n      tag_80\n      jump\t// in\n    tag_161:\n      dup1\n      0x1f\n      add\n      0x20\n      dup1\n      swap2\n      div\n      mul\n      0x20\n      add\n      mload(0x40)\n      swap1\n      dup2\n      add\n      0x40\n      mstore\n      dup1\n      swap3\n      swap2\n      swap1\n      dup2\n      dup2\n      mstore\n      0x20\n      add\n      dup3\n      dup1\n      sload\n      tag_162\n      swap1\n      tag_80\n      jump\t// in\n    tag_162:\n      dup1\n      iszero\n      tag_163\n      jumpi\n      dup1\n      0x1f\n      lt\n      tag_164\n      jumpi\n      0x0100\n      dup1\n      dup4\n      sload\n      div\n      mul\n      dup4\n      mstore\n      swap2\n      0x20\n      add\n      swap2\n      jump(tag_163)\n    tag_164:\n      dup3\n      add\n      swap2\n      swap1\n      0x00\n      mstore\n      keccak256(0x00, 0x20)\n      swap1\n    tag_165:\n      dup2\n      sload\n      dup2\n      mstore\n      swap1\n      0x01\n      add\n      swap1\n      0x20\n      add\n      dup1\n      dup4\n      gt\n      tag_165\n      jumpi\n      dup3\n      swap1\n      sub\n      0x1f\n      and\n      dup3\n      add\n      swap2\n    tag_163:\n      pop\n      pop\n      pop\n      pop\n      pop\n      dup2\n      jump\t// out\n        /* \"contracts/ERC20.sol\":3052:3242  function transfer(address recipient, uint256 amount)... */\n    tag_71:\n        /* \"contracts/ERC20.sol\":3154:3158  bool */\n      0x00\n        /* \"contracts/ERC20.sol\":3174:3214  _transfer(msg.sender, recipient, amount) */\n      tag_167\n        /* \"contracts/ERC20.sol\":3184:3194  msg.sender */\n      caller\n        /* \"contracts/ERC20.sol\":3196:3205  recipient */\n      dup5\n        /* \"contracts/ERC20.sol\":3207:3213  amount */\n      dup5\n        /* \"contracts/ERC20.sol\":3174:3183  _transfer */\n      tag_91\n        /* \"contracts/ERC20.sol\":3174:3214  _transfer(msg.sender, recipient, amount) */\n      jump\t// in\n    tag_167:\n        /* \"contracts/ERC20.sol\":3231:3235  true */\n      0x01\n        /* \"contracts/ERC20.sol\":3224:3235  return true */\n      swap1\n      pop\n        /* \"contracts/ERC20.sol\":3052:3242  function transfer(address recipient, uint256 amount)... */\n      swap3\n      swap2\n      pop\n      pop\n      jump\t// out\n        /* \"contracts/ERC20.sol\":3248:3485  function allowance(address owner, address spender)... */\n    tag_77:\n        /* \"contracts/ERC20.sol\":3421:3428  uint256 */\n      0x00\n        /* \"contracts/ERC20.sol\":3366:3371  owner */\n      dup3\n        /* \"contracts/ERC20.sol\":1352:1353  0 */\n      0x00\n        /* \"contracts/ERC20.sol\":1339:1354  a != address(0) */\n      0xffffffffffffffffffffffffffffffffffffffff\n      and\n        /* \"contracts/ERC20.sol\":1339:1340  a */\n      dup2\n        /* \"contracts/ERC20.sol\":1339:1354  a != address(0) */\n      0xffffffffffffffffffffffffffffffffffffffff\n      and\n      sub\n        /* \"contracts/ERC20.sol\":1331:1388  require(a != address(0), \"Must specify a valid address.\") */\n      tag_169\n      jumpi\n      mload(0x40)\n      0x08c379a000000000000000000000000000000000000000000000000000000000\n      dup2\n      mstore\n      0x04\n      add\n      tag_170\n      swap1\n      tag_130\n      jump\t// in\n    tag_170:\n      mload(0x40)\n      dup1\n      swap2\n      sub\n      swap1\n      revert\n    tag_169:\n        /* \"contracts/ERC20.sol\":3395:3402  spender */\n      dup3\n        /* \"contracts/ERC20.sol\":1352:1353  0 */\n      0x00\n        /* \"contracts/ERC20.sol\":1339:1354  a != address(0) */\n      0xffffffffffffffffffffffffffffffffffffffff\n      and\n        /* \"contracts/ERC20.sol\":1339:1340  a */\n      dup2\n        /* \"contracts/ERC20.sol\":1339:1354  a != address(0) */\n      0xffffffffffffffffffffffffffffffffffffffff\n      and\n      sub\n        /* \"contracts/ERC20.sol\":1331:1388  require(a != address(0), \"Must specify a valid address.\") */\n      tag_172\n      jumpi\n      mload(0x40)\n      0x08c379a000000000000000000000000000000000000000000000000000000000\n      dup2\n      mstore\n      0x04\n      add\n      tag_173\n      swap1\n      tag_130\n      jump\t// in\n    tag_173:\n      mload(0x40)\n      dup1\n      swap2\n      sub\n      swap1\n      revert\n    tag_172:\n        /* \"contracts/ERC20.sol\":3451:3462  _allowances */\n      0x06\n        /* \"contracts/ERC20.sol\":3451:3469  _allowances[owner] */\n      0x00\n        /* \"contracts/ERC20.sol\":3463:3468  owner */\n      dup7\n        /* \"contracts/ERC20.sol\":3451:3469  _allowances[owner] */\n      0xffffffffffffffffffffffffffffffffffffffff\n      and\n      0xffffffffffffffffffffffffffffffffffffffff\n      and\n      dup2\n      mstore\n      0x20\n      add\n      swap1\n      dup2\n      mstore\n      0x20\n      add\n      0x00\n      keccak256\n        /* \"contracts/ERC20.sol\":3451:3478  _allowances[owner][spender] */\n      0x00\n        /* \"contracts/ERC20.sol\":3470:3477  spender */\n      dup6\n        /* \"contracts/ERC20.sol\":3451:3478  _allowances[owner][spender] */\n      0xffffffffffffffffffffffffffffffffffffffff\n      and\n      0xffffffffffffffffffffffffffffffffffffffff\n      and\n      dup2\n      mstore\n      0x20\n      add\n      swap1\n      dup2\n      mstore\n      0x20\n      add\n      0x00\n      keccak256\n      sload\n        /* \"contracts/ERC20.sol\":3444:3478  return _allowances[owner][spender] */\n      swap3\n      pop\n        /* \"contracts/ERC20.sol\":1398:1399  _ */\n      pop\n        /* \"contracts/ERC20.sol\":3248:3485  function allowance(address owner, address spender)... */\n      pop\n      swap3\n      swap2\n      pop\n      pop\n      jump\t// out\n        /* \"contracts/ERC20.sol\":4407:4789  function _approve(... */\n    tag_87:\n        /* \"contracts/ERC20.sol\":4542:4547  owner */\n      dup3\n        /* \"contracts/ERC20.sol\":1352:1353  0 */\n      0x00\n        /* \"contracts/ERC20.sol\":1339:1354  a != address(0) */\n      0xffffffffffffffffffffffffffffffffffffffff\n      and\n        /* \"contracts/ERC20.sol\":1339:1340  a */\n      dup2\n        /* \"contracts/ERC20.sol\":1339:1354  a != address(0) */\n      0xffffffffffffffffffffffffffffffffffffffff\n      and\n      sub\n        /* \"contracts/ERC20.sol\":1331:1388  require(a != address(0), \"Must specify a valid address.\") */\n      tag_176\n      jumpi\n      mload(0x40)\n      0x08c379a000000000000000000000000000000000000000000000000000000000\n      dup2\n      mstore\n      0x04\n      add\n      tag_177\n      swap1\n      tag_130\n      jump\t// in\n    tag_177:\n      mload(0x40)\n      dup1\n      swap2\n      sub\n      swap1\n      revert\n    tag_176:\n        /* \"contracts/ERC20.sol\":4573:4578  owner */\n      dup4\n        /* \"contracts/ERC20.sol\":4580:4586  amount */\n      dup3\n        /* \"contracts/ERC20.sol\":1654:1660  amount */\n      dup1\n        /* \"contracts/ERC20.sol\":1638:1647  _balances */\n      0x05\n        /* \"contracts/ERC20.sol\":1638:1650  _balances[a] */\n      0x00\n        /* \"contracts/ERC20.sol\":1648:1649  a */\n      dup5\n        /* \"contracts/ERC20.sol\":1638:1650  _balances[a] */\n      0xffffffffffffffffffffffffffffffffffffffff\n      and\n      0xffffffffffffffffffffffffffffffffffffffff\n      and\n      dup2\n      mstore\n      0x20\n      add\n      swap1\n      dup2\n      mstore\n      0x20\n      add\n      0x00\n      keccak256\n      sload\n        /* \"contracts/ERC20.sol\":1638:1660  _balances[a] >= amount */\n      lt\n      iszero\n        /* \"contracts/ERC20.sol\":1630:1691  require(_balances[a] >= amount, \"Insufficient funds to burn\") */\n      tag_179\n      jumpi\n      mload(0x40)\n      0x08c379a000000000000000000000000000000000000000000000000000000000\n      dup2\n      mstore\n      0x04\n      add\n      tag_180\n      swap1\n      tag_181\n      jump\t// in\n    tag_180:\n      mload(0x40)\n      dup1\n      swap2\n      sub\n      swap1\n      revert\n    tag_179:\n        /* \"contracts/ERC20.sol\":4610:4617  spender */\n      dup5\n        /* \"contracts/ERC20.sol\":1352:1353  0 */\n      0x00\n        /* \"contracts/ERC20.sol\":1339:1354  a != address(0) */\n      0xffffffffffffffffffffffffffffffffffffffff\n      and\n        /* \"contracts/ERC20.sol\":1339:1340  a */\n      dup2\n        /* \"contracts/ERC20.sol\":1339:1354  a != address(0) */\n      0xffffffffffffffffffffffffffffffffffffffff\n      and\n      sub\n        /* \"contracts/ERC20.sol\":1331:1388  require(a != address(0), \"Must specify a valid address.\") */\n      tag_183\n      jumpi\n      mload(0x40)\n      0x08c379a000000000000000000000000000000000000000000000000000000000\n      dup2\n      mstore\n      0x04\n      add\n      tag_184\n      swap1\n      tag_130\n      jump\t// in\n    tag_184:\n      mload(0x40)\n      dup1\n      swap2\n      sub\n      swap1\n      revert\n    tag_183:\n        /* \"contracts/ERC20.sol\":4643:4648  owner */\n      dup7\n        /* \"contracts/ERC20.sol\":4650:4657  spender */\n      dup7\n        /* \"contracts/ERC20.sol\":4659:4665  amount */\n      dup7\n        /* \"contracts/ERC20.sol\":1452:1459  _locked */\n      0x04\n      0x00\n      swap1\n      sload\n      swap1\n      0x0100\n      exp\n      swap1\n      div\n      0xff\n      and\n        /* \"contracts/ERC20.sol\":1451:1459  !_locked */\n      iszero\n        /* \"contracts/ERC20.sol\":1443:1495  require(!_locked, \"Rentrant calls are not allowed.\") */\n      tag_187\n      jumpi\n      mload(0x40)\n      0x08c379a000000000000000000000000000000000000000000000000000000000\n      dup2\n      mstore\n      0x04\n      add\n      tag_188\n      swap1\n      tag_115\n      jump\t// in\n    tag_188:\n      mload(0x40)\n      dup1\n      swap2\n      sub\n      swap1\n      revert\n    tag_187:\n        /* \"contracts/ERC20.sol\":1515:1519  true */\n      0x01\n        /* \"contracts/ERC20.sol\":1505:1512  _locked */\n      0x04\n      0x00\n        /* \"contracts/ERC20.sol\":1505:1519  _locked = true */\n      0x0100\n      exp\n      dup2\n      sload\n      dup2\n      0xff\n      mul\n      not\n      and\n      swap1\n      dup4\n      iszero\n      iszero\n      mul\n      or\n      swap1\n      sstore\n      pop\n        /* \"contracts/ERC20.sol\":4729:4735  amount */\n      dup8\n        /* \"contracts/ERC20.sol\":4699:4710  _allowances */\n      0x06\n        /* \"contracts/ERC20.sol\":4699:4717  _allowances[owner] */\n      0x00\n        /* \"contracts/ERC20.sol\":4711:4716  owner */\n      dup13\n        /* \"contracts/ERC20.sol\":4699:4717  _allowances[owner] */\n      0xffffffffffffffffffffffffffffffffffffffff\n      and\n      0xffffffffffffffffffffffffffffffffffffffff\n      and\n      dup2\n      mstore\n      0x20\n      add\n      swap1\n      dup2\n      mstore\n      0x20\n      add\n      0x00\n      keccak256\n        /* \"contracts/ERC20.sol\":4699:4726  _allowances[owner][spender] */\n      0x00\n        /* \"contracts/ERC20.sol\":4718:4725  spender */\n      dup12\n        /* \"contracts/ERC20.sol\":4699:4726  _allowances[owner][spender] */\n      0xffffffffffffffffffffffffffffffffffffffff\n      and\n      0xffffffffffffffffffffffffffffffffffffffff\n      and\n      dup2\n      mstore\n      0x20\n      add\n      swap1\n      dup2\n      mstore\n      0x20\n      add\n      0x00\n      keccak256\n        /* \"contracts/ERC20.sol\":4699:4735  _allowances[owner][spender] = amount */\n      dup2\n      swap1\n      sstore\n      pop\n        /* \"contracts/ERC20.sol\":4766:4773  spender */\n      dup9\n        /* \"contracts/ERC20.sol\":4750:4782  Approval(owner, spender, amount) */\n      0xffffffffffffffffffffffffffffffffffffffff\n      and\n        /* \"contracts/ERC20.sol\":4759:4764  owner */\n      dup11\n        /* \"contracts/ERC20.sol\":4750:4782  Approval(owner, spender, amount) */\n      0xffffffffffffffffffffffffffffffffffffffff\n      and\n      0x8c5be1e5ebec7d5bd14f71427d1e84f3dd0314c0f7b2291e5b200ac8c7c3b925\n        /* \"contracts/ERC20.sol\":4775:4781  amount */\n      dup11\n        /* \"contracts/ERC20.sol\":4750:4782  Approval(owner, spender, amount) */\n      mload(0x40)\n      tag_190\n      swap2\n      swap1\n      tag_34\n      jump\t// in\n    tag_190:\n      mload(0x40)\n      dup1\n      swap2\n      sub\n      swap1\n      log3\n        /* \"contracts/ERC20.sol\":1550:1555  false */\n      0x00\n        /* \"contracts/ERC20.sol\":1540:1547  _locked */\n      0x04\n      0x00\n        /* \"contracts/ERC20.sol\":1540:1555  _locked = false */\n      0x0100\n      exp\n      dup2\n      sload\n      dup2\n      0xff\n      mul\n      not\n      and\n      swap1\n      dup4\n      iszero\n      iszero\n      mul\n      or\n      swap1\n      sstore\n      pop\n        /* \"contracts/ERC20.sol\":2266:2272  amount */\n      dup1\n        /* \"contracts/ERC20.sol\":2235:2246  _allowances */\n      0x06\n        /* \"contracts/ERC20.sol\":2235:2253  _allowances[owner] */\n      0x00\n        /* \"contracts/ERC20.sol\":2247:2252  owner */\n      dup6\n        /* \"contracts/ERC20.sol\":2235:2253  _allowances[owner] */\n      0xffffffffffffffffffffffffffffffffffffffff\n      and\n      0xffffffffffffffffffffffffffffffffffffffff\n      and\n      dup2\n      mstore\n      0x20\n      add\n      swap1\n      dup2\n      mstore\n      0x20\n      add\n      0x00\n      keccak256\n        /* \"contracts/ERC20.sol\":2235:2262  _allowances[owner][spender] */\n      0x00\n        /* \"contracts/ERC20.sol\":2254:2261  spender */\n      dup5\n        /* \"contracts/ERC20.sol\":2235:2262  _allowances[owner][spender] */\n      0xffffffffffffffffffffffffffffffffffffffff\n      and\n      0xffffffffffffffffffffffffffffffffffffffff\n      and\n      dup2\n      mstore\n      0x20\n      add\n      swap1\n      dup2\n      mstore\n      0x20\n      add\n      0x00\n      keccak256\n      sload\n        /* \"contracts/ERC20.sol\":2235:2272  _allowances[owner][spender] == amount */\n      eq\n        /* \"contracts/ERC20.sol\":2227:2321  require(_allowances[owner][spender] == amount, \"Recipient allowanace not adjusted correctly.\") */\n      tag_191\n      jumpi\n      mload(0x40)\n      0x08c379a000000000000000000000000000000000000000000000000000000000\n      dup2\n      mstore\n      0x04\n      add\n      tag_192\n      swap1\n      tag_193\n      jump\t// in\n    tag_192:\n      mload(0x40)\n      dup1\n      swap2\n      sub\n      swap1\n      revert\n    tag_191:\n        /* \"contracts/ERC20.sol\":1398:1399  _ */\n      pop\n      pop\n      pop\n        /* \"contracts/ERC20.sol\":1701:1702  _ */\n      pop\n        /* \"contracts/ERC20.sol\":1398:1399  _ */\n      pop\n      pop\n        /* \"contracts/ERC20.sol\":4407:4789  function _approve(... */\n      pop\n      pop\n      pop\n      pop\n      jump\t// out\n        /* \"contracts/ERC20.sol\":3975:4401  function _transfer(... */\n    tag_91:\n        /* \"contracts/ERC20.sol\":4114:4120  sender */\n      dup3\n        /* \"contracts/ERC20.sol\":1352:1353  0 */\n      0x00\n        /* \"contracts/ERC20.sol\":1339:1354  a != address(0) */\n      0xffffffffffffffffffffffffffffffffffffffff\n      and\n        /* \"contracts/ERC20.sol\":1339:1340  a */\n      dup2\n        /* \"contracts/ERC20.sol\":1339:1354  a != address(0) */\n      0xffffffffffffffffffffffffffffffffffffffff\n      and\n      sub\n        /* \"contracts/ERC20.sol\":1331:1388  require(a != address(0), \"Must specify a valid address.\") */\n      tag_195\n      jumpi\n      mload(0x40)\n      0x08c379a000000000000000000000000000000000000000000000000000000000\n      dup2\n      mstore\n      0x04\n      add\n      tag_196\n      swap1\n      tag_130\n      jump\t// in\n    tag_196:\n      mload(0x40)\n      dup1\n      swap2\n      sub\n      swap1\n      revert\n    tag_195:\n        /* \"contracts/ERC20.sol\":4146:4152  sender */\n      dup4\n        /* \"contracts/ERC20.sol\":4154:4160  amount */\n      dup3\n        /* \"contracts/ERC20.sol\":1654:1660  amount */\n      dup1\n        /* \"contracts/ERC20.sol\":1638:1647  _balances */\n      0x05\n        /* \"contracts/ERC20.sol\":1638:1650  _balances[a] */\n      0x00\n        /* \"contracts/ERC20.sol\":1648:1649  a */\n      dup5\n        /* \"contracts/ERC20.sol\":1638:1650  _balances[a] */\n      0xffffffffffffffffffffffffffffffffffffffff\n      and\n      0xffffffffffffffffffffffffffffffffffffffff\n      and\n      dup2\n      mstore\n      0x20\n      add\n      swap1\n      dup2\n      mstore\n      0x20\n      add\n      0x00\n      keccak256\n      sload\n        /* \"contracts/ERC20.sol\":1638:1660  _balances[a] >= amount */\n      lt\n      iszero\n        /* \"contracts/ERC20.sol\":1630:1691  require(_balances[a] >= amount, \"Insufficient funds to burn\") */\n      tag_198\n      jumpi\n      mload(0x40)\n      0x08c379a000000000000000000000000000000000000000000000000000000000\n      dup2\n      mstore\n      0x04\n      add\n      tag_199\n      swap1\n      tag_181\n      jump\t// in\n    tag_199:\n      mload(0x40)\n      dup1\n      swap2\n      sub\n      swap1\n      revert\n    tag_198:\n        /* \"contracts/ERC20.sol\":4184:4193  recipient */\n      dup5\n        /* \"contracts/ERC20.sol\":1352:1353  0 */\n      0x00\n        /* \"contracts/ERC20.sol\":1339:1354  a != address(0) */\n      0xffffffffffffffffffffffffffffffffffffffff\n      and\n        /* \"contracts/ERC20.sol\":1339:1340  a */\n      dup2\n        /* \"contracts/ERC20.sol\":1339:1354  a != address(0) */\n      0xffffffffffffffffffffffffffffffffffffffff\n      and\n      sub\n        /* \"contracts/ERC20.sol\":1331:1388  require(a != address(0), \"Must specify a valid address.\") */\n      tag_201\n      jumpi\n      mload(0x40)\n      0x08c379a000000000000000000000000000000000000000000000000000000000\n      dup2\n      mstore\n      0x04\n      add\n      tag_202\n      swap1\n      tag_130\n      jump\t// in\n    tag_202:\n      mload(0x40)\n      dup1\n      swap2\n      sub\n      swap1\n      revert\n    tag_201:\n        /* \"contracts/ERC20.sol\":4218:4224  sender */\n      dup7\n        /* \"contracts/ERC20.sol\":4226:4235  recipient */\n      dup7\n        /* \"contracts/ERC20.sol\":4237:4243  amount */\n      dup7\n        /* \"contracts/ERC20.sol\":1800:1821  uint256 sender_amount */\n      0x00\n        /* \"contracts/ERC20.sol\":1824:1833  _balances */\n      0x05\n        /* \"contracts/ERC20.sol\":1824:1841  _balances[sender] */\n      0x00\n        /* \"contracts/ERC20.sol\":1834:1840  sender */\n      dup6\n        /* \"contracts/ERC20.sol\":1824:1841  _balances[sender] */\n      0xffffffffffffffffffffffffffffffffffffffff\n      and\n      0xffffffffffffffffffffffffffffffffffffffff\n      and\n      dup2\n      mstore\n      0x20\n      add\n      swap1\n      dup2\n      mstore\n      0x20\n      add\n      0x00\n      keccak256\n      sload\n        /* \"contracts/ERC20.sol\":1800:1841  uint256 sender_amount = _balances[sender] */\n      swap1\n      pop\n        /* \"contracts/ERC20.sol\":1851:1875  uint256 recipient_amount */\n      0x00\n        /* \"contracts/ERC20.sol\":1878:1887  _balances */\n      0x05\n        /* \"contracts/ERC20.sol\":1878:1898  _balances[recipient] */\n      0x00\n        /* \"contracts/ERC20.sol\":1888:1897  recipient */\n      dup6\n        /* \"contracts/ERC20.sol\":1878:1898  _balances[recipient] */\n      0xffffffffffffffffffffffffffffffffffffffff\n      and\n      0xffffffffffffffffffffffffffffffffffffffff\n      and\n      dup2\n      mstore\n      0x20\n      add\n      swap1\n      dup2\n      mstore\n      0x20\n      add\n      0x00\n      keccak256\n      sload\n        /* \"contracts/ERC20.sol\":1851:1898  uint256 recipient_amount = _balances[recipient] */\n      swap1\n      pop\n        /* \"contracts/ERC20.sol\":1452:1459  _locked */\n      0x04\n      0x00\n      swap1\n      sload\n      swap1\n      0x0100\n      exp\n      swap1\n      div\n      0xff\n      and\n        /* \"contracts/ERC20.sol\":1451:1459  !_locked */\n      iszero\n        /* \"contracts/ERC20.sol\":1443:1495  require(!_locked, \"Rentrant calls are not allowed.\") */\n      tag_205\n      jumpi\n      mload(0x40)\n      0x08c379a000000000000000000000000000000000000000000000000000000000\n      dup2\n      mstore\n      0x04\n      add\n      tag_206\n      swap1\n      tag_115\n      jump\t// in\n    tag_206:\n      mload(0x40)\n      dup1\n      swap2\n      sub\n      swap1\n      revert\n    tag_205:\n        /* \"contracts/ERC20.sol\":1515:1519  true */\n      0x01\n        /* \"contracts/ERC20.sol\":1505:1512  _locked */\n      0x04\n      0x00\n        /* \"contracts/ERC20.sol\":1505:1519  _locked = true */\n      0x0100\n      exp\n      dup2\n      sload\n      dup2\n      0xff\n      mul\n      not\n      and\n      swap1\n      dup4\n      iszero\n      iszero\n      mul\n      or\n      swap1\n      sstore\n      pop\n        /* \"contracts/ERC20.sol\":4298:4304  amount */\n      dup10\n        /* \"contracts/ERC20.sol\":4277:4286  _balances */\n      0x05\n        /* \"contracts/ERC20.sol\":4277:4294  _balances[sender] */\n      0x00\n        /* \"contracts/ERC20.sol\":4287:4293  sender */\n      dup15\n        /* \"contracts/ERC20.sol\":4277:4294  _balances[sender] */\n      0xffffffffffffffffffffffffffffffffffffffff\n      and\n      0xffffffffffffffffffffffffffffffffffffffff\n      and\n      dup2\n      mstore\n      0x20\n      add\n      swap1\n      dup2\n      mstore\n      0x20\n      add\n      0x00\n      keccak256\n      0x00\n        /* \"contracts/ERC20.sol\":4277:4304  _balances[sender] -= amount */\n      dup3\n      dup3\n      sload\n      tag_208\n      swap2\n      swap1\n      tag_94\n      jump\t// in\n    tag_208:\n      swap3\n      pop\n      pop\n      dup2\n      swap1\n      sstore\n      pop\n        /* \"contracts/ERC20.sol\":4338:4344  amount */\n      dup10\n        /* \"contracts/ERC20.sol\":4314:4323  _balances */\n      0x05\n        /* \"contracts/ERC20.sol\":4314:4334  _balances[recipient] */\n      0x00\n        /* \"contracts/ERC20.sol\":4324:4333  recipient */\n      dup14\n        /* \"contracts/ERC20.sol\":4314:4334  _balances[recipient] */\n      0xffffffffffffffffffffffffffffffffffffffff\n      and\n      0xffffffffffffffffffffffffffffffffffffffff\n      and\n      dup2\n      mstore\n      0x20\n      add\n      swap1\n      dup2\n      mstore\n      0x20\n      add\n      0x00\n      keccak256\n      0x00\n        /* \"contracts/ERC20.sol\":4314:4344  _balances[recipient] += amount */\n      dup3\n      dup3\n      sload\n      tag_209\n      swap2\n      swap1\n      tag_107\n      jump\t// in\n    tag_209:\n      swap3\n      pop\n      pop\n      dup2\n      swap1\n      sstore\n      pop\n        /* \"contracts/ERC20.sol\":4376:4385  recipient */\n      dup11\n        /* \"contracts/ERC20.sol\":4359:4394  Transfer(sender, recipient, amount) */\n      0xffffffffffffffffffffffffffffffffffffffff\n      and\n        /* \"contracts/ERC20.sol\":4368:4374  sender */\n      dup13\n        /* \"contracts/ERC20.sol\":4359:4394  Transfer(sender, recipient, amount) */\n      0xffffffffffffffffffffffffffffffffffffffff\n      and\n      0xddf252ad1be2c89b69c2b068fc378daa952ba7f163c4a11628f55a4df523b3ef\n        /* \"contracts/ERC20.sol\":4387:4393  amount */\n      dup13\n        /* \"contracts/ERC20.sol\":4359:4394  Transfer(sender, recipient, amount) */\n      mload(0x40)\n      tag_210\n      swap2\n      swap1\n      tag_34\n      jump\t// in\n    tag_210:\n      mload(0x40)\n      dup1\n      swap2\n      sub\n      swap1\n      log3\n        /* \"contracts/ERC20.sol\":1550:1555  false */\n      0x00\n        /* \"contracts/ERC20.sol\":1540:1547  _locked */\n      0x04\n      0x00\n        /* \"contracts/ERC20.sol\":1540:1555  _locked = false */\n      0x0100\n      exp\n      dup2\n      sload\n      dup2\n      0xff\n      mul\n      not\n      and\n      swap1\n      dup4\n      iszero\n      iszero\n      mul\n      or\n      swap1\n      sstore\n      pop\n        /* \"contracts/ERC20.sol\":1953:1962  _balances */\n      0x05\n        /* \"contracts/ERC20.sol\":1953:1970  _balances[sender] */\n      0x00\n        /* \"contracts/ERC20.sol\":1963:1969  sender */\n      dup7\n        /* \"contracts/ERC20.sol\":1953:1970  _balances[sender] */\n      0xffffffffffffffffffffffffffffffffffffffff\n      and\n      0xffffffffffffffffffffffffffffffffffffffff\n      and\n      dup2\n      mstore\n      0x20\n      add\n      swap1\n      dup2\n      mstore\n      0x20\n      add\n      0x00\n      keccak256\n      sload\n        /* \"contracts/ERC20.sol\":1943:1949  amount */\n      dup4\n        /* \"contracts/ERC20.sol\":1927:1940  sender_amount */\n      dup4\n        /* \"contracts/ERC20.sol\":1927:1949  sender_amount - amount */\n      tag_211\n      swap2\n      swap1\n      tag_94\n      jump\t// in\n    tag_211:\n        /* \"contracts/ERC20.sol\":1927:1970  sender_amount - amount == _balances[sender] */\n      eq\n        /* \"contracts/ERC20.sol\":1919:2010  require(sender_amount - amount == _balances[sender], \"Sender funds not adjusted correctly\") */\n      tag_212\n      jumpi\n      mload(0x40)\n      0x08c379a000000000000000000000000000000000000000000000000000000000\n      dup2\n      mstore\n      0x04\n      add\n      tag_213\n      swap1\n      tag_214\n      jump\t// in\n    tag_213:\n      mload(0x40)\n      dup1\n      swap2\n      sub\n      swap1\n      revert\n    tag_212:\n        /* \"contracts/ERC20.sol\":2057:2066  _balances */\n      0x05\n        /* \"contracts/ERC20.sol\":2057:2077  _balances[recipient] */\n      0x00\n        /* \"contracts/ERC20.sol\":2067:2076  recipient */\n      dup6\n        /* \"contracts/ERC20.sol\":2057:2077  _balances[recipient] */\n      0xffffffffffffffffffffffffffffffffffffffff\n      and\n      0xffffffffffffffffffffffffffffffffffffffff\n      and\n      dup2\n      mstore\n      0x20\n      add\n      swap1\n      dup2\n      mstore\n      0x20\n      add\n      0x00\n      keccak256\n      sload\n        /* \"contracts/ERC20.sol\":2047:2053  amount */\n      dup4\n        /* \"contracts/ERC20.sol\":2028:2044  recipient_amount */\n      dup3\n        /* \"contracts/ERC20.sol\":2028:2053  recipient_amount + amount */\n      tag_215\n      swap2\n      swap1\n      tag_107\n      jump\t// in\n    tag_215:\n        /* \"contracts/ERC20.sol\":2028:2077  recipient_amount + amount == _balances[recipient] */\n      eq\n        /* \"contracts/ERC20.sol\":2020:2120  require(recipient_amount + amount == _balances[recipient], \"Recipient funds not adjusted correctly\") */\n      tag_216\n      jumpi\n      mload(0x40)\n      0x08c379a000000000000000000000000000000000000000000000000000000000\n      dup2\n      mstore\n      0x04\n      add\n      tag_217\n      swap1\n      tag_218\n      jump\t// in\n    tag_217:\n      mload(0x40)\n      dup1\n      swap2\n      sub\n      swap1\n      revert\n    tag_216:\n        /* \"contracts/ERC20.sol\":1790:2127  {... */\n      pop\n      pop\n        /* \"contracts/ERC20.sol\":1398:1399  _ */\n      pop\n      pop\n      pop\n        /* \"contracts/ERC20.sol\":1701:1702  _ */\n      pop\n        /* \"contracts/ERC20.sol\":1398:1399  _ */\n      pop\n      pop\n        /* \"contracts/ERC20.sol\":3975:4401  function _transfer(... */\n      pop\n      pop\n      pop\n      pop\n      jump\t// out\n        /* \"#utility.yul\":7:106   */\n    tag_219:\n        /* \"#utility.yul\":59:65   */\n      0x00\n        /* \"#utility.yul\":93:98   */\n      dup2\n        /* \"#utility.yul\":87:99   */\n      mload\n        /* \"#utility.yul\":77:99   */\n      swap1\n      pop\n        /* \"#utility.yul\":7:106   */\n      swap2\n      swap1\n      pop\n      jump\t// out\n        /* \"#utility.yul\":112:281   */\n    tag_220:\n        /* \"#utility.yul\":196:207   */\n      0x00\n        /* \"#utility.yul\":230:236   */\n      dup3\n        /* \"#utility.yul\":225:228   */\n      dup3\n        /* \"#utility.yul\":218:237   */\n      mstore\n        /* \"#utility.yul\":270:274   */\n      0x20\n        /* \"#utility.yul\":265:268   */\n      dup3\n        /* \"#utility.yul\":261:275   */\n      add\n        /* \"#utility.yul\":246:275   */\n      swap1\n      pop\n        /* \"#utility.yul\":112:281   */\n      swap3\n      swap2\n      pop\n      pop\n      jump\t// out\n        /* \"#utility.yul\":287:426   */\n    tag_221:\n        /* \"#utility.yul\":376:382   */\n      dup3\n        /* \"#utility.yul\":371:374   */\n      dup2\n        /* \"#utility.yul\":366:369   */\n      dup4\n        /* \"#utility.yul\":360:383   */\n      mcopy\n        /* \"#utility.yul\":417:418   */\n      0x00\n        /* \"#utility.yul\":408:414   */\n      dup4\n        /* \"#utility.yul\":403:406   */\n      dup4\n        /* \"#utility.yul\":399:415   */\n      add\n        /* \"#utility.yul\":392:419   */\n      mstore\n        /* \"#utility.yul\":287:426   */\n      pop\n      pop\n      pop\n      jump\t// out\n        /* \"#utility.yul\":432:534   */\n    tag_222:\n        /* \"#utility.yul\":473:479   */\n      0x00\n        /* \"#utility.yul\":524:526   */\n      0x1f\n        /* \"#utility.yul\":520:527   */\n      not\n        /* \"#utility.yul\":515:517   */\n      0x1f\n        /* \"#utility.yul\":508:513   */\n      dup4\n        /* \"#utility.yul\":504:518   */\n      add\n        /* \"#utility.yul\":500:528   */\n      and\n        /* \"#utility.yul\":490:528   */\n      swap1\n      pop\n        /* \"#utility.yul\":432:534   */\n      swap2\n      swap1\n      pop\n      jump\t// out\n        /* \"#utility.yul\":540:917   */\n    tag_223:\n        /* \"#utility.yul\":628:631   */\n      0x00\n        /* \"#utility.yul\":656:695   */\n      tag_271\n        /* \"#utility.yul\":689:694   */\n      dup3\n        /* \"#utility.yul\":656:695   */\n      tag_219\n      jump\t// in\n    tag_271:\n        /* \"#utility.yul\":711:782   */\n      tag_272\n        /* \"#utility.yul\":775:781   */\n      dup2\n        /* \"#utility.yul\":770:773   */\n      dup6\n        /* \"#utility.yul\":711:782   */\n      tag_220\n      jump\t// in\n    tag_272:\n        /* \"#utility.yul\":704:782   */\n      swap4\n      pop\n        /* \"#utility.yul\":791:856   */\n      tag_273\n        /* \"#utility.yul\":849:855   */\n      dup2\n        /* \"#utility.yul\":844:847   */\n      dup6\n        /* \"#utility.yul\":837:841   */\n      0x20\n        /* \"#utility.yul\":830:835   */\n      dup7\n        /* \"#utility.yul\":826:842   */\n      add\n        /* \"#utility.yul\":791:856   */\n      tag_221\n      jump\t// in\n    tag_273:\n        /* \"#utility.yul\":881:910   */\n      tag_274\n        /* \"#utility.yul\":903:909   */\n      dup2\n        /* \"#utility.yul\":881:910   */\n      tag_222\n      jump\t// in\n    tag_274:\n        /* \"#utility.yul\":876:879   */\n      dup5\n        /* \"#utility.yul\":872:911   */\n      add\n        /* \"#utility.yul\":865:911   */\n      swap2\n      pop\n        /* \"#utility.yul\":632:917   */\n      pop\n        /* \"#utility.yul\":540:917   */\n      swap3\n      swap2\n      pop\n      pop\n      jump\t// out\n        /* \"#utility.yul\":923:1236   */\n    tag_22:\n        /* \"#utility.yul\":1036:1040   */\n      0x00\n        /* \"#utility.yul\":1074:1076   */\n      0x20\n        /* \"#utility.yul\":1063:1072   */\n      dup3\n        /* \"#utility.yul\":1059:1077   */\n      add\n        /* \"#utility.yul\":1051:1077   */\n      swap1\n      pop\n        /* \"#utility.yul\":1123:1132   */\n      dup2\n        /* \"#utility.yul\":1117:1121   */\n      dup2\n        /* \"#utility.yul\":1113:1133   */\n      sub\n        /* \"#utility.yul\":1109:1110   */\n      0x00\n        /* \"#utility.yul\":1098:1107   */\n      dup4\n        /* \"#utility.yul\":1094:1111   */\n      add\n        /* \"#utility.yul\":1087:1134   */\n      mstore\n        /* \"#utility.yul\":1151:1229   */\n      tag_276\n        /* \"#utility.yul\":1224:1228   */\n      dup2\n        /* \"#utility.yul\":1215:1221   */\n      dup5\n        /* \"#utility.yul\":1151:1229   */\n      tag_223\n      jump\t// in\n    tag_276:\n        /* \"#utility.yul\":1143:1229   */\n      swap1\n      pop\n        /* \"#utility.yul\":923:1236   */\n      swap3\n      swap2\n      pop\n      pop\n      jump\t// out\n        /* \"#utility.yul\":1323:1440   */\n    tag_225:\n        /* \"#utility.yul\":1432:1433   */\n      0x00\n        /* \"#utility.yul\":1429:1430   */\n      dup1\n        /* \"#utility.yul\":1422:1434   */\n      revert\n        /* \"#utility.yul\":1569:1695   */\n    tag_227:\n        /* \"#utility.yul\":1606:1613   */\n      0x00\n        /* \"#utility.yul\":1646:1688   */\n      0xffffffffffffffffffffffffffffffffffffffff\n        /* \"#utility.yul\":1639:1644   */\n      dup3\n        /* \"#utility.yul\":1635:1689   */\n      and\n        /* \"#utility.yul\":1624:1689   */\n      swap1\n      pop\n        /* \"#utility.yul\":1569:1695   */\n      swap2\n      swap1\n      pop\n      jump\t// out\n        /* \"#utility.yul\":1701:1797   */\n    tag_228:\n        /* \"#utility.yul\":1738:1745   */\n      0x00\n        /* \"#utility.yul\":1767:1791   */\n      tag_282\n        /* \"#utility.yul\":1785:1790   */\n      dup3\n        /* \"#utility.yul\":1767:1791   */\n      tag_227\n      jump\t// in\n    tag_282:\n        /* \"#utility.yul\":1756:1791   */\n      swap1\n      pop\n        /* \"#utility.yul\":1701:1797   */\n      swap2\n      swap1\n      pop\n      jump\t// out\n        /* \"#utility.yul\":1803:1925   */\n    tag_229:\n        /* \"#utility.yul\":1876:1900   */\n      tag_284\n        /* \"#utility.yul\":1894:1899   */\n      dup2\n        /* \"#utility.yul\":1876:1900   */\n      tag_228\n      jump\t// in\n    tag_284:\n        /* \"#utility.yul\":1869:1874   */\n      dup2\n        /* \"#utility.yul\":1866:1901   */\n      eq\n        /* \"#utility.yul\":1856:1919   */\n      tag_285\n      jumpi\n        /* \"#utility.yul\":1915:1916   */\n      0x00\n        /* \"#utility.yul\":1912:1913   */\n      dup1\n        /* \"#utility.yul\":1905:1917   */\n      revert\n        /* \"#utility.yul\":1856:1919   */\n    tag_285:\n        /* \"#utility.yul\":1803:1925   */\n      pop\n      jump\t// out\n        /* \"#utility.yul\":1931:2070   */\n    tag_230:\n        /* \"#utility.yul\":1977:1982   */\n      0x00\n        /* \"#utility.yul\":2015:2021   */\n      dup2\n        /* \"#utility.yul\":2002:2022   */\n      calldataload\n        /* \"#utility.yul\":1993:2022   */\n      swap1\n      pop\n        /* \"#utility.yul\":2031:2064   */\n      tag_287\n        /* \"#utility.yul\":2058:2063   */\n      dup2\n        /* \"#utility.yul\":2031:2064   */\n      tag_229\n      jump\t// in\n    tag_287:\n        /* \"#utility.yul\":1931:2070   */\n      swap3\n      swap2\n      pop\n      pop\n      jump\t// out\n        /* \"#utility.yul\":2076:2153   */\n    tag_231:\n        /* \"#utility.yul\":2113:2120   */\n      0x00\n        /* \"#utility.yul\":2142:2147   */\n      dup2\n        /* \"#utility.yul\":2131:2147   */\n      swap1\n      pop\n        /* \"#utility.yul\":2076:2153   */\n      swap2\n      swap1\n      pop\n      jump\t// out\n        /* \"#utility.yul\":2159:2281   */\n    tag_232:\n        /* \"#utility.yul\":2232:2256   */\n      tag_290\n        /* \"#utility.yul\":2250:2255   */\n      dup2\n        /* \"#utility.yul\":2232:2256   */\n      tag_231\n      jump\t// in\n    tag_290:\n        /* \"#utility.yul\":2225:2230   */\n      dup2\n        /* \"#utility.yul\":2222:2257   */\n      eq\n        /* \"#utility.yul\":2212:2275   */\n      tag_291\n      jumpi\n        /* \"#utility.yul\":2271:2272   */\n      0x00\n        /* \"#utility.yul\":2268:2269   */\n      dup1\n        /* \"#utility.yul\":2261:2273   */\n      revert\n        /* \"#utility.yul\":2212:2275   */\n    tag_291:\n        /* \"#utility.yul\":2159:2281   */\n      pop\n      jump\t// out\n        /* \"#utility.yul\":2287:2426   */\n    tag_233:\n        /* \"#utility.yul\":2333:2338   */\n      0x00\n        /* \"#utility.yul\":2371:2377   */\n      dup2\n        /* \"#utility.yul\":2358:2378   */\n      calldataload\n        /* \"#utility.yul\":2349:2378   */\n      swap1\n      pop\n        /* \"#utility.yul\":2387:2420   */\n      tag_293\n        /* \"#utility.yul\":2414:2419   */\n      dup2\n        /* \"#utility.yul\":2387:2420   */\n      tag_232\n      jump\t// in\n    tag_293:\n        /* \"#utility.yul\":2287:2426   */\n      swap3\n      swap2\n      pop\n      pop\n      jump\t// out\n        /* \"#utility.yul\":2432:2906   */\n    tag_26:\n        /* \"#utility.yul\":2500:2506   */\n      0x00\n        /* \"#utility.yul\":2508:2514   */\n      dup1\n        /* \"#utility.yul\":2557:2559   */\n      0x40\n        /* \"#utility.yul\":2545:2554   */\n      dup4\n        /* \"#utility.yul\":2536:2543   */\n      dup6\n        /* \"#utility.yul\":2532:2555   */\n      sub\n        /* \"#utility.yul\":2528:2560   */\n      slt\n        /* \"#utility.yul\":2525:2644   */\n      iszero\n      tag_295\n      jumpi\n        /* \"#utility.yul\":2563:2642   */\n      tag_296\n      tag_225\n      jump\t// in\n    tag_296:\n        /* \"#utility.yul\":2525:2644   */\n    tag_295:\n        /* \"#utility.yul\":2683:2684   */\n      0x00\n        /* \"#utility.yul\":2708:2761   */\n      tag_297\n        /* \"#utility.yul\":2753:2760   */\n      dup6\n        /* \"#utility.yul\":2744:2750   */\n      dup3\n        /* \"#utility.yul\":2733:2742   */\n      dup7\n        /* \"#utility.yul\":2729:2751   */\n      add\n        /* \"#utility.yul\":2708:2761   */\n      tag_230\n      jump\t// in\n    tag_297:\n        /* \"#utility.yul\":2698:2761   */\n      swap3\n      pop\n        /* \"#utility.yul\":2654:2771   */\n      pop\n        /* \"#utility.yul\":2810:2812   */\n      0x20\n        /* \"#utility.yul\":2836:2889   */\n      tag_298\n        /* \"#utility.yul\":2881:2888   */\n      dup6\n        /* \"#utility.yul\":2872:2878   */\n      dup3\n        /* \"#utility.yul\":2861:2870   */\n      dup7\n        /* \"#utility.yul\":2857:2879   */\n      add\n        /* \"#utility.yul\":2836:2889   */\n      tag_233\n      jump\t// in\n    tag_298:\n        /* \"#utility.yul\":2826:2889   */\n      swap2\n      pop\n        /* \"#utility.yul\":2781:2899   */\n      pop\n        /* \"#utility.yul\":2432:2906   */\n      swap3\n      pop\n      swap3\n      swap1\n      pop\n      jump\t// out\n        /* \"#utility.yul\":2912:3002   */\n    tag_234:\n        /* \"#utility.yul\":2946:2953   */\n      0x00\n        /* \"#utility.yul\":2989:2994   */\n      dup2\n        /* \"#utility.yul\":2982:2995   */\n      iszero\n        /* \"#utility.yul\":2975:2996   */\n      iszero\n        /* \"#utility.yul\":2964:2996   */\n      swap1\n      pop\n        /* \"#utility.yul\":2912:3002   */\n      swap2\n      swap1\n      pop\n      jump\t// out\n        /* \"#utility.yul\":3008:3117   */\n    tag_235:\n        /* \"#utility.yul\":3089:3110   */\n      tag_301\n        /* \"#utility.yul\":3104:3109   */\n      dup2\n        /* \"#utility.yul\":3089:3110   */\n      tag_234\n      jump\t// in\n    tag_301:\n        /* \"#utility.yul\":3084:3087   */\n      dup3\n        /* \"#utility.yul\":3077:3111   */\n      mstore\n        /* \"#utility.yul\":3008:3117   */\n      pop\n      pop\n      jump\t// out\n        /* \"#utility.yul\":3123:3333   */\n    tag_29:\n        /* \"#utility.yul\":3210:3214   */\n      0x00\n        /* \"#utility.yul\":3248:3250   */\n      0x20\n        /* \"#utility.yul\":3237:3246   */\n      dup3\n        /* \"#utility.yul\":3233:3251   */\n      add\n        /* \"#utility.yul\":3225:3251   */\n      swap1\n      pop\n        /* \"#utility.yul\":3261:3326   */\n      tag_303\n        /* \"#utility.yul\":3323:3324   */\n      0x00\n        /* \"#utility.yul\":3312:3321   */\n      dup4\n        /* \"#utility.yul\":3308:3325   */\n      add\n        /* \"#utility.yul\":3299:3305   */\n      dup5\n        /* \"#utility.yul\":3261:3326   */\n      tag_235\n      jump\t// in\n    tag_303:\n        /* \"#utility.yul\":3123:3333   */\n      swap3\n      swap2\n      pop\n      pop\n      jump\t// out\n        /* \"#utility.yul\":3339:3457   */\n    tag_236:\n        /* \"#utility.yul\":3426:3450   */\n      tag_305\n        /* \"#utility.yul\":3444:3449   */\n      dup2\n        /* \"#utility.yul\":3426:3450   */\n      tag_231\n      jump\t// in\n    tag_305:\n        /* \"#utility.yul\":3421:3424   */\n      dup3\n        /* \"#utility.yul\":3414:3451   */\n      mstore\n        /* \"#utility.yul\":3339:3457   */\n      pop\n      pop\n      jump\t// out\n        /* \"#utility.yul\":3463:3685   */\n    tag_34:\n        /* \"#utility.yul\":3556:3560   */\n      0x00\n        /* \"#utility.yul\":3594:3596   */\n      0x20\n        /* \"#utility.yul\":3583:3592   */\n      dup3\n        /* \"#utility.yul\":3579:3597   */\n      add\n        /* \"#utility.yul\":3571:3597   */\n      swap1\n      pop\n        /* \"#utility.yul\":3607:3678   */\n      tag_307\n        /* \"#utility.yul\":3675:3676   */\n      0x00\n        /* \"#utility.yul\":3664:3673   */\n      dup4\n        /* \"#utility.yul\":3660:3677   */\n      add\n        /* \"#utility.yul\":3651:3657   */\n      dup5\n        /* \"#utility.yul\":3607:3678   */\n      tag_236\n      jump\t// in\n    tag_307:\n        /* \"#utility.yul\":3463:3685   */\n      swap3\n      swap2\n      pop\n      pop\n      jump\t// out\n        /* \"#utility.yul\":3691:4310   */\n    tag_38:\n        /* \"#utility.yul\":3768:3774   */\n      0x00\n        /* \"#utility.yul\":3776:3782   */\n      dup1\n        /* \"#utility.yul\":3784:3790   */\n      0x00\n        /* \"#utility.yul\":3833:3835   */\n      0x60\n        /* \"#utility.yul\":3821:3830   */\n      dup5\n        /* \"#utility.yul\":3812:3819   */\n      dup7\n        /* \"#utility.yul\":3808:3831   */\n      sub\n        /* \"#utility.yul\":3804:3836   */\n      slt\n        /* \"#utility.yul\":3801:3920   */\n      iszero\n      tag_309\n      jumpi\n        /* \"#utility.yul\":3839:3918   */\n      tag_310\n      tag_225\n      jump\t// in\n    tag_310:\n        /* \"#utility.yul\":3801:3920   */\n    tag_309:\n        /* \"#utility.yul\":3959:3960   */\n      0x00\n        /* \"#utility.yul\":3984:4037   */\n      tag_311\n        /* \"#utility.yul\":4029:4036   */\n      dup7\n        /* \"#utility.yul\":4020:4026   */\n      dup3\n        /* \"#utility.yul\":4009:4018   */\n      dup8\n        /* \"#utility.yul\":4005:4027   */\n      add\n        /* \"#utility.yul\":3984:4037   */\n      tag_230\n      jump\t// in\n    tag_311:\n        /* \"#utility.yul\":3974:4037   */\n      swap4\n      pop\n        /* \"#utility.yul\":3930:4047   */\n      pop\n        /* \"#utility.yul\":4086:4088   */\n      0x20\n        /* \"#utility.yul\":4112:4165   */\n      tag_312\n        /* \"#utility.yul\":4157:4164   */\n      dup7\n        /* \"#utility.yul\":4148:4154   */\n      dup3\n        /* \"#utility.yul\":4137:4146   */\n      dup8\n        /* \"#utility.yul\":4133:4155   */\n      add\n        /* \"#utility.yul\":4112:4165   */\n      tag_230\n      jump\t// in\n    tag_312:\n        /* \"#utility.yul\":4102:4165   */\n      swap3\n      pop\n        /* \"#utility.yul\":4057:4175   */\n      pop\n        /* \"#utility.yul\":4214:4216   */\n      0x40\n        /* \"#utility.yul\":4240:4293   */\n      tag_313\n        /* \"#utility.yul\":4285:4292   */\n      dup7\n        /* \"#utility.yul\":4276:4282   */\n      dup3\n        /* \"#utility.yul\":4265:4274   */\n      dup8\n        /* \"#utility.yul\":4261:4283   */\n      add\n        /* \"#utility.yul\":4240:4293   */\n      tag_233\n      jump\t// in\n    tag_313:\n        /* \"#utility.yul\":4230:4293   */\n      swap2\n      pop\n        /* \"#utility.yul\":4185:4303   */\n      pop\n        /* \"#utility.yul\":3691:4310   */\n      swap3\n      pop\n      swap3\n      pop\n      swap3\n      jump\t// out\n        /* \"#utility.yul\":4316:4402   */\n    tag_237:\n        /* \"#utility.yul\":4351:4358   */\n      0x00\n        /* \"#utility.yul\":4391:4395   */\n      0xff\n        /* \"#utility.yul\":4384:4389   */\n      dup3\n        /* \"#utility.yul\":4380:4396   */\n      and\n        /* \"#utility.yul\":4369:4396   */\n      swap1\n      pop\n        /* \"#utility.yul\":4316:4402   */\n      swap2\n      swap1\n      pop\n      jump\t// out\n        /* \"#utility.yul\":4408:4520   */\n    tag_238:\n        /* \"#utility.yul\":4491:4513   */\n      tag_316\n        /* \"#utility.yul\":4507:4512   */\n      dup2\n        /* \"#utility.yul\":4491:4513   */\n      tag_237\n      jump\t// in\n    tag_316:\n        /* \"#utility.yul\":4486:4489   */\n      dup3\n        /* \"#utility.yul\":4479:4514   */\n      mstore\n        /* \"#utility.yul\":4408:4520   */\n      pop\n      pop\n      jump\t// out\n        /* \"#utility.yul\":4526:4740   */\n    tag_45:\n        /* \"#utility.yul\":4615:4619   */\n      0x00\n        /* \"#utility.yul\":4653:4655   */\n      0x20\n        /* \"#utility.yul\":4642:4651   */\n      dup3\n        /* \"#utility.yul\":4638:4656   */\n      add\n        /* \"#utility.yul\":4630:4656   */\n      swap1\n      pop\n        /* \"#utility.yul\":4666:4733   */\n      tag_318\n        /* \"#utility.yul\":4730:4731   */\n      0x00\n        /* \"#utility.yul\":4719:4728   */\n      dup4\n        /* \"#utility.yul\":4715:4732   */\n      add\n        /* \"#utility.yul\":4706:4712   */\n      dup5\n        /* \"#utility.yul\":4666:4733   */\n      tag_238\n      jump\t// in\n    tag_318:\n        /* \"#utility.yul\":4526:4740   */\n      swap3\n      swap2\n      pop\n      pop\n      jump\t// out\n        /* \"#utility.yul\":4746:5075   */\n    tag_56:\n        /* \"#utility.yul\":4805:4811   */\n      0x00\n        /* \"#utility.yul\":4854:4856   */\n      0x20\n        /* \"#utility.yul\":4842:4851   */\n      dup3\n        /* \"#utility.yul\":4833:4840   */\n      dup5\n        /* \"#utility.yul\":4829:4852   */\n      sub\n        /* \"#utility.yul\":4825:4857   */\n      slt\n        /* \"#utility.yul\":4822:4941   */\n      iszero\n      tag_320\n      jumpi\n        /* \"#utility.yul\":4860:4939   */\n      tag_321\n      tag_225\n      jump\t// in\n    tag_321:\n        /* \"#utility.yul\":4822:4941   */\n    tag_320:\n        /* \"#utility.yul\":4980:4981   */\n      0x00\n        /* \"#utility.yul\":5005:5058   */\n      tag_322\n        /* \"#utility.yul\":5050:5057   */\n      dup5\n        /* \"#utility.yul\":5041:5047   */\n      dup3\n        /* \"#utility.yul\":5030:5039   */\n      dup6\n        /* \"#utility.yul\":5026:5048   */\n      add\n        /* \"#utility.yul\":5005:5058   */\n      tag_233\n      jump\t// in\n    tag_322:\n        /* \"#utility.yul\":4995:5058   */\n      swap2\n      pop\n        /* \"#utility.yul\":4951:5068   */\n      pop\n        /* \"#utility.yul\":4746:5075   */\n      swap3\n      swap2\n      pop\n      pop\n      jump\t// out\n        /* \"#utility.yul\":5081:5410   */\n    tag_61:\n        /* \"#utility.yul\":5140:5146   */\n      0x00\n        /* \"#utility.yul\":5189:5191   */\n      0x20\n        /* \"#utility.yul\":5177:5186   */\n      dup3\n        /* \"#utility.yul\":5168:5175   */\n      dup5\n        /* \"#utility.yul\":5164:5187   */\n      sub\n        /* \"#utility.yul\":5160:5192   */\n      slt\n        /* \"#utility.yul\":5157:5276   */\n      iszero\n      tag_324\n      jumpi\n        /* \"#utility.yul\":5195:5274   */\n      tag_325\n      tag_225\n      jump\t// in\n    tag_325:\n        /* \"#utility.yul\":5157:5276   */\n    tag_324:\n        /* \"#utility.yul\":5315:5316   */\n      0x00\n        /* \"#utility.yul\":5340:5393   */\n      tag_326\n        /* \"#utility.yul\":5385:5392   */\n      dup5\n        /* \"#utility.yul\":5376:5382   */\n      dup3\n        /* \"#utility.yul\":5365:5374   */\n      dup6\n        /* \"#utility.yul\":5361:5383   */\n      add\n        /* \"#utility.yul\":5340:5393   */\n      tag_230\n      jump\t// in\n    tag_326:\n        /* \"#utility.yul\":5330:5393   */\n      swap2\n      pop\n        /* \"#utility.yul\":5286:5403   */\n      pop\n        /* \"#utility.yul\":5081:5410   */\n      swap3\n      swap2\n      pop\n      pop\n      jump\t// out\n        /* \"#utility.yul\":5416:5890   */\n    tag_76:\n        /* \"#utility.yul\":5484:5490   */\n      0x00\n        /* \"#utility.yul\":5492:5498   */\n      dup1\n        /* \"#utility.yul\":5541:5543   */\n      0x40\n        /* \"#utility.yul\":5529:5538   */\n      dup4\n        /* \"#utility.yul\":5520:5527   */\n      dup6\n        /* \"#utility.yul\":5516:5539   */\n      sub\n        /* \"#utility.yul\":5512:5544   */\n      slt\n        /* \"#utility.yul\":5509:5628   */\n      iszero\n      tag_328\n      jumpi\n        /* \"#utility.yul\":5547:5626   */\n      tag_329\n      tag_225\n      jump\t// in\n    tag_329:\n        /* \"#utility.yul\":5509:5628   */\n    tag_328:\n        /* \"#utility.yul\":5667:5668   */\n      0x00\n        /* \"#utility.yul\":5692:5745   */\n      tag_330\n        /* \"#utility.yul\":5737:5744   */\n      dup6\n        /* \"#utility.yul\":5728:5734   */\n      dup3\n        /* \"#utility.yul\":5717:5726   */\n      dup7\n        /* \"#utility.yul\":5713:5735   */\n      add\n        /* \"#utility.yul\":5692:5745   */\n      tag_230\n      jump\t// in\n    tag_330:\n        /* \"#utility.yul\":5682:5745   */\n      swap3\n      pop\n        /* \"#utility.yul\":5638:5755   */\n      pop\n        /* \"#utility.yul\":5794:5796   */\n      0x20\n        /* \"#utility.yul\":5820:5873   */\n      tag_331\n        /* \"#utility.yul\":5865:5872   */\n      dup6\n        /* \"#utility.yul\":5856:5862   */\n      dup3\n        /* \"#utility.yul\":5845:5854   */\n      dup7\n        /* \"#utility.yul\":5841:5863   */\n      add\n        /* \"#utility.yul\":5820:5873   */\n      tag_230\n      jump\t// in\n    tag_331:\n        /* \"#utility.yul\":5810:5873   */\n      swap2\n      pop\n        /* \"#utility.yul\":5765:5883   */\n      pop\n        /* \"#utility.yul\":5416:5890   */\n      swap3\n      pop\n      swap3\n      swap1\n      pop\n      jump\t// out\n        /* \"#utility.yul\":5896:6076   */\n    tag_239:\n        /* \"#utility.yul\":5944:6021   */\n      0x4e487b7100000000000000000000000000000000000000000000000000000000\n        /* \"#utility.yul\":5941:5942   */\n      0x00\n        /* \"#utility.yul\":5934:6022   */\n      mstore\n        /* \"#utility.yul\":6041:6045   */\n      0x22\n        /* \"#utility.yul\":6038:6039   */\n      0x04\n        /* \"#utility.yul\":6031:6046   */\n      mstore\n        /* \"#utility.yul\":6065:6069   */\n      0x24\n        /* \"#utility.yul\":6062:6063   */\n      0x00\n        /* \"#utility.yul\":6055:6070   */\n      revert\n        /* \"#utility.yul\":6082:6402   */\n    tag_80:\n        /* \"#utility.yul\":6126:6132   */\n      0x00\n        /* \"#utility.yul\":6163:6164   */\n      0x02\n        /* \"#utility.yul\":6157:6161   */\n      dup3\n        /* \"#utility.yul\":6153:6165   */\n      div\n        /* \"#utility.yul\":6143:6165   */\n      swap1\n      pop\n        /* \"#utility.yul\":6210:6211   */\n      0x01\n        /* \"#utility.yul\":6204:6208   */\n      dup3\n        /* \"#utility.yul\":6200:6212   */\n      and\n        /* \"#utility.yul\":6231:6249   */\n      dup1\n        /* \"#utility.yul\":6221:6302   */\n      tag_334\n      jumpi\n        /* \"#utility.yul\":6287:6291   */\n      0x7f\n        /* \"#utility.yul\":6279:6285   */\n      dup3\n        /* \"#utility.yul\":6275:6292   */\n      and\n        /* \"#utility.yul\":6265:6292   */\n      swap2\n      pop\n        /* \"#utility.yul\":6221:6302   */\n    tag_334:\n        /* \"#utility.yul\":6349:6351   */\n      0x20\n        /* \"#utility.yul\":6341:6347   */\n      dup3\n        /* \"#utility.yul\":6338:6352   */\n      lt\n        /* \"#utility.yul\":6318:6336   */\n      dup2\n        /* \"#utility.yul\":6315:6353   */\n      sub\n        /* \"#utility.yul\":6312:6396   */\n      tag_335\n      jumpi\n        /* \"#utility.yul\":6368:6386   */\n      tag_336\n      tag_239\n      jump\t// in\n    tag_336:\n        /* \"#utility.yul\":6312:6396   */\n    tag_335:\n        /* \"#utility.yul\":6133:6402   */\n      pop\n        /* \"#utility.yul\":6082:6402   */\n      swap2\n      swap1\n      pop\n      jump\t// out\n        /* \"#utility.yul\":6408:6588   */\n    tag_240:\n        /* \"#utility.yul\":6456:6533   */\n      0x4e487b7100000000000000000000000000000000000000000000000000000000\n        /* \"#utility.yul\":6453:6454   */\n      0x00\n        /* \"#utility.yul\":6446:6534   */\n      mstore\n        /* \"#utility.yul\":6553:6557   */\n      0x11\n        /* \"#utility.yul\":6550:6551   */\n      0x04\n        /* \"#utility.yul\":6543:6558   */\n      mstore\n        /* \"#utility.yul\":6577:6581   */\n      0x24\n        /* \"#utility.yul\":6574:6575   */\n      0x00\n        /* \"#utility.yul\":6567:6582   */\n      revert\n        /* \"#utility.yul\":6594:6788   */\n    tag_94:\n        /* \"#utility.yul\":6634:6638   */\n      0x00\n        /* \"#utility.yul\":6654:6674   */\n      tag_339\n        /* \"#utility.yul\":6672:6673   */\n      dup3\n        /* \"#utility.yul\":6654:6674   */\n      tag_231\n      jump\t// in\n    tag_339:\n        /* \"#utility.yul\":6649:6674   */\n      swap2\n      pop\n        /* \"#utility.yul\":6688:6708   */\n      tag_340\n        /* \"#utility.yul\":6706:6707   */\n      dup4\n        /* \"#utility.yul\":6688:6708   */\n      tag_231\n      jump\t// in\n    tag_340:\n        /* \"#utility.yul\":6683:6708   */\n      swap3\n      pop\n        /* \"#utility.yul\":6732:6733   */\n      dup3\n        /* \"#utility.yul\":6729:6730   */\n      dup3\n        /* \"#utility.yul\":6725:6734   */\n      sub\n        /* \"#utility.yul\":6717:6734   */\n      swap1\n      pop\n        /* \"#utility.yul\":6756:6757   */\n      dup2\n        /* \"#utility.yul\":6750:6754   */\n      dup2\n        /* \"#utility.yul\":6747:6758   */\n      gt\n        /* \"#utility.yul\":6744:6781   */\n      iszero\n      tag_341\n      jumpi\n        /* \"#utility.yul\":6761:6779   */\n      tag_342\n      tag_240\n      jump\t// in\n    tag_342:\n        /* \"#utility.yul\":6744:6781   */\n    tag_341:\n        /* \"#utility.yul\":6594:6788   */\n      swap3\n      swap2\n      pop\n      pop\n      jump\t// out\n        /* \"#utility.yul\":6794:7015   */\n    tag_241:\n        /* \"#utility.yul\":6934:6968   */\n      0x4f6e6c79206f776e65722063616e20616363657373207468697320616374696f\n        /* \"#utility.yul\":6930:6931   */\n      0x00\n        /* \"#utility.yul\":6922:6928   */\n      dup3\n        /* \"#utility.yul\":6918:6932   */\n      add\n        /* \"#utility.yul\":6911:6969   */\n      mstore\n        /* \"#utility.yul\":7003:7007   */\n      0x6e2e000000000000000000000000000000000000000000000000000000000000\n        /* \"#utility.yul\":6998:7000   */\n      0x20\n        /* \"#utility.yul\":6990:6996   */\n      dup3\n        /* \"#utility.yul\":6986:7001   */\n      add\n        /* \"#utility.yul\":6979:7008   */\n      mstore\n        /* \"#utility.yul\":6794:7015   */\n      pop\n      jump\t// out\n        /* \"#utility.yul\":7021:7387   */\n    tag_242:\n        /* \"#utility.yul\":7163:7166   */\n      0x00\n        /* \"#utility.yul\":7184:7251   */\n      tag_345\n        /* \"#utility.yul\":7248:7250   */\n      0x22\n        /* \"#utility.yul\":7243:7246   */\n      dup4\n        /* \"#utility.yul\":7184:7251   */\n      tag_220\n      jump\t// in\n    tag_345:\n        /* \"#utility.yul\":7177:7251   */\n      swap2\n      pop\n        /* \"#utility.yul\":7260:7353   */\n      tag_346\n        /* \"#utility.yul\":7349:7352   */\n      dup3\n        /* \"#utility.yul\":7260:7353   */\n      tag_241\n      jump\t// in\n    tag_346:\n        /* \"#utility.yul\":7378:7380   */\n      0x40\n        /* \"#utility.yul\":7373:7376   */\n      dup3\n        /* \"#utility.yul\":7369:7381   */\n      add\n        /* \"#utility.yul\":7362:7381   */\n      swap1\n      pop\n        /* \"#utility.yul\":7021:7387   */\n      swap2\n      swap1\n      pop\n      jump\t// out\n        /* \"#utility.yul\":7393:7812   */\n    tag_98:\n        /* \"#utility.yul\":7559:7563   */\n      0x00\n        /* \"#utility.yul\":7597:7599   */\n      0x20\n        /* \"#utility.yul\":7586:7595   */\n      dup3\n        /* \"#utility.yul\":7582:7600   */\n      add\n        /* \"#utility.yul\":7574:7600   */\n      swap1\n      pop\n        /* \"#utility.yul\":7646:7655   */\n      dup2\n        /* \"#utility.yul\":7640:7644   */\n      dup2\n        /* \"#utility.yul\":7636:7656   */\n      sub\n        /* \"#utility.yul\":7632:7633   */\n      0x00\n        /* \"#utility.yul\":7621:7630   */\n      dup4\n        /* \"#utility.yul\":7617:7634   */\n      add\n        /* \"#utility.yul\":7610:7657   */\n      mstore\n        /* \"#utility.yul\":7674:7805   */\n      tag_348\n        /* \"#utility.yul\":7800:7804   */\n      dup2\n        /* \"#utility.yul\":7674:7805   */\n      tag_242\n      jump\t// in\n    tag_348:\n        /* \"#utility.yul\":7666:7805   */\n      swap1\n      pop\n        /* \"#utility.yul\":7393:7812   */\n      swap2\n      swap1\n      pop\n      jump\t// out\n        /* \"#utility.yul\":7818:8009   */\n    tag_107:\n        /* \"#utility.yul\":7858:7861   */\n      0x00\n        /* \"#utility.yul\":7877:7897   */\n      tag_350\n        /* \"#utility.yul\":7895:7896   */\n      dup3\n        /* \"#utility.yul\":7877:7897   */\n      tag_231\n      jump\t// in\n    tag_350:\n        /* \"#utility.yul\":7872:7897   */\n      swap2\n      pop\n        /* \"#utility.yul\":7911:7931   */\n      tag_351\n        /* \"#utility.yul\":7929:7930   */\n      dup4\n        /* \"#utility.yul\":7911:7931   */\n      tag_231\n      jump\t// in\n    tag_351:\n        /* \"#utility.yul\":7906:7931   */\n      swap3\n      pop\n        /* \"#utility.yul\":7954:7955   */\n      dup3\n        /* \"#utility.yul\":7951:7952   */\n      dup3\n        /* \"#utility.yul\":7947:7956   */\n      add\n        /* \"#utility.yul\":7940:7956   */\n      swap1\n      pop\n        /* \"#utility.yul\":7975:7978   */\n      dup1\n        /* \"#utility.yul\":7972:7973   */\n      dup3\n        /* \"#utility.yul\":7969:7979   */\n      gt\n        /* \"#utility.yul\":7966:8002   */\n      iszero\n      tag_352\n      jumpi\n        /* \"#utility.yul\":7982:8000   */\n      tag_353\n      tag_240\n      jump\t// in\n    tag_353:\n        /* \"#utility.yul\":7966:8002   */\n    tag_352:\n        /* \"#utility.yul\":7818:8009   */\n      swap3\n      swap2\n      pop\n      pop\n      jump\t// out\n        /* \"#utility.yul\":8015:8188   */\n    tag_243:\n        /* \"#utility.yul\":8155:8180   */\n      0x496e73756666696369656e74206d617820737570706c79000000000000000000\n        /* \"#utility.yul\":8151:8152   */\n      0x00\n        /* \"#utility.yul\":8143:8149   */\n      dup3\n        /* \"#utility.yul\":8139:8153   */\n      add\n        /* \"#utility.yul\":8132:8181   */\n      mstore\n        /* \"#utility.yul\":8015:8188   */\n      pop\n      jump\t// out\n        /* \"#utility.yul\":8194:8560   */\n    tag_244:\n        /* \"#utility.yul\":8336:8339   */\n      0x00\n        /* \"#utility.yul\":8357:8424   */\n      tag_356\n        /* \"#utility.yul\":8421:8423   */\n      0x17\n        /* \"#utility.yul\":8416:8419   */\n      dup4\n        /* \"#utility.yul\":8357:8424   */\n      tag_220\n      jump\t// in\n    tag_356:\n        /* \"#utility.yul\":8350:8424   */\n      swap2\n      pop\n        /* \"#utility.yul\":8433:8526   */\n      tag_357\n        /* \"#utility.yul\":8522:8525   */\n      dup3\n        /* \"#utility.yul\":8433:8526   */\n      tag_243\n      jump\t// in\n    tag_357:\n        /* \"#utility.yul\":8551:8553   */\n      0x20\n        /* \"#utility.yul\":8546:8549   */\n      dup3\n        /* \"#utility.yul\":8542:8554   */\n      add\n        /* \"#utility.yul\":8535:8554   */\n      swap1\n      pop\n        /* \"#utility.yul\":8194:8560   */\n      swap2\n      swap1\n      pop\n      jump\t// out\n        /* \"#utility.yul\":8566:8985   */\n    tag_110:\n        /* \"#utility.yul\":8732:8736   */\n      0x00\n        /* \"#utility.yul\":8770:8772   */\n      0x20\n        /* \"#utility.yul\":8759:8768   */\n      dup3\n        /* \"#utility.yul\":8755:8773   */\n      add\n        /* \"#utility.yul\":8747:8773   */\n      swap1\n      pop\n        /* \"#utility.yul\":8819:8828   */\n      dup2\n        /* \"#utility.yul\":8813:8817   */\n      dup2\n        /* \"#utility.yul\":8809:8829   */\n      sub\n        /* \"#utility.yul\":8805:8806   */\n      0x00\n        /* \"#utility.yul\":8794:8803   */\n      dup4\n        /* \"#utility.yul\":8790:8807   */\n      add\n        /* \"#utility.yul\":8783:8830   */\n      mstore\n        /* \"#utility.yul\":8847:8978   */\n      tag_359\n        /* \"#utility.yul\":8973:8977   */\n      dup2\n        /* \"#utility.yul\":8847:8978   */\n      tag_244\n      jump\t// in\n    tag_359:\n        /* \"#utility.yul\":8839:8978   */\n      swap1\n      pop\n        /* \"#utility.yul\":8566:8985   */\n      swap2\n      swap1\n      pop\n      jump\t// out\n        /* \"#utility.yul\":8991:9172   */\n    tag_245:\n        /* \"#utility.yul\":9131:9164   */\n      0x52656e7472616e742063616c6c7320617265206e6f7420616c6c6f7765642e00\n        /* \"#utility.yul\":9127:9128   */\n      0x00\n        /* \"#utility.yul\":9119:9125   */\n      dup3\n        /* \"#utility.yul\":9115:9129   */\n      add\n        /* \"#utility.yul\":9108:9165   */\n      mstore\n        /* \"#utility.yul\":8991:9172   */\n      pop\n      jump\t// out\n        /* \"#utility.yul\":9178:9544   */\n    tag_246:\n        /* \"#utility.yul\":9320:9323   */\n      0x00\n        /* \"#utility.yul\":9341:9408   */\n      tag_362\n        /* \"#utility.yul\":9405:9407   */\n      0x1f\n        /* \"#utility.yul\":9400:9403   */\n      dup4\n        /* \"#utility.yul\":9341:9408   */\n      tag_220\n      jump\t// in\n    tag_362:\n        /* \"#utility.yul\":9334:9408   */\n      swap2\n      pop\n        /* \"#utility.yul\":9417:9510   */\n      tag_363\n        /* \"#utility.yul\":9506:9509   */\n      dup3\n        /* \"#utility.yul\":9417:9510   */\n      tag_245\n      jump\t// in\n    tag_363:\n        /* \"#utility.yul\":9535:9537   */\n      0x20\n        /* \"#utility.yul\":9530:9533   */\n      dup3\n        /* \"#utility.yul\":9526:9538   */\n      add\n        /* \"#utility.yul\":9519:9538   */\n      swap1\n      pop\n        /* \"#utility.yul\":9178:9544   */\n      swap2\n      swap1\n      pop\n      jump\t// out\n        /* \"#utility.yul\":9550:9969   */\n    tag_115:\n        /* \"#utility.yul\":9716:9720   */\n      0x00\n        /* \"#utility.yul\":9754:9756   */\n      0x20\n        /* \"#utility.yul\":9743:9752   */\n      dup3\n        /* \"#utility.yul\":9739:9757   */\n      add\n        /* \"#utility.yul\":9731:9757   */\n      swap1\n      pop\n        /* \"#utility.yul\":9803:9812   */\n      dup2\n        /* \"#utility.yul\":9797:9801   */\n      dup2\n        /* \"#utility.yul\":9793:9813   */\n      sub\n        /* \"#utility.yul\":9789:9790   */\n      0x00\n        /* \"#utility.yul\":9778:9787   */\n      dup4\n        /* \"#utility.yul\":9774:9791   */\n      add\n        /* \"#utility.yul\":9767:9814   */\n      mstore\n        /* \"#utility.yul\":9831:9962   */\n      tag_365\n        /* \"#utility.yul\":9957:9961   */\n      dup2\n        /* \"#utility.yul\":9831:9962   */\n      tag_246\n      jump\t// in\n    tag_365:\n        /* \"#utility.yul\":9823:9962   */\n      swap1\n      pop\n        /* \"#utility.yul\":9550:9969   */\n      swap2\n      swap1\n      pop\n      jump\t// out\n        /* \"#utility.yul\":9975:10136   */\n    tag_247:\n        /* \"#utility.yul\":10115:10128   */\n      0x4d696e74206661696c6564000000000000000000000000000000000000000000\n        /* \"#utility.yul\":10111:10112   */\n      0x00\n        /* \"#utility.yul\":10103:10109   */\n      dup3\n        /* \"#utility.yul\":10099:10113   */\n      add\n        /* \"#utility.yul\":10092:10129   */\n      mstore\n        /* \"#utility.yul\":9975:10136   */\n      pop\n      jump\t// out\n        /* \"#utility.yul\":10142:10508   */\n    tag_248:\n        /* \"#utility.yul\":10284:10287   */\n      0x00\n        /* \"#utility.yul\":10305:10372   */\n      tag_368\n        /* \"#utility.yul\":10369:10371   */\n      0x0b\n        /* \"#utility.yul\":10364:10367   */\n      dup4\n        /* \"#utility.yul\":10305:10372   */\n      tag_220\n      jump\t// in\n    tag_368:\n        /* \"#utility.yul\":10298:10372   */\n      swap2\n      pop\n        /* \"#utility.yul\":10381:10474   */\n      tag_369\n        /* \"#utility.yul\":10470:10473   */\n      dup3\n        /* \"#utility.yul\":10381:10474   */\n      tag_247\n      jump\t// in\n    tag_369:\n        /* \"#utility.yul\":10499:10501   */\n      0x20\n        /* \"#utility.yul\":10494:10497   */\n      dup3\n        /* \"#utility.yul\":10490:10502   */\n      add\n        /* \"#utility.yul\":10483:10502   */\n      swap1\n      pop\n        /* \"#utility.yul\":10142:10508   */\n      swap2\n      swap1\n      pop\n      jump\t// out\n        /* \"#utility.yul\":10514:10933   */\n    tag_123:\n        /* \"#utility.yul\":10680:10684   */\n      0x00\n        /* \"#utility.yul\":10718:10720   */\n      0x20\n        /* \"#utility.yul\":10707:10716   */\n      dup3\n        /* \"#utility.yul\":10703:10721   */\n      add\n        /* \"#utility.yul\":10695:10721   */\n      swap1\n      pop\n        /* \"#utility.yul\":10767:10776   */\n      dup2\n        /* \"#utility.yul\":10761:10765   */\n      dup2\n        /* \"#utility.yul\":10757:10777   */\n      sub\n        /* \"#utility.yul\":10753:10754   */\n      0x00\n        /* \"#utility.yul\":10742:10751   */\n      dup4\n        /* \"#utility.yul\":10738:10755   */\n      add\n        /* \"#utility.yul\":10731:10778   */\n      mstore\n        /* \"#utility.yul\":10795:10926   */\n      tag_371\n        /* \"#utility.yul\":10921:10925   */\n      dup2\n        /* \"#utility.yul\":10795:10926   */\n      tag_248\n      jump\t// in\n    tag_371:\n        /* \"#utility.yul\":10787:10926   */\n      swap1\n      pop\n        /* \"#utility.yul\":10514:10933   */\n      swap2\n      swap1\n      pop\n      jump\t// out\n        /* \"#utility.yul\":10939:11118   */\n    tag_249:\n        /* \"#utility.yul\":11079:11110   */\n      0x4d757374207370656369667920612076616c696420616464726573732e000000\n        /* \"#utility.yul\":11075:11076   */\n      0x00\n        /* \"#utility.yul\":11067:11073   */\n      dup3\n        /* \"#utility.yul\":11063:11077   */\n      add\n        /* \"#utility.yul\":11056:11111   */\n      mstore\n        /* \"#utility.yul\":10939:11118   */\n      pop\n      jump\t// out\n        /* \"#utility.yul\":11124:11490   */\n    tag_250:\n        /* \"#utility.yul\":11266:11269   */\n      0x00\n        /* \"#utility.yul\":11287:11354   */\n      tag_374\n        /* \"#utility.yul\":11351:11353   */\n      0x1d\n        /* \"#utility.yul\":11346:11349   */\n      dup4\n        /* \"#utility.yul\":11287:11354   */\n      tag_220\n      jump\t// in\n    tag_374:\n        /* \"#utility.yul\":11280:11354   */\n      swap2\n      pop\n        /* \"#utility.yul\":11363:11456   */\n      tag_375\n        /* \"#utility.yul\":11452:11455   */\n      dup3\n        /* \"#utility.yul\":11363:11456   */\n      tag_249\n      jump\t// in\n    tag_375:\n        /* \"#utility.yul\":11481:11483   */\n      0x20\n        /* \"#utility.yul\":11476:11479   */\n      dup3\n        /* \"#utility.yul\":11472:11484   */\n      add\n        /* \"#utility.yul\":11465:11484   */\n      swap1\n      pop\n        /* \"#utility.yul\":11124:11490   */\n      swap2\n      swap1\n      pop\n      jump\t// out\n        /* \"#utility.yul\":11496:11915   */\n    tag_130:\n        /* \"#utility.yul\":11662:11666   */\n      0x00\n        /* \"#utility.yul\":11700:11702   */\n      0x20\n        /* \"#utility.yul\":11689:11698   */\n      dup3\n        /* \"#utility.yul\":11685:11703   */\n      add\n        /* \"#utility.yul\":11677:11703   */\n      swap1\n      pop\n        /* \"#utility.yul\":11749:11758   */\n      dup2\n        /* \"#utility.yul\":11743:11747   */\n      dup2\n        /* \"#utility.yul\":11739:11759   */\n      sub\n        /* \"#utility.yul\":11735:11736   */\n      0x00\n        /* \"#utility.yul\":11724:11733   */\n      dup4\n        /* \"#utility.yul\":11720:11737   */\n      add\n        /* \"#utility.yul\":11713:11760   */\n      mstore\n        /* \"#utility.yul\":11777:11908   */\n      tag_377\n        /* \"#utility.yul\":11903:11907   */\n      dup2\n        /* \"#utility.yul\":11777:11908   */\n      tag_250\n      jump\t// in\n    tag_377:\n        /* \"#utility.yul\":11769:11908   */\n      swap1\n      pop\n        /* \"#utility.yul\":11496:11915   */\n      swap2\n      swap1\n      pop\n      jump\t// out\n        /* \"#utility.yul\":11921:12096   */\n    tag_251:\n        /* \"#utility.yul\":12061:12088   */\n      0x496e73756666696369656e7420746f74616c20737570706c7900000000000000\n        /* \"#utility.yul\":12057:12058   */\n      0x00\n        /* \"#utility.yul\":12049:12055   */\n      dup3\n        /* \"#utility.yul\":12045:12059   */\n      add\n        /* \"#utility.yul\":12038:12089   */\n      mstore\n        /* \"#utility.yul\":11921:12096   */\n      pop\n      jump\t// out\n        /* \"#utility.yul\":12102:12468   */\n    tag_252:\n        /* \"#utility.yul\":12244:12247   */\n      0x00\n        /* \"#utility.yul\":12265:12332   */\n      tag_380\n        /* \"#utility.yul\":12329:12331   */\n      0x19\n        /* \"#utility.yul\":12324:12327   */\n      dup4\n        /* \"#utility.yul\":12265:12332   */\n      tag_220\n      jump\t// in\n    tag_380:\n        /* \"#utility.yul\":12258:12332   */\n      swap2\n      pop\n        /* \"#utility.yul\":12341:12434   */\n      tag_381\n        /* \"#utility.yul\":12430:12433   */\n      dup3\n        /* \"#utility.yul\":12341:12434   */\n      tag_251\n      jump\t// in\n    tag_381:\n        /* \"#utility.yul\":12459:12461   */\n      0x20\n        /* \"#utility.yul\":12454:12457   */\n      dup3\n        /* \"#utility.yul\":12450:12462   */\n      add\n        /* \"#utility.yul\":12443:12462   */\n      swap1\n      pop\n        /* \"#utility.yul\":12102:12468   */\n      swap2\n      swap1\n      pop\n      jump\t// out\n        /* \"#utility.yul\":12474:12893   */\n    tag_134:\n        /* \"#utility.yul\":12640:12644   */\n      0x00\n        /* \"#utility.yul\":12678:12680   */\n      0x20\n        /* \"#utility.yul\":12667:12676   */\n      dup3\n        /* \"#utility.yul\":12663:12681   */\n      add\n        /* \"#utility.yul\":12655:12681   */\n      swap1\n      pop\n        /* \"#utility.yul\":12727:12736   */\n      dup2\n        /* \"#utility.yul\":12721:12725   */\n      dup2\n        /* \"#utility.yul\":12717:12737   */\n      sub\n        /* \"#utility.yul\":12713:12714   */\n      0x00\n        /* \"#utility.yul\":12702:12711   */\n      dup4\n        /* \"#utility.yul\":12698:12715   */\n      add\n        /* \"#utility.yul\":12691:12738   */\n      mstore\n        /* \"#utility.yul\":12755:12886   */\n      tag_383\n        /* \"#utility.yul\":12881:12885   */\n      dup2\n        /* \"#utility.yul\":12755:12886   */\n      tag_252\n      jump\t// in\n    tag_383:\n        /* \"#utility.yul\":12747:12886   */\n      swap1\n      pop\n        /* \"#utility.yul\":12474:12893   */\n      swap2\n      swap1\n      pop\n      jump\t// out\n        /* \"#utility.yul\":12899:13069   */\n    tag_253:\n        /* \"#utility.yul\":13039:13061   */\n      0x496e73756666696369656e742062616c616e6365000000000000000000000000\n        /* \"#utility.yul\":13035:13036   */\n      0x00\n        /* \"#utility.yul\":13027:13033   */\n      dup3\n        /* \"#utility.yul\":13023:13037   */\n      add\n        /* \"#utility.yul\":13016:13062   */\n      mstore\n        /* \"#utility.yul\":12899:13069   */\n      pop\n      jump\t// out\n        /* \"#utility.yul\":13075:13441   */\n    tag_254:\n        /* \"#utility.yul\":13217:13220   */\n      0x00\n        /* \"#utility.yul\":13238:13305   */\n      tag_386\n        /* \"#utility.yul\":13302:13304   */\n      0x14\n        /* \"#utility.yul\":13297:13300   */\n      dup4\n        /* \"#utility.yul\":13238:13305   */\n      tag_220\n      jump\t// in\n    tag_386:\n        /* \"#utility.yul\":13231:13305   */\n      swap2\n      pop\n        /* \"#utility.yul\":13314:13407   */\n      tag_387\n        /* \"#utility.yul\":13403:13406   */\n      dup3\n        /* \"#utility.yul\":13314:13407   */\n      tag_253\n      jump\t// in\n    tag_387:\n        /* \"#utility.yul\":13432:13434   */\n      0x20\n        /* \"#utility.yul\":13427:13430   */\n      dup3\n        /* \"#utility.yul\":13423:13435   */\n      add\n        /* \"#utility.yul\":13416:13435   */\n      swap1\n      pop\n        /* \"#utility.yul\":13075:13441   */\n      swap2\n      swap1\n      pop\n      jump\t// out\n        /* \"#utility.yul\":13447:13866   */\n    tag_137:\n        /* \"#utility.yul\":13613:13617   */\n      0x00\n        /* \"#utility.yul\":13651:13653   */\n      0x20\n        /* \"#utility.yul\":13640:13649   */\n      dup3\n        /* \"#utility.yul\":13636:13654   */\n      add\n        /* \"#utility.yul\":13628:13654   */\n      swap1\n      pop\n        /* \"#utility.yul\":13700:13709   */\n      dup2\n        /* \"#utility.yul\":13694:13698   */\n      dup2\n        /* \"#utility.yul\":13690:13710   */\n      sub\n        /* \"#utility.yul\":13686:13687   */\n      0x00\n        /* \"#utility.yul\":13675:13684   */\n      dup4\n        /* \"#utility.yul\":13671:13688   */\n      add\n        /* \"#utility.yul\":13664:13711   */\n      mstore\n        /* \"#utility.yul\":13728:13859   */\n      tag_389\n        /* \"#utility.yul\":13854:13858   */\n      dup2\n        /* \"#utility.yul\":13728:13859   */\n      tag_254\n      jump\t// in\n    tag_389:\n        /* \"#utility.yul\":13720:13859   */\n      swap1\n      pop\n        /* \"#utility.yul\":13447:13866   */\n      swap2\n      swap1\n      pop\n      jump\t// out\n        /* \"#utility.yul\":13872:14046   */\n    tag_255:\n        /* \"#utility.yul\":14012:14038   */\n      0x4275726e20776173206e6f74207375636365737366756c2e0000000000000000\n        /* \"#utility.yul\":14008:14009   */\n      0x00\n        /* \"#utility.yul\":14000:14006   */\n      dup3\n        /* \"#utility.yul\":13996:14010   */\n      add\n        /* \"#utility.yul\":13989:14039   */\n      mstore\n        /* \"#utility.yul\":13872:14046   */\n      pop\n      jump\t// out\n        /* \"#utility.yul\":14052:14418   */\n    tag_256:\n        /* \"#utility.yul\":14194:14197   */\n      0x00\n        /* \"#utility.yul\":14215:14282   */\n      tag_392\n        /* \"#utility.yul\":14279:14281   */\n      0x18\n        /* \"#utility.yul\":14274:14277   */\n      dup4\n        /* \"#utility.yul\":14215:14282   */\n      tag_220\n      jump\t// in\n    tag_392:\n        /* \"#utility.yul\":14208:14282   */\n      swap2\n      pop\n        /* \"#utility.yul\":14291:14384   */\n      tag_393\n        /* \"#utility.yul\":14380:14383   */\n      dup3\n        /* \"#utility.yul\":14291:14384   */\n      tag_255\n      jump\t// in\n    tag_393:\n        /* \"#utility.yul\":14409:14411   */\n      0x20\n        /* \"#utility.yul\":14404:14407   */\n      dup3\n        /* \"#utility.yul\":14400:14412   */\n      add\n        /* \"#utility.yul\":14393:14412   */\n      swap1\n      pop\n        /* \"#utility.yul\":14052:14418   */\n      swap2\n      swap1\n      pop\n      jump\t// out\n        /* \"#utility.yul\":14424:14843   */\n    tag_150:\n        /* \"#utility.yul\":14590:14594   */\n      0x00\n        /* \"#utility.yul\":14628:14630   */\n      0x20\n        /* \"#utility.yul\":14617:14626   */\n      dup3\n        /* \"#utility.yul\":14613:14631   */\n      add\n        /* \"#utility.yul\":14605:14631   */\n      swap1\n      pop\n        /* \"#utility.yul\":14677:14686   */\n      dup2\n        /* \"#utility.yul\":14671:14675   */\n      dup2\n        /* \"#utility.yul\":14667:14687   */\n      sub\n        /* \"#utility.yul\":14663:14664   */\n      0x00\n        /* \"#utility.yul\":14652:14661   */\n      dup4\n        /* \"#utility.yul\":14648:14665   */\n      add\n        /* \"#utility.yul\":14641:14688   */\n      mstore\n        /* \"#utility.yul\":14705:14836   */\n      tag_395\n        /* \"#utility.yul\":14831:14835   */\n      dup2\n        /* \"#utility.yul\":14705:14836   */\n      tag_256\n      jump\t// in\n    tag_395:\n        /* \"#utility.yul\":14697:14836   */\n      swap1\n      pop\n        /* \"#utility.yul\":14424:14843   */\n      swap2\n      swap1\n      pop\n      jump\t// out\n        /* \"#utility.yul\":14849:15025   */\n    tag_257:\n        /* \"#utility.yul\":14989:15017   */\n      0x496e73756666696369656e742066756e647320746f206275726e000000000000\n        /* \"#utility.yul\":14985:14986   */\n      0x00\n        /* \"#utility.yul\":14977:14983   */\n      dup3\n        /* \"#utility.yul\":14973:14987   */\n      add\n        /* \"#utility.yul\":14966:15018   */\n      mstore\n        /* \"#utility.yul\":14849:15025   */\n      pop\n      jump\t// out\n        /* \"#utility.yul\":15031:15397   */\n    tag_258:\n        /* \"#utility.yul\":15173:15176   */\n      0x00\n        /* \"#utility.yul\":15194:15261   */\n      tag_398\n        /* \"#utility.yul\":15258:15260   */\n      0x1a\n        /* \"#utility.yul\":15253:15256   */\n      dup4\n        /* \"#utility.yul\":15194:15261   */\n      tag_220\n      jump\t// in\n    tag_398:\n        /* \"#utility.yul\":15187:15261   */\n      swap2\n      pop\n        /* \"#utility.yul\":15270:15363   */\n      tag_399\n        /* \"#utility.yul\":15359:15362   */\n      dup3\n        /* \"#utility.yul\":15270:15363   */\n      tag_257\n      jump\t// in\n    tag_399:\n        /* \"#utility.yul\":15388:15390   */\n      0x20\n        /* \"#utility.yul\":15383:15386   */\n      dup3\n        /* \"#utility.yul\":15379:15391   */\n      add\n        /* \"#utility.yul\":15372:15391   */\n      swap1\n      pop\n        /* \"#utility.yul\":15031:15397   */\n      swap2\n      swap1\n      pop\n      jump\t// out\n        /* \"#utility.yul\":15403:15822   */\n    tag_181:\n        /* \"#utility.yul\":15569:15573   */\n      0x00\n        /* \"#utility.yul\":15607:15609   */\n      0x20\n        /* \"#utility.yul\":15596:15605   */\n      dup3\n        /* \"#utility.yul\":15592:15610   */\n      add\n        /* \"#utility.yul\":15584:15610   */\n      swap1\n      pop\n        /* \"#utility.yul\":15656:15665   */\n      dup2\n        /* \"#utility.yul\":15650:15654   */\n      dup2\n        /* \"#utility.yul\":15646:15666   */\n      sub\n        /* \"#utility.yul\":15642:15643   */\n      0x00\n        /* \"#utility.yul\":15631:15640   */\n      dup4\n        /* \"#utility.yul\":15627:15644   */\n      add\n        /* \"#utility.yul\":15620:15667   */\n      mstore\n        /* \"#utility.yul\":15684:15815   */\n      tag_401\n        /* \"#utility.yul\":15810:15814   */\n      dup2\n        /* \"#utility.yul\":15684:15815   */\n      tag_258\n      jump\t// in\n    tag_401:\n        /* \"#utility.yul\":15676:15815   */\n      swap1\n      pop\n        /* \"#utility.yul\":15403:15822   */\n      swap2\n      swap1\n      pop\n      jump\t// out\n        /* \"#utility.yul\":15828:16059   */\n    tag_259:\n        /* \"#utility.yul\":15968:16002   */\n      0x526563697069656e7420616c6c6f77616e616365206e6f742061646a75737465\n        /* \"#utility.yul\":15964:15965   */\n      0x00\n        /* \"#utility.yul\":15956:15962   */\n      dup3\n        /* \"#utility.yul\":15952:15966   */\n      add\n        /* \"#utility.yul\":15945:16003   */\n      mstore\n        /* \"#utility.yul\":16037:16051   */\n      0x6420636f72726563746c792e0000000000000000000000000000000000000000\n        /* \"#utility.yul\":16032:16034   */\n      0x20\n        /* \"#utility.yul\":16024:16030   */\n      dup3\n        /* \"#utility.yul\":16020:16035   */\n      add\n        /* \"#utility.yul\":16013:16052   */\n      mstore\n        /* \"#utility.yul\":15828:16059   */\n      pop\n      jump\t// out\n        /* \"#utility.yul\":16065:16431   */\n    tag_260:\n        /* \"#utility.yul\":16207:16210   */\n      0x00\n        /* \"#utility.yul\":16228:16295   */\n      tag_404\n        /* \"#utility.yul\":16292:16294   */\n      0x2c\n        /* \"#utility.yul\":16287:16290   */\n      dup4\n        /* \"#utility.yul\":16228:16295   */\n      tag_220\n      jump\t// in\n    tag_404:\n        /* \"#utility.yul\":16221:16295   */\n      swap2\n      pop\n        /* \"#utility.yul\":16304:16397   */\n      tag_405\n        /* \"#utility.yul\":16393:16396   */\n      dup3\n        /* \"#utility.yul\":16304:16397   */\n      tag_259\n      jump\t// in\n    tag_405:\n        /* \"#utility.yul\":16422:16424   */\n      0x40\n        /* \"#utility.yul\":16417:16420   */\n      dup3\n        /* \"#utility.yul\":16413:16425   */\n      add\n        /* \"#utility.yul\":16406:16425   */\n      swap1\n      pop\n        /* \"#utility.yul\":16065:16431   */\n      swap2\n      swap1\n      pop\n      jump\t// out\n        /* \"#utility.yul\":16437:16856   */\n    tag_193:\n        /* \"#utility.yul\":16603:16607   */\n      0x00\n        /* \"#utility.yul\":16641:16643   */\n      0x20\n        /* \"#utility.yul\":16630:16639   */\n      dup3\n        /* \"#utility.yul\":16626:16644   */\n      add\n        /* \"#utility.yul\":16618:16644   */\n      swap1\n      pop\n        /* \"#utility.yul\":16690:16699   */\n      dup2\n        /* \"#utility.yul\":16684:16688   */\n      dup2\n        /* \"#utility.yul\":16680:16700   */\n      sub\n        /* \"#utility.yul\":16676:16677   */\n      0x00\n        /* \"#utility.yul\":16665:16674   */\n      dup4\n        /* \"#utility.yul\":16661:16678   */\n      add\n        /* \"#utility.yul\":16654:16701   */\n      mstore\n        /* \"#utility.yul\":16718:16849   */\n      tag_407\n        /* \"#utility.yul\":16844:16848   */\n      dup2\n        /* \"#utility.yul\":16718:16849   */\n      tag_260\n      jump\t// in\n    tag_407:\n        /* \"#utility.yul\":16710:16849   */\n      swap1\n      pop\n        /* \"#utility.yul\":16437:16856   */\n      swap2\n      swap1\n      pop\n      jump\t// out\n        /* \"#utility.yul\":16862:17084   */\n    tag_261:\n        /* \"#utility.yul\":17002:17036   */\n      0x53656e6465722066756e6473206e6f742061646a757374656420636f72726563\n        /* \"#utility.yul\":16998:16999   */\n      0x00\n        /* \"#utility.yul\":16990:16996   */\n      dup3\n        /* \"#utility.yul\":16986:17000   */\n      add\n        /* \"#utility.yul\":16979:17037   */\n      mstore\n        /* \"#utility.yul\":17071:17076   */\n      0x746c790000000000000000000000000000000000000000000000000000000000\n        /* \"#utility.yul\":17066:17068   */\n      0x20\n        /* \"#utility.yul\":17058:17064   */\n      dup3\n        /* \"#utility.yul\":17054:17069   */\n      add\n        /* \"#utility.yul\":17047:17077   */\n      mstore\n        /* \"#utility.yul\":16862:17084   */\n      pop\n      jump\t// out\n        /* \"#utility.yul\":17090:17456   */\n    tag_262:\n        /* \"#utility.yul\":17232:17235   */\n      0x00\n        /* \"#utility.yul\":17253:17320   */\n      tag_410\n        /* \"#utility.yul\":17317:17319   */\n      0x23\n        /* \"#utility.yul\":17312:17315   */\n      dup4\n        /* \"#utility.yul\":17253:17320   */\n      tag_220\n      jump\t// in\n    tag_410:\n        /* \"#utility.yul\":17246:17320   */\n      swap2\n      pop\n        /* \"#utility.yul\":17329:17422   */\n      tag_411\n        /* \"#utility.yul\":17418:17421   */\n      dup3\n        /* \"#utility.yul\":17329:17422   */\n      tag_261\n      jump\t// in\n    tag_411:\n        /* \"#utility.yul\":17447:17449   */\n      0x40\n        /* \"#utility.yul\":17442:17445   */\n      dup3\n        /* \"#utility.yul\":17438:17450   */\n      add\n        /* \"#utility.yul\":17431:17450   */\n      swap1\n      pop\n        /* \"#utility.yul\":17090:17456   */\n      swap2\n      swap1\n      pop\n      jump\t// out\n        /* \"#utility.yul\":17462:17881   */\n    tag_214:\n        /* \"#utility.yul\":17628:17632   */\n      0x00\n        /* \"#utility.yul\":17666:17668   */\n      0x20\n        /* \"#utility.yul\":17655:17664   */\n      dup3\n        /* \"#utility.yul\":17651:17669   */\n      add\n        /* \"#utility.yul\":17643:17669   */\n      swap1\n      pop\n        /* \"#utility.yul\":17715:17724   */\n      dup2\n        /* \"#utility.yul\":17709:17713   */\n      dup2\n        /* \"#utility.yul\":17705:17725   */\n      sub\n        /* \"#utility.yul\":17701:17702   */\n      0x00\n        /* \"#utility.yul\":17690:17699   */\n      dup4\n        /* \"#utility.yul\":17686:17703   */\n      add\n        /* \"#utility.yul\":17679:17726   */\n      mstore\n        /* \"#utility.yul\":17743:17874   */\n      tag_413\n        /* \"#utility.yul\":17869:17873   */\n      dup2\n        /* \"#utility.yul\":17743:17874   */\n      tag_262\n      jump\t// in\n    tag_413:\n        /* \"#utility.yul\":17735:17874   */\n      swap1\n      pop\n        /* \"#utility.yul\":17462:17881   */\n      swap2\n      swap1\n      pop\n      jump\t// out\n        /* \"#utility.yul\":17887:18112   */\n    tag_263:\n        /* \"#utility.yul\":18027:18061   */\n      0x526563697069656e742066756e6473206e6f742061646a757374656420636f72\n        /* \"#utility.yul\":18023:18024   */\n      0x00\n        /* \"#utility.yul\":18015:18021   */\n      dup3\n        /* \"#utility.yul\":18011:18025   */\n      add\n        /* \"#utility.yul\":18004:18062   */\n      mstore\n        /* \"#utility.yul\":18096:18104   */\n      0x726563746c790000000000000000000000000000000000000000000000000000\n        /* \"#utility.yul\":18091:18093   */\n      0x20\n        /* \"#utility.yul\":18083:18089   */\n      dup3\n        /* \"#utility.yul\":18079:18094   */\n      add\n        /* \"#utility.yul\":18072:18105   */\n      mstore\n        /* \"#utility.yul\":17887:18112   */\n      pop\n      jump\t// out\n        /* \"#utility.yul\":18118:18484   */\n    tag_264:\n        /* \"#utility.yul\":18260:18263   */\n      0x00\n        /* \"#utility.yul\":18281:18348   */\n      tag_416\n        /* \"#utility.yul\":18345:18347   */\n      0x26\n        /* \"#utility.yul\":18340:18343   */\n      dup4\n        /* \"#utility.yul\":18281:18348   */\n      tag_220\n      jump\t// in\n    tag_416:\n        /* \"#utility.yul\":18274:18348   */\n      swap2\n      pop\n        /* \"#utility.yul\":18357:18450   */\n      tag_417\n        /* \"#utility.yul\":18446:18449   */\n      dup3\n        /* \"#utility.yul\":18357:18450   */\n      tag_263\n      jump\t// in\n    tag_417:\n        /* \"#utility.yul\":18475:18477   */\n      0x40\n        /* \"#utility.yul\":18470:18473   */\n      dup3\n        /* \"#utility.yul\":18466:18478   */\n      add\n        /* \"#utility.yul\":18459:18478   */\n      swap1\n      pop\n        /* \"#utility.yul\":18118:18484   */\n      swap2\n      swap1\n      pop\n      jump\t// out\n        /* \"#utility.yul\":18490:18909   */\n    tag_218:\n        /* \"#utility.yul\":18656:18660   */\n      0x00\n        /* \"#utility.yul\":18694:18696   */\n      0x20\n        /* \"#utility.yul\":18683:18692   */\n      dup3\n        /* \"#utility.yul\":18679:18697   */\n      add\n        /* \"#utility.yul\":18671:18697   */\n      swap1\n      pop\n        /* \"#utility.yul\":18743:18752   */\n      dup2\n        /* \"#utility.yul\":18737:18741   */\n      dup2\n        /* \"#utility.yul\":18733:18753   */\n      sub\n        /* \"#utility.yul\":18729:18730   */\n      0x00\n        /* \"#utility.yul\":18718:18727   */\n      dup4\n        /* \"#utility.yul\":18714:18731   */\n      add\n        /* \"#utility.yul\":18707:18754   */\n      mstore\n        /* \"#utility.yul\":18771:18902   */\n      tag_419\n        /* \"#utility.yul\":18897:18901   */\n      dup2\n        /* \"#utility.yul\":18771:18902   */\n      tag_264\n      jump\t// in\n    tag_419:\n        /* \"#utility.yul\":18763:18902   */\n      swap1\n      pop\n        /* \"#utility.yul\":18490:18909   */\n      swap2\n      swap1\n      pop\n      jump\t// out\n\n    auxdata: 0xa2646970667358221220e45ed8bb6912751612d3e686ff91b1bc1776250676d61c4cead560591502dcdf64736f6c634300081a0033\n}\n",
				"bytecode": {
					"linkReferences": {},
					"object": "60a060405269d3c21bcecceda100000060075534801561001d575f80fd5b50604051612865380380612865833981810160405281019061003f9190610228565b6040518060400160405280600a81526020017f4253696465546f6b656e000000000000000000000000000000000000000000008152506040518060400160405280600581526020017f42534944450000000000000000000000000000000000000000000000000000008152506012833373ffffffffffffffffffffffffffffffffffffffff1660808173ffffffffffffffffffffffffffffffffffffffff1681525050835f90816100f09190610484565b5082600190816101009190610484565b508160025f6101000a81548160ff021916908360ff1602179055508160ff16600a61012b91906106af565b8161013691906106f9565b60038190555060035460055f3373ffffffffffffffffffffffffffffffffffffffff1673ffffffffffffffffffffffffffffffffffffffff1681526020019081526020015f20819055503373ffffffffffffffffffffffffffffffffffffffff165f73ffffffffffffffffffffffffffffffffffffffff167fddf252ad1be2c89b69c2b068fc378daa952ba7f163c4a11628f55a4df523b3ef6003546040516101df9190610749565b60405180910390a35050505050610762565b5f80fd5b5f819050919050565b610207816101f5565b8114610211575f80fd5b50565b5f81519050610222816101fe565b92915050565b5f6020828403121561023d5761023c6101f1565b5b5f61024a84828501610214565b91505092915050565b5f81519050919050565b7f4e487b71000000000000000000000000000000000000000000000000000000005f52604160045260245ffd5b7f4e487b71000000000000000000000000000000000000000000000000000000005f52602260045260245ffd5b5f60028204905060018216806102ce57607f821691505b6020821081036102e1576102e061028a565b5b50919050565b5f819050815f5260205f209050919050565b5f6020601f8301049050919050565b5f82821b905092915050565b5f600883026103437fffffffffffffffffffffffffffffffffffffffffffffffffffffffffffffffff82610308565b61034d8683610308565b95508019841693508086168417925050509392505050565b5f819050919050565b5f61038861038361037e846101f5565b610365565b6101f5565b9050919050565b5f819050919050565b6103a18361036e565b6103b56103ad8261038f565b848454610314565b825550505050565b5f90565b6103c96103bd565b6103d4818484610398565b505050565b5b818110156103f7576103ec5f826103c1565b6001810190506103da565b5050565b601f82111561043c5761040d816102e7565b610416846102f9565b81016020851015610425578190505b610439610431856102f9565b8301826103d9565b50505b505050565b5f82821c905092915050565b5f61045c5f1984600802610441565b1980831691505092915050565b5f610474838361044d565b9150826002028217905092915050565b61048d82610253565b67ffffffffffffffff8111156104a6576104a561025d565b5b6104b082546102b7565b6104bb8282856103fb565b5f60209050601f8311600181146104ec575f84156104da578287015190505b6104e48582610469565b86555061054b565b601f1984166104fa866102e7565b5f5b82811015610521578489015182556001820191506020850194506020810190506104fc565b8683101561053e578489015161053a601f89168261044d565b8355505b6001600288020188555050505b505050505050565b7f4e487b71000000000000000000000000000000000000000000000000000000005f52601160045260245ffd5b5f8160011c9050919050565b5f808291508390505b60018511156105d5578086048111156105b1576105b0610553565b5b60018516156105c05780820291505b80810290506105ce85610580565b9450610595565b94509492505050565b5f826105ed57600190506106a8565b816105fa575f90506106a8565b8160018114610610576002811461061a57610649565b60019150506106a8565b60ff84111561062c5761062b610553565b5b8360020a91508482111561064357610642610553565b5b506106a8565b5060208310610133831016604e8410600b841016171561067e5782820a90508381111561067957610678610553565b5b6106a8565b61068b848484600161058c565b925090508184048111156106a2576106a1610553565b5b81810290505b9392505050565b5f6106b9826101f5565b91506106c4836101f5565b92506106f17fffffffffffffffffffffffffffffffffffffffffffffffffffffffffffffffff84846105de565b905092915050565b5f610703826101f5565b915061070e836101f5565b925082820261071c816101f5565b9150828204841483151761073357610732610553565b5b5092915050565b610743816101f5565b82525050565b5f60208201905061075c5f83018461073a565b92915050565b6080516120dd6107885f395f8181610452015281816104e0015261054601526120dd5ff3fe6080604052600436106100aa575f3560e01c806340c10f191161006357806340c10f19146101c157806342966c68146101e957806370a082311461021157806395d89b411461024d578063a9059cbb14610277578063dd62ed3e146102b3576100b1565b806306fdde03146100b5578063095ea7b3146100df57806318160ddd1461011b57806323b872dd14610145578063313ce567146101815780633ccfd60b146101ab576100b1565b366100b157005b5f80fd5b3480156100c0575f80fd5b506100c96102ef565b6040516100d691906117dd565b60405180910390f35b3480156100ea575f80fd5b506101056004803603810190610100919061188e565b61037a565b60405161011291906118e6565b60405180910390f35b348015610126575f80fd5b5061012f610390565b60405161013c919061190e565b60405180910390f35b348015610150575f80fd5b5061016b60048036038101906101669190611927565b610399565b60405161017891906118e6565b60405180910390f35b34801561018c575f80fd5b5061019561043e565b6040516101a29190611992565b60405180910390f35b3480156101b6575f80fd5b506101bf610450565b005b3480156101cc575f80fd5b506101e760048036038101906101e2919061188e565b610544565b005b3480156101f4575f80fd5b5061020f600480360381019061020a91906119ab565b61088b565b005b34801561021c575f80fd5b50610237600480360381019061023291906119d6565b610c92565b604051610244919061190e565b60405180910390f35b348015610258575f80fd5b50610261610d48565b60405161026e91906117dd565b60405180910390f35b348015610282575f80fd5b5061029d6004803603810190610298919061188e565b610dd4565b6040516102aa91906118e6565b60405180910390f35b3480156102be575f80fd5b506102d960048036038101906102d49190611a01565b610dea565b6040516102e6919061190e565b60405180910390f35b5f80546102fb90611a6c565b80601f016020809104026020016040519081016040528092919081815260200182805461032790611a6c565b80156103725780601f1061034957610100808354040283529160200191610372565b820191905f5260205f20905b81548152906001019060200180831161035557829003601f168201915b505050505081565b5f610386338484610f4c565b6001905092915050565b5f600354905090565b5f6103a58484846112d9565b61043384338460065f8973ffffffffffffffffffffffffffffffffffffffff1673ffffffffffffffffffffffffffffffffffffffff1681526020019081526020015f205f3373ffffffffffffffffffffffffffffffffffffffff1673ffffffffffffffffffffffffffffffffffffffff1681526020019081526020015f205461042e9190611ac9565b610f4c565b600190509392505050565b60025f9054906101000a900460ff1681565b7f000000000000000000000000000000000000000000000000000000000000000073ffffffffffffffffffffffffffffffffffffffff163373ffffffffffffffffffffffffffffffffffffffff16146104de576040517f08c379a00000000000000000000000000000000000000000000000000000000081526004016104d590611b6c565b60405180910390fd5b7f000000000000000000000000000000000000000000000000000000000000000073ffffffffffffffffffffffffffffffffffffffff166108fc4790811502906040515f60405180830381858888f19350505050158015610541573d5f803e3d5ffd5b50565b7f000000000000000000000000000000000000000000000000000000000000000073ffffffffffffffffffffffffffffffffffffffff163373ffffffffffffffffffffffffffffffffffffffff16146105d2576040517f08c379a00000000000000000000000000000000000000000000000000000000081526004016105c990611b6c565b60405180910390fd5b80600754816003546105e49190611b8a565b1115610625576040517f08c379a000000000000000000000000000000000000000000000000000000000815260040161061c90611c07565b60405180910390fd5b82825f60035490505f60055f8573ffffffffffffffffffffffffffffffffffffffff1673ffffffffffffffffffffffffffffffffffffffff1681526020019081526020015f2054905060045f9054906101000a900460ff16156106bd576040517f08c379a00000000000000000000000000000000000000000000000000000000081526004016106b490611c6f565b60405180910390fd5b600160045f6101000a81548160ff0219169083151502179055508560035f8282546106e89190611b8a565b925050819055508560055f8973ffffffffffffffffffffffffffffffffffffffff1673ffffffffffffffffffffffffffffffffffffffff1681526020019081526020015f205f82825461073b9190611b8a565b925050819055508673ffffffffffffffffffffffffffffffffffffffff167f0f6798a560793a54c3bcfe86a93cde1e73087d944c0ea20544137d412139688587604051610788919061190e565b60405180910390a25f60045f6101000a81548160ff02191690831515021790555060035483836107b89190611b8a565b146107f8576040517f08c379a00000000000000000000000000000000000000000000000000000000081526004016107ef90611cd7565b60405180910390fd5b60055f8573ffffffffffffffffffffffffffffffffffffffff1673ffffffffffffffffffffffffffffffffffffffff1681526020019081526020015f205483826108429190611b8a565b14610882576040517f08c379a000000000000000000000000000000000000000000000000000000000815260040161087990611cd7565b60405180910390fd5b50505050505050565b335f73ffffffffffffffffffffffffffffffffffffffff168173ffffffffffffffffffffffffffffffffffffffff16036108fa576040517f08c379a00000000000000000000000000000000000000000000000000000000081526004016108f190611d3f565b60405180910390fd5b81600354811115610940576040517f08c379a000000000000000000000000000000000000000000000000000000000815260040161093790611da7565b60405180910390fd5b60055f3373ffffffffffffffffffffffffffffffffffffffff1673ffffffffffffffffffffffffffffffffffffffff1681526020019081526020015f20548111156109c0576040517f08c379a00000000000000000000000000000000000000000000000000000000081526004016109b790611e0f565b60405180910390fd5b825f60075490505f60035490505f60055f3373ffffffffffffffffffffffffffffffffffffffff1673ffffffffffffffffffffffffffffffffffffffff1681526020019081526020015f2054905060045f9054906101000a900460ff1615610a5d576040517f08c379a0000000000000000000000000000000000000000000000000000000008152600401610a5490611c6f565b60405180910390fd5b600160045f6101000a81548160ff0219169083151502179055508660075f828254610a889190611ac9565b925050819055508660035f828254610aa09190611ac9565b925050819055508660055f3373ffffffffffffffffffffffffffffffffffffffff1673ffffffffffffffffffffffffffffffffffffffff1681526020019081526020015f205f828254610af39190611ac9565b925050819055503373ffffffffffffffffffffffffffffffffffffffff167fcc16f5dbb4873280815c1ee09dbd06736cffcc184412cf7a71a0fdb75d397ca588604051610b40919061190e565b60405180910390a25f60045f6101000a81548160ff0219169083151502179055506007548484610b709190611ac9565b14610bb0576040517f08c379a0000000000000000000000000000000000000000000000000000000008152600401610ba790611e77565b60405180910390fd5b6003548483610bbf9190611ac9565b14610bff576040517f08c379a0000000000000000000000000000000000000000000000000000000008152600401610bf690611e77565b60405180910390fd5b60055f3373ffffffffffffffffffffffffffffffffffffffff1673ffffffffffffffffffffffffffffffffffffffff1681526020019081526020015f20548482610c499190611ac9565b14610c89576040517f08c379a0000000000000000000000000000000000000000000000000000000008152600401610c8090611e77565b60405180910390fd5b50505050505050565b5f815f73ffffffffffffffffffffffffffffffffffffffff168173ffffffffffffffffffffffffffffffffffffffff1603610d02576040517f08c379a0000000000000000000000000000000000000000000000000000000008152600401610cf990611d3f565b60405180910390fd5b60055f8473ffffffffffffffffffffffffffffffffffffffff1673ffffffffffffffffffffffffffffffffffffffff1681526020019081526020015f2054915050919050565b60018054610d5590611a6c565b80601f0160208091040260200160405190810160405280929190818152602001828054610d8190611a6c565b8015610dcc5780601f10610da357610100808354040283529160200191610dcc565b820191905f5260205f20905b815481529060010190602001808311610daf57829003601f168201915b505050505081565b5f610de03384846112d9565b6001905092915050565b5f825f73ffffffffffffffffffffffffffffffffffffffff168173ffffffffffffffffffffffffffffffffffffffff1603610e5a576040517f08c379a0000000000000000000000000000000000000000000000000000000008152600401610e5190611d3f565b60405180910390fd5b825f73ffffffffffffffffffffffffffffffffffffffff168173ffffffffffffffffffffffffffffffffffffffff1603610ec9576040517f08c379a0000000000000000000000000000000000000000000000000000000008152600401610ec090611d3f565b60405180910390fd5b60065f8673ffffffffffffffffffffffffffffffffffffffff1673ffffffffffffffffffffffffffffffffffffffff1681526020019081526020015f205f8573ffffffffffffffffffffffffffffffffffffffff1673ffffffffffffffffffffffffffffffffffffffff1681526020019081526020015f20549250505092915050565b825f73ffffffffffffffffffffffffffffffffffffffff168173ffffffffffffffffffffffffffffffffffffffff1603610fbb576040517f08c379a0000000000000000000000000000000000000000000000000000000008152600401610fb290611d3f565b60405180910390fd5b83828060055f8473ffffffffffffffffffffffffffffffffffffffff1673ffffffffffffffffffffffffffffffffffffffff1681526020019081526020015f2054101561103d576040517f08c379a000000000000000000000000000000000000000000000000000000000815260040161103490611edf565b60405180910390fd5b845f73ffffffffffffffffffffffffffffffffffffffff168173ffffffffffffffffffffffffffffffffffffffff16036110ac576040517f08c379a00000000000000000000000000000000000000000000000000000000081526004016110a390611d3f565b60405180910390fd5b86868660045f9054906101000a900460ff16156110fe576040517f08c379a00000000000000000000000000000000000000000000000000000000081526004016110f590611c6f565b60405180910390fd5b600160045f6101000a81548160ff0219169083151502179055508760065f8c73ffffffffffffffffffffffffffffffffffffffff1673ffffffffffffffffffffffffffffffffffffffff1681526020019081526020015f205f8b73ffffffffffffffffffffffffffffffffffffffff1673ffffffffffffffffffffffffffffffffffffffff1681526020019081526020015f20819055508873ffffffffffffffffffffffffffffffffffffffff168a73ffffffffffffffffffffffffffffffffffffffff167f8c5be1e5ebec7d5bd14f71427d1e84f3dd0314c0f7b2291e5b200ac8c7c3b9258a6040516111f2919061190e565b60405180910390a35f60045f6101000a81548160ff0219169083151502179055508060065f8573ffffffffffffffffffffffffffffffffffffffff1673ffffffffffffffffffffffffffffffffffffffff1681526020019081526020015f205f8473ffffffffffffffffffffffffffffffffffffffff1673ffffffffffffffffffffffffffffffffffffffff1681526020019081526020015f2054146112cd576040517f08c379a00000000000000000000000000000000000000000000000000000000081526004016112c490611f6d565b60405180910390fd5b50505050505050505050565b825f73ffffffffffffffffffffffffffffffffffffffff168173ffffffffffffffffffffffffffffffffffffffff1603611348576040517f08c379a000000000000000000000000000000000000000000000000000000000815260040161133f90611d3f565b60405180910390fd5b83828060055f8473ffffffffffffffffffffffffffffffffffffffff1673ffffffffffffffffffffffffffffffffffffffff1681526020019081526020015f205410156113ca576040517f08c379a00000000000000000000000000000000000000000000000000000000081526004016113c190611edf565b60405180910390fd5b845f73ffffffffffffffffffffffffffffffffffffffff168173ffffffffffffffffffffffffffffffffffffffff1603611439576040517f08c379a000000000000000000000000000000000000000000000000000000000815260040161143090611d3f565b60405180910390fd5b8686865f60055f8573ffffffffffffffffffffffffffffffffffffffff1673ffffffffffffffffffffffffffffffffffffffff1681526020019081526020015f205490505f60055f8573ffffffffffffffffffffffffffffffffffffffff1673ffffffffffffffffffffffffffffffffffffffff1681526020019081526020015f2054905060045f9054906101000a900460ff161561150d576040517f08c379a000000000000000000000000000000000000000000000000000000000815260040161150490611c6f565b60405180910390fd5b600160045f6101000a81548160ff0219169083151502179055508960055f8e73ffffffffffffffffffffffffffffffffffffffff1673ffffffffffffffffffffffffffffffffffffffff1681526020019081526020015f205f8282546115739190611ac9565b925050819055508960055f8d73ffffffffffffffffffffffffffffffffffffffff1673ffffffffffffffffffffffffffffffffffffffff1681526020019081526020015f205f8282546115c69190611b8a565b925050819055508a73ffffffffffffffffffffffffffffffffffffffff168c73ffffffffffffffffffffffffffffffffffffffff167fddf252ad1be2c89b69c2b068fc378daa952ba7f163c4a11628f55a4df523b3ef8c60405161162a919061190e565b60405180910390a35f60045f6101000a81548160ff02191690831515021790555060055f8673ffffffffffffffffffffffffffffffffffffffff1673ffffffffffffffffffffffffffffffffffffffff1681526020019081526020015f205483836116959190611ac9565b146116d5576040517f08c379a00000000000000000000000000000000000000000000000000000000081526004016116cc90611ffb565b60405180910390fd5b60055f8573ffffffffffffffffffffffffffffffffffffffff1673ffffffffffffffffffffffffffffffffffffffff1681526020019081526020015f2054838261171f9190611b8a565b1461175f576040517f08c379a000000000000000000000000000000000000000000000000000000000815260040161175690612089565b60405180910390fd5b505050505050505050505050565b5f81519050919050565b5f82825260208201905092915050565b8281835e5f83830152505050565b5f601f19601f8301169050919050565b5f6117af8261176d565b6117b98185611777565b93506117c9818560208601611787565b6117d281611795565b840191505092915050565b5f6020820190508181035f8301526117f581846117a5565b905092915050565b5f80fd5b5f73ffffffffffffffffffffffffffffffffffffffff82169050919050565b5f61182a82611801565b9050919050565b61183a81611820565b8114611844575f80fd5b50565b5f8135905061185581611831565b92915050565b5f819050919050565b61186d8161185b565b8114611877575f80fd5b50565b5f8135905061188881611864565b92915050565b5f80604083850312156118a4576118a36117fd565b5b5f6118b185828601611847565b92505060206118c28582860161187a565b9150509250929050565b5f8115159050919050565b6118e0816118cc565b82525050565b5f6020820190506118f95f8301846118d7565b92915050565b6119088161185b565b82525050565b5f6020820190506119215f8301846118ff565b92915050565b5f805f6060848603121561193e5761193d6117fd565b5b5f61194b86828701611847565b935050602061195c86828701611847565b925050604061196d8682870161187a565b9150509250925092565b5f60ff82169050919050565b61198c81611977565b82525050565b5f6020820190506119a55f830184611983565b92915050565b5f602082840312156119c0576119bf6117fd565b5b5f6119cd8482850161187a565b91505092915050565b5f602082840312156119eb576119ea6117fd565b5b5f6119f884828501611847565b91505092915050565b5f8060408385031215611a1757611a166117fd565b5b5f611a2485828601611847565b9250506020611a3585828601611847565b9150509250929050565b7f4e487b71000000000000000000000000000000000000000000000000000000005f52602260045260245ffd5b5f6002820490506001821680611a8357607f821691505b602082108103611a9657611a95611a3f565b5b50919050565b7f4e487b71000000000000000000000000000000000000000000000000000000005f52601160045260245ffd5b5f611ad38261185b565b9150611ade8361185b565b9250828203905081811115611af657611af5611a9c565b5b92915050565b7f4f6e6c79206f776e65722063616e20616363657373207468697320616374696f5f8201527f6e2e000000000000000000000000000000000000000000000000000000000000602082015250565b5f611b56602283611777565b9150611b6182611afc565b604082019050919050565b5f6020820190508181035f830152611b8381611b4a565b9050919050565b5f611b948261185b565b9150611b9f8361185b565b9250828201905080821115611bb757611bb6611a9c565b5b92915050565b7f496e73756666696369656e74206d617820737570706c790000000000000000005f82015250565b5f611bf1601783611777565b9150611bfc82611bbd565b602082019050919050565b5f6020820190508181035f830152611c1e81611be5565b9050919050565b7f52656e7472616e742063616c6c7320617265206e6f7420616c6c6f7765642e005f82015250565b5f611c59601f83611777565b9150611c6482611c25565b602082019050919050565b5f6020820190508181035f830152611c8681611c4d565b9050919050565b7f4d696e74206661696c65640000000000000000000000000000000000000000005f82015250565b5f611cc1600b83611777565b9150611ccc82611c8d565b602082019050919050565b5f6020820190508181035f830152611cee81611cb5565b9050919050565b7f4d757374207370656369667920612076616c696420616464726573732e0000005f82015250565b5f611d29601d83611777565b9150611d3482611cf5565b602082019050919050565b5f6020820190508181035f830152611d5681611d1d565b9050919050565b7f496e73756666696369656e7420746f74616c20737570706c79000000000000005f82015250565b5f611d91601983611777565b9150611d9c82611d5d565b602082019050919050565b5f6020820190508181035f830152611dbe81611d85565b9050919050565b7f496e73756666696369656e742062616c616e63650000000000000000000000005f82015250565b5f611df9601483611777565b9150611e0482611dc5565b602082019050919050565b5f6020820190508181035f830152611e2681611ded565b9050919050565b7f4275726e20776173206e6f74207375636365737366756c2e00000000000000005f82015250565b5f611e61601883611777565b9150611e6c82611e2d565b602082019050919050565b5f6020820190508181035f830152611e8e81611e55565b9050919050565b7f496e73756666696369656e742066756e647320746f206275726e0000000000005f82015250565b5f611ec9601a83611777565b9150611ed482611e95565b602082019050919050565b5f6020820190508181035f830152611ef681611ebd565b9050919050565b7f526563697069656e7420616c6c6f77616e616365206e6f742061646a757374655f8201527f6420636f72726563746c792e0000000000000000000000000000000000000000602082015250565b5f611f57602c83611777565b9150611f6282611efd565b604082019050919050565b5f6020820190508181035f830152611f8481611f4b565b9050919050565b7f53656e6465722066756e6473206e6f742061646a757374656420636f727265635f8201527f746c790000000000000000000000000000000000000000000000000000000000602082015250565b5f611fe5602383611777565b9150611ff082611f8b565b604082019050919050565b5f6020820190508181035f83015261201281611fd9565b9050919050565b7f526563697069656e742066756e6473206e6f742061646a757374656420636f725f8201527f726563746c790000000000000000000000000000000000000000000000000000602082015250565b5f612073602683611777565b915061207e82612019565b604082019050919050565b5f6020820190508181035f8301526120a081612067565b905091905056fea2646970667358221220e45ed8bb6912751612d3e686ff91b1bc1776250676d61c4cead560591502dcdf64736f6c634300081a0033",
					"opcodes": "PUSH1 0xA0 PUSH1 0x40 MSTORE PUSH10 0xD3C21BCECCEDA1000000 PUSH1 0x7 SSTORE CALLVALUE DUP1 ISZERO PUSH2 0x1D JUMPI PUSH0 DUP1 REVERT JUMPDEST POP PUSH1 0x40 MLOAD PUSH2 0x2865 CODESIZE SUB DUP1 PUSH2 0x2865 DUP4 CODECOPY DUP2 DUP2 ADD PUSH1 0x40 MSTORE DUP2 ADD SWAP1 PUSH2 0x3F SWAP2 SWAP1 PUSH2 0x228 JUMP JUMPDEST PUSH1 0x40 MLOAD DUP1 PUSH1 0x40 ADD PUSH1 0x40 MSTORE DUP1 PUSH1 0xA DUP2 MSTORE PUSH1 0x20 ADD PUSH32 0x4253696465546F6B656E00000000000000000000000000000000000000000000 DUP2 MSTORE POP PUSH1 0x40 MLOAD DUP1 PUSH1 0x40 ADD PUSH1 0x40 MSTORE DUP1 PUSH1 0x5 DUP2 MSTORE PUSH1 0x20 ADD PUSH32 0x4253494445000000000000000000000000000000000000000000000000000000 DUP2 MSTORE POP PUSH1 0x12 DUP4 CALLER PUSH20 0xFFFFFFFFFFFFFFFFFFFFFFFFFFFFFFFFFFFFFFFF AND PUSH1 0x80 DUP2 PUSH20 0xFFFFFFFFFFFFFFFFFFFFFFFFFFFFFFFFFFFFFFFF AND DUP2 MSTORE POP POP DUP4 PUSH0 SWAP1 DUP2 PUSH2 0xF0 SWAP2 SWAP1 PUSH2 0x484 JUMP JUMPDEST POP DUP3 PUSH1 0x1 SWAP1 DUP2 PUSH2 0x100 SWAP2 SWAP1 PUSH2 0x484 JUMP JUMPDEST POP DUP2 PUSH1 0x2 PUSH0 PUSH2 0x100 EXP DUP2 SLOAD DUP2 PUSH1 0xFF MUL NOT AND SWAP1 DUP4 PUSH1 0xFF AND MUL OR SWAP1 SSTORE POP DUP2 PUSH1 0xFF AND PUSH1 0xA PUSH2 0x12B SWAP2 SWAP1 PUSH2 0x6AF JUMP JUMPDEST DUP2 PUSH2 0x136 SWAP2 SWAP1 PUSH2 0x6F9 JUMP JUMPDEST PUSH1 0x3 DUP2 SWAP1 SSTORE POP PUSH1 0x3 SLOAD PUSH1 0x5 PUSH0 CALLER PUSH20 0xFFFFFFFFFFFFFFFFFFFFFFFFFFFFFFFFFFFFFFFF AND PUSH20 0xFFFFFFFFFFFFFFFFFFFFFFFFFFFFFFFFFFFFFFFF AND DUP2 MSTORE PUSH1 0x20 ADD SWAP1 DUP2 MSTORE PUSH1 0x20 ADD PUSH0 KECCAK256 DUP2 SWAP1 SSTORE POP CALLER PUSH20 0xFFFFFFFFFFFFFFFFFFFFFFFFFFFFFFFFFFFFFFFF AND PUSH0 PUSH20 0xFFFFFFFFFFFFFFFFFFFFFFFFFFFFFFFFFFFFFFFF AND PUSH32 0xDDF252AD1BE2C89B69C2B068FC378DAA952BA7F163C4A11628F55A4DF523B3EF PUSH1 0x3 SLOAD PUSH1 0x40 MLOAD PUSH2 0x1DF SWAP2 SWAP1 PUSH2 0x749 JUMP JUMPDEST PUSH1 0x40 MLOAD DUP1 SWAP2 SUB SWAP1 LOG3 POP POP POP POP POP PUSH2 0x762 JUMP JUMPDEST PUSH0 DUP1 REVERT JUMPDEST PUSH0 DUP2 SWAP1 POP SWAP2 SWAP1 POP JUMP JUMPDEST PUSH2 0x207 DUP2 PUSH2 0x1F5 JUMP JUMPDEST DUP2 EQ PUSH2 0x211 JUMPI PUSH0 DUP1 REVERT JUMPDEST POP JUMP JUMPDEST PUSH0 DUP2 MLOAD SWAP1 POP PUSH2 0x222 DUP2 PUSH2 0x1FE JUMP JUMPDEST SWAP3 SWAP2 POP POP JUMP JUMPDEST PUSH0 PUSH1 0x20 DUP3 DUP5 SUB SLT ISZERO PUSH2 0x23D JUMPI PUSH2 0x23C PUSH2 0x1F1 JUMP JUMPDEST JUMPDEST PUSH0 PUSH2 0x24A DUP5 DUP3 DUP6 ADD PUSH2 0x214 JUMP JUMPDEST SWAP2 POP POP SWAP3 SWAP2 POP POP JUMP JUMPDEST PUSH0 DUP2 MLOAD SWAP1 POP SWAP2 SWAP1 POP JUMP JUMPDEST PUSH32 0x4E487B7100000000000000000000000000000000000000000000000000000000 PUSH0 MSTORE PUSH1 0x41 PUSH1 0x4 MSTORE PUSH1 0x24 PUSH0 REVERT JUMPDEST PUSH32 0x4E487B7100000000000000000000000000000000000000000000000000000000 PUSH0 MSTORE PUSH1 0x22 PUSH1 0x4 MSTORE PUSH1 0x24 PUSH0 REVERT JUMPDEST PUSH0 PUSH1 0x2 DUP3 DIV SWAP1 POP PUSH1 0x1 DUP3 AND DUP1 PUSH2 0x2CE JUMPI PUSH1 0x7F DUP3 AND SWAP2 POP JUMPDEST PUSH1 0x20 DUP3 LT DUP2 SUB PUSH2 0x2E1 JUMPI PUSH2 0x2E0 PUSH2 0x28A JUMP JUMPDEST JUMPDEST POP SWAP2 SWAP1 POP JUMP JUMPDEST PUSH0 DUP2 SWAP1 POP DUP2 PUSH0 MSTORE PUSH1 0x20 PUSH0 KECCAK256 SWAP1 POP SWAP2 SWAP1 POP JUMP JUMPDEST PUSH0 PUSH1 0x20 PUSH1 0x1F DUP4 ADD DIV SWAP1 POP SWAP2 SWAP1 POP JUMP JUMPDEST PUSH0 DUP3 DUP3 SHL SWAP1 POP SWAP3 SWAP2 POP POP JUMP JUMPDEST PUSH0 PUSH1 0x8 DUP4 MUL PUSH2 0x343 PUSH32 0xFFFFFFFFFFFFFFFFFFFFFFFFFFFFFFFFFFFFFFFFFFFFFFFFFFFFFFFFFFFFFFFF DUP3 PUSH2 0x308 JUMP JUMPDEST PUSH2 0x34D DUP7 DUP4 PUSH2 0x308 JUMP JUMPDEST SWAP6 POP DUP1 NOT DUP5 AND SWAP4 POP DUP1 DUP7 AND DUP5 OR SWAP3 POP POP POP SWAP4 SWAP3 POP POP POP JUMP JUMPDEST PUSH0 DUP2 SWAP1 POP SWAP2 SWAP1 POP JUMP JUMPDEST PUSH0 PUSH2 0x388 PUSH2 0x383 PUSH2 0x37E DUP5 PUSH2 0x1F5 JUMP JUMPDEST PUSH2 0x365 JUMP JUMPDEST PUSH2 0x1F5 JUMP JUMPDEST SWAP1 POP SWAP2 SWAP1 POP JUMP JUMPDEST PUSH0 DUP2 SWAP1 POP SWAP2 SWAP1 POP JUMP JUMPDEST PUSH2 0x3A1 DUP4 PUSH2 0x36E JUMP JUMPDEST PUSH2 0x3B5 PUSH2 0x3AD DUP3 PUSH2 0x38F JUMP JUMPDEST DUP5 DUP5 SLOAD PUSH2 0x314 JUMP JUMPDEST DUP3 SSTORE POP POP POP POP JUMP JUMPDEST PUSH0 SWAP1 JUMP JUMPDEST PUSH2 0x3C9 PUSH2 0x3BD JUMP JUMPDEST PUSH2 0x3D4 DUP2 DUP5 DUP5 PUSH2 0x398 JUMP JUMPDEST POP POP POP JUMP JUMPDEST JUMPDEST DUP2 DUP2 LT ISZERO PUSH2 0x3F7 JUMPI PUSH2 0x3EC PUSH0 DUP3 PUSH2 0x3C1 JUMP JUMPDEST PUSH1 0x1 DUP2 ADD SWAP1 POP PUSH2 0x3DA JUMP JUMPDEST POP POP JUMP JUMPDEST PUSH1 0x1F DUP3 GT ISZERO PUSH2 0x43C JUMPI PUSH2 0x40D DUP2 PUSH2 0x2E7 JUMP JUMPDEST PUSH2 0x416 DUP5 PUSH2 0x2F9 JUMP JUMPDEST DUP2 ADD PUSH1 0x20 DUP6 LT ISZERO PUSH2 0x425 JUMPI DUP2 SWAP1 POP JUMPDEST PUSH2 0x439 PUSH2 0x431 DUP6 PUSH2 0x2F9 JUMP JUMPDEST DUP4 ADD DUP3 PUSH2 0x3D9 JUMP JUMPDEST POP POP JUMPDEST POP POP POP JUMP JUMPDEST PUSH0 DUP3 DUP3 SHR SWAP1 POP SWAP3 SWAP2 POP POP JUMP JUMPDEST PUSH0 PUSH2 0x45C PUSH0 NOT DUP5 PUSH1 0x8 MUL PUSH2 0x441 JUMP JUMPDEST NOT DUP1 DUP4 AND SWAP2 POP POP SWAP3 SWAP2 POP POP JUMP JUMPDEST PUSH0 PUSH2 0x474 DUP4 DUP4 PUSH2 0x44D JUMP JUMPDEST SWAP2 POP DUP3 PUSH1 0x2 MUL DUP3 OR SWAP1 POP SWAP3 SWAP2 POP POP JUMP JUMPDEST PUSH2 0x48D DUP3 PUSH2 0x253 JUMP JUMPDEST PUSH8 0xFFFFFFFFFFFFFFFF DUP2 GT ISZERO PUSH2 0x4A6 JUMPI PUSH2 0x4A5 PUSH2 0x25D JUMP JUMPDEST JUMPDEST PUSH2 0x4B0 DUP3 SLOAD PUSH2 0x2B7 JUMP JUMPDEST PUSH2 0x4BB DUP3 DUP3 DUP6 PUSH2 0x3FB JUMP JUMPDEST PUSH0 PUSH1 0x20 SWAP1 POP PUSH1 0x1F DUP4 GT PUSH1 0x1 DUP2 EQ PUSH2 0x4EC JUMPI PUSH0 DUP5 ISZERO PUSH2 0x4DA JUMPI DUP3 DUP8 ADD MLOAD SWAP1 POP JUMPDEST PUSH2 0x4E4 DUP6 DUP3 PUSH2 0x469 JUMP JUMPDEST DUP7 SSTORE POP PUSH2 0x54B JUMP JUMPDEST PUSH1 0x1F NOT DUP5 AND PUSH2 0x4FA DUP7 PUSH2 0x2E7 JUMP JUMPDEST PUSH0 JUMPDEST DUP3 DUP2 LT ISZERO PUSH2 0x521 JUMPI DUP5 DUP10 ADD MLOAD DUP3 SSTORE PUSH1 0x1 DUP3 ADD SWAP2 POP PUSH1 0x20 DUP6 ADD SWAP5 POP PUSH1 0x20 DUP2 ADD SWAP1 POP PUSH2 0x4FC JUMP JUMPDEST DUP7 DUP4 LT ISZERO PUSH2 0x53E JUMPI DUP5 DUP10 ADD MLOAD PUSH2 0x53A PUSH1 0x1F DUP10 AND DUP3 PUSH2 0x44D JUMP JUMPDEST DUP4 SSTORE POP JUMPDEST PUSH1 0x1 PUSH1 0x2 DUP9 MUL ADD DUP9 SSTORE POP POP POP JUMPDEST POP POP POP POP POP POP JUMP JUMPDEST PUSH32 0x4E487B7100000000000000000000000000000000000000000000000000000000 PUSH0 MSTORE PUSH1 0x11 PUSH1 0x4 MSTORE PUSH1 0x24 PUSH0 REVERT JUMPDEST PUSH0 DUP2 PUSH1 0x1 SHR SWAP1 POP SWAP2 SWAP1 POP JUMP JUMPDEST PUSH0 DUP1 DUP3 SWAP2 POP DUP4 SWAP1 POP JUMPDEST PUSH1 0x1 DUP6 GT ISZERO PUSH2 0x5D5 JUMPI DUP1 DUP7 DIV DUP2 GT ISZERO PUSH2 0x5B1 JUMPI PUSH2 0x5B0 PUSH2 0x553 JUMP JUMPDEST JUMPDEST PUSH1 0x1 DUP6 AND ISZERO PUSH2 0x5C0 JUMPI DUP1 DUP3 MUL SWAP2 POP JUMPDEST DUP1 DUP2 MUL SWAP1 POP PUSH2 0x5CE DUP6 PUSH2 0x580 JUMP JUMPDEST SWAP5 POP PUSH2 0x595 JUMP JUMPDEST SWAP5 POP SWAP5 SWAP3 POP POP POP JUMP JUMPDEST PUSH0 DUP3 PUSH2 0x5ED JUMPI PUSH1 0x1 SWAP1 POP PUSH2 0x6A8 JUMP JUMPDEST DUP2 PUSH2 0x5FA JUMPI PUSH0 SWAP1 POP PUSH2 0x6A8 JUMP JUMPDEST DUP2 PUSH1 0x1 DUP2 EQ PUSH2 0x610 JUMPI PUSH1 0x2 DUP2 EQ PUSH2 0x61A JUMPI PUSH2 0x649 JUMP JUMPDEST PUSH1 0x1 SWAP2 POP POP PUSH2 0x6A8 JUMP JUMPDEST PUSH1 0xFF DUP5 GT ISZERO PUSH2 0x62C JUMPI PUSH2 0x62B PUSH2 0x553 JUMP JUMPDEST JUMPDEST DUP4 PUSH1 0x2 EXP SWAP2 POP DUP5 DUP3 GT ISZERO PUSH2 0x643 JUMPI PUSH2 0x642 PUSH2 0x553 JUMP JUMPDEST JUMPDEST POP PUSH2 0x6A8 JUMP JUMPDEST POP PUSH1 0x20 DUP4 LT PUSH2 0x133 DUP4 LT AND PUSH1 0x4E DUP5 LT PUSH1 0xB DUP5 LT AND OR ISZERO PUSH2 0x67E JUMPI DUP3 DUP3 EXP SWAP1 POP DUP4 DUP2 GT ISZERO PUSH2 0x679 JUMPI PUSH2 0x678 PUSH2 0x553 JUMP JUMPDEST JUMPDEST PUSH2 0x6A8 JUMP JUMPDEST PUSH2 0x68B DUP5 DUP5 DUP5 PUSH1 0x1 PUSH2 0x58C JUMP JUMPDEST SWAP3 POP SWAP1 POP DUP2 DUP5 DIV DUP2 GT ISZERO PUSH2 0x6A2 JUMPI PUSH2 0x6A1 PUSH2 0x553 JUMP JUMPDEST JUMPDEST DUP2 DUP2 MUL SWAP1 POP JUMPDEST SWAP4 SWAP3 POP POP POP JUMP JUMPDEST PUSH0 PUSH2 0x6B9 DUP3 PUSH2 0x1F5 JUMP JUMPDEST SWAP2 POP PUSH2 0x6C4 DUP4 PUSH2 0x1F5 JUMP JUMPDEST SWAP3 POP PUSH2 0x6F1 PUSH32 0xFFFFFFFFFFFFFFFFFFFFFFFFFFFFFFFFFFFFFFFFFFFFFFFFFFFFFFFFFFFFFFFF DUP5 DUP5 PUSH2 0x5DE JUMP JUMPDEST SWAP1 POP SWAP3 SWAP2 POP POP JUMP JUMPDEST PUSH0 PUSH2 0x703 DUP3 PUSH2 0x1F5 JUMP JUMPDEST SWAP2 POP PUSH2 0x70E DUP4 PUSH2 0x1F5 JUMP JUMPDEST SWAP3 POP DUP3 DUP3 MUL PUSH2 0x71C DUP2 PUSH2 0x1F5 JUMP JUMPDEST SWAP2 POP DUP3 DUP3 DIV DUP5 EQ DUP4 ISZERO OR PUSH2 0x733 JUMPI PUSH2 0x732 PUSH2 0x553 JUMP JUMPDEST JUMPDEST POP SWAP3 SWAP2 POP POP JUMP JUMPDEST PUSH2 0x743 DUP2 PUSH2 0x1F5 JUMP JUMPDEST DUP3 MSTORE POP POP JUMP JUMPDEST PUSH0 PUSH1 0x20 DUP3 ADD SWAP1 POP PUSH2 0x75C PUSH0 DUP4 ADD DUP5 PUSH2 0x73A JUMP JUMPDEST SWAP3 SWAP2 POP POP JUMP JUMPDEST PUSH1 0x80 MLOAD PUSH2 0x20DD PUSH2 0x788 PUSH0 CODECOPY PUSH0 DUP2 DUP2 PUSH2 0x452 ADD MSTORE DUP2 DUP2 PUSH2 0x4E0 ADD MSTORE PUSH2 0x546 ADD MSTORE PUSH2 0x20DD PUSH0 RETURN INVALID PUSH1 0x80 PUSH1 0x40 MSTORE PUSH1 0x4 CALLDATASIZE LT PUSH2 0xAA JUMPI PUSH0 CALLDATALOAD PUSH1 0xE0 SHR DUP1 PUSH4 0x40C10F19 GT PUSH2 0x63 JUMPI DUP1 PUSH4 0x40C10F19 EQ PUSH2 0x1C1 JUMPI DUP1 PUSH4 0x42966C68 EQ PUSH2 0x1E9 JUMPI DUP1 PUSH4 0x70A08231 EQ PUSH2 0x211 JUMPI DUP1 PUSH4 0x95D89B41 EQ PUSH2 0x24D JUMPI DUP1 PUSH4 0xA9059CBB EQ PUSH2 0x277 JUMPI DUP1 PUSH4 0xDD62ED3E EQ PUSH2 0x2B3 JUMPI PUSH2 0xB1 JUMP JUMPDEST DUP1 PUSH4 0x6FDDE03 EQ PUSH2 0xB5 JUMPI DUP1 PUSH4 0x95EA7B3 EQ PUSH2 0xDF JUMPI DUP1 PUSH4 0x18160DDD EQ PUSH2 0x11B JUMPI DUP1 PUSH4 0x23B872DD EQ PUSH2 0x145 JUMPI DUP1 PUSH4 0x313CE567 EQ PUSH2 0x181 JUMPI DUP1 PUSH4 0x3CCFD60B EQ PUSH2 0x1AB JUMPI PUSH2 0xB1 JUMP JUMPDEST CALLDATASIZE PUSH2 0xB1 JUMPI STOP JUMPDEST PUSH0 DUP1 REVERT JUMPDEST CALLVALUE DUP1 ISZERO PUSH2 0xC0 JUMPI PUSH0 DUP1 REVERT JUMPDEST POP PUSH2 0xC9 PUSH2 0x2EF JUMP JUMPDEST PUSH1 0x40 MLOAD PUSH2 0xD6 SWAP2 SWAP1 PUSH2 0x17DD JUMP JUMPDEST PUSH1 0x40 MLOAD DUP1 SWAP2 SUB SWAP1 RETURN JUMPDEST CALLVALUE DUP1 ISZERO PUSH2 0xEA JUMPI PUSH0 DUP1 REVERT JUMPDEST POP PUSH2 0x105 PUSH1 0x4 DUP1 CALLDATASIZE SUB DUP2 ADD SWAP1 PUSH2 0x100 SWAP2 SWAP1 PUSH2 0x188E JUMP JUMPDEST PUSH2 0x37A JUMP JUMPDEST PUSH1 0x40 MLOAD PUSH2 0x112 SWAP2 SWAP1 PUSH2 0x18E6 JUMP JUMPDEST PUSH1 0x40 MLOAD DUP1 SWAP2 SUB SWAP1 RETURN JUMPDEST CALLVALUE DUP1 ISZERO PUSH2 0x126 JUMPI PUSH0 DUP1 REVERT JUMPDEST POP PUSH2 0x12F PUSH2 0x390 JUMP JUMPDEST PUSH1 0x40 MLOAD PUSH2 0x13C SWAP2 SWAP1 PUSH2 0x190E JUMP JUMPDEST PUSH1 0x40 MLOAD DUP1 SWAP2 SUB SWAP1 RETURN JUMPDEST CALLVALUE DUP1 ISZERO PUSH2 0x150 JUMPI PUSH0 DUP1 REVERT JUMPDEST POP PUSH2 0x16B PUSH1 0x4 DUP1 CALLDATASIZE SUB DUP2 ADD SWAP1 PUSH2 0x166 SWAP2 SWAP1 PUSH2 0x1927 JUMP JUMPDEST PUSH2 0x399 JUMP JUMPDEST PUSH1 0x40 MLOAD PUSH2 0x178 SWAP2 SWAP1 PUSH2 0x18E6 JUMP JUMPDEST PUSH1 0x40 MLOAD DUP1 SWAP2 SUB SWAP1 RETURN JUMPDEST CALLVALUE DUP1 ISZERO PUSH2 0x18C JUMPI PUSH0 DUP1 REVERT JUMPDEST POP PUSH2 0x195 PUSH2 0x43E JUMP JUMPDEST PUSH1 0x40 MLOAD PUSH2 0x1A2 SWAP2 SWAP1 PUSH2 0x1992 JUMP JUMPDEST PUSH1 0x40 MLOAD DUP1 SWAP2 SUB SWAP1 RETURN JUMPDEST CALLVALUE DUP1 ISZERO PUSH2 0x1B6 JUMPI PUSH0 DUP1 REVERT JUMPDEST POP PUSH2 0x1BF PUSH2 0x450 JUMP JUMPDEST STOP JUMPDEST CALLVALUE DUP1 ISZERO PUSH2 0x1CC JUMPI PUSH0 DUP1 REVERT JUMPDEST POP PUSH2 0x1E7 PUSH1 0x4 DUP1 CALLDATASIZE SUB DUP2 ADD SWAP1 PUSH2 0x1E2 SWAP2 SWAP1 PUSH2 0x188E JUMP JUMPDEST PUSH2 0x544 JUMP JUMPDEST STOP JUMPDEST CALLVALUE DUP1 ISZERO PUSH2 0x1F4 JUMPI PUSH0 DUP1 REVERT JUMPDEST POP PUSH2 0x20F PUSH1 0x4 DUP1 CALLDATASIZE SUB DUP2 ADD SWAP1 PUSH2 0x20A SWAP2 SWAP1 PUSH2 0x19AB JUMP JUMPDEST PUSH2 0x88B JUMP JUMPDEST STOP JUMPDEST CALLVALUE DUP1 ISZERO PUSH2 0x21C JUMPI PUSH0 DUP1 REVERT JUMPDEST POP PUSH2 0x237 PUSH1 0x4 DUP1 CALLDATASIZE SUB DUP2 ADD SWAP1 PUSH2 0x232 SWAP2 SWAP1 PUSH2 0x19D6 JUMP JUMPDEST PUSH2 0xC92 JUMP JUMPDEST PUSH1 0x40 MLOAD PUSH2 0x244 SWAP2 SWAP1 PUSH2 0x190E JUMP JUMPDEST PUSH1 0x40 MLOAD DUP1 SWAP2 SUB SWAP1 RETURN JUMPDEST CALLVALUE DUP1 ISZERO PUSH2 0x258 JUMPI PUSH0 DUP1 REVERT JUMPDEST POP PUSH2 0x261 PUSH2 0xD48 JUMP JUMPDEST PUSH1 0x40 MLOAD PUSH2 0x26E SWAP2 SWAP1 PUSH2 0x17DD JUMP JUMPDEST PUSH1 0x40 MLOAD DUP1 SWAP2 SUB SWAP1 RETURN JUMPDEST CALLVALUE DUP1 ISZERO PUSH2 0x282 JUMPI PUSH0 DUP1 REVERT JUMPDEST POP PUSH2 0x29D PUSH1 0x4 DUP1 CALLDATASIZE SUB DUP2 ADD SWAP1 PUSH2 0x298 SWAP2 SWAP1 PUSH2 0x188E JUMP JUMPDEST PUSH2 0xDD4 JUMP JUMPDEST PUSH1 0x40 MLOAD PUSH2 0x2AA SWAP2 SWAP1 PUSH2 0x18E6 JUMP JUMPDEST PUSH1 0x40 MLOAD DUP1 SWAP2 SUB SWAP1 RETURN JUMPDEST CALLVALUE DUP1 ISZERO PUSH2 0x2BE JUMPI PUSH0 DUP1 REVERT JUMPDEST POP PUSH2 0x2D9 PUSH1 0x4 DUP1 CALLDATASIZE SUB DUP2 ADD SWAP1 PUSH2 0x2D4 SWAP2 SWAP1 PUSH2 0x1A01 JUMP JUMPDEST PUSH2 0xDEA JUMP JUMPDEST PUSH1 0x40 MLOAD PUSH2 0x2E6 SWAP2 SWAP1 PUSH2 0x190E JUMP JUMPDEST PUSH1 0x40 MLOAD DUP1 SWAP2 SUB SWAP1 RETURN JUMPDEST PUSH0 DUP1 SLOAD PUSH2 0x2FB SWAP1 PUSH2 0x1A6C JUMP JUMPDEST DUP1 PUSH1 0x1F ADD PUSH1 0x20 DUP1 SWAP2 DIV MUL PUSH1 0x20 ADD PUSH1 0x40 MLOAD SWAP1 DUP2 ADD PUSH1 0x40 MSTORE DUP1 SWAP3 SWAP2 SWAP1 DUP2 DUP2 MSTORE PUSH1 0x20 ADD DUP3 DUP1 SLOAD PUSH2 0x327 SWAP1 PUSH2 0x1A6C JUMP JUMPDEST DUP1 ISZERO PUSH2 0x372 JUMPI DUP1 PUSH1 0x1F LT PUSH2 0x349 JUMPI PUSH2 0x100 DUP1 DUP4 SLOAD DIV MUL DUP4 MSTORE SWAP2 PUSH1 0x20 ADD SWAP2 PUSH2 0x372 JUMP JUMPDEST DUP3 ADD SWAP2 SWAP1 PUSH0 MSTORE PUSH1 0x20 PUSH0 KECCAK256 SWAP1 JUMPDEST DUP2 SLOAD DUP2 MSTORE SWAP1 PUSH1 0x1 ADD SWAP1 PUSH1 0x20 ADD DUP1 DUP4 GT PUSH2 0x355 JUMPI DUP3 SWAP1 SUB PUSH1 0x1F AND DUP3 ADD SWAP2 JUMPDEST POP POP POP POP POP DUP2 JUMP JUMPDEST PUSH0 PUSH2 0x386 CALLER DUP5 DUP5 PUSH2 0xF4C JUMP JUMPDEST PUSH1 0x1 SWAP1 POP SWAP3 SWAP2 POP POP JUMP JUMPDEST PUSH0 PUSH1 0x3 SLOAD SWAP1 POP SWAP1 JUMP JUMPDEST PUSH0 PUSH2 0x3A5 DUP5 DUP5 DUP5 PUSH2 0x12D9 JUMP JUMPDEST PUSH2 0x433 DUP5 CALLER DUP5 PUSH1 0x6 PUSH0 DUP10 PUSH20 0xFFFFFFFFFFFFFFFFFFFFFFFFFFFFFFFFFFFFFFFF AND PUSH20 0xFFFFFFFFFFFFFFFFFFFFFFFFFFFFFFFFFFFFFFFF AND DUP2 MSTORE PUSH1 0x20 ADD SWAP1 DUP2 MSTORE PUSH1 0x20 ADD PUSH0 KECCAK256 PUSH0 CALLER PUSH20 0xFFFFFFFFFFFFFFFFFFFFFFFFFFFFFFFFFFFFFFFF AND PUSH20 0xFFFFFFFFFFFFFFFFFFFFFFFFFFFFFFFFFFFFFFFF AND DUP2 MSTORE PUSH1 0x20 ADD SWAP1 DUP2 MSTORE PUSH1 0x20 ADD PUSH0 KECCAK256 SLOAD PUSH2 0x42E SWAP2 SWAP1 PUSH2 0x1AC9 JUMP JUMPDEST PUSH2 0xF4C JUMP JUMPDEST PUSH1 0x1 SWAP1 POP SWAP4 SWAP3 POP POP POP JUMP JUMPDEST PUSH1 0x2 PUSH0 SWAP1 SLOAD SWAP1 PUSH2 0x100 EXP SWAP1 DIV PUSH1 0xFF AND DUP2 JUMP JUMPDEST PUSH32 0x0 PUSH20 0xFFFFFFFFFFFFFFFFFFFFFFFFFFFFFFFFFFFFFFFF AND CALLER PUSH20 0xFFFFFFFFFFFFFFFFFFFFFFFFFFFFFFFFFFFFFFFF AND EQ PUSH2 0x4DE JUMPI PUSH1 0x40 MLOAD PUSH32 0x8C379A000000000000000000000000000000000000000000000000000000000 DUP2 MSTORE PUSH1 0x4 ADD PUSH2 0x4D5 SWAP1 PUSH2 0x1B6C JUMP JUMPDEST PUSH1 0x40 MLOAD DUP1 SWAP2 SUB SWAP1 REVERT JUMPDEST PUSH32 0x0 PUSH20 0xFFFFFFFFFFFFFFFFFFFFFFFFFFFFFFFFFFFFFFFF AND PUSH2 0x8FC SELFBALANCE SWAP1 DUP2 ISZERO MUL SWAP1 PUSH1 0x40 MLOAD PUSH0 PUSH1 0x40 MLOAD DUP1 DUP4 SUB DUP2 DUP6 DUP9 DUP9 CALL SWAP4 POP POP POP POP ISZERO DUP1 ISZERO PUSH2 0x541 JUMPI RETURNDATASIZE PUSH0 DUP1 RETURNDATACOPY RETURNDATASIZE PUSH0 REVERT JUMPDEST POP JUMP JUMPDEST PUSH32 0x0 PUSH20 0xFFFFFFFFFFFFFFFFFFFFFFFFFFFFFFFFFFFFFFFF AND CALLER PUSH20 0xFFFFFFFFFFFFFFFFFFFFFFFFFFFFFFFFFFFFFFFF AND EQ PUSH2 0x5D2 JUMPI PUSH1 0x40 MLOAD PUSH32 0x8C379A000000000000000000000000000000000000000000000000000000000 DUP2 MSTORE PUSH1 0x4 ADD PUSH2 0x5C9 SWAP1 PUSH2 0x1B6C JUMP JUMPDEST PUSH1 0x40 MLOAD DUP1 SWAP2 SUB SWAP1 REVERT JUMPDEST DUP1 PUSH1 0x7 SLOAD DUP2 PUSH1 0x3 SLOAD PUSH2 0x5E4 SWAP2 SWAP1 PUSH2 0x1B8A JUMP JUMPDEST GT ISZERO PUSH2 0x625 JUMPI PUSH1 0x40 MLOAD PUSH32 0x8C379A000000000000000000000000000000000000000000000000000000000 DUP2 MSTORE PUSH1 0x4 ADD PUSH2 0x61C SWAP1 PUSH2 0x1C07 JUMP JUMPDEST PUSH1 0x40 MLOAD DUP1 SWAP2 SUB SWAP1 REVERT JUMPDEST DUP3 DUP3 PUSH0 PUSH1 0x3 SLOAD SWAP1 POP PUSH0 PUSH1 0x5 PUSH0 DUP6 PUSH20 0xFFFFFFFFFFFFFFFFFFFFFFFFFFFFFFFFFFFFFFFF AND PUSH20 0xFFFFFFFFFFFFFFFFFFFFFFFFFFFFFFFFFFFFFFFF AND DUP2 MSTORE PUSH1 0x20 ADD SWAP1 DUP2 MSTORE PUSH1 0x20 ADD PUSH0 KECCAK256 SLOAD SWAP1 POP PUSH1 0x4 PUSH0 SWAP1 SLOAD SWAP1 PUSH2 0x100 EXP SWAP1 DIV PUSH1 0xFF AND ISZERO PUSH2 0x6BD JUMPI PUSH1 0x40 MLOAD PUSH32 0x8C379A000000000000000000000000000000000000000000000000000000000 DUP2 MSTORE PUSH1 0x4 ADD PUSH2 0x6B4 SWAP1 PUSH2 0x1C6F JUMP JUMPDEST PUSH1 0x40 MLOAD DUP1 SWAP2 SUB SWAP1 REVERT JUMPDEST PUSH1 0x1 PUSH1 0x4 PUSH0 PUSH2 0x100 EXP DUP2 SLOAD DUP2 PUSH1 0xFF MUL NOT AND SWAP1 DUP4 ISZERO ISZERO MUL OR SWAP1 SSTORE POP DUP6 PUSH1 0x3 PUSH0 DUP3 DUP3 SLOAD PUSH2 0x6E8 SWAP2 SWAP1 PUSH2 0x1B8A JUMP JUMPDEST SWAP3 POP POP DUP2 SWAP1 SSTORE POP DUP6 PUSH1 0x5 PUSH0 DUP10 PUSH20 0xFFFFFFFFFFFFFFFFFFFFFFFFFFFFFFFFFFFFFFFF AND PUSH20 0xFFFFFFFFFFFFFFFFFFFFFFFFFFFFFFFFFFFFFFFF AND DUP2 MSTORE PUSH1 0x20 ADD SWAP1 DUP2 MSTORE PUSH1 0x20 ADD PUSH0 KECCAK256 PUSH0 DUP3 DUP3 SLOAD PUSH2 0x73B SWAP2 SWAP1 PUSH2 0x1B8A JUMP JUMPDEST SWAP3 POP POP DUP2 SWAP1 SSTORE POP DUP7 PUSH20 0xFFFFFFFFFFFFFFFFFFFFFFFFFFFFFFFFFFFFFFFF AND PUSH32 0xF6798A560793A54C3BCFE86A93CDE1E73087D944C0EA20544137D4121396885 DUP8 PUSH1 0x40 MLOAD PUSH2 0x788 SWAP2 SWAP1 PUSH2 0x190E JUMP JUMPDEST PUSH1 0x40 MLOAD DUP1 SWAP2 SUB SWAP1 LOG2 PUSH0 PUSH1 0x4 PUSH0 PUSH2 0x100 EXP DUP2 SLOAD DUP2 PUSH1 0xFF MUL NOT AND SWAP1 DUP4 ISZERO ISZERO MUL OR SWAP1 SSTORE POP PUSH1 0x3 SLOAD DUP4 DUP4 PUSH2 0x7B8 SWAP2 SWAP1 PUSH2 0x1B8A JUMP JUMPDEST EQ PUSH2 0x7F8 JUMPI PUSH1 0x40 MLOAD PUSH32 0x8C379A000000000000000000000000000000000000000000000000000000000 DUP2 MSTORE PUSH1 0x4 ADD PUSH2 0x7EF SWAP1 PUSH2 0x1CD7 JUMP JUMPDEST PUSH1 0x40 MLOAD DUP1 SWAP2 SUB SWAP1 REVERT JUMPDEST PUSH1 0x5 PUSH0 DUP6 PUSH20 0xFFFFFFFFFFFFFFFFFFFFFFFFFFFFFFFFFFFFFFFF AND PUSH20 0xFFFFFFFFFFFFFFFFFFFFFFFFFFFFFFFFFFFFFFFF AND DUP2 MSTORE PUSH1 0x20 ADD SWAP1 DUP2 MSTORE PUSH1 0x20 ADD PUSH0 KECCAK256 SLOAD DUP4 DUP3 PUSH2 0x842 SWAP2 SWAP1 PUSH2 0x1B8A JUMP JUMPDEST EQ PUSH2 0x882 JUMPI PUSH1 0x40 MLOAD PUSH32 0x8C379A000000000000000000000000000000000000000000000000000000000 DUP2 MSTORE PUSH1 0x4 ADD PUSH2 0x879 SWAP1 PUSH2 0x1CD7 JUMP JUMPDEST PUSH1 0x40 MLOAD DUP1 SWAP2 SUB SWAP1 REVERT JUMPDEST POP POP POP POP POP POP POP JUMP JUMPDEST CALLER PUSH0 PUSH20 0xFFFFFFFFFFFFFFFFFFFFFFFFFFFFFFFFFFFFFFFF AND DUP2 PUSH20 0xFFFFFFFFFFFFFFFFFFFFFFFFFFFFFFFFFFFFFFFF AND SUB PUSH2 0x8FA JUMPI PUSH1 0x40 MLOAD PUSH32 0x8C379A000000000000000000000000000000000000000000000000000000000 DUP2 MSTORE PUSH1 0x4 ADD PUSH2 0x8F1 SWAP1 PUSH2 0x1D3F JUMP JUMPDEST PUSH1 0x40 MLOAD DUP1 SWAP2 SUB SWAP1 REVERT JUMPDEST DUP2 PUSH1 0x3 SLOAD DUP2 GT ISZERO PUSH2 0x940 JUMPI PUSH1 0x40 MLOAD PUSH32 0x8C379A000000000000000000000000000000000000000000000000000000000 DUP2 MSTORE PUSH1 0x4 ADD PUSH2 0x937 SWAP1 PUSH2 0x1DA7 JUMP JUMPDEST PUSH1 0x40 MLOAD DUP1 SWAP2 SUB SWAP1 REVERT JUMPDEST PUSH1 0x5 PUSH0 CALLER PUSH20 0xFFFFFFFFFFFFFFFFFFFFFFFFFFFFFFFFFFFFFFFF AND PUSH20 0xFFFFFFFFFFFFFFFFFFFFFFFFFFFFFFFFFFFFFFFF AND DUP2 MSTORE PUSH1 0x20 ADD SWAP1 DUP2 MSTORE PUSH1 0x20 ADD PUSH0 KECCAK256 SLOAD DUP2 GT ISZERO PUSH2 0x9C0 JUMPI PUSH1 0x40 MLOAD PUSH32 0x8C379A000000000000000000000000000000000000000000000000000000000 DUP2 MSTORE PUSH1 0x4 ADD PUSH2 0x9B7 SWAP1 PUSH2 0x1E0F JUMP JUMPDEST PUSH1 0x40 MLOAD DUP1 SWAP2 SUB SWAP1 REVERT JUMPDEST DUP3 PUSH0 PUSH1 0x7 SLOAD SWAP1 POP PUSH0 PUSH1 0x3 SLOAD SWAP1 POP PUSH0 PUSH1 0x5 PUSH0 CALLER PUSH20 0xFFFFFFFFFFFFFFFFFFFFFFFFFFFFFFFFFFFFFFFF AND PUSH20 0xFFFFFFFFFFFFFFFFFFFFFFFFFFFFFFFFFFFFFFFF AND DUP2 MSTORE PUSH1 0x20 ADD SWAP1 DUP2 MSTORE PUSH1 0x20 ADD PUSH0 KECCAK256 SLOAD SWAP1 POP PUSH1 0x4 PUSH0 SWAP1 SLOAD SWAP1 PUSH2 0x100 EXP SWAP1 DIV PUSH1 0xFF AND ISZERO PUSH2 0xA5D JUMPI PUSH1 0x40 MLOAD PUSH32 0x8C379A000000000000000000000000000000000000000000000000000000000 DUP2 MSTORE PUSH1 0x4 ADD PUSH2 0xA54 SWAP1 PUSH2 0x1C6F JUMP JUMPDEST PUSH1 0x40 MLOAD DUP1 SWAP2 SUB SWAP1 REVERT JUMPDEST PUSH1 0x1 PUSH1 0x4 PUSH0 PUSH2 0x100 EXP DUP2 SLOAD DUP2 PUSH1 0xFF MUL NOT AND SWAP1 DUP4 ISZERO ISZERO MUL OR SWAP1 SSTORE POP DUP7 PUSH1 0x7 PUSH0 DUP3 DUP3 SLOAD PUSH2 0xA88 SWAP2 SWAP1 PUSH2 0x1AC9 JUMP JUMPDEST SWAP3 POP POP DUP2 SWAP1 SSTORE POP DUP7 PUSH1 0x3 PUSH0 DUP3 DUP3 SLOAD PUSH2 0xAA0 SWAP2 SWAP1 PUSH2 0x1AC9 JUMP JUMPDEST SWAP3 POP POP DUP2 SWAP1 SSTORE POP DUP7 PUSH1 0x5 PUSH0 CALLER PUSH20 0xFFFFFFFFFFFFFFFFFFFFFFFFFFFFFFFFFFFFFFFF AND PUSH20 0xFFFFFFFFFFFFFFFFFFFFFFFFFFFFFFFFFFFFFFFF AND DUP2 MSTORE PUSH1 0x20 ADD SWAP1 DUP2 MSTORE PUSH1 0x20 ADD PUSH0 KECCAK256 PUSH0 DUP3 DUP3 SLOAD PUSH2 0xAF3 SWAP2 SWAP1 PUSH2 0x1AC9 JUMP JUMPDEST SWAP3 POP POP DUP2 SWAP1 SSTORE POP CALLER PUSH20 0xFFFFFFFFFFFFFFFFFFFFFFFFFFFFFFFFFFFFFFFF AND PUSH32 0xCC16F5DBB4873280815C1EE09DBD06736CFFCC184412CF7A71A0FDB75D397CA5 DUP9 PUSH1 0x40 MLOAD PUSH2 0xB40 SWAP2 SWAP1 PUSH2 0x190E JUMP JUMPDEST PUSH1 0x40 MLOAD DUP1 SWAP2 SUB SWAP1 LOG2 PUSH0 PUSH1 0x4 PUSH0 PUSH2 0x100 EXP DUP2 SLOAD DUP2 PUSH1 0xFF MUL NOT AND SWAP1 DUP4 ISZERO ISZERO MUL OR SWAP1 SSTORE POP PUSH1 0x7 SLOAD DUP5 DUP5 PUSH2 0xB70 SWAP2 SWAP1 PUSH2 0x1AC9 JUMP JUMPDEST EQ PUSH2 0xBB0 JUMPI PUSH1 0x40 MLOAD PUSH32 0x8C379A000000000000000000000000000000000000000000000000000000000 DUP2 MSTORE PUSH1 0x4 ADD PUSH2 0xBA7 SWAP1 PUSH2 0x1E77 JUMP JUMPDEST PUSH1 0x40 MLOAD DUP1 SWAP2 SUB SWAP1 REVERT JUMPDEST PUSH1 0x3 SLOAD DUP5 DUP4 PUSH2 0xBBF SWAP2 SWAP1 PUSH2 0x1AC9 JUMP JUMPDEST EQ PUSH2 0xBFF JUMPI PUSH1 0x40 MLOAD PUSH32 0x8C379A000000000000000000000000000000000000000000000000000000000 DUP2 MSTORE PUSH1 0x4 ADD PUSH2 0xBF6 SWAP1 PUSH2 0x1E77 JUMP JUMPDEST PUSH1 0x40 MLOAD DUP1 SWAP2 SUB SWAP1 REVERT JUMPDEST PUSH1 0x5 PUSH0 CALLER PUSH20 0xFFFFFFFFFFFFFFFFFFFFFFFFFFFFFFFFFFFFFFFF AND PUSH20 0xFFFFFFFFFFFFFFFFFFFFFFFFFFFFFFFFFFFFFFFF AND DUP2 MSTORE PUSH1 0x20 ADD SWAP1 DUP2 MSTORE PUSH1 0x20 ADD PUSH0 KECCAK256 SLOAD DUP5 DUP3 PUSH2 0xC49 SWAP2 SWAP1 PUSH2 0x1AC9 JUMP JUMPDEST EQ PUSH2 0xC89 JUMPI PUSH1 0x40 MLOAD PUSH32 0x8C379A000000000000000000000000000000000000000000000000000000000 DUP2 MSTORE PUSH1 0x4 ADD PUSH2 0xC80 SWAP1 PUSH2 0x1E77 JUMP JUMPDEST PUSH1 0x40 MLOAD DUP1 SWAP2 SUB SWAP1 REVERT JUMPDEST POP POP POP POP POP POP POP JUMP JUMPDEST PUSH0 DUP2 PUSH0 PUSH20 0xFFFFFFFFFFFFFFFFFFFFFFFFFFFFFFFFFFFFFFFF AND DUP2 PUSH20 0xFFFFFFFFFFFFFFFFFFFFFFFFFFFFFFFFFFFFFFFF AND SUB PUSH2 0xD02 JUMPI PUSH1 0x40 MLOAD PUSH32 0x8C379A000000000000000000000000000000000000000000000000000000000 DUP2 MSTORE PUSH1 0x4 ADD PUSH2 0xCF9 SWAP1 PUSH2 0x1D3F JUMP JUMPDEST PUSH1 0x40 MLOAD DUP1 SWAP2 SUB SWAP1 REVERT JUMPDEST PUSH1 0x5 PUSH0 DUP5 PUSH20 0xFFFFFFFFFFFFFFFFFFFFFFFFFFFFFFFFFFFFFFFF AND PUSH20 0xFFFFFFFFFFFFFFFFFFFFFFFFFFFFFFFFFFFFFFFF AND DUP2 MSTORE PUSH1 0x20 ADD SWAP1 DUP2 MSTORE PUSH1 0x20 ADD PUSH0 KECCAK256 SLOAD SWAP2 POP POP SWAP2 SWAP1 POP JUMP JUMPDEST PUSH1 0x1 DUP1 SLOAD PUSH2 0xD55 SWAP1 PUSH2 0x1A6C JUMP JUMPDEST DUP1 PUSH1 0x1F ADD PUSH1 0x20 DUP1 SWAP2 DIV MUL PUSH1 0x20 ADD PUSH1 0x40 MLOAD SWAP1 DUP2 ADD PUSH1 0x40 MSTORE DUP1 SWAP3 SWAP2 SWAP1 DUP2 DUP2 MSTORE PUSH1 0x20 ADD DUP3 DUP1 SLOAD PUSH2 0xD81 SWAP1 PUSH2 0x1A6C JUMP JUMPDEST DUP1 ISZERO PUSH2 0xDCC JUMPI DUP1 PUSH1 0x1F LT PUSH2 0xDA3 JUMPI PUSH2 0x100 DUP1 DUP4 SLOAD DIV MUL DUP4 MSTORE SWAP2 PUSH1 0x20 ADD SWAP2 PUSH2 0xDCC JUMP JUMPDEST DUP3 ADD SWAP2 SWAP1 PUSH0 MSTORE PUSH1 0x20 PUSH0 KECCAK256 SWAP1 JUMPDEST DUP2 SLOAD DUP2 MSTORE SWAP1 PUSH1 0x1 ADD SWAP1 PUSH1 0x20 ADD DUP1 DUP4 GT PUSH2 0xDAF JUMPI DUP3 SWAP1 SUB PUSH1 0x1F AND DUP3 ADD SWAP2 JUMPDEST POP POP POP POP POP DUP2 JUMP JUMPDEST PUSH0 PUSH2 0xDE0 CALLER DUP5 DUP5 PUSH2 0x12D9 JUMP JUMPDEST PUSH1 0x1 SWAP1 POP SWAP3 SWAP2 POP POP JUMP JUMPDEST PUSH0 DUP3 PUSH0 PUSH20 0xFFFFFFFFFFFFFFFFFFFFFFFFFFFFFFFFFFFFFFFF AND DUP2 PUSH20 0xFFFFFFFFFFFFFFFFFFFFFFFFFFFFFFFFFFFFFFFF AND SUB PUSH2 0xE5A JUMPI PUSH1 0x40 MLOAD PUSH32 0x8C379A000000000000000000000000000000000000000000000000000000000 DUP2 MSTORE PUSH1 0x4 ADD PUSH2 0xE51 SWAP1 PUSH2 0x1D3F JUMP JUMPDEST PUSH1 0x40 MLOAD DUP1 SWAP2 SUB SWAP1 REVERT JUMPDEST DUP3 PUSH0 PUSH20 0xFFFFFFFFFFFFFFFFFFFFFFFFFFFFFFFFFFFFFFFF AND DUP2 PUSH20 0xFFFFFFFFFFFFFFFFFFFFFFFFFFFFFFFFFFFFFFFF AND SUB PUSH2 0xEC9 JUMPI PUSH1 0x40 MLOAD PUSH32 0x8C379A000000000000000000000000000000000000000000000000000000000 DUP2 MSTORE PUSH1 0x4 ADD PUSH2 0xEC0 SWAP1 PUSH2 0x1D3F JUMP JUMPDEST PUSH1 0x40 MLOAD DUP1 SWAP2 SUB SWAP1 REVERT JUMPDEST PUSH1 0x6 PUSH0 DUP7 PUSH20 0xFFFFFFFFFFFFFFFFFFFFFFFFFFFFFFFFFFFFFFFF AND PUSH20 0xFFFFFFFFFFFFFFFFFFFFFFFFFFFFFFFFFFFFFFFF AND DUP2 MSTORE PUSH1 0x20 ADD SWAP1 DUP2 MSTORE PUSH1 0x20 ADD PUSH0 KECCAK256 PUSH0 DUP6 PUSH20 0xFFFFFFFFFFFFFFFFFFFFFFFFFFFFFFFFFFFFFFFF AND PUSH20 0xFFFFFFFFFFFFFFFFFFFFFFFFFFFFFFFFFFFFFFFF AND DUP2 MSTORE PUSH1 0x20 ADD SWAP1 DUP2 MSTORE PUSH1 0x20 ADD PUSH0 KECCAK256 SLOAD SWAP3 POP POP POP SWAP3 SWAP2 POP POP JUMP JUMPDEST DUP3 PUSH0 PUSH20 0xFFFFFFFFFFFFFFFFFFFFFFFFFFFFFFFFFFFFFFFF AND DUP2 PUSH20 0xFFFFFFFFFFFFFFFFFFFFFFFFFFFFFFFFFFFFFFFF AND SUB PUSH2 0xFBB JUMPI PUSH1 0x40 MLOAD PUSH32 0x8C379A000000000000000000000000000000000000000000000000000000000 DUP2 MSTORE PUSH1 0x4 ADD PUSH2 0xFB2 SWAP1 PUSH2 0x1D3F JUMP JUMPDEST PUSH1 0x40 MLOAD DUP1 SWAP2 SUB SWAP1 REVERT JUMPDEST DUP4 DUP3 DUP1 PUSH1 0x5 PUSH0 DUP5 PUSH20 0xFFFFFFFFFFFFFFFFFFFFFFFFFFFFFFFFFFFFFFFF AND PUSH20 0xFFFFFFFFFFFFFFFFFFFFFFFFFFFFFFFFFFFFFFFF AND DUP2 MSTORE PUSH1 0x20 ADD SWAP1 DUP2 MSTORE PUSH1 0x20 ADD PUSH0 KECCAK256 SLOAD LT ISZERO PUSH2 0x103D JUMPI PUSH1 0x40 MLOAD PUSH32 0x8C379A000000000000000000000000000000000000000000000000000000000 DUP2 MSTORE PUSH1 0x4 ADD PUSH2 0x1034 SWAP1 PUSH2 0x1EDF JUMP JUMPDEST PUSH1 0x40 MLOAD DUP1 SWAP2 SUB SWAP1 REVERT JUMPDEST DUP5 PUSH0 PUSH20 0xFFFFFFFFFFFFFFFFFFFFFFFFFFFFFFFFFFFFFFFF AND DUP2 PUSH20 0xFFFFFFFFFFFFFFFFFFFFFFFFFFFFFFFFFFFFFFFF AND SUB PUSH2 0x10AC JUMPI PUSH1 0x40 MLOAD PUSH32 0x8C379A000000000000000000000000000000000000000000000000000000000 DUP2 MSTORE PUSH1 0x4 ADD PUSH2 0x10A3 SWAP1 PUSH2 0x1D3F JUMP JUMPDEST PUSH1 0x40 MLOAD DUP1 SWAP2 SUB SWAP1 REVERT JUMPDEST DUP7 DUP7 DUP7 PUSH1 0x4 PUSH0 SWAP1 SLOAD SWAP1 PUSH2 0x100 EXP SWAP1 DIV PUSH1 0xFF AND ISZERO PUSH2 0x10FE JUMPI PUSH1 0x40 MLOAD PUSH32 0x8C379A000000000000000000000000000000000000000000000000000000000 DUP2 MSTORE PUSH1 0x4 ADD PUSH2 0x10F5 SWAP1 PUSH2 0x1C6F JUMP JUMPDEST PUSH1 0x40 MLOAD DUP1 SWAP2 SUB SWAP1 REVERT JUMPDEST PUSH1 0x1 PUSH1 0x4 PUSH0 PUSH2 0x100 EXP DUP2 SLOAD DUP2 PUSH1 0xFF MUL NOT AND SWAP1 DUP4 ISZERO ISZERO MUL OR SWAP1 SSTORE POP DUP8 PUSH1 0x6 PUSH0 DUP13 PUSH20 0xFFFFFFFFFFFFFFFFFFFFFFFFFFFFFFFFFFFFFFFF AND PUSH20 0xFFFFFFFFFFFFFFFFFFFFFFFFFFFFFFFFFFFFFFFF AND DUP2 MSTORE PUSH1 0x20 ADD SWAP1 DUP2 MSTORE PUSH1 0x20 ADD PUSH0 KECCAK256 PUSH0 DUP12 PUSH20 0xFFFFFFFFFFFFFFFFFFFFFFFFFFFFFFFFFFFFFFFF AND PUSH20 0xFFFFFFFFFFFFFFFFFFFFFFFFFFFFFFFFFFFFFFFF AND DUP2 MSTORE PUSH1 0x20 ADD SWAP1 DUP2 MSTORE PUSH1 0x20 ADD PUSH0 KECCAK256 DUP2 SWAP1 SSTORE POP DUP9 PUSH20 0xFFFFFFFFFFFFFFFFFFFFFFFFFFFFFFFFFFFFFFFF AND DUP11 PUSH20 0xFFFFFFFFFFFFFFFFFFFFFFFFFFFFFFFFFFFFFFFF AND PUSH32 0x8C5BE1E5EBEC7D5BD14F71427D1E84F3DD0314C0F7B2291E5B200AC8C7C3B925 DUP11 PUSH1 0x40 MLOAD PUSH2 0x11F2 SWAP2 SWAP1 PUSH2 0x190E JUMP JUMPDEST PUSH1 0x40 MLOAD DUP1 SWAP2 SUB SWAP1 LOG3 PUSH0 PUSH1 0x4 PUSH0 PUSH2 0x100 EXP DUP2 SLOAD DUP2 PUSH1 0xFF MUL NOT AND SWAP1 DUP4 ISZERO ISZERO MUL OR SWAP1 SSTORE POP DUP1 PUSH1 0x6 PUSH0 DUP6 PUSH20 0xFFFFFFFFFFFFFFFFFFFFFFFFFFFFFFFFFFFFFFFF AND PUSH20 0xFFFFFFFFFFFFFFFFFFFFFFFFFFFFFFFFFFFFFFFF AND DUP2 MSTORE PUSH1 0x20 ADD SWAP1 DUP2 MSTORE PUSH1 0x20 ADD PUSH0 KECCAK256 PUSH0 DUP5 PUSH20 0xFFFFFFFFFFFFFFFFFFFFFFFFFFFFFFFFFFFFFFFF AND PUSH20 0xFFFFFFFFFFFFFFFFFFFFFFFFFFFFFFFFFFFFFFFF AND DUP2 MSTORE PUSH1 0x20 ADD SWAP1 DUP2 MSTORE PUSH1 0x20 ADD PUSH0 KECCAK256 SLOAD EQ PUSH2 0x12CD JUMPI PUSH1 0x40 MLOAD PUSH32 0x8C379A000000000000000000000000000000000000000000000000000000000 DUP2 MSTORE PUSH1 0x4 ADD PUSH2 0x12C4 SWAP1 PUSH2 0x1F6D JUMP JUMPDEST PUSH1 0x40 MLOAD DUP1 SWAP2 SUB SWAP1 REVERT JUMPDEST POP POP POP POP POP POP POP POP POP POP JUMP JUMPDEST DUP3 PUSH0 PUSH20 0xFFFFFFFFFFFFFFFFFFFFFFFFFFFFFFFFFFFFFFFF AND DUP2 PUSH20 0xFFFFFFFFFFFFFFFFFFFFFFFFFFFFFFFFFFFFFFFF AND SUB PUSH2 0x1348 JUMPI PUSH1 0x40 MLOAD PUSH32 0x8C379A000000000000000000000000000000000000000000000000000000000 DUP2 MSTORE PUSH1 0x4 ADD PUSH2 0x133F SWAP1 PUSH2 0x1D3F JUMP JUMPDEST PUSH1 0x40 MLOAD DUP1 SWAP2 SUB SWAP1 REVERT JUMPDEST DUP4 DUP3 DUP1 PUSH1 0x5 PUSH0 DUP5 PUSH20 0xFFFFFFFFFFFFFFFFFFFFFFFFFFFFFFFFFFFFFFFF AND PUSH20 0xFFFFFFFFFFFFFFFFFFFFFFFFFFFFFFFFFFFFFFFF AND DUP2 MSTORE PUSH1 0x20 ADD SWAP1 DUP2 MSTORE PUSH1 0x20 ADD PUSH0 KECCAK256 SLOAD LT ISZERO PUSH2 0x13CA JUMPI PUSH1 0x40 MLOAD PUSH32 0x8C379A000000000000000000000000000000000000000000000000000000000 DUP2 MSTORE PUSH1 0x4 ADD PUSH2 0x13C1 SWAP1 PUSH2 0x1EDF JUMP JUMPDEST PUSH1 0x40 MLOAD DUP1 SWAP2 SUB SWAP1 REVERT JUMPDEST DUP5 PUSH0 PUSH20 0xFFFFFFFFFFFFFFFFFFFFFFFFFFFFFFFFFFFFFFFF AND DUP2 PUSH20 0xFFFFFFFFFFFFFFFFFFFFFFFFFFFFFFFFFFFFFFFF AND SUB PUSH2 0x1439 JUMPI PUSH1 0x40 MLOAD PUSH32 0x8C379A000000000000000000000000000000000000000000000000000000000 DUP2 MSTORE PUSH1 0x4 ADD PUSH2 0x1430 SWAP1 PUSH2 0x1D3F JUMP JUMPDEST PUSH1 0x40 MLOAD DUP1 SWAP2 SUB SWAP1 REVERT JUMPDEST DUP7 DUP7 DUP7 PUSH0 PUSH1 0x5 PUSH0 DUP6 PUSH20 0xFFFFFFFFFFFFFFFFFFFFFFFFFFFFFFFFFFFFFFFF AND PUSH20 0xFFFFFFFFFFFFFFFFFFFFFFFFFFFFFFFFFFFFFFFF AND DUP2 MSTORE PUSH1 0x20 ADD SWAP1 DUP2 MSTORE PUSH1 0x20 ADD PUSH0 KECCAK256 SLOAD SWAP1 POP PUSH0 PUSH1 0x5 PUSH0 DUP6 PUSH20 0xFFFFFFFFFFFFFFFFFFFFFFFFFFFFFFFFFFFFFFFF AND PUSH20 0xFFFFFFFFFFFFFFFFFFFFFFFFFFFFFFFFFFFFFFFF AND DUP2 MSTORE PUSH1 0x20 ADD SWAP1 DUP2 MSTORE PUSH1 0x20 ADD PUSH0 KECCAK256 SLOAD SWAP1 POP PUSH1 0x4 PUSH0 SWAP1 SLOAD SWAP1 PUSH2 0x100 EXP SWAP1 DIV PUSH1 0xFF AND ISZERO PUSH2 0x150D JUMPI PUSH1 0x40 MLOAD PUSH32 0x8C379A000000000000000000000000000000000000000000000000000000000 DUP2 MSTORE PUSH1 0x4 ADD PUSH2 0x1504 SWAP1 PUSH2 0x1C6F JUMP JUMPDEST PUSH1 0x40 MLOAD DUP1 SWAP2 SUB SWAP1 REVERT JUMPDEST PUSH1 0x1 PUSH1 0x4 PUSH0 PUSH2 0x100 EXP DUP2 SLOAD DUP2 PUSH1 0xFF MUL NOT AND SWAP1 DUP4 ISZERO ISZERO MUL OR SWAP1 SSTORE POP DUP10 PUSH1 0x5 PUSH0 DUP15 PUSH20 0xFFFFFFFFFFFFFFFFFFFFFFFFFFFFFFFFFFFFFFFF AND PUSH20 0xFFFFFFFFFFFFFFFFFFFFFFFFFFFFFFFFFFFFFFFF AND DUP2 MSTORE PUSH1 0x20 ADD SWAP1 DUP2 MSTORE PUSH1 0x20 ADD PUSH0 KECCAK256 PUSH0 DUP3 DUP3 SLOAD PUSH2 0x1573 SWAP2 SWAP1 PUSH2 0x1AC9 JUMP JUMPDEST SWAP3 POP POP DUP2 SWAP1 SSTORE POP DUP10 PUSH1 0x5 PUSH0 DUP14 PUSH20 0xFFFFFFFFFFFFFFFFFFFFFFFFFFFFFFFFFFFFFFFF AND PUSH20 0xFFFFFFFFFFFFFFFFFFFFFFFFFFFFFFFFFFFFFFFF AND DUP2 MSTORE PUSH1 0x20 ADD SWAP1 DUP2 MSTORE PUSH1 0x20 ADD PUSH0 KECCAK256 PUSH0 DUP3 DUP3 SLOAD PUSH2 0x15C6 SWAP2 SWAP1 PUSH2 0x1B8A JUMP JUMPDEST SWAP3 POP POP DUP2 SWAP1 SSTORE POP DUP11 PUSH20 0xFFFFFFFFFFFFFFFFFFFFFFFFFFFFFFFFFFFFFFFF AND DUP13 PUSH20 0xFFFFFFFFFFFFFFFFFFFFFFFFFFFFFFFFFFFFFFFF AND PUSH32 0xDDF252AD1BE2C89B69C2B068FC378DAA952BA7F163C4A11628F55A4DF523B3EF DUP13 PUSH1 0x40 MLOAD PUSH2 0x162A SWAP2 SWAP1 PUSH2 0x190E JUMP JUMPDEST PUSH1 0x40 MLOAD DUP1 SWAP2 SUB SWAP1 LOG3 PUSH0 PUSH1 0x4 PUSH0 PUSH2 0x100 EXP DUP2 SLOAD DUP2 PUSH1 0xFF MUL NOT AND SWAP1 DUP4 ISZERO ISZERO MUL OR SWAP1 SSTORE POP PUSH1 0x5 PUSH0 DUP7 PUSH20 0xFFFFFFFFFFFFFFFFFFFFFFFFFFFFFFFFFFFFFFFF AND PUSH20 0xFFFFFFFFFFFFFFFFFFFFFFFFFFFFFFFFFFFFFFFF AND DUP2 MSTORE PUSH1 0x20 ADD SWAP1 DUP2 MSTORE PUSH1 0x20 ADD PUSH0 KECCAK256 SLOAD DUP4 DUP4 PUSH2 0x1695 SWAP2 SWAP1 PUSH2 0x1AC9 JUMP JUMPDEST EQ PUSH2 0x16D5 JUMPI PUSH1 0x40 MLOAD PUSH32 0x8C379A000000000000000000000000000000000000000000000000000000000 DUP2 MSTORE PUSH1 0x4 ADD PUSH2 0x16CC SWAP1 PUSH2 0x1FFB JUMP JUMPDEST PUSH1 0x40 MLOAD DUP1 SWAP2 SUB SWAP1 REVERT JUMPDEST PUSH1 0x5 PUSH0 DUP6 PUSH20 0xFFFFFFFFFFFFFFFFFFFFFFFFFFFFFFFFFFFFFFFF AND PUSH20 0xFFFFFFFFFFFFFFFFFFFFFFFFFFFFFFFFFFFFFFFF AND DUP2 MSTORE PUSH1 0x20 ADD SWAP1 DUP2 MSTORE PUSH1 0x20 ADD PUSH0 KECCAK256 SLOAD DUP4 DUP3 PUSH2 0x171F SWAP2 SWAP1 PUSH2 0x1B8A JUMP JUMPDEST EQ PUSH2 0x175F JUMPI PUSH1 0x40 MLOAD PUSH32 0x8C379A000000000000000000000000000000000000000000000000000000000 DUP2 MSTORE PUSH1 0x4 ADD PUSH2 0x1756 SWAP1 PUSH2 0x2089 JUMP JUMPDEST PUSH1 0x40 MLOAD DUP1 SWAP2 SUB SWAP1 REVERT JUMPDEST POP POP POP POP POP POP POP POP POP POP POP POP JUMP JUMPDEST PUSH0 DUP2 MLOAD SWAP1 POP SWAP2 SWAP1 POP JUMP JUMPDEST PUSH0 DUP3 DUP3 MSTORE PUSH1 0x20 DUP3 ADD SWAP1 POP SWAP3 SWAP2 POP POP JUMP JUMPDEST DUP3 DUP2 DUP4 MCOPY PUSH0 DUP4 DUP4 ADD MSTORE POP POP POP JUMP JUMPDEST PUSH0 PUSH1 0x1F NOT PUSH1 0x1F DUP4 ADD AND SWAP1 POP SWAP2 SWAP1 POP JUMP JUMPDEST PUSH0 PUSH2 0x17AF DUP3 PUSH2 0x176D JUMP JUMPDEST PUSH2 0x17B9 DUP2 DUP6 PUSH2 0x1777 JUMP JUMPDEST SWAP4 POP PUSH2 0x17C9 DUP2 DUP6 PUSH1 0x20 DUP7 ADD PUSH2 0x1787 JUMP JUMPDEST PUSH2 0x17D2 DUP2 PUSH2 0x1795 JUMP JUMPDEST DUP5 ADD SWAP2 POP POP SWAP3 SWAP2 POP POP JUMP JUMPDEST PUSH0 PUSH1 0x20 DUP3 ADD SWAP1 POP DUP2 DUP2 SUB PUSH0 DUP4 ADD MSTORE PUSH2 0x17F5 DUP2 DUP5 PUSH2 0x17A5 JUMP JUMPDEST SWAP1 POP SWAP3 SWAP2 POP POP JUMP JUMPDEST PUSH0 DUP1 REVERT JUMPDEST PUSH0 PUSH20 0xFFFFFFFFFFFFFFFFFFFFFFFFFFFFFFFFFFFFFFFF DUP3 AND SWAP1 POP SWAP2 SWAP1 POP JUMP JUMPDEST PUSH0 PUSH2 0x182A DUP3 PUSH2 0x1801 JUMP JUMPDEST SWAP1 POP SWAP2 SWAP1 POP JUMP JUMPDEST PUSH2 0x183A DUP2 PUSH2 0x1820 JUMP JUMPDEST DUP2 EQ PUSH2 0x1844 JUMPI PUSH0 DUP1 REVERT JUMPDEST POP JUMP JUMPDEST PUSH0 DUP2 CALLDATALOAD SWAP1 POP PUSH2 0x1855 DUP2 PUSH2 0x1831 JUMP JUMPDEST SWAP3 SWAP2 POP POP JUMP JUMPDEST PUSH0 DUP2 SWAP1 POP SWAP2 SWAP1 POP JUMP JUMPDEST PUSH2 0x186D DUP2 PUSH2 0x185B JUMP JUMPDEST DUP2 EQ PUSH2 0x1877 JUMPI PUSH0 DUP1 REVERT JUMPDEST POP JUMP JUMPDEST PUSH0 DUP2 CALLDATALOAD SWAP1 POP PUSH2 0x1888 DUP2 PUSH2 0x1864 JUMP JUMPDEST SWAP3 SWAP2 POP POP JUMP JUMPDEST PUSH0 DUP1 PUSH1 0x40 DUP4 DUP6 SUB SLT ISZERO PUSH2 0x18A4 JUMPI PUSH2 0x18A3 PUSH2 0x17FD JUMP JUMPDEST JUMPDEST PUSH0 PUSH2 0x18B1 DUP6 DUP3 DUP7 ADD PUSH2 0x1847 JUMP JUMPDEST SWAP3 POP POP PUSH1 0x20 PUSH2 0x18C2 DUP6 DUP3 DUP7 ADD PUSH2 0x187A JUMP JUMPDEST SWAP2 POP POP SWAP3 POP SWAP3 SWAP1 POP JUMP JUMPDEST PUSH0 DUP2 ISZERO ISZERO SWAP1 POP SWAP2 SWAP1 POP JUMP JUMPDEST PUSH2 0x18E0 DUP2 PUSH2 0x18CC JUMP JUMPDEST DUP3 MSTORE POP POP JUMP JUMPDEST PUSH0 PUSH1 0x20 DUP3 ADD SWAP1 POP PUSH2 0x18F9 PUSH0 DUP4 ADD DUP5 PUSH2 0x18D7 JUMP JUMPDEST SWAP3 SWAP2 POP POP JUMP JUMPDEST PUSH2 0x1908 DUP2 PUSH2 0x185B JUMP JUMPDEST DUP3 MSTORE POP POP JUMP JUMPDEST PUSH0 PUSH1 0x20 DUP3 ADD SWAP1 POP PUSH2 0x1921 PUSH0 DUP4 ADD DUP5 PUSH2 0x18FF JUMP JUMPDEST SWAP3 SWAP2 POP POP JUMP JUMPDEST PUSH0 DUP1 PUSH0 PUSH1 0x60 DUP5 DUP7 SUB SLT ISZERO PUSH2 0x193E JUMPI PUSH2 0x193D PUSH2 0x17FD JUMP JUMPDEST JUMPDEST PUSH0 PUSH2 0x194B DUP7 DUP3 DUP8 ADD PUSH2 0x1847 JUMP JUMPDEST SWAP4 POP POP PUSH1 0x20 PUSH2 0x195C DUP7 DUP3 DUP8 ADD PUSH2 0x1847 JUMP JUMPDEST SWAP3 POP POP PUSH1 0x40 PUSH2 0x196D DUP7 DUP3 DUP8 ADD PUSH2 0x187A JUMP JUMPDEST SWAP2 POP POP SWAP3 POP SWAP3 POP SWAP3 JUMP JUMPDEST PUSH0 PUSH1 0xFF DUP3 AND SWAP1 POP SWAP2 SWAP1 POP JUMP JUMPDEST PUSH2 0x198C DUP2 PUSH2 0x1977 JUMP JUMPDEST DUP3 MSTORE POP POP JUMP JUMPDEST PUSH0 PUSH1 0x20 DUP3 ADD SWAP1 POP PUSH2 0x19A5 PUSH0 DUP4 ADD DUP5 PUSH2 0x1983 JUMP JUMPDEST SWAP3 SWAP2 POP POP JUMP JUMPDEST PUSH0 PUSH1 0x20 DUP3 DUP5 SUB SLT ISZERO PUSH2 0x19C0 JUMPI PUSH2 0x19BF PUSH2 0x17FD JUMP JUMPDEST JUMPDEST PUSH0 PUSH2 0x19CD DUP5 DUP3 DUP6 ADD PUSH2 0x187A JUMP JUMPDEST SWAP2 POP POP SWAP3 SWAP2 POP POP JUMP JUMPDEST PUSH0 PUSH1 0x20 DUP3 DUP5 SUB SLT ISZERO PUSH2 0x19EB JUMPI PUSH2 0x19EA PUSH2 0x17FD JUMP JUMPDEST JUMPDEST PUSH0 PUSH2 0x19F8 DUP5 DUP3 DUP6 ADD PUSH2 0x1847 JUMP JUMPDEST SWAP2 POP POP SWAP3 SWAP2 POP POP JUMP JUMPDEST PUSH0 DUP1 PUSH1 0x40 DUP4 DUP6 SUB SLT ISZERO PUSH2 0x1A17 JUMPI PUSH2 0x1A16 PUSH2 0x17FD JUMP JUMPDEST JUMPDEST PUSH0 PUSH2 0x1A24 DUP6 DUP3 DUP7 ADD PUSH2 0x1847 JUMP JUMPDEST SWAP3 POP POP PUSH1 0x20 PUSH2 0x1A35 DUP6 DUP3 DUP7 ADD PUSH2 0x1847 JUMP JUMPDEST SWAP2 POP POP SWAP3 POP SWAP3 SWAP1 POP JUMP JUMPDEST PUSH32 0x4E487B7100000000000000000000000000000000000000000000000000000000 PUSH0 MSTORE PUSH1 0x22 PUSH1 0x4 MSTORE PUSH1 0x24 PUSH0 REVERT JUMPDEST PUSH0 PUSH1 0x2 DUP3 DIV SWAP1 POP PUSH1 0x1 DUP3 AND DUP1 PUSH2 0x1A83 JUMPI PUSH1 0x7F DUP3 AND SWAP2 POP JUMPDEST PUSH1 0x20 DUP3 LT DUP2 SUB PUSH2 0x1A96 JUMPI PUSH2 0x1A95 PUSH2 0x1A3F JUMP JUMPDEST JUMPDEST POP SWAP2 SWAP1 POP JUMP JUMPDEST PUSH32 0x4E487B7100000000000000000000000000000000000000000000000000000000 PUSH0 MSTORE PUSH1 0x11 PUSH1 0x4 MSTORE PUSH1 0x24 PUSH0 REVERT JUMPDEST PUSH0 PUSH2 0x1AD3 DUP3 PUSH2 0x185B JUMP JUMPDEST SWAP2 POP PUSH2 0x1ADE DUP4 PUSH2 0x185B JUMP JUMPDEST SWAP3 POP DUP3 DUP3 SUB SWAP1 POP DUP2 DUP2 GT ISZERO PUSH2 0x1AF6 JUMPI PUSH2 0x1AF5 PUSH2 0x1A9C JUMP JUMPDEST JUMPDEST SWAP3 SWAP2 POP POP JUMP JUMPDEST PUSH32 0x4F6E6C79206F776E65722063616E20616363657373207468697320616374696F PUSH0 DUP3 ADD MSTORE PUSH32 0x6E2E000000000000000000000000000000000000000000000000000000000000 PUSH1 0x20 DUP3 ADD MSTORE POP JUMP JUMPDEST PUSH0 PUSH2 0x1B56 PUSH1 0x22 DUP4 PUSH2 0x1777 JUMP JUMPDEST SWAP2 POP PUSH2 0x1B61 DUP3 PUSH2 0x1AFC JUMP JUMPDEST PUSH1 0x40 DUP3 ADD SWAP1 POP SWAP2 SWAP1 POP JUMP JUMPDEST PUSH0 PUSH1 0x20 DUP3 ADD SWAP1 POP DUP2 DUP2 SUB PUSH0 DUP4 ADD MSTORE PUSH2 0x1B83 DUP2 PUSH2 0x1B4A JUMP JUMPDEST SWAP1 POP SWAP2 SWAP1 POP JUMP JUMPDEST PUSH0 PUSH2 0x1B94 DUP3 PUSH2 0x185B JUMP JUMPDEST SWAP2 POP PUSH2 0x1B9F DUP4 PUSH2 0x185B JUMP JUMPDEST SWAP3 POP DUP3 DUP3 ADD SWAP1 POP DUP1 DUP3 GT ISZERO PUSH2 0x1BB7 JUMPI PUSH2 0x1BB6 PUSH2 0x1A9C JUMP JUMPDEST JUMPDEST SWAP3 SWAP2 POP POP JUMP JUMPDEST PUSH32 0x496E73756666696369656E74206D617820737570706C79000000000000000000 PUSH0 DUP3 ADD MSTORE POP JUMP JUMPDEST PUSH0 PUSH2 0x1BF1 PUSH1 0x17 DUP4 PUSH2 0x1777 JUMP JUMPDEST SWAP2 POP PUSH2 0x1BFC DUP3 PUSH2 0x1BBD JUMP JUMPDEST PUSH1 0x20 DUP3 ADD SWAP1 POP SWAP2 SWAP1 POP JUMP JUMPDEST PUSH0 PUSH1 0x20 DUP3 ADD SWAP1 POP DUP2 DUP2 SUB PUSH0 DUP4 ADD MSTORE PUSH2 0x1C1E DUP2 PUSH2 0x1BE5 JUMP JUMPDEST SWAP1 POP SWAP2 SWAP1 POP JUMP JUMPDEST PUSH32 0x52656E7472616E742063616C6C7320617265206E6F7420616C6C6F7765642E00 PUSH0 DUP3 ADD MSTORE POP JUMP JUMPDEST PUSH0 PUSH2 0x1C59 PUSH1 0x1F DUP4 PUSH2 0x1777 JUMP JUMPDEST SWAP2 POP PUSH2 0x1C64 DUP3 PUSH2 0x1C25 JUMP JUMPDEST PUSH1 0x20 DUP3 ADD SWAP1 POP SWAP2 SWAP1 POP JUMP JUMPDEST PUSH0 PUSH1 0x20 DUP3 ADD SWAP1 POP DUP2 DUP2 SUB PUSH0 DUP4 ADD MSTORE PUSH2 0x1C86 DUP2 PUSH2 0x1C4D JUMP JUMPDEST SWAP1 POP SWAP2 SWAP1 POP JUMP JUMPDEST PUSH32 0x4D696E74206661696C6564000000000000000000000000000000000000000000 PUSH0 DUP3 ADD MSTORE POP JUMP JUMPDEST PUSH0 PUSH2 0x1CC1 PUSH1 0xB DUP4 PUSH2 0x1777 JUMP JUMPDEST SWAP2 POP PUSH2 0x1CCC DUP3 PUSH2 0x1C8D JUMP JUMPDEST PUSH1 0x20 DUP3 ADD SWAP1 POP SWAP2 SWAP1 POP JUMP JUMPDEST PUSH0 PUSH1 0x20 DUP3 ADD SWAP1 POP DUP2 DUP2 SUB PUSH0 DUP4 ADD MSTORE PUSH2 0x1CEE DUP2 PUSH2 0x1CB5 JUMP JUMPDEST SWAP1 POP SWAP2 SWAP1 POP JUMP JUMPDEST PUSH32 0x4D757374207370656369667920612076616C696420616464726573732E000000 PUSH0 DUP3 ADD MSTORE POP JUMP JUMPDEST PUSH0 PUSH2 0x1D29 PUSH1 0x1D DUP4 PUSH2 0x1777 JUMP JUMPDEST SWAP2 POP PUSH2 0x1D34 DUP3 PUSH2 0x1CF5 JUMP JUMPDEST PUSH1 0x20 DUP3 ADD SWAP1 POP SWAP2 SWAP1 POP JUMP JUMPDEST PUSH0 PUSH1 0x20 DUP3 ADD SWAP1 POP DUP2 DUP2 SUB PUSH0 DUP4 ADD MSTORE PUSH2 0x1D56 DUP2 PUSH2 0x1D1D JUMP JUMPDEST SWAP1 POP SWAP2 SWAP1 POP JUMP JUMPDEST PUSH32 0x496E73756666696369656E7420746F74616C20737570706C7900000000000000 PUSH0 DUP3 ADD MSTORE POP JUMP JUMPDEST PUSH0 PUSH2 0x1D91 PUSH1 0x19 DUP4 PUSH2 0x1777 JUMP JUMPDEST SWAP2 POP PUSH2 0x1D9C DUP3 PUSH2 0x1D5D JUMP JUMPDEST PUSH1 0x20 DUP3 ADD SWAP1 POP SWAP2 SWAP1 POP JUMP JUMPDEST PUSH0 PUSH1 0x20 DUP3 ADD SWAP1 POP DUP2 DUP2 SUB PUSH0 DUP4 ADD MSTORE PUSH2 0x1DBE DUP2 PUSH2 0x1D85 JUMP JUMPDEST SWAP1 POP SWAP2 SWAP1 POP JUMP JUMPDEST PUSH32 0x496E73756666696369656E742062616C616E6365000000000000000000000000 PUSH0 DUP3 ADD MSTORE POP JUMP JUMPDEST PUSH0 PUSH2 0x1DF9 PUSH1 0x14 DUP4 PUSH2 0x1777 JUMP JUMPDEST SWAP2 POP PUSH2 0x1E04 DUP3 PUSH2 0x1DC5 JUMP JUMPDEST PUSH1 0x20 DUP3 ADD SWAP1 POP SWAP2 SWAP1 POP JUMP JUMPDEST PUSH0 PUSH1 0x20 DUP3 ADD SWAP1 POP DUP2 DUP2 SUB PUSH0 DUP4 ADD MSTORE PUSH2 0x1E26 DUP2 PUSH2 0x1DED JUMP JUMPDEST SWAP1 POP SWAP2 SWAP1 POP JUMP JUMPDEST PUSH32 0x4275726E20776173206E6F74207375636365737366756C2E0000000000000000 PUSH0 DUP3 ADD MSTORE POP JUMP JUMPDEST PUSH0 PUSH2 0x1E61 PUSH1 0x18 DUP4 PUSH2 0x1777 JUMP JUMPDEST SWAP2 POP PUSH2 0x1E6C DUP3 PUSH2 0x1E2D JUMP JUMPDEST PUSH1 0x20 DUP3 ADD SWAP1 POP SWAP2 SWAP1 POP JUMP JUMPDEST PUSH0 PUSH1 0x20 DUP3 ADD SWAP1 POP DUP2 DUP2 SUB PUSH0 DUP4 ADD MSTORE PUSH2 0x1E8E DUP2 PUSH2 0x1E55 JUMP JUMPDEST SWAP1 POP SWAP2 SWAP1 POP JUMP JUMPDEST PUSH32 0x496E73756666696369656E742066756E647320746F206275726E000000000000 PUSH0 DUP3 ADD MSTORE POP JUMP JUMPDEST PUSH0 PUSH2 0x1EC9 PUSH1 0x1A DUP4 PUSH2 0x1777 JUMP JUMPDEST SWAP2 POP PUSH2 0x1ED4 DUP3 PUSH2 0x1E95 JUMP JUMPDEST PUSH1 0x20 DUP3 ADD SWAP1 POP SWAP2 SWAP1 POP JUMP JUMPDEST PUSH0 PUSH1 0x20 DUP3 ADD SWAP1 POP DUP2 DUP2 SUB PUSH0 DUP4 ADD MSTORE PUSH2 0x1EF6 DUP2 PUSH2 0x1EBD JUMP JUMPDEST SWAP1 POP SWAP2 SWAP1 POP JUMP JUMPDEST PUSH32 0x526563697069656E7420616C6C6F77616E616365206E6F742061646A75737465 PUSH0 DUP3 ADD MSTORE PUSH32 0x6420636F72726563746C792E0000000000000000000000000000000000000000 PUSH1 0x20 DUP3 ADD MSTORE POP JUMP JUMPDEST PUSH0 PUSH2 0x1F57 PUSH1 0x2C DUP4 PUSH2 0x1777 JUMP JUMPDEST SWAP2 POP PUSH2 0x1F62 DUP3 PUSH2 0x1EFD JUMP JUMPDEST PUSH1 0x40 DUP3 ADD SWAP1 POP SWAP2 SWAP1 POP JUMP JUMPDEST PUSH0 PUSH1 0x20 DUP3 ADD SWAP1 POP DUP2 DUP2 SUB PUSH0 DUP4 ADD MSTORE PUSH2 0x1F84 DUP2 PUSH2 0x1F4B JUMP JUMPDEST SWAP1 POP SWAP2 SWAP1 POP JUMP JUMPDEST PUSH32 0x53656E6465722066756E6473206E6F742061646A757374656420636F72726563 PUSH0 DUP3 ADD MSTORE PUSH32 0x746C790000000000000000000000000000000000000000000000000000000000 PUSH1 0x20 DUP3 ADD MSTORE POP JUMP JUMPDEST PUSH0 PUSH2 0x1FE5 PUSH1 0x23 DUP4 PUSH2 0x1777 JUMP JUMPDEST SWAP2 POP PUSH2 0x1FF0 DUP3 PUSH2 0x1F8B JUMP JUMPDEST PUSH1 0x40 DUP3 ADD SWAP1 POP SWAP2 SWAP1 POP JUMP JUMPDEST PUSH0 PUSH1 0x20 DUP3 ADD SWAP1 POP DUP2 DUP2 SUB PUSH0 DUP4 ADD MSTORE PUSH2 0x2012 DUP2 PUSH2 0x1FD9 JUMP JUMPDEST SWAP1 POP SWAP2 SWAP1 POP JUMP JUMPDEST PUSH32 0x526563697069656E742066756E6473206E6F742061646A757374656420636F72 PUSH0 DUP3 ADD MSTORE PUSH32 0x726563746C790000000000000000000000000000000000000000000000000000 PUSH1 0x20 DUP3 ADD MSTORE POP JUMP JUMPDEST PUSH0 PUSH2 0x2073 PUSH1 0x26 DUP4 PUSH2 0x1777 JUMP JUMPDEST SWAP2 POP PUSH2 0x207E DUP3 PUSH2 0x2019 JUMP JUMPDEST PUSH1 0x40 DUP3 ADD SWAP1 POP SWAP2 SWAP1 POP JUMP JUMPDEST PUSH0 PUSH1 0x20 DUP3 ADD SWAP1 POP DUP2 DUP2 SUB PUSH0 DUP4 ADD MSTORE PUSH2 0x20A0 DUP2 PUSH2 0x2067 JUMP JUMPDEST SWAP1 POP SWAP2 SWAP1 POP JUMP INVALID LOG2 PUSH5 0x6970667358 0x22 SLT KECCAK256 0xE4 MCOPY 0xD8 0xBB PUSH10 0x12751612D3E686FF91B1 0xBC OR PUSH23 0x250676D61C4CEAD560591502DCDF64736F6C634300081A STOP CALLER "
				},
				"gasEstimates": {
					"creation": {
						"codeDepositCost": "1682600",
						"executionCost": "infinite",
						"totalCost": "infinite"
					},
					"external": {
						"allowance(address,address)": "infinite",
						"approve(address,uint256)": "infinite",
						"balanceOf(address)": "2912",
						"burn(uint256)": "infinite",
						"decimals()": "2555",
						"mint(address,uint256)": "infinite",
						"name()": "infinite",
						"symbol()": "infinite",
						"totalSupply()": "2477",
						"transfer(address,uint256)": "infinite",
						"transferFrom(address,address,uint256)": "infinite",
						"withdraw()": "infinite"
					}
				},
				"methodIdentifiers": {
					"allowance(address,address)": "dd62ed3e",
					"approve(address,uint256)": "095ea7b3",
					"balanceOf(address)": "70a08231",
					"burn(uint256)": "42966c68",
					"decimals()": "313ce567",
					"mint(address,uint256)": "40c10f19",
					"name()": "06fdde03",
					"symbol()": "95d89b41",
					"totalSupply()": "18160ddd",
					"transfer(address,uint256)": "a9059cbb",
					"transferFrom(address,address,uint256)": "23b872dd",
					"withdraw()": "3ccfd60b"
				}
			},
			"storageLayout": {
				"storage": [
					{
						"astId": 309,
						"contract": "contracts/BSideToken.sol:BSideToken",
						"label": "name",
						"offset": 0,
						"slot": "0",
						"type": "t_string_storage"
					},
					{
						"astId": 311,
						"contract": "contracts/BSideToken.sol:BSideToken",
						"label": "symbol",
						"offset": 0,
						"slot": "1",
						"type": "t_string_storage"
					},
					{
						"astId": 313,
						"contract": "contracts/BSideToken.sol:BSideToken",
						"label": "decimals",
						"offset": 0,
						"slot": "2",
						"type": "t_uint8"
					},
					{
						"astId": 315,
						"contract": "contracts/BSideToken.sol:BSideToken",
						"label": "_totalSupply",
						"offset": 0,
						"slot": "3",
						"type": "t_uint256"
					},
					{
						"astId": 317,
						"contract": "contracts/BSideToken.sol:BSideToken",
						"label": "_locked",
						"offset": 0,
						"slot": "4",
						"type": "t_bool"
					},
					{
						"astId": 323,
						"contract": "contracts/BSideToken.sol:BSideToken",
						"label": "_balances",
						"offset": 0,
						"slot": "5",
						"type": "t_mapping(t_address,t_uint256)"
					},
					{
						"astId": 329,
						"contract": "contracts/BSideToken.sol:BSideToken",
						"label": "_allowances",
						"offset": 0,
						"slot": "6",
						"type": "t_mapping(t_address,t_mapping(t_address,t_uint256))"
					},
					{
						"astId": 11,
						"contract": "contracts/BSideToken.sol:BSideToken",
						"label": "_maxSupply",
						"offset": 0,
						"slot": "7",
						"type": "t_uint256"
					}
				],
				"types": {
					"t_address": {
						"encoding": "inplace",
						"label": "address",
						"numberOfBytes": "20"
					},
					"t_bool": {
						"encoding": "inplace",
						"label": "bool",
						"numberOfBytes": "1"
					},
					"t_mapping(t_address,t_mapping(t_address,t_uint256))": {
						"encoding": "mapping",
						"key": "t_address",
						"label": "mapping(address => mapping(address => uint256))",
						"numberOfBytes": "32",
						"value": "t_mapping(t_address,t_uint256)"
					},
					"t_mapping(t_address,t_uint256)": {
						"encoding": "mapping",
						"key": "t_address",
						"label": "mapping(address => uint256)",
						"numberOfBytes": "32",
						"value": "t_uint256"
					},
					"t_string_storage": {
						"encoding": "bytes",
						"label": "string",
						"numberOfBytes": "32"
					},
					"t_uint256": {
						"encoding": "inplace",
						"label": "uint256",
						"numberOfBytes": "32"
					},
					"t_uint8": {
						"encoding": "inplace",
						"label": "uint8",
						"numberOfBytes": "1"
					}
				}
			},
			"userdoc": {
				"kind": "user",
				"methods": {},
				"version": 1
			}
		}
	}
}