{
	"contracts/MyOtherToken.sol": {
		"MyOtherToken": {
			"abi": [
				{
					"inputs": [
						{
							"internalType": "uint256",
							"name": "initial_supply",
							"type": "uint256"
						}
					],
					"stateMutability": "nonpayable",
					"type": "constructor"
				},
				{
					"anonymous": false,
					"inputs": [
						{
							"indexed": true,
							"internalType": "address",
							"name": "from",
							"type": "address"
						},
						{
							"indexed": false,
							"internalType": "uint256",
							"name": "amount",
							"type": "uint256"
						}
					],
					"name": "Burn",
					"type": "event"
				},
				{
					"anonymous": false,
					"inputs": [
						{
							"indexed": true,
							"internalType": "address",
							"name": "to",
							"type": "address"
						},
						{
							"indexed": false,
							"internalType": "uint256",
							"name": "amount",
							"type": "uint256"
						}
					],
					"name": "Mint",
					"type": "event"
				},
				{
					"anonymous": false,
					"inputs": [
						{
							"indexed": true,
							"internalType": "address",
							"name": "from",
							"type": "address"
						},
						{
							"indexed": true,
							"internalType": "address",
							"name": "to",
							"type": "address"
						},
						{
							"indexed": false,
							"internalType": "uint256",
							"name": "amount",
							"type": "uint256"
						}
					],
					"name": "Transfer",
					"type": "event"
				},
				{
					"inputs": [
						{
							"internalType": "address",
							"name": "a",
							"type": "address"
						}
					],
					"name": "balance",
					"outputs": [
						{
							"internalType": "uint256",
							"name": "",
							"type": "uint256"
						}
					],
					"stateMutability": "view",
					"type": "function"
				},
				{
					"inputs": [
						{
							"internalType": "address",
							"name": "from",
							"type": "address"
						},
						{
							"internalType": "uint256",
							"name": "amount",
							"type": "uint256"
						}
					],
					"name": "burn",
					"outputs": [],
					"stateMutability": "nonpayable",
					"type": "function"
				},
				{
					"inputs": [],
					"name": "decimals",
					"outputs": [
						{
							"internalType": "uint8",
							"name": "",
							"type": "uint8"
						}
					],
					"stateMutability": "view",
					"type": "function"
				},
				{
					"inputs": [],
					"name": "max_supply",
					"outputs": [
						{
							"internalType": "uint256",
							"name": "",
							"type": "uint256"
						}
					],
					"stateMutability": "view",
					"type": "function"
				},
				{
					"inputs": [
						{
							"internalType": "address",
							"name": "to",
							"type": "address"
						},
						{
							"internalType": "uint256",
							"name": "amount",
							"type": "uint256"
						}
					],
					"name": "mint",
					"outputs": [],
					"stateMutability": "nonpayable",
					"type": "function"
				},
				{
					"inputs": [],
					"name": "token_name",
					"outputs": [
						{
							"internalType": "string",
							"name": "",
							"type": "string"
						}
					],
					"stateMutability": "view",
					"type": "function"
				},
				{
					"inputs": [],
					"name": "token_symbol",
					"outputs": [
						{
							"internalType": "string",
							"name": "",
							"type": "string"
						}
					],
					"stateMutability": "view",
					"type": "function"
				},
				{
					"inputs": [
						{
							"internalType": "address",
							"name": "to",
							"type": "address"
						},
						{
							"internalType": "uint256",
							"name": "amount",
							"type": "uint256"
						}
					],
					"name": "transfer",
					"outputs": [],
					"stateMutability": "nonpayable",
					"type": "function"
				},
				{
					"inputs": [],
					"name": "withdraw",
					"outputs": [],
					"stateMutability": "nonpayable",
					"type": "function"
				},
				{
					"stateMutability": "payable",
					"type": "receive"
				}
			],
			"devdoc": {
				"kind": "dev",
				"methods": {},
				"version": 1
			},
			"evm": {
				"assembly": "    /* \"contracts/MyOtherToken.sol\":58:3017  contract MyOtherToken {... */\n  mstore(0x40, 0xa0)\n    /* \"contracts/MyOtherToken.sol\":449:450  0 */\n  0x00\n    /* \"contracts/MyOtherToken.sol\":418:450  uint256 private total_supply = 0 */\n  dup1\n  sstore\n    /* \"contracts/MyOtherToken.sol\":528:533  false */\n  0x00\n    /* \"contracts/MyOtherToken.sol\":506:533  bool private locked = false */\n  0x02\n  exp(0x0100, 0x00)\n  dup2\n  sload\n  dup2\n  0xff\n  mul\n  not\n  and\n  swap1\n  dup4\n  iszero\n  iszero\n  mul\n  or\n  swap1\n  sstore\n  pop\n    /* \"contracts/MyOtherToken.sol\":1553:1764  constructor(uint256 initial_supply) {... */\n  callvalue\n  dup1\n  iszero\n  tag_1\n  jumpi\n  0x00\n  dup1\n  revert\ntag_1:\n  pop\n  mload(0x40)\n  sub(codesize, bytecodeSize)\n  dup1\n  bytecodeSize\n  dup4\n  codecopy\n  dup2\n  dup2\n  add\n  0x40\n  mstore\n  dup2\n  add\n  swap1\n  tag_2\n  swap2\n  swap1\n  tag_3\n  jump\t// in\ntag_2:\n    /* \"contracts/MyOtherToken.sol\":224:226  18 */\n  0x12\n    /* \"contracts/MyOtherToken.sol\":273:290  uint256(decimals) */\n  0xff\n  and\n    /* \"contracts/MyOtherToken.sol\":269:271  10 */\n  0x0a\n    /* \"contracts/MyOtherToken.sol\":269:290  10**uint256(decimals) */\n  tag_6\n  swap2\n  swap1\n  tag_7\n  jump\t// in\ntag_6:\n    /* \"contracts/MyOtherToken.sol\":333:342  1_000_000 */\n  0x0f4240\n    /* \"contracts/MyOtherToken.sol\":333:354  1_000_000 * multipler */\n  tag_8\n  swap2\n  swap1\n  tag_9\n  jump\t// in\ntag_8:\n    /* \"contracts/MyOtherToken.sol\":224:226  18 */\n  0x12\n    /* \"contracts/MyOtherToken.sol\":273:290  uint256(decimals) */\n  0xff\n  and\n    /* \"contracts/MyOtherToken.sol\":269:271  10 */\n  0x0a\n    /* \"contracts/MyOtherToken.sol\":269:290  10**uint256(decimals) */\n  tag_10\n  swap2\n  swap1\n  tag_7\n  jump\t// in\ntag_10:\n    /* \"contracts/MyOtherToken.sol\":1607:1621  initial_supply */\n  dup3\n    /* \"contracts/MyOtherToken.sol\":1607:1633  initial_supply * multipler */\n  tag_11\n  swap2\n  swap1\n  tag_9\n  jump\t// in\ntag_11:\n    /* \"contracts/MyOtherToken.sol\":1607:1647  initial_supply * multipler <= max_supply */\n  gt\n  iszero\n    /* \"contracts/MyOtherToken.sol\":1599:1690  require(initial_supply * multipler <= max_supply, \"initial_supply can not exceed maximum.\") */\n  tag_12\n  jumpi\n  mload(0x40)\n  0x08c379a000000000000000000000000000000000000000000000000000000000\n  dup2\n  mstore\n  0x04\n  add\n  tag_13\n  swap1\n  tag_14\n  jump\t// in\ntag_13:\n  mload(0x40)\n  dup1\n  swap2\n  sub\n  swap1\n  revert\ntag_12:\n    /* \"contracts/MyOtherToken.sol\":1708:1718  msg.sender */\n  caller\n    /* \"contracts/MyOtherToken.sol\":1700:1718  owner = msg.sender */\n  0xffffffffffffffffffffffffffffffffffffffff\n  and\n  0x80\n  dup2\n  0xffffffffffffffffffffffffffffffffffffffff\n  and\n  dup2\n  mstore\n  pop\n  pop\n    /* \"contracts/MyOtherToken.sol\":1743:1757  initial_supply */\n  dup1\n    /* \"contracts/MyOtherToken.sol\":1728:1740  total_supply */\n  0x00\n    /* \"contracts/MyOtherToken.sol\":1728:1757  total_supply = initial_supply */\n  dup2\n  swap1\n  sstore\n  pop\n    /* \"contracts/MyOtherToken.sol\":1553:1764  constructor(uint256 initial_supply) {... */\n  pop\n    /* \"contracts/MyOtherToken.sol\":58:3017  contract MyOtherToken {... */\n  jump(tag_15)\n    /* \"#utility.yul\":88:205   */\ntag_17:\n    /* \"#utility.yul\":197:198   */\n  0x00\n    /* \"#utility.yul\":194:195   */\n  dup1\n    /* \"#utility.yul\":187:199   */\n  revert\n    /* \"#utility.yul\":334:411   */\ntag_19:\n    /* \"#utility.yul\":371:378   */\n  0x00\n    /* \"#utility.yul\":400:405   */\n  dup2\n    /* \"#utility.yul\":389:405   */\n  swap1\n  pop\n    /* \"#utility.yul\":334:411   */\n  swap2\n  swap1\n  pop\n  jump\t// out\n    /* \"#utility.yul\":417:539   */\ntag_20:\n    /* \"#utility.yul\":490:514   */\n  tag_35\n    /* \"#utility.yul\":508:513   */\n  dup2\n    /* \"#utility.yul\":490:514   */\n  tag_19\n  jump\t// in\ntag_35:\n    /* \"#utility.yul\":483:488   */\n  dup2\n    /* \"#utility.yul\":480:515   */\n  eq\n    /* \"#utility.yul\":470:533   */\n  tag_36\n  jumpi\n    /* \"#utility.yul\":529:530   */\n  0x00\n    /* \"#utility.yul\":526:527   */\n  dup1\n    /* \"#utility.yul\":519:531   */\n  revert\n    /* \"#utility.yul\":470:533   */\ntag_36:\n    /* \"#utility.yul\":417:539   */\n  pop\n  jump\t// out\n    /* \"#utility.yul\":545:688   */\ntag_21:\n    /* \"#utility.yul\":602:607   */\n  0x00\n    /* \"#utility.yul\":633:639   */\n  dup2\n    /* \"#utility.yul\":627:640   */\n  mload\n    /* \"#utility.yul\":618:640   */\n  swap1\n  pop\n    /* \"#utility.yul\":649:682   */\n  tag_38\n    /* \"#utility.yul\":676:681   */\n  dup2\n    /* \"#utility.yul\":649:682   */\n  tag_20\n  jump\t// in\ntag_38:\n    /* \"#utility.yul\":545:688   */\n  swap3\n  swap2\n  pop\n  pop\n  jump\t// out\n    /* \"#utility.yul\":694:1045   */\ntag_3:\n    /* \"#utility.yul\":764:770   */\n  0x00\n    /* \"#utility.yul\":813:815   */\n  0x20\n    /* \"#utility.yul\":801:810   */\n  dup3\n    /* \"#utility.yul\":792:799   */\n  dup5\n    /* \"#utility.yul\":788:811   */\n  sub\n    /* \"#utility.yul\":784:816   */\n  slt\n    /* \"#utility.yul\":781:900   */\n  iszero\n  tag_40\n  jumpi\n    /* \"#utility.yul\":819:898   */\n  tag_41\n  tag_17\n  jump\t// in\ntag_41:\n    /* \"#utility.yul\":781:900   */\ntag_40:\n    /* \"#utility.yul\":939:940   */\n  0x00\n    /* \"#utility.yul\":964:1028   */\n  tag_42\n    /* \"#utility.yul\":1020:1027   */\n  dup5\n    /* \"#utility.yul\":1011:1017   */\n  dup3\n    /* \"#utility.yul\":1000:1009   */\n  dup6\n    /* \"#utility.yul\":996:1018   */\n  add\n    /* \"#utility.yul\":964:1028   */\n  tag_21\n  jump\t// in\ntag_42:\n    /* \"#utility.yul\":954:1028   */\n  swap2\n  pop\n    /* \"#utility.yul\":910:1038   */\n  pop\n    /* \"#utility.yul\":694:1045   */\n  swap3\n  swap2\n  pop\n  pop\n  jump\t// out\n    /* \"#utility.yul\":1051:1231   */\ntag_22:\n    /* \"#utility.yul\":1099:1176   */\n  0x4e487b7100000000000000000000000000000000000000000000000000000000\n    /* \"#utility.yul\":1096:1097   */\n  0x00\n    /* \"#utility.yul\":1089:1177   */\n  mstore\n    /* \"#utility.yul\":1196:1200   */\n  0x11\n    /* \"#utility.yul\":1193:1194   */\n  0x04\n    /* \"#utility.yul\":1186:1201   */\n  mstore\n    /* \"#utility.yul\":1220:1224   */\n  0x24\n    /* \"#utility.yul\":1217:1218   */\n  0x00\n    /* \"#utility.yul\":1210:1225   */\n  revert\n    /* \"#utility.yul\":1237:1339   */\ntag_23:\n    /* \"#utility.yul\":1279:1287   */\n  0x00\n    /* \"#utility.yul\":1326:1331   */\n  dup2\n    /* \"#utility.yul\":1323:1324   */\n  0x01\n    /* \"#utility.yul\":1319:1332   */\n  shr\n    /* \"#utility.yul\":1298:1332   */\n  swap1\n  pop\n    /* \"#utility.yul\":1237:1339   */\n  swap2\n  swap1\n  pop\n  jump\t// out\n    /* \"#utility.yul\":1345:2193   */\ntag_24:\n    /* \"#utility.yul\":1406:1411   */\n  0x00\n    /* \"#utility.yul\":1413:1417   */\n  dup1\n    /* \"#utility.yul\":1437:1443   */\n  dup3\n    /* \"#utility.yul\":1428:1443   */\n  swap2\n  pop\n    /* \"#utility.yul\":1461:1466   */\n  dup4\n    /* \"#utility.yul\":1452:1466   */\n  swap1\n  pop\n    /* \"#utility.yul\":1475:2187   */\ntag_46:\n    /* \"#utility.yul\":1496:1497   */\n  0x01\n    /* \"#utility.yul\":1486:1494   */\n  dup6\n    /* \"#utility.yul\":1483:1498   */\n  gt\n    /* \"#utility.yul\":1475:2187   */\n  iszero\n  tag_48\n  jumpi\n    /* \"#utility.yul\":1591:1595   */\n  dup1\n    /* \"#utility.yul\":1586:1589   */\n  dup7\n    /* \"#utility.yul\":1582:1596   */\n  div\n    /* \"#utility.yul\":1576:1580   */\n  dup2\n    /* \"#utility.yul\":1573:1597   */\n  gt\n    /* \"#utility.yul\":1570:1620   */\n  iszero\n  tag_49\n  jumpi\n    /* \"#utility.yul\":1600:1618   */\n  tag_50\n  tag_22\n  jump\t// in\ntag_50:\n    /* \"#utility.yul\":1570:1620   */\ntag_49:\n    /* \"#utility.yul\":1650:1651   */\n  0x01\n    /* \"#utility.yul\":1640:1648   */\n  dup6\n    /* \"#utility.yul\":1636:1652   */\n  and\n    /* \"#utility.yul\":1633:2084   */\n  iszero\n  tag_51\n  jumpi\n    /* \"#utility.yul\":2065:2069   */\n  dup1\n    /* \"#utility.yul\":2058:2063   */\n  dup3\n    /* \"#utility.yul\":2054:2070   */\n  mul\n    /* \"#utility.yul\":2045:2070   */\n  swap2\n  pop\n    /* \"#utility.yul\":1633:2084   */\ntag_51:\n    /* \"#utility.yul\":2115:2119   */\n  dup1\n    /* \"#utility.yul\":2109:2113   */\n  dup2\n    /* \"#utility.yul\":2105:2120   */\n  mul\n    /* \"#utility.yul\":2097:2120   */\n  swap1\n  pop\n    /* \"#utility.yul\":2145:2177   */\n  tag_52\n    /* \"#utility.yul\":2168:2176   */\n  dup6\n    /* \"#utility.yul\":2145:2177   */\n  tag_23\n  jump\t// in\ntag_52:\n    /* \"#utility.yul\":2133:2177   */\n  swap5\n  pop\n    /* \"#utility.yul\":1475:2187   */\n  jump(tag_46)\ntag_48:\n    /* \"#utility.yul\":1345:2193   */\n  swap5\n  pop\n  swap5\n  swap3\n  pop\n  pop\n  pop\n  jump\t// out\n    /* \"#utility.yul\":2199:3272   */\ntag_25:\n    /* \"#utility.yul\":2253:2258   */\n  0x00\n    /* \"#utility.yul\":2444:2452   */\n  dup3\n    /* \"#utility.yul\":2434:2474   */\n  tag_54\n  jumpi\n    /* \"#utility.yul\":2465:2466   */\n  0x01\n    /* \"#utility.yul\":2456:2466   */\n  swap1\n  pop\n    /* \"#utility.yul\":2467:2472   */\n  jump(tag_53)\n    /* \"#utility.yul\":2434:2474   */\ntag_54:\n    /* \"#utility.yul\":2493:2497   */\n  dup2\n    /* \"#utility.yul\":2483:2519   */\n  tag_55\n  jumpi\n    /* \"#utility.yul\":2510:2511   */\n  0x00\n    /* \"#utility.yul\":2501:2511   */\n  swap1\n  pop\n    /* \"#utility.yul\":2512:2517   */\n  jump(tag_53)\n    /* \"#utility.yul\":2483:2519   */\ntag_55:\n    /* \"#utility.yul\":2579:2583   */\n  dup2\n    /* \"#utility.yul\":2627:2628   */\n  0x01\n    /* \"#utility.yul\":2622:2649   */\n  dup2\n  eq\n  tag_57\n  jumpi\n    /* \"#utility.yul\":2663:2664   */\n  0x02\n    /* \"#utility.yul\":2658:2849   */\n  dup2\n  eq\n  tag_58\n  jumpi\n    /* \"#utility.yul\":2572:2849   */\n  jump(tag_56)\n    /* \"#utility.yul\":2622:2649   */\ntag_57:\n    /* \"#utility.yul\":2640:2641   */\n  0x01\n    /* \"#utility.yul\":2631:2641   */\n  swap2\n  pop\n    /* \"#utility.yul\":2642:2647   */\n  pop\n  jump(tag_53)\n    /* \"#utility.yul\":2658:2849   */\ntag_58:\n    /* \"#utility.yul\":2703:2706   */\n  0xff\n    /* \"#utility.yul\":2693:2701   */\n  dup5\n    /* \"#utility.yul\":2690:2707   */\n  gt\n    /* \"#utility.yul\":2687:2730   */\n  iszero\n  tag_59\n  jumpi\n    /* \"#utility.yul\":2710:2728   */\n  tag_60\n  tag_22\n  jump\t// in\ntag_60:\n    /* \"#utility.yul\":2687:2730   */\ntag_59:\n    /* \"#utility.yul\":2759:2767   */\n  dup4\n    /* \"#utility.yul\":2756:2757   */\n  0x02\n    /* \"#utility.yul\":2752:2768   */\n  exp\n    /* \"#utility.yul\":2743:2768   */\n  swap2\n  pop\n    /* \"#utility.yul\":2794:2797   */\n  dup5\n    /* \"#utility.yul\":2787:2792   */\n  dup3\n    /* \"#utility.yul\":2784:2798   */\n  gt\n    /* \"#utility.yul\":2781:2821   */\n  iszero\n  tag_61\n  jumpi\n    /* \"#utility.yul\":2801:2819   */\n  tag_62\n  tag_22\n  jump\t// in\ntag_62:\n    /* \"#utility.yul\":2781:2821   */\ntag_61:\n    /* \"#utility.yul\":2834:2839   */\n  pop\n  jump(tag_53)\n    /* \"#utility.yul\":2572:2849   */\ntag_56:\n  pop\n    /* \"#utility.yul\":2958:2960   */\n  0x20\n    /* \"#utility.yul\":2948:2956   */\n  dup4\n    /* \"#utility.yul\":2945:2961   */\n  lt\n    /* \"#utility.yul\":2939:2942   */\n  0x0133\n    /* \"#utility.yul\":2933:2937   */\n  dup4\n    /* \"#utility.yul\":2930:2943   */\n  lt\n    /* \"#utility.yul\":2926:2962   */\n  and\n    /* \"#utility.yul\":2908:2910   */\n  0x4e\n    /* \"#utility.yul\":2898:2906   */\n  dup5\n    /* \"#utility.yul\":2895:2911   */\n  lt\n    /* \"#utility.yul\":2890:2892   */\n  0x0b\n    /* \"#utility.yul\":2884:2888   */\n  dup5\n    /* \"#utility.yul\":2881:2893   */\n  lt\n    /* \"#utility.yul\":2877:2912   */\n  and\n    /* \"#utility.yul\":2861:2972   */\n  or\n    /* \"#utility.yul\":2858:3104   */\n  iszero\n  tag_63\n  jumpi\n    /* \"#utility.yul\":3014:3022   */\n  dup3\n    /* \"#utility.yul\":3008:3012   */\n  dup3\n    /* \"#utility.yul\":3004:3023   */\n  exp\n    /* \"#utility.yul\":2995:3023   */\n  swap1\n  pop\n    /* \"#utility.yul\":3049:3052   */\n  dup4\n    /* \"#utility.yul\":3042:3047   */\n  dup2\n    /* \"#utility.yul\":3039:3053   */\n  gt\n    /* \"#utility.yul\":3036:3076   */\n  iszero\n  tag_64\n  jumpi\n    /* \"#utility.yul\":3056:3074   */\n  tag_65\n  tag_22\n  jump\t// in\ntag_65:\n    /* \"#utility.yul\":3036:3076   */\ntag_64:\n    /* \"#utility.yul\":3089:3094   */\n  jump(tag_53)\n    /* \"#utility.yul\":2858:3104   */\ntag_63:\n    /* \"#utility.yul\":3129:3171   */\n  tag_66\n    /* \"#utility.yul\":3167:3170   */\n  dup5\n    /* \"#utility.yul\":3157:3165   */\n  dup5\n    /* \"#utility.yul\":3151:3155   */\n  dup5\n    /* \"#utility.yul\":3148:3149   */\n  0x01\n    /* \"#utility.yul\":3129:3171   */\n  tag_24\n  jump\t// in\ntag_66:\n    /* \"#utility.yul\":3114:3171   */\n  swap3\n  pop\n  swap1\n  pop\n    /* \"#utility.yul\":3203:3207   */\n  dup2\n    /* \"#utility.yul\":3198:3201   */\n  dup5\n    /* \"#utility.yul\":3194:3208   */\n  div\n    /* \"#utility.yul\":3187:3192   */\n  dup2\n    /* \"#utility.yul\":3184:3209   */\n  gt\n    /* \"#utility.yul\":3181:3232   */\n  iszero\n  tag_67\n  jumpi\n    /* \"#utility.yul\":3212:3230   */\n  tag_68\n  tag_22\n  jump\t// in\ntag_68:\n    /* \"#utility.yul\":3181:3232   */\ntag_67:\n    /* \"#utility.yul\":3261:3265   */\n  dup2\n    /* \"#utility.yul\":3254:3259   */\n  dup2\n    /* \"#utility.yul\":3250:3266   */\n  mul\n    /* \"#utility.yul\":3241:3266   */\n  swap1\n  pop\n    /* \"#utility.yul\":2199:3272   */\ntag_53:\n  swap4\n  swap3\n  pop\n  pop\n  pop\n  jump\t// out\n    /* \"#utility.yul\":3278:3563   */\ntag_7:\n    /* \"#utility.yul\":3338:3343   */\n  0x00\n    /* \"#utility.yul\":3362:3385   */\n  tag_70\n    /* \"#utility.yul\":3380:3384   */\n  dup3\n    /* \"#utility.yul\":3362:3385   */\n  tag_19\n  jump\t// in\ntag_70:\n    /* \"#utility.yul\":3354:3385   */\n  swap2\n  pop\n    /* \"#utility.yul\":3406:3433   */\n  tag_71\n    /* \"#utility.yul\":3424:3432   */\n  dup4\n    /* \"#utility.yul\":3406:3433   */\n  tag_19\n  jump\t// in\ntag_71:\n    /* \"#utility.yul\":3394:3433   */\n  swap3\n  pop\n    /* \"#utility.yul\":3452:3556   */\n  tag_72\n    /* \"#utility.yul\":3489:3555   */\n  0xffffffffffffffffffffffffffffffffffffffffffffffffffffffffffffffff\n    /* \"#utility.yul\":3479:3487   */\n  dup5\n    /* \"#utility.yul\":3473:3477   */\n  dup5\n    /* \"#utility.yul\":3452:3556   */\n  tag_25\n  jump\t// in\ntag_72:\n    /* \"#utility.yul\":3443:3556   */\n  swap1\n  pop\n    /* \"#utility.yul\":3278:3563   */\n  swap3\n  swap2\n  pop\n  pop\n  jump\t// out\n    /* \"#utility.yul\":3569:3979   */\ntag_9:\n    /* \"#utility.yul\":3609:3616   */\n  0x00\n    /* \"#utility.yul\":3632:3652   */\n  tag_74\n    /* \"#utility.yul\":3650:3651   */\n  dup3\n    /* \"#utility.yul\":3632:3652   */\n  tag_19\n  jump\t// in\ntag_74:\n    /* \"#utility.yul\":3627:3652   */\n  swap2\n  pop\n    /* \"#utility.yul\":3666:3686   */\n  tag_75\n    /* \"#utility.yul\":3684:3685   */\n  dup4\n    /* \"#utility.yul\":3666:3686   */\n  tag_19\n  jump\t// in\ntag_75:\n    /* \"#utility.yul\":3661:3686   */\n  swap3\n  pop\n    /* \"#utility.yul\":3721:3722   */\n  dup3\n    /* \"#utility.yul\":3718:3719   */\n  dup3\n    /* \"#utility.yul\":3714:3723   */\n  mul\n    /* \"#utility.yul\":3743:3773   */\n  tag_76\n    /* \"#utility.yul\":3761:3772   */\n  dup2\n    /* \"#utility.yul\":3743:3773   */\n  tag_19\n  jump\t// in\ntag_76:\n    /* \"#utility.yul\":3732:3773   */\n  swap2\n  pop\n    /* \"#utility.yul\":3922:3923   */\n  dup3\n    /* \"#utility.yul\":3913:3920   */\n  dup3\n    /* \"#utility.yul\":3909:3924   */\n  div\n    /* \"#utility.yul\":3906:3907   */\n  dup5\n    /* \"#utility.yul\":3903:3925   */\n  eq\n    /* \"#utility.yul\":3883:3884   */\n  dup4\n    /* \"#utility.yul\":3876:3885   */\n  iszero\n    /* \"#utility.yul\":3856:3939   */\n  or\n    /* \"#utility.yul\":3833:3972   */\n  tag_77\n  jumpi\n    /* \"#utility.yul\":3952:3970   */\n  tag_78\n  tag_22\n  jump\t// in\ntag_78:\n    /* \"#utility.yul\":3833:3972   */\ntag_77:\n    /* \"#utility.yul\":3617:3979   */\n  pop\n    /* \"#utility.yul\":3569:3979   */\n  swap3\n  swap2\n  pop\n  pop\n  jump\t// out\n    /* \"#utility.yul\":3985:4154   */\ntag_26:\n    /* \"#utility.yul\":4069:4080   */\n  0x00\n    /* \"#utility.yul\":4103:4109   */\n  dup3\n    /* \"#utility.yul\":4098:4101   */\n  dup3\n    /* \"#utility.yul\":4091:4110   */\n  mstore\n    /* \"#utility.yul\":4143:4147   */\n  0x20\n    /* \"#utility.yul\":4138:4141   */\n  dup3\n    /* \"#utility.yul\":4134:4148   */\n  add\n    /* \"#utility.yul\":4119:4148   */\n  swap1\n  pop\n    /* \"#utility.yul\":3985:4154   */\n  swap3\n  swap2\n  pop\n  pop\n  jump\t// out\n    /* \"#utility.yul\":4160:4385   */\ntag_27:\n    /* \"#utility.yul\":4300:4334   */\n  0x696e697469616c5f737570706c792063616e206e6f7420657863656564206d61\n    /* \"#utility.yul\":4296:4297   */\n  0x00\n    /* \"#utility.yul\":4288:4294   */\n  dup3\n    /* \"#utility.yul\":4284:4298   */\n  add\n    /* \"#utility.yul\":4277:4335   */\n  mstore\n    /* \"#utility.yul\":4369:4377   */\n  0x78696d756d2e0000000000000000000000000000000000000000000000000000\n    /* \"#utility.yul\":4364:4366   */\n  0x20\n    /* \"#utility.yul\":4356:4362   */\n  dup3\n    /* \"#utility.yul\":4352:4367   */\n  add\n    /* \"#utility.yul\":4345:4378   */\n  mstore\n    /* \"#utility.yul\":4160:4385   */\n  pop\n  jump\t// out\n    /* \"#utility.yul\":4391:4757   */\ntag_28:\n    /* \"#utility.yul\":4533:4536   */\n  0x00\n    /* \"#utility.yul\":4554:4621   */\n  tag_82\n    /* \"#utility.yul\":4618:4620   */\n  0x26\n    /* \"#utility.yul\":4613:4616   */\n  dup4\n    /* \"#utility.yul\":4554:4621   */\n  tag_26\n  jump\t// in\ntag_82:\n    /* \"#utility.yul\":4547:4621   */\n  swap2\n  pop\n    /* \"#utility.yul\":4630:4723   */\n  tag_83\n    /* \"#utility.yul\":4719:4722   */\n  dup3\n    /* \"#utility.yul\":4630:4723   */\n  tag_27\n  jump\t// in\ntag_83:\n    /* \"#utility.yul\":4748:4750   */\n  0x40\n    /* \"#utility.yul\":4743:4746   */\n  dup3\n    /* \"#utility.yul\":4739:4751   */\n  add\n    /* \"#utility.yul\":4732:4751   */\n  swap1\n  pop\n    /* \"#utility.yul\":4391:4757   */\n  swap2\n  swap1\n  pop\n  jump\t// out\n    /* \"#utility.yul\":4763:5182   */\ntag_14:\n    /* \"#utility.yul\":4929:4933   */\n  0x00\n    /* \"#utility.yul\":4967:4969   */\n  0x20\n    /* \"#utility.yul\":4956:4965   */\n  dup3\n    /* \"#utility.yul\":4952:4970   */\n  add\n    /* \"#utility.yul\":4944:4970   */\n  swap1\n  pop\n    /* \"#utility.yul\":5016:5025   */\n  dup2\n    /* \"#utility.yul\":5010:5014   */\n  dup2\n    /* \"#utility.yul\":5006:5026   */\n  sub\n    /* \"#utility.yul\":5002:5003   */\n  0x00\n    /* \"#utility.yul\":4991:5000   */\n  dup4\n    /* \"#utility.yul\":4987:5004   */\n  add\n    /* \"#utility.yul\":4980:5027   */\n  mstore\n    /* \"#utility.yul\":5044:5175   */\n  tag_85\n    /* \"#utility.yul\":5170:5174   */\n  dup2\n    /* \"#utility.yul\":5044:5175   */\n  tag_28\n  jump\t// in\ntag_85:\n    /* \"#utility.yul\":5036:5175   */\n  swap1\n  pop\n    /* \"#utility.yul\":4763:5182   */\n  swap2\n  swap1\n  pop\n  jump\t// out\n    /* \"contracts/MyOtherToken.sol\":58:3017  contract MyOtherToken {... */\ntag_15:\n  mload(0x80)\n  codecopy(0x00, dataOffset(sub_0), dataSize(sub_0))\n  0x00\n  assignImmutable(\"0x81e080ffc23e8b8d44dd829bc823229e92b893eb1d8f624419d3f5682eb97fc3\")\n  return(0x00, dataSize(sub_0))\nstop\n\nsub_0: assembly {\n        /* \"contracts/MyOtherToken.sol\":58:3017  contract MyOtherToken {... */\n      mstore(0x40, 0x80)\n      jumpi(tag_1, lt(calldatasize, 0x04))\n      shr(0xe0, calldataload(0x00))\n      dup1\n      0x8a333b50\n      gt\n      tag_12\n      jumpi\n      dup1\n      0x8a333b50\n      eq\n      tag_7\n      jumpi\n      dup1\n      0x947a3168\n      eq\n      tag_8\n      jumpi\n      dup1\n      0x9dc29fac\n      eq\n      tag_9\n      jumpi\n      dup1\n      0xa9059cbb\n      eq\n      tag_10\n      jumpi\n      dup1\n      0xe3d670d7\n      eq\n      tag_11\n      jumpi\n      jump(tag_2)\n    tag_12:\n      dup1\n      0x1f772a34\n      eq\n      tag_3\n      jumpi\n      dup1\n      0x313ce567\n      eq\n      tag_4\n      jumpi\n      dup1\n      0x3ccfd60b\n      eq\n      tag_5\n      jumpi\n      dup1\n      0x40c10f19\n      eq\n      tag_6\n      jumpi\n      jump(tag_2)\n    tag_1:\n      jumpi(tag_2, calldatasize)\n      stop\n    tag_2:\n      0x00\n      dup1\n      revert\n        /* \"contracts/MyOtherToken.sol\":142:185  string public constant token_symbol = \"MOT\" */\n    tag_3:\n      callvalue\n      dup1\n      iszero\n      tag_15\n      jumpi\n      0x00\n      dup1\n      revert\n    tag_15:\n      pop\n      tag_16\n      tag_17\n      jump\t// in\n    tag_16:\n      mload(0x40)\n      tag_18\n      swap2\n      swap1\n      tag_19\n      jump\t// in\n    tag_18:\n      mload(0x40)\n      dup1\n      swap2\n      sub\n      swap1\n      return\n        /* \"contracts/MyOtherToken.sol\":191:226  uint8 public constant decimals = 18 */\n    tag_4:\n      callvalue\n      dup1\n      iszero\n      tag_20\n      jumpi\n      0x00\n      dup1\n      revert\n    tag_20:\n      pop\n      tag_21\n      tag_22\n      jump\t// in\n    tag_21:\n      mload(0x40)\n      tag_23\n      swap2\n      swap1\n      tag_24\n      jump\t// in\n    tag_23:\n      mload(0x40)\n      dup1\n      swap2\n      sub\n      swap1\n      return\n        /* \"contracts/MyOtherToken.sol\":2860:3015  function withdraw() external only_owner {... */\n    tag_5:\n      callvalue\n      dup1\n      iszero\n      tag_25\n      jumpi\n      0x00\n      dup1\n      revert\n    tag_25:\n      pop\n      tag_26\n      tag_27\n      jump\t// in\n    tag_26:\n      stop\n        /* \"contracts/MyOtherToken.sol\":2095:2326  function mint(address to, uint256 amount) ... */\n    tag_6:\n      callvalue\n      dup1\n      iszero\n      tag_28\n      jumpi\n      0x00\n      dup1\n      revert\n    tag_28:\n      pop\n      tag_29\n      0x04\n      dup1\n      calldatasize\n      sub\n      dup2\n      add\n      swap1\n      tag_30\n      swap2\n      swap1\n      tag_31\n      jump\t// in\n    tag_30:\n      tag_32\n      jump\t// in\n    tag_29:\n      stop\n        /* \"contracts/MyOtherToken.sol\":296:354  uint256 public constant max_supply = 1_000_000 * multipler */\n    tag_7:\n      callvalue\n      dup1\n      iszero\n      tag_33\n      jumpi\n      0x00\n      dup1\n      revert\n    tag_33:\n      pop\n      tag_34\n      tag_35\n      jump\t// in\n    tag_34:\n      mload(0x40)\n      tag_36\n      swap2\n      swap1\n      tag_37\n      jump\t// in\n    tag_36:\n      mload(0x40)\n      dup1\n      swap2\n      sub\n      swap1\n      return\n        /* \"contracts/MyOtherToken.sol\":86:136  string public constant token_name = \"MyOtherToken\" */\n    tag_8:\n      callvalue\n      dup1\n      iszero\n      tag_38\n      jumpi\n      0x00\n      dup1\n      revert\n    tag_38:\n      pop\n      tag_39\n      tag_40\n      jump\t// in\n    tag_39:\n      mload(0x40)\n      tag_41\n      swap2\n      swap1\n      tag_19\n      jump\t// in\n    tag_41:\n      mload(0x40)\n      dup1\n      swap2\n      sub\n      swap1\n      return\n        /* \"contracts/MyOtherToken.sol\":2332:2671  function burn(address from, uint256 amount)... */\n    tag_9:\n      callvalue\n      dup1\n      iszero\n      tag_42\n      jumpi\n      0x00\n      dup1\n      revert\n    tag_42:\n      pop\n      tag_43\n      0x04\n      dup1\n      calldatasize\n      sub\n      dup2\n      add\n      swap1\n      tag_44\n      swap2\n      swap1\n      tag_31\n      jump\t// in\n    tag_44:\n      tag_45\n      jump\t// in\n    tag_43:\n      stop\n        /* \"contracts/MyOtherToken.sol\":1770:2089  function transfer(address to, uint256 amount) ... */\n    tag_10:\n      callvalue\n      dup1\n      iszero\n      tag_46\n      jumpi\n      0x00\n      dup1\n      revert\n    tag_46:\n      pop\n      tag_47\n      0x04\n      dup1\n      calldatasize\n      sub\n      dup2\n      add\n      swap1\n      tag_48\n      swap2\n      swap1\n      tag_31\n      jump\t// in\n    tag_48:\n      tag_49\n      jump\t// in\n    tag_47:\n      stop\n        /* \"contracts/MyOtherToken.sol\":2677:2819  function balance(address a) ... */\n    tag_11:\n      callvalue\n      dup1\n      iszero\n      tag_50\n      jumpi\n      0x00\n      dup1\n      revert\n    tag_50:\n      pop\n      tag_51\n      0x04\n      dup1\n      calldatasize\n      sub\n      dup2\n      add\n      swap1\n      tag_52\n      swap2\n      swap1\n      tag_53\n      jump\t// in\n    tag_52:\n      tag_54\n      jump\t// in\n    tag_51:\n      mload(0x40)\n      tag_55\n      swap2\n      swap1\n      tag_37\n      jump\t// in\n    tag_55:\n      mload(0x40)\n      dup1\n      swap2\n      sub\n      swap1\n      return\n        /* \"contracts/MyOtherToken.sol\":142:185  string public constant token_symbol = \"MOT\" */\n    tag_17:\n      mload(0x40)\n      dup1\n      0x40\n      add\n      0x40\n      mstore\n      dup1\n      0x03\n      dup2\n      mstore\n      0x20\n      add\n      0x4d4f540000000000000000000000000000000000000000000000000000000000\n      dup2\n      mstore\n      pop\n      dup2\n      jump\t// out\n        /* \"contracts/MyOtherToken.sol\":191:226  uint8 public constant decimals = 18 */\n    tag_22:\n        /* \"contracts/MyOtherToken.sol\":224:226  18 */\n      0x12\n        /* \"contracts/MyOtherToken.sol\":191:226  uint8 public constant decimals = 18 */\n      dup2\n      jump\t// out\n        /* \"contracts/MyOtherToken.sol\":2860:3015  function withdraw() external only_owner {... */\n    tag_27:\n        /* \"contracts/MyOtherToken.sol\":594:599  owner */\n      immutable(\"0x81e080ffc23e8b8d44dd829bc823229e92b893eb1d8f624419d3f5682eb97fc3\")\n        /* \"contracts/MyOtherToken.sol\":580:599  msg.sender == owner */\n      0xffffffffffffffffffffffffffffffffffffffff\n      and\n        /* \"contracts/MyOtherToken.sol\":580:590  msg.sender */\n      caller\n        /* \"contracts/MyOtherToken.sol\":580:599  msg.sender == owner */\n      0xffffffffffffffffffffffffffffffffffffffff\n      and\n      eq\n        /* \"contracts/MyOtherToken.sol\":572:638  require(msg.sender == owner, \"Only owner can access this action.\") */\n      tag_57\n      jumpi\n      mload(0x40)\n      0x08c379a000000000000000000000000000000000000000000000000000000000\n      dup2\n      mstore\n      0x04\n      add\n      tag_58\n      swap1\n      tag_59\n      jump\t// in\n    tag_58:\n      mload(0x40)\n      dup1\n      swap2\n      sub\n      swap1\n      revert\n    tag_57:\n        /* \"contracts/MyOtherToken.sol\":2970:2975  owner */\n      immutable(\"0x81e080ffc23e8b8d44dd829bc823229e92b893eb1d8f624419d3f5682eb97fc3\")\n        /* \"contracts/MyOtherToken.sol\":2962:2985  payable(owner).transfer */\n      0xffffffffffffffffffffffffffffffffffffffff\n      and\n        /* \"contracts/MyOtherToken.sol\":2962:3008  payable(owner).transfer(address(this).balance) */\n      0x08fc\n        /* \"contracts/MyOtherToken.sol\":2986:3007  address(this).balance */\n      selfbalance\n        /* \"contracts/MyOtherToken.sol\":2962:3008  payable(owner).transfer(address(this).balance) */\n      swap1\n      dup2\n      iszero\n      mul\n      swap1\n      mload(0x40)\n      0x00\n      mload(0x40)\n      dup1\n      dup4\n      sub\n      dup2\n      dup6\n      dup9\n      dup9\n      call\n      swap4\n      pop\n      pop\n      pop\n      pop\n      iszero\n      dup1\n      iszero\n      tag_62\n      jumpi\n      returndatasize\n      0x00\n      dup1\n      returndatacopy\n      revert(0x00, returndatasize)\n    tag_62:\n      pop\n        /* \"contracts/MyOtherToken.sol\":2860:3015  function withdraw() external only_owner {... */\n      jump\t// out\n        /* \"contracts/MyOtherToken.sol\":2095:2326  function mint(address to, uint256 amount) ... */\n    tag_32:\n        /* \"contracts/MyOtherToken.sol\":594:599  owner */\n      immutable(\"0x81e080ffc23e8b8d44dd829bc823229e92b893eb1d8f624419d3f5682eb97fc3\")\n        /* \"contracts/MyOtherToken.sol\":580:599  msg.sender == owner */\n      0xffffffffffffffffffffffffffffffffffffffff\n      and\n        /* \"contracts/MyOtherToken.sol\":580:590  msg.sender */\n      caller\n        /* \"contracts/MyOtherToken.sol\":580:599  msg.sender == owner */\n      0xffffffffffffffffffffffffffffffffffffffff\n      and\n      eq\n        /* \"contracts/MyOtherToken.sol\":572:638  require(msg.sender == owner, \"Only owner can access this action.\") */\n      tag_64\n      jumpi\n      mload(0x40)\n      0x08c379a000000000000000000000000000000000000000000000000000000000\n      dup2\n      mstore\n      0x04\n      add\n      tag_65\n      swap1\n      tag_59\n      jump\t// in\n    tag_65:\n      mload(0x40)\n      dup1\n      swap2\n      sub\n      swap1\n      revert\n    tag_64:\n        /* \"contracts/MyOtherToken.sol\":2197:2199  to */\n      dup2\n        /* \"contracts/MyOtherToken.sol\":727:728  0 */\n      0x00\n        /* \"contracts/MyOtherToken.sol\":714:729  a != address(0) */\n      0xffffffffffffffffffffffffffffffffffffffff\n      and\n        /* \"contracts/MyOtherToken.sol\":714:715  a */\n      dup2\n        /* \"contracts/MyOtherToken.sol\":714:729  a != address(0) */\n      0xffffffffffffffffffffffffffffffffffffffff\n      and\n      sub\n        /* \"contracts/MyOtherToken.sol\":706:763  require(a != address(0), \"Must specify a valid address.\") */\n      tag_67\n      jumpi\n      mload(0x40)\n      0x08c379a000000000000000000000000000000000000000000000000000000000\n      dup2\n      mstore\n      0x04\n      add\n      tag_68\n      swap1\n      tag_69\n      jump\t// in\n    tag_68:\n      mload(0x40)\n      dup1\n      swap2\n      sub\n      swap1\n      revert\n    tag_67:\n        /* \"contracts/MyOtherToken.sol\":2225:2231  amount */\n      dup2\n        /* \"contracts/MyOtherToken.sol\":224:226  18 */\n      0x12\n        /* \"contracts/MyOtherToken.sol\":273:290  uint256(decimals) */\n      0xff\n      and\n        /* \"contracts/MyOtherToken.sol\":269:271  10 */\n      0x0a\n        /* \"contracts/MyOtherToken.sol\":269:290  10**uint256(decimals) */\n      tag_71\n      swap2\n      swap1\n      tag_72\n      jump\t// in\n    tag_71:\n        /* \"contracts/MyOtherToken.sol\":333:342  1_000_000 */\n      0x0f4240\n        /* \"contracts/MyOtherToken.sol\":333:354  1_000_000 * multipler */\n      tag_73\n      swap2\n      swap1\n      tag_74\n      jump\t// in\n    tag_73:\n        /* \"contracts/MyOtherToken.sol\":1014:1020  amount */\n      dup2\n        /* \"contracts/MyOtherToken.sol\":999:1011  total_supply */\n      sload(0x00)\n        /* \"contracts/MyOtherToken.sol\":999:1020  total_supply + amount */\n      tag_75\n      swap2\n      swap1\n      tag_76\n      jump\t// in\n    tag_75:\n        /* \"contracts/MyOtherToken.sol\":999:1034  total_supply + amount <= max_supply */\n      gt\n      iszero\n        /* \"contracts/MyOtherToken.sol\":991:1062  require(total_supply + amount <= max_supply, \"Insufficient max supply\") */\n      tag_77\n      jumpi\n      mload(0x40)\n      0x08c379a000000000000000000000000000000000000000000000000000000000\n      dup2\n      mstore\n      0x04\n      add\n      tag_78\n      swap1\n      tag_79\n      jump\t// in\n    tag_78:\n      mload(0x40)\n      dup1\n      swap2\n      sub\n      swap1\n      revert\n    tag_77:\n        /* \"contracts/MyOtherToken.sol\":827:833  locked */\n      0x02\n      0x00\n      swap1\n      sload\n      swap1\n      0x0100\n      exp\n      swap1\n      div\n      0xff\n      and\n        /* \"contracts/MyOtherToken.sol\":826:833  !locked */\n      iszero\n        /* \"contracts/MyOtherToken.sol\":818:869  require(!locked, \"Rentrant calls are not allowed.\") */\n      tag_81\n      jumpi\n      mload(0x40)\n      0x08c379a000000000000000000000000000000000000000000000000000000000\n      dup2\n      mstore\n      0x04\n      add\n      tag_82\n      swap1\n      tag_83\n      jump\t// in\n    tag_82:\n      mload(0x40)\n      dup1\n      swap2\n      sub\n      swap1\n      revert\n    tag_81:\n        /* \"contracts/MyOtherToken.sol\":888:892  true */\n      0x01\n        /* \"contracts/MyOtherToken.sol\":879:885  locked */\n      0x02\n      0x00\n        /* \"contracts/MyOtherToken.sol\":879:892  locked = true */\n      0x0100\n      exp\n      dup2\n      sload\n      dup2\n      0xff\n      mul\n      not\n      and\n      swap1\n      dup4\n      iszero\n      iszero\n      mul\n      or\n      swap1\n      sstore\n      pop\n        /* \"contracts/MyOtherToken.sol\":2282:2288  amount */\n      dup3\n        /* \"contracts/MyOtherToken.sol\":2266:2274  balances */\n      0x01\n        /* \"contracts/MyOtherToken.sol\":2266:2278  balances[to] */\n      0x00\n        /* \"contracts/MyOtherToken.sol\":2275:2277  to */\n      dup7\n        /* \"contracts/MyOtherToken.sol\":2266:2278  balances[to] */\n      0xffffffffffffffffffffffffffffffffffffffff\n      and\n      0xffffffffffffffffffffffffffffffffffffffff\n      and\n      dup2\n      mstore\n      0x20\n      add\n      swap1\n      dup2\n      mstore\n      0x20\n      add\n      0x00\n      keccak256\n      0x00\n        /* \"contracts/MyOtherToken.sol\":2266:2288  balances[to] += amount */\n      dup3\n      dup3\n      sload\n      tag_85\n      swap2\n      swap1\n      tag_76\n      jump\t// in\n    tag_85:\n      swap3\n      pop\n      pop\n      dup2\n      swap1\n      sstore\n      pop\n        /* \"contracts/MyOtherToken.sol\":2308:2310  to */\n      dup4\n        /* \"contracts/MyOtherToken.sol\":2303:2319  Mint(to, amount) */\n      0xffffffffffffffffffffffffffffffffffffffff\n      and\n      0x0f6798a560793a54c3bcfe86a93cde1e73087d944c0ea20544137d4121396885\n        /* \"contracts/MyOtherToken.sol\":2312:2318  amount */\n      dup5\n        /* \"contracts/MyOtherToken.sol\":2303:2319  Mint(to, amount) */\n      mload(0x40)\n      tag_86\n      swap2\n      swap1\n      tag_37\n      jump\t// in\n    tag_86:\n      mload(0x40)\n      dup1\n      swap2\n      sub\n      swap1\n      log2\n        /* \"contracts/MyOtherToken.sol\":922:927  false */\n      0x00\n        /* \"contracts/MyOtherToken.sol\":913:919  locked */\n      0x02\n      0x00\n        /* \"contracts/MyOtherToken.sol\":913:927  locked = false */\n      0x0100\n      exp\n      dup2\n      sload\n      dup2\n      0xff\n      mul\n      not\n      and\n      swap1\n      dup4\n      iszero\n      iszero\n      mul\n      or\n      swap1\n      sstore\n      pop\n        /* \"contracts/MyOtherToken.sol\":773:774  _ */\n      pop\n        /* \"contracts/MyOtherToken.sol\":648:649  _ */\n      pop\n        /* \"contracts/MyOtherToken.sol\":2095:2326  function mint(address to, uint256 amount) ... */\n      pop\n      pop\n      jump\t// out\n        /* \"contracts/MyOtherToken.sol\":296:354  uint256 public constant max_supply = 1_000_000 * multipler */\n    tag_35:\n        /* \"contracts/MyOtherToken.sol\":224:226  18 */\n      0x12\n        /* \"contracts/MyOtherToken.sol\":273:290  uint256(decimals) */\n      0xff\n      and\n        /* \"contracts/MyOtherToken.sol\":269:271  10 */\n      0x0a\n        /* \"contracts/MyOtherToken.sol\":269:290  10**uint256(decimals) */\n      tag_87\n      swap2\n      swap1\n      tag_72\n      jump\t// in\n    tag_87:\n        /* \"contracts/MyOtherToken.sol\":333:342  1_000_000 */\n      0x0f4240\n        /* \"contracts/MyOtherToken.sol\":333:354  1_000_000 * multipler */\n      tag_88\n      swap2\n      swap1\n      tag_74\n      jump\t// in\n    tag_88:\n        /* \"contracts/MyOtherToken.sol\":296:354  uint256 public constant max_supply = 1_000_000 * multipler */\n      dup2\n      jump\t// out\n        /* \"contracts/MyOtherToken.sol\":86:136  string public constant token_name = \"MyOtherToken\" */\n    tag_40:\n      mload(0x40)\n      dup1\n      0x40\n      add\n      0x40\n      mstore\n      dup1\n      0x0c\n      dup2\n      mstore\n      0x20\n      add\n      0x4d794f74686572546f6b656e0000000000000000000000000000000000000000\n      dup2\n      mstore\n      pop\n      dup2\n      jump\t// out\n        /* \"contracts/MyOtherToken.sol\":2332:2671  function burn(address from, uint256 amount)... */\n    tag_45:\n        /* \"contracts/MyOtherToken.sol\":2415:2419  from */\n      dup2\n        /* \"contracts/MyOtherToken.sol\":727:728  0 */\n      0x00\n        /* \"contracts/MyOtherToken.sol\":714:729  a != address(0) */\n      0xffffffffffffffffffffffffffffffffffffffff\n      and\n        /* \"contracts/MyOtherToken.sol\":714:715  a */\n      dup2\n        /* \"contracts/MyOtherToken.sol\":714:729  a != address(0) */\n      0xffffffffffffffffffffffffffffffffffffffff\n      and\n      sub\n        /* \"contracts/MyOtherToken.sol\":706:763  require(a != address(0), \"Must specify a valid address.\") */\n      tag_90\n      jumpi\n      mload(0x40)\n      0x08c379a000000000000000000000000000000000000000000000000000000000\n      dup2\n      mstore\n      0x04\n      add\n      tag_91\n      swap1\n      tag_69\n      jump\t// in\n    tag_91:\n      mload(0x40)\n      dup1\n      swap2\n      sub\n      swap1\n      revert\n    tag_90:\n        /* \"contracts/MyOtherToken.sol\":2446:2450  from */\n      dup3\n        /* \"contracts/MyOtherToken.sol\":2452:2458  amount */\n      dup3\n        /* \"contracts/MyOtherToken.sol\":1307:1313  amount */\n      dup1\n        /* \"contracts/MyOtherToken.sol\":1292:1300  balances */\n      0x01\n        /* \"contracts/MyOtherToken.sol\":1292:1303  balances[a] */\n      0x00\n        /* \"contracts/MyOtherToken.sol\":1301:1302  a */\n      dup5\n        /* \"contracts/MyOtherToken.sol\":1292:1303  balances[a] */\n      0xffffffffffffffffffffffffffffffffffffffff\n      and\n      0xffffffffffffffffffffffffffffffffffffffff\n      and\n      dup2\n      mstore\n      0x20\n      add\n      swap1\n      dup2\n      mstore\n      0x20\n      add\n      0x00\n      keccak256\n      sload\n        /* \"contracts/MyOtherToken.sol\":1292:1313  balances[a] >= amount */\n      lt\n      iszero\n        /* \"contracts/MyOtherToken.sol\":1284:1344  require(balances[a] >= amount, \"Insufficient funds to burn\") */\n      tag_93\n      jumpi\n      mload(0x40)\n      0x08c379a000000000000000000000000000000000000000000000000000000000\n      dup2\n      mstore\n      0x04\n      add\n      tag_94\n      swap1\n      tag_95\n      jump\t// in\n    tag_94:\n      mload(0x40)\n      dup1\n      swap2\n      sub\n      swap1\n      revert\n    tag_93:\n        /* \"contracts/MyOtherToken.sol\":2484:2490  amount */\n      dup4\n        /* \"contracts/MyOtherToken.sol\":1155:1167  total_supply */\n      sload(0x00)\n        /* \"contracts/MyOtherToken.sol\":1145:1151  amount */\n      dup2\n        /* \"contracts/MyOtherToken.sol\":1145:1167  amount <= total_supply */\n      gt\n      iszero\n        /* \"contracts/MyOtherToken.sol\":1137:1197  require(amount <= total_supply, \"Insufficient total supply\") */\n      tag_97\n      jumpi\n      mload(0x40)\n      0x08c379a000000000000000000000000000000000000000000000000000000000\n      dup2\n      mstore\n      0x04\n      add\n      tag_98\n      swap1\n      tag_99\n      jump\t// in\n    tag_98:\n      mload(0x40)\n      dup1\n      swap2\n      sub\n      swap1\n      revert\n    tag_97:\n        /* \"contracts/MyOtherToken.sol\":827:833  locked */\n      0x02\n      0x00\n      swap1\n      sload\n      swap1\n      0x0100\n      exp\n      swap1\n      div\n      0xff\n      and\n        /* \"contracts/MyOtherToken.sol\":826:833  !locked */\n      iszero\n        /* \"contracts/MyOtherToken.sol\":818:869  require(!locked, \"Rentrant calls are not allowed.\") */\n      tag_101\n      jumpi\n      mload(0x40)\n      0x08c379a000000000000000000000000000000000000000000000000000000000\n      dup2\n      mstore\n      0x04\n      add\n      tag_102\n      swap1\n      tag_83\n      jump\t// in\n    tag_102:\n      mload(0x40)\n      dup1\n      swap2\n      sub\n      swap1\n      revert\n    tag_101:\n        /* \"contracts/MyOtherToken.sol\":888:892  true */\n      0x01\n        /* \"contracts/MyOtherToken.sol\":879:885  locked */\n      0x02\n      0x00\n        /* \"contracts/MyOtherToken.sol\":879:892  locked = true */\n      0x0100\n      exp\n      dup2\n      sload\n      dup2\n      0xff\n      mul\n      not\n      and\n      swap1\n      dup4\n      iszero\n      iszero\n      mul\n      or\n      swap1\n      sstore\n      pop\n        /* \"contracts/MyOtherToken.sol\":2542:2548  amount */\n      dup5\n        /* \"contracts/MyOtherToken.sol\":2524:2532  balances */\n      0x01\n        /* \"contracts/MyOtherToken.sol\":2524:2538  balances[from] */\n      0x00\n        /* \"contracts/MyOtherToken.sol\":2533:2537  from */\n      dup9\n        /* \"contracts/MyOtherToken.sol\":2524:2538  balances[from] */\n      0xffffffffffffffffffffffffffffffffffffffff\n      and\n      0xffffffffffffffffffffffffffffffffffffffff\n      and\n      dup2\n      mstore\n      0x20\n      add\n      swap1\n      dup2\n      mstore\n      0x20\n      add\n      0x00\n      keccak256\n      0x00\n        /* \"contracts/MyOtherToken.sol\":2524:2548  balances[from] -= amount */\n      dup3\n      dup3\n      sload\n      tag_104\n      swap2\n      swap1\n      tag_105\n      jump\t// in\n    tag_104:\n      swap3\n      pop\n      pop\n      dup2\n      swap1\n      sstore\n      pop\n        /* \"contracts/MyOtherToken.sol\":2574:2580  amount */\n      dup5\n        /* \"contracts/MyOtherToken.sol\":2558:2570  total_supply */\n      0x00\n      dup1\n        /* \"contracts/MyOtherToken.sol\":2558:2580  total_supply -= amount */\n      dup3\n      dup3\n      sload\n      tag_106\n      swap2\n      swap1\n      tag_105\n      jump\t// in\n    tag_106:\n      swap3\n      pop\n      pop\n      dup2\n      swap1\n      sstore\n      pop\n        /* \"contracts/MyOtherToken.sol\":2651:2655  from */\n      dup6\n        /* \"contracts/MyOtherToken.sol\":2646:2664  Burn(from, amount) */\n      0xffffffffffffffffffffffffffffffffffffffff\n      and\n      0xcc16f5dbb4873280815c1ee09dbd06736cffcc184412cf7a71a0fdb75d397ca5\n        /* \"contracts/MyOtherToken.sol\":2657:2663  amount */\n      dup7\n        /* \"contracts/MyOtherToken.sol\":2646:2664  Burn(from, amount) */\n      mload(0x40)\n      tag_107\n      swap2\n      swap1\n      tag_37\n      jump\t// in\n    tag_107:\n      mload(0x40)\n      dup1\n      swap2\n      sub\n      swap1\n      log2\n        /* \"contracts/MyOtherToken.sol\":922:927  false */\n      0x00\n        /* \"contracts/MyOtherToken.sol\":913:919  locked */\n      0x02\n      0x00\n        /* \"contracts/MyOtherToken.sol\":913:927  locked = false */\n      0x0100\n      exp\n      dup2\n      sload\n      dup2\n      0xff\n      mul\n      not\n      and\n      swap1\n      dup4\n      iszero\n      iszero\n      mul\n      or\n      swap1\n      sstore\n      pop\n        /* \"contracts/MyOtherToken.sol\":1354:1355  _ */\n      pop\n        /* \"contracts/MyOtherToken.sol\":773:774  _ */\n      pop\n      pop\n        /* \"contracts/MyOtherToken.sol\":2332:2671  function burn(address from, uint256 amount)... */\n      pop\n      pop\n      pop\n      jump\t// out\n        /* \"contracts/MyOtherToken.sol\":1770:2089  function transfer(address to, uint256 amount) ... */\n    tag_49:\n        /* \"contracts/MyOtherToken.sol\":1857:1867  msg.sender */\n      caller\n        /* \"contracts/MyOtherToken.sol\":727:728  0 */\n      0x00\n        /* \"contracts/MyOtherToken.sol\":714:729  a != address(0) */\n      0xffffffffffffffffffffffffffffffffffffffff\n      and\n        /* \"contracts/MyOtherToken.sol\":714:715  a */\n      dup2\n        /* \"contracts/MyOtherToken.sol\":714:729  a != address(0) */\n      0xffffffffffffffffffffffffffffffffffffffff\n      and\n      sub\n        /* \"contracts/MyOtherToken.sol\":706:763  require(a != address(0), \"Must specify a valid address.\") */\n      tag_109\n      jumpi\n      mload(0x40)\n      0x08c379a000000000000000000000000000000000000000000000000000000000\n      dup2\n      mstore\n      0x04\n      add\n      tag_110\n      swap1\n      tag_69\n      jump\t// in\n    tag_110:\n      mload(0x40)\n      dup1\n      swap2\n      sub\n      swap1\n      revert\n    tag_109:\n        /* \"contracts/MyOtherToken.sol\":1891:1893  to */\n      dup3\n        /* \"contracts/MyOtherToken.sol\":727:728  0 */\n      0x00\n        /* \"contracts/MyOtherToken.sol\":714:729  a != address(0) */\n      0xffffffffffffffffffffffffffffffffffffffff\n      and\n        /* \"contracts/MyOtherToken.sol\":714:715  a */\n      dup2\n        /* \"contracts/MyOtherToken.sol\":714:729  a != address(0) */\n      0xffffffffffffffffffffffffffffffffffffffff\n      and\n      sub\n        /* \"contracts/MyOtherToken.sol\":706:763  require(a != address(0), \"Must specify a valid address.\") */\n      tag_112\n      jumpi\n      mload(0x40)\n      0x08c379a000000000000000000000000000000000000000000000000000000000\n      dup2\n      mstore\n      0x04\n      add\n      tag_113\n      swap1\n      tag_69\n      jump\t// in\n    tag_113:\n      mload(0x40)\n      dup1\n      swap2\n      sub\n      swap1\n      revert\n    tag_112:\n        /* \"contracts/MyOtherToken.sol\":1920:1930  msg.sender */\n      caller\n        /* \"contracts/MyOtherToken.sol\":1932:1938  amount */\n      dup4\n        /* \"contracts/MyOtherToken.sol\":1307:1313  amount */\n      dup1\n        /* \"contracts/MyOtherToken.sol\":1292:1300  balances */\n      0x01\n        /* \"contracts/MyOtherToken.sol\":1292:1303  balances[a] */\n      0x00\n        /* \"contracts/MyOtherToken.sol\":1301:1302  a */\n      dup5\n        /* \"contracts/MyOtherToken.sol\":1292:1303  balances[a] */\n      0xffffffffffffffffffffffffffffffffffffffff\n      and\n      0xffffffffffffffffffffffffffffffffffffffff\n      and\n      dup2\n      mstore\n      0x20\n      add\n      swap1\n      dup2\n      mstore\n      0x20\n      add\n      0x00\n      keccak256\n      sload\n        /* \"contracts/MyOtherToken.sol\":1292:1313  balances[a] >= amount */\n      lt\n      iszero\n        /* \"contracts/MyOtherToken.sol\":1284:1344  require(balances[a] >= amount, \"Insufficient funds to burn\") */\n      tag_115\n      jumpi\n      mload(0x40)\n      0x08c379a000000000000000000000000000000000000000000000000000000000\n      dup2\n      mstore\n      0x04\n      add\n      tag_116\n      swap1\n      tag_95\n      jump\t// in\n    tag_116:\n      mload(0x40)\n      dup1\n      swap2\n      sub\n      swap1\n      revert\n    tag_115:\n        /* \"contracts/MyOtherToken.sol\":827:833  locked */\n      0x02\n      0x00\n      swap1\n      sload\n      swap1\n      0x0100\n      exp\n      swap1\n      div\n      0xff\n      and\n        /* \"contracts/MyOtherToken.sol\":826:833  !locked */\n      iszero\n        /* \"contracts/MyOtherToken.sol\":818:869  require(!locked, \"Rentrant calls are not allowed.\") */\n      tag_118\n      jumpi\n      mload(0x40)\n      0x08c379a000000000000000000000000000000000000000000000000000000000\n      dup2\n      mstore\n      0x04\n      add\n      tag_119\n      swap1\n      tag_83\n      jump\t// in\n    tag_119:\n      mload(0x40)\n      dup1\n      swap2\n      sub\n      swap1\n      revert\n    tag_118:\n        /* \"contracts/MyOtherToken.sol\":888:892  true */\n      0x01\n        /* \"contracts/MyOtherToken.sol\":879:885  locked */\n      0x02\n      0x00\n        /* \"contracts/MyOtherToken.sol\":879:892  locked = true */\n      0x0100\n      exp\n      dup2\n      sload\n      dup2\n      0xff\n      mul\n      not\n      and\n      swap1\n      dup4\n      iszero\n      iszero\n      mul\n      or\n      swap1\n      sstore\n      pop\n        /* \"contracts/MyOtherToken.sol\":1997:2003  amount */\n      dup5\n        /* \"contracts/MyOtherToken.sol\":1973:1981  balances */\n      0x01\n        /* \"contracts/MyOtherToken.sol\":1973:1993  balances[msg.sender] */\n      0x00\n        /* \"contracts/MyOtherToken.sol\":1982:1992  msg.sender */\n      caller\n        /* \"contracts/MyOtherToken.sol\":1973:1993  balances[msg.sender] */\n      0xffffffffffffffffffffffffffffffffffffffff\n      and\n      0xffffffffffffffffffffffffffffffffffffffff\n      and\n      dup2\n      mstore\n      0x20\n      add\n      swap1\n      dup2\n      mstore\n      0x20\n      add\n      0x00\n      keccak256\n      0x00\n        /* \"contracts/MyOtherToken.sol\":1973:2003  balances[msg.sender] -= amount */\n      dup3\n      dup3\n      sload\n      tag_121\n      swap2\n      swap1\n      tag_105\n      jump\t// in\n    tag_121:\n      swap3\n      pop\n      pop\n      dup2\n      swap1\n      sstore\n      pop\n        /* \"contracts/MyOtherToken.sol\":2029:2035  amount */\n      dup5\n        /* \"contracts/MyOtherToken.sol\":2013:2021  balances */\n      0x01\n        /* \"contracts/MyOtherToken.sol\":2013:2025  balances[to] */\n      0x00\n        /* \"contracts/MyOtherToken.sol\":2022:2024  to */\n      dup9\n        /* \"contracts/MyOtherToken.sol\":2013:2025  balances[to] */\n      0xffffffffffffffffffffffffffffffffffffffff\n      and\n      0xffffffffffffffffffffffffffffffffffffffff\n      and\n      dup2\n      mstore\n      0x20\n      add\n      swap1\n      dup2\n      mstore\n      0x20\n      add\n      0x00\n      keccak256\n      0x00\n        /* \"contracts/MyOtherToken.sol\":2013:2035  balances[to] += amount */\n      dup3\n      dup3\n      sload\n      tag_122\n      swap2\n      swap1\n      tag_76\n      jump\t// in\n    tag_122:\n      swap3\n      pop\n      pop\n      dup2\n      swap1\n      sstore\n      pop\n        /* \"contracts/MyOtherToken.sol\":2071:2073  to */\n      dup6\n        /* \"contracts/MyOtherToken.sol\":2050:2082  Transfer(msg.sender, to, amount) */\n      0xffffffffffffffffffffffffffffffffffffffff\n      and\n        /* \"contracts/MyOtherToken.sol\":2059:2069  msg.sender */\n      caller\n        /* \"contracts/MyOtherToken.sol\":2050:2082  Transfer(msg.sender, to, amount) */\n      0xffffffffffffffffffffffffffffffffffffffff\n      and\n      0xddf252ad1be2c89b69c2b068fc378daa952ba7f163c4a11628f55a4df523b3ef\n        /* \"contracts/MyOtherToken.sol\":2075:2081  amount */\n      dup8\n        /* \"contracts/MyOtherToken.sol\":2050:2082  Transfer(msg.sender, to, amount) */\n      mload(0x40)\n      tag_123\n      swap2\n      swap1\n      tag_37\n      jump\t// in\n    tag_123:\n      mload(0x40)\n      dup1\n      swap2\n      sub\n      swap1\n      log3\n        /* \"contracts/MyOtherToken.sol\":922:927  false */\n      0x00\n        /* \"contracts/MyOtherToken.sol\":913:919  locked */\n      0x02\n      0x00\n        /* \"contracts/MyOtherToken.sol\":913:927  locked = false */\n      0x0100\n      exp\n      dup2\n      sload\n      dup2\n      0xff\n      mul\n      not\n      and\n      swap1\n      dup4\n      iszero\n      iszero\n      mul\n      or\n      swap1\n      sstore\n      pop\n        /* \"contracts/MyOtherToken.sol\":773:774  _ */\n      pop\n      pop\n      pop\n        /* \"contracts/MyOtherToken.sol\":1770:2089  function transfer(address to, uint256 amount) ... */\n      pop\n      pop\n      pop\n      jump\t// out\n        /* \"contracts/MyOtherToken.sol\":2677:2819  function balance(address a) ... */\n    tag_54:\n        /* \"contracts/MyOtherToken.sol\":2771:2778  uint256 */\n      0x00\n        /* \"contracts/MyOtherToken.sol\":2751:2752  a */\n      dup2\n        /* \"contracts/MyOtherToken.sol\":727:728  0 */\n      0x00\n        /* \"contracts/MyOtherToken.sol\":714:729  a != address(0) */\n      0xffffffffffffffffffffffffffffffffffffffff\n      and\n        /* \"contracts/MyOtherToken.sol\":714:715  a */\n      dup2\n        /* \"contracts/MyOtherToken.sol\":714:729  a != address(0) */\n      0xffffffffffffffffffffffffffffffffffffffff\n      and\n      sub\n        /* \"contracts/MyOtherToken.sol\":706:763  require(a != address(0), \"Must specify a valid address.\") */\n      tag_125\n      jumpi\n      mload(0x40)\n      0x08c379a000000000000000000000000000000000000000000000000000000000\n      dup2\n      mstore\n      0x04\n      add\n      tag_126\n      swap1\n      tag_69\n      jump\t// in\n    tag_126:\n      mload(0x40)\n      dup1\n      swap2\n      sub\n      swap1\n      revert\n    tag_125:\n        /* \"contracts/MyOtherToken.sol\":2801:2809  balances */\n      0x01\n        /* \"contracts/MyOtherToken.sol\":2801:2812  balances[a] */\n      0x00\n        /* \"contracts/MyOtherToken.sol\":2810:2811  a */\n      dup5\n        /* \"contracts/MyOtherToken.sol\":2801:2812  balances[a] */\n      0xffffffffffffffffffffffffffffffffffffffff\n      and\n      0xffffffffffffffffffffffffffffffffffffffff\n      and\n      dup2\n      mstore\n      0x20\n      add\n      swap1\n      dup2\n      mstore\n      0x20\n      add\n      0x00\n      keccak256\n      sload\n        /* \"contracts/MyOtherToken.sol\":2794:2812  return balances[a] */\n      swap2\n      pop\n        /* \"contracts/MyOtherToken.sol\":2677:2819  function balance(address a) ... */\n      pop\n      swap2\n      swap1\n      pop\n      jump\t// out\n        /* \"#utility.yul\":7:106   */\n    tag_128:\n        /* \"#utility.yul\":59:65   */\n      0x00\n        /* \"#utility.yul\":93:98   */\n      dup2\n        /* \"#utility.yul\":87:99   */\n      mload\n        /* \"#utility.yul\":77:99   */\n      swap1\n      pop\n        /* \"#utility.yul\":7:106   */\n      swap2\n      swap1\n      pop\n      jump\t// out\n        /* \"#utility.yul\":112:281   */\n    tag_129:\n        /* \"#utility.yul\":196:207   */\n      0x00\n        /* \"#utility.yul\":230:236   */\n      dup3\n        /* \"#utility.yul\":225:228   */\n      dup3\n        /* \"#utility.yul\":218:237   */\n      mstore\n        /* \"#utility.yul\":270:274   */\n      0x20\n        /* \"#utility.yul\":265:268   */\n      dup3\n        /* \"#utility.yul\":261:275   */\n      add\n        /* \"#utility.yul\":246:275   */\n      swap1\n      pop\n        /* \"#utility.yul\":112:281   */\n      swap3\n      swap2\n      pop\n      pop\n      jump\t// out\n        /* \"#utility.yul\":287:426   */\n    tag_130:\n        /* \"#utility.yul\":376:382   */\n      dup3\n        /* \"#utility.yul\":371:374   */\n      dup2\n        /* \"#utility.yul\":366:369   */\n      dup4\n        /* \"#utility.yul\":360:383   */\n      mcopy\n        /* \"#utility.yul\":417:418   */\n      0x00\n        /* \"#utility.yul\":408:414   */\n      dup4\n        /* \"#utility.yul\":403:406   */\n      dup4\n        /* \"#utility.yul\":399:415   */\n      add\n        /* \"#utility.yul\":392:419   */\n      mstore\n        /* \"#utility.yul\":287:426   */\n      pop\n      pop\n      pop\n      jump\t// out\n        /* \"#utility.yul\":432:534   */\n    tag_131:\n        /* \"#utility.yul\":473:479   */\n      0x00\n        /* \"#utility.yul\":524:526   */\n      0x1f\n        /* \"#utility.yul\":520:527   */\n      not\n        /* \"#utility.yul\":515:517   */\n      0x1f\n        /* \"#utility.yul\":508:513   */\n      dup4\n        /* \"#utility.yul\":504:518   */\n      add\n        /* \"#utility.yul\":500:528   */\n      and\n        /* \"#utility.yul\":490:528   */\n      swap1\n      pop\n        /* \"#utility.yul\":432:534   */\n      swap2\n      swap1\n      pop\n      jump\t// out\n        /* \"#utility.yul\":540:917   */\n    tag_132:\n        /* \"#utility.yul\":628:631   */\n      0x00\n        /* \"#utility.yul\":656:695   */\n      tag_168\n        /* \"#utility.yul\":689:694   */\n      dup3\n        /* \"#utility.yul\":656:695   */\n      tag_128\n      jump\t// in\n    tag_168:\n        /* \"#utility.yul\":711:782   */\n      tag_169\n        /* \"#utility.yul\":775:781   */\n      dup2\n        /* \"#utility.yul\":770:773   */\n      dup6\n        /* \"#utility.yul\":711:782   */\n      tag_129\n      jump\t// in\n    tag_169:\n        /* \"#utility.yul\":704:782   */\n      swap4\n      pop\n        /* \"#utility.yul\":791:856   */\n      tag_170\n        /* \"#utility.yul\":849:855   */\n      dup2\n        /* \"#utility.yul\":844:847   */\n      dup6\n        /* \"#utility.yul\":837:841   */\n      0x20\n        /* \"#utility.yul\":830:835   */\n      dup7\n        /* \"#utility.yul\":826:842   */\n      add\n        /* \"#utility.yul\":791:856   */\n      tag_130\n      jump\t// in\n    tag_170:\n        /* \"#utility.yul\":881:910   */\n      tag_171\n        /* \"#utility.yul\":903:909   */\n      dup2\n        /* \"#utility.yul\":881:910   */\n      tag_131\n      jump\t// in\n    tag_171:\n        /* \"#utility.yul\":876:879   */\n      dup5\n        /* \"#utility.yul\":872:911   */\n      add\n        /* \"#utility.yul\":865:911   */\n      swap2\n      pop\n        /* \"#utility.yul\":632:917   */\n      pop\n        /* \"#utility.yul\":540:917   */\n      swap3\n      swap2\n      pop\n      pop\n      jump\t// out\n        /* \"#utility.yul\":923:1236   */\n    tag_19:\n        /* \"#utility.yul\":1036:1040   */\n      0x00\n        /* \"#utility.yul\":1074:1076   */\n      0x20\n        /* \"#utility.yul\":1063:1072   */\n      dup3\n        /* \"#utility.yul\":1059:1077   */\n      add\n        /* \"#utility.yul\":1051:1077   */\n      swap1\n      pop\n        /* \"#utility.yul\":1123:1132   */\n      dup2\n        /* \"#utility.yul\":1117:1121   */\n      dup2\n        /* \"#utility.yul\":1113:1133   */\n      sub\n        /* \"#utility.yul\":1109:1110   */\n      0x00\n        /* \"#utility.yul\":1098:1107   */\n      dup4\n        /* \"#utility.yul\":1094:1111   */\n      add\n        /* \"#utility.yul\":1087:1134   */\n      mstore\n        /* \"#utility.yul\":1151:1229   */\n      tag_173\n        /* \"#utility.yul\":1224:1228   */\n      dup2\n        /* \"#utility.yul\":1215:1221   */\n      dup5\n        /* \"#utility.yul\":1151:1229   */\n      tag_132\n      jump\t// in\n    tag_173:\n        /* \"#utility.yul\":1143:1229   */\n      swap1\n      pop\n        /* \"#utility.yul\":923:1236   */\n      swap3\n      swap2\n      pop\n      pop\n      jump\t// out\n        /* \"#utility.yul\":1242:1328   */\n    tag_133:\n        /* \"#utility.yul\":1277:1284   */\n      0x00\n        /* \"#utility.yul\":1317:1321   */\n      0xff\n        /* \"#utility.yul\":1310:1315   */\n      dup3\n        /* \"#utility.yul\":1306:1322   */\n      and\n        /* \"#utility.yul\":1295:1322   */\n      swap1\n      pop\n        /* \"#utility.yul\":1242:1328   */\n      swap2\n      swap1\n      pop\n      jump\t// out\n        /* \"#utility.yul\":1334:1446   */\n    tag_134:\n        /* \"#utility.yul\":1417:1439   */\n      tag_176\n        /* \"#utility.yul\":1433:1438   */\n      dup2\n        /* \"#utility.yul\":1417:1439   */\n      tag_133\n      jump\t// in\n    tag_176:\n        /* \"#utility.yul\":1412:1415   */\n      dup3\n        /* \"#utility.yul\":1405:1440   */\n      mstore\n        /* \"#utility.yul\":1334:1446   */\n      pop\n      pop\n      jump\t// out\n        /* \"#utility.yul\":1452:1666   */\n    tag_24:\n        /* \"#utility.yul\":1541:1545   */\n      0x00\n        /* \"#utility.yul\":1579:1581   */\n      0x20\n        /* \"#utility.yul\":1568:1577   */\n      dup3\n        /* \"#utility.yul\":1564:1582   */\n      add\n        /* \"#utility.yul\":1556:1582   */\n      swap1\n      pop\n        /* \"#utility.yul\":1592:1659   */\n      tag_178\n        /* \"#utility.yul\":1656:1657   */\n      0x00\n        /* \"#utility.yul\":1645:1654   */\n      dup4\n        /* \"#utility.yul\":1641:1658   */\n      add\n        /* \"#utility.yul\":1632:1638   */\n      dup5\n        /* \"#utility.yul\":1592:1659   */\n      tag_134\n      jump\t// in\n    tag_178:\n        /* \"#utility.yul\":1452:1666   */\n      swap3\n      swap2\n      pop\n      pop\n      jump\t// out\n        /* \"#utility.yul\":1753:1870   */\n    tag_136:\n        /* \"#utility.yul\":1862:1863   */\n      0x00\n        /* \"#utility.yul\":1859:1860   */\n      dup1\n        /* \"#utility.yul\":1852:1864   */\n      revert\n        /* \"#utility.yul\":1999:2125   */\n    tag_138:\n        /* \"#utility.yul\":2036:2043   */\n      0x00\n        /* \"#utility.yul\":2076:2118   */\n      0xffffffffffffffffffffffffffffffffffffffff\n        /* \"#utility.yul\":2069:2074   */\n      dup3\n        /* \"#utility.yul\":2065:2119   */\n      and\n        /* \"#utility.yul\":2054:2119   */\n      swap1\n      pop\n        /* \"#utility.yul\":1999:2125   */\n      swap2\n      swap1\n      pop\n      jump\t// out\n        /* \"#utility.yul\":2131:2227   */\n    tag_139:\n        /* \"#utility.yul\":2168:2175   */\n      0x00\n        /* \"#utility.yul\":2197:2221   */\n      tag_184\n        /* \"#utility.yul\":2215:2220   */\n      dup3\n        /* \"#utility.yul\":2197:2221   */\n      tag_138\n      jump\t// in\n    tag_184:\n        /* \"#utility.yul\":2186:2221   */\n      swap1\n      pop\n        /* \"#utility.yul\":2131:2227   */\n      swap2\n      swap1\n      pop\n      jump\t// out\n        /* \"#utility.yul\":2233:2355   */\n    tag_140:\n        /* \"#utility.yul\":2306:2330   */\n      tag_186\n        /* \"#utility.yul\":2324:2329   */\n      dup2\n        /* \"#utility.yul\":2306:2330   */\n      tag_139\n      jump\t// in\n    tag_186:\n        /* \"#utility.yul\":2299:2304   */\n      dup2\n        /* \"#utility.yul\":2296:2331   */\n      eq\n        /* \"#utility.yul\":2286:2349   */\n      tag_187\n      jumpi\n        /* \"#utility.yul\":2345:2346   */\n      0x00\n        /* \"#utility.yul\":2342:2343   */\n      dup1\n        /* \"#utility.yul\":2335:2347   */\n      revert\n        /* \"#utility.yul\":2286:2349   */\n    tag_187:\n        /* \"#utility.yul\":2233:2355   */\n      pop\n      jump\t// out\n        /* \"#utility.yul\":2361:2500   */\n    tag_141:\n        /* \"#utility.yul\":2407:2412   */\n      0x00\n        /* \"#utility.yul\":2445:2451   */\n      dup2\n        /* \"#utility.yul\":2432:2452   */\n      calldataload\n        /* \"#utility.yul\":2423:2452   */\n      swap1\n      pop\n        /* \"#utility.yul\":2461:2494   */\n      tag_189\n        /* \"#utility.yul\":2488:2493   */\n      dup2\n        /* \"#utility.yul\":2461:2494   */\n      tag_140\n      jump\t// in\n    tag_189:\n        /* \"#utility.yul\":2361:2500   */\n      swap3\n      swap2\n      pop\n      pop\n      jump\t// out\n        /* \"#utility.yul\":2506:2583   */\n    tag_142:\n        /* \"#utility.yul\":2543:2550   */\n      0x00\n        /* \"#utility.yul\":2572:2577   */\n      dup2\n        /* \"#utility.yul\":2561:2577   */\n      swap1\n      pop\n        /* \"#utility.yul\":2506:2583   */\n      swap2\n      swap1\n      pop\n      jump\t// out\n        /* \"#utility.yul\":2589:2711   */\n    tag_143:\n        /* \"#utility.yul\":2662:2686   */\n      tag_192\n        /* \"#utility.yul\":2680:2685   */\n      dup2\n        /* \"#utility.yul\":2662:2686   */\n      tag_142\n      jump\t// in\n    tag_192:\n        /* \"#utility.yul\":2655:2660   */\n      dup2\n        /* \"#utility.yul\":2652:2687   */\n      eq\n        /* \"#utility.yul\":2642:2705   */\n      tag_193\n      jumpi\n        /* \"#utility.yul\":2701:2702   */\n      0x00\n        /* \"#utility.yul\":2698:2699   */\n      dup1\n        /* \"#utility.yul\":2691:2703   */\n      revert\n        /* \"#utility.yul\":2642:2705   */\n    tag_193:\n        /* \"#utility.yul\":2589:2711   */\n      pop\n      jump\t// out\n        /* \"#utility.yul\":2717:2856   */\n    tag_144:\n        /* \"#utility.yul\":2763:2768   */\n      0x00\n        /* \"#utility.yul\":2801:2807   */\n      dup2\n        /* \"#utility.yul\":2788:2808   */\n      calldataload\n        /* \"#utility.yul\":2779:2808   */\n      swap1\n      pop\n        /* \"#utility.yul\":2817:2850   */\n      tag_195\n        /* \"#utility.yul\":2844:2849   */\n      dup2\n        /* \"#utility.yul\":2817:2850   */\n      tag_143\n      jump\t// in\n    tag_195:\n        /* \"#utility.yul\":2717:2856   */\n      swap3\n      swap2\n      pop\n      pop\n      jump\t// out\n        /* \"#utility.yul\":2862:3336   */\n    tag_31:\n        /* \"#utility.yul\":2930:2936   */\n      0x00\n        /* \"#utility.yul\":2938:2944   */\n      dup1\n        /* \"#utility.yul\":2987:2989   */\n      0x40\n        /* \"#utility.yul\":2975:2984   */\n      dup4\n        /* \"#utility.yul\":2966:2973   */\n      dup6\n        /* \"#utility.yul\":2962:2985   */\n      sub\n        /* \"#utility.yul\":2958:2990   */\n      slt\n        /* \"#utility.yul\":2955:3074   */\n      iszero\n      tag_197\n      jumpi\n        /* \"#utility.yul\":2993:3072   */\n      tag_198\n      tag_136\n      jump\t// in\n    tag_198:\n        /* \"#utility.yul\":2955:3074   */\n    tag_197:\n        /* \"#utility.yul\":3113:3114   */\n      0x00\n        /* \"#utility.yul\":3138:3191   */\n      tag_199\n        /* \"#utility.yul\":3183:3190   */\n      dup6\n        /* \"#utility.yul\":3174:3180   */\n      dup3\n        /* \"#utility.yul\":3163:3172   */\n      dup7\n        /* \"#utility.yul\":3159:3181   */\n      add\n        /* \"#utility.yul\":3138:3191   */\n      tag_141\n      jump\t// in\n    tag_199:\n        /* \"#utility.yul\":3128:3191   */\n      swap3\n      pop\n        /* \"#utility.yul\":3084:3201   */\n      pop\n        /* \"#utility.yul\":3240:3242   */\n      0x20\n        /* \"#utility.yul\":3266:3319   */\n      tag_200\n        /* \"#utility.yul\":3311:3318   */\n      dup6\n        /* \"#utility.yul\":3302:3308   */\n      dup3\n        /* \"#utility.yul\":3291:3300   */\n      dup7\n        /* \"#utility.yul\":3287:3309   */\n      add\n        /* \"#utility.yul\":3266:3319   */\n      tag_144\n      jump\t// in\n    tag_200:\n        /* \"#utility.yul\":3256:3319   */\n      swap2\n      pop\n        /* \"#utility.yul\":3211:3329   */\n      pop\n        /* \"#utility.yul\":2862:3336   */\n      swap3\n      pop\n      swap3\n      swap1\n      pop\n      jump\t// out\n        /* \"#utility.yul\":3342:3460   */\n    tag_145:\n        /* \"#utility.yul\":3429:3453   */\n      tag_202\n        /* \"#utility.yul\":3447:3452   */\n      dup2\n        /* \"#utility.yul\":3429:3453   */\n      tag_142\n      jump\t// in\n    tag_202:\n        /* \"#utility.yul\":3424:3427   */\n      dup3\n        /* \"#utility.yul\":3417:3454   */\n      mstore\n        /* \"#utility.yul\":3342:3460   */\n      pop\n      pop\n      jump\t// out\n        /* \"#utility.yul\":3466:3688   */\n    tag_37:\n        /* \"#utility.yul\":3559:3563   */\n      0x00\n        /* \"#utility.yul\":3597:3599   */\n      0x20\n        /* \"#utility.yul\":3586:3595   */\n      dup3\n        /* \"#utility.yul\":3582:3600   */\n      add\n        /* \"#utility.yul\":3574:3600   */\n      swap1\n      pop\n        /* \"#utility.yul\":3610:3681   */\n      tag_204\n        /* \"#utility.yul\":3678:3679   */\n      0x00\n        /* \"#utility.yul\":3667:3676   */\n      dup4\n        /* \"#utility.yul\":3663:3680   */\n      add\n        /* \"#utility.yul\":3654:3660   */\n      dup5\n        /* \"#utility.yul\":3610:3681   */\n      tag_145\n      jump\t// in\n    tag_204:\n        /* \"#utility.yul\":3466:3688   */\n      swap3\n      swap2\n      pop\n      pop\n      jump\t// out\n        /* \"#utility.yul\":3694:4023   */\n    tag_53:\n        /* \"#utility.yul\":3753:3759   */\n      0x00\n        /* \"#utility.yul\":3802:3804   */\n      0x20\n        /* \"#utility.yul\":3790:3799   */\n      dup3\n        /* \"#utility.yul\":3781:3788   */\n      dup5\n        /* \"#utility.yul\":3777:3800   */\n      sub\n        /* \"#utility.yul\":3773:3805   */\n      slt\n        /* \"#utility.yul\":3770:3889   */\n      iszero\n      tag_206\n      jumpi\n        /* \"#utility.yul\":3808:3887   */\n      tag_207\n      tag_136\n      jump\t// in\n    tag_207:\n        /* \"#utility.yul\":3770:3889   */\n    tag_206:\n        /* \"#utility.yul\":3928:3929   */\n      0x00\n        /* \"#utility.yul\":3953:4006   */\n      tag_208\n        /* \"#utility.yul\":3998:4005   */\n      dup5\n        /* \"#utility.yul\":3989:3995   */\n      dup3\n        /* \"#utility.yul\":3978:3987   */\n      dup6\n        /* \"#utility.yul\":3974:3996   */\n      add\n        /* \"#utility.yul\":3953:4006   */\n      tag_141\n      jump\t// in\n    tag_208:\n        /* \"#utility.yul\":3943:4006   */\n      swap2\n      pop\n        /* \"#utility.yul\":3899:4016   */\n      pop\n        /* \"#utility.yul\":3694:4023   */\n      swap3\n      swap2\n      pop\n      pop\n      jump\t// out\n        /* \"#utility.yul\":4029:4250   */\n    tag_146:\n        /* \"#utility.yul\":4169:4203   */\n      0x4f6e6c79206f776e65722063616e20616363657373207468697320616374696f\n        /* \"#utility.yul\":4165:4166   */\n      0x00\n        /* \"#utility.yul\":4157:4163   */\n      dup3\n        /* \"#utility.yul\":4153:4167   */\n      add\n        /* \"#utility.yul\":4146:4204   */\n      mstore\n        /* \"#utility.yul\":4238:4242   */\n      0x6e2e000000000000000000000000000000000000000000000000000000000000\n        /* \"#utility.yul\":4233:4235   */\n      0x20\n        /* \"#utility.yul\":4225:4231   */\n      dup3\n        /* \"#utility.yul\":4221:4236   */\n      add\n        /* \"#utility.yul\":4214:4243   */\n      mstore\n        /* \"#utility.yul\":4029:4250   */\n      pop\n      jump\t// out\n        /* \"#utility.yul\":4256:4622   */\n    tag_147:\n        /* \"#utility.yul\":4398:4401   */\n      0x00\n        /* \"#utility.yul\":4419:4486   */\n      tag_211\n        /* \"#utility.yul\":4483:4485   */\n      0x22\n        /* \"#utility.yul\":4478:4481   */\n      dup4\n        /* \"#utility.yul\":4419:4486   */\n      tag_129\n      jump\t// in\n    tag_211:\n        /* \"#utility.yul\":4412:4486   */\n      swap2\n      pop\n        /* \"#utility.yul\":4495:4588   */\n      tag_212\n        /* \"#utility.yul\":4584:4587   */\n      dup3\n        /* \"#utility.yul\":4495:4588   */\n      tag_146\n      jump\t// in\n    tag_212:\n        /* \"#utility.yul\":4613:4615   */\n      0x40\n        /* \"#utility.yul\":4608:4611   */\n      dup3\n        /* \"#utility.yul\":4604:4616   */\n      add\n        /* \"#utility.yul\":4597:4616   */\n      swap1\n      pop\n        /* \"#utility.yul\":4256:4622   */\n      swap2\n      swap1\n      pop\n      jump\t// out\n        /* \"#utility.yul\":4628:5047   */\n    tag_59:\n        /* \"#utility.yul\":4794:4798   */\n      0x00\n        /* \"#utility.yul\":4832:4834   */\n      0x20\n        /* \"#utility.yul\":4821:4830   */\n      dup3\n        /* \"#utility.yul\":4817:4835   */\n      add\n        /* \"#utility.yul\":4809:4835   */\n      swap1\n      pop\n        /* \"#utility.yul\":4881:4890   */\n      dup2\n        /* \"#utility.yul\":4875:4879   */\n      dup2\n        /* \"#utility.yul\":4871:4891   */\n      sub\n        /* \"#utility.yul\":4867:4868   */\n      0x00\n        /* \"#utility.yul\":4856:4865   */\n      dup4\n        /* \"#utility.yul\":4852:4869   */\n      add\n        /* \"#utility.yul\":4845:4892   */\n      mstore\n        /* \"#utility.yul\":4909:5040   */\n      tag_214\n        /* \"#utility.yul\":5035:5039   */\n      dup2\n        /* \"#utility.yul\":4909:5040   */\n      tag_147\n      jump\t// in\n    tag_214:\n        /* \"#utility.yul\":4901:5040   */\n      swap1\n      pop\n        /* \"#utility.yul\":4628:5047   */\n      swap2\n      swap1\n      pop\n      jump\t// out\n        /* \"#utility.yul\":5053:5232   */\n    tag_148:\n        /* \"#utility.yul\":5193:5224   */\n      0x4d757374207370656369667920612076616c696420616464726573732e000000\n        /* \"#utility.yul\":5189:5190   */\n      0x00\n        /* \"#utility.yul\":5181:5187   */\n      dup3\n        /* \"#utility.yul\":5177:5191   */\n      add\n        /* \"#utility.yul\":5170:5225   */\n      mstore\n        /* \"#utility.yul\":5053:5232   */\n      pop\n      jump\t// out\n        /* \"#utility.yul\":5238:5604   */\n    tag_149:\n        /* \"#utility.yul\":5380:5383   */\n      0x00\n        /* \"#utility.yul\":5401:5468   */\n      tag_217\n        /* \"#utility.yul\":5465:5467   */\n      0x1d\n        /* \"#utility.yul\":5460:5463   */\n      dup4\n        /* \"#utility.yul\":5401:5468   */\n      tag_129\n      jump\t// in\n    tag_217:\n        /* \"#utility.yul\":5394:5468   */\n      swap2\n      pop\n        /* \"#utility.yul\":5477:5570   */\n      tag_218\n        /* \"#utility.yul\":5566:5569   */\n      dup3\n        /* \"#utility.yul\":5477:5570   */\n      tag_148\n      jump\t// in\n    tag_218:\n        /* \"#utility.yul\":5595:5597   */\n      0x20\n        /* \"#utility.yul\":5590:5593   */\n      dup3\n        /* \"#utility.yul\":5586:5598   */\n      add\n        /* \"#utility.yul\":5579:5598   */\n      swap1\n      pop\n        /* \"#utility.yul\":5238:5604   */\n      swap2\n      swap1\n      pop\n      jump\t// out\n        /* \"#utility.yul\":5610:6029   */\n    tag_69:\n        /* \"#utility.yul\":5776:5780   */\n      0x00\n        /* \"#utility.yul\":5814:5816   */\n      0x20\n        /* \"#utility.yul\":5803:5812   */\n      dup3\n        /* \"#utility.yul\":5799:5817   */\n      add\n        /* \"#utility.yul\":5791:5817   */\n      swap1\n      pop\n        /* \"#utility.yul\":5863:5872   */\n      dup2\n        /* \"#utility.yul\":5857:5861   */\n      dup2\n        /* \"#utility.yul\":5853:5873   */\n      sub\n        /* \"#utility.yul\":5849:5850   */\n      0x00\n        /* \"#utility.yul\":5838:5847   */\n      dup4\n        /* \"#utility.yul\":5834:5851   */\n      add\n        /* \"#utility.yul\":5827:5874   */\n      mstore\n        /* \"#utility.yul\":5891:6022   */\n      tag_220\n        /* \"#utility.yul\":6017:6021   */\n      dup2\n        /* \"#utility.yul\":5891:6022   */\n      tag_149\n      jump\t// in\n    tag_220:\n        /* \"#utility.yul\":5883:6022   */\n      swap1\n      pop\n        /* \"#utility.yul\":5610:6029   */\n      swap2\n      swap1\n      pop\n      jump\t// out\n        /* \"#utility.yul\":6035:6215   */\n    tag_150:\n        /* \"#utility.yul\":6083:6160   */\n      0x4e487b7100000000000000000000000000000000000000000000000000000000\n        /* \"#utility.yul\":6080:6081   */\n      0x00\n        /* \"#utility.yul\":6073:6161   */\n      mstore\n        /* \"#utility.yul\":6180:6184   */\n      0x11\n        /* \"#utility.yul\":6177:6178   */\n      0x04\n        /* \"#utility.yul\":6170:6185   */\n      mstore\n        /* \"#utility.yul\":6204:6208   */\n      0x24\n        /* \"#utility.yul\":6201:6202   */\n      0x00\n        /* \"#utility.yul\":6194:6209   */\n      revert\n        /* \"#utility.yul\":6221:6323   */\n    tag_151:\n        /* \"#utility.yul\":6263:6271   */\n      0x00\n        /* \"#utility.yul\":6310:6315   */\n      dup2\n        /* \"#utility.yul\":6307:6308   */\n      0x01\n        /* \"#utility.yul\":6303:6316   */\n      shr\n        /* \"#utility.yul\":6282:6316   */\n      swap1\n      pop\n        /* \"#utility.yul\":6221:6323   */\n      swap2\n      swap1\n      pop\n      jump\t// out\n        /* \"#utility.yul\":6329:7177   */\n    tag_152:\n        /* \"#utility.yul\":6390:6395   */\n      0x00\n        /* \"#utility.yul\":6397:6401   */\n      dup1\n        /* \"#utility.yul\":6421:6427   */\n      dup3\n        /* \"#utility.yul\":6412:6427   */\n      swap2\n      pop\n        /* \"#utility.yul\":6445:6450   */\n      dup4\n        /* \"#utility.yul\":6436:6450   */\n      swap1\n      pop\n        /* \"#utility.yul\":6459:7171   */\n    tag_224:\n        /* \"#utility.yul\":6480:6481   */\n      0x01\n        /* \"#utility.yul\":6470:6478   */\n      dup6\n        /* \"#utility.yul\":6467:6482   */\n      gt\n        /* \"#utility.yul\":6459:7171   */\n      iszero\n      tag_226\n      jumpi\n        /* \"#utility.yul\":6575:6579   */\n      dup1\n        /* \"#utility.yul\":6570:6573   */\n      dup7\n        /* \"#utility.yul\":6566:6580   */\n      div\n        /* \"#utility.yul\":6560:6564   */\n      dup2\n        /* \"#utility.yul\":6557:6581   */\n      gt\n        /* \"#utility.yul\":6554:6604   */\n      iszero\n      tag_227\n      jumpi\n        /* \"#utility.yul\":6584:6602   */\n      tag_228\n      tag_150\n      jump\t// in\n    tag_228:\n        /* \"#utility.yul\":6554:6604   */\n    tag_227:\n        /* \"#utility.yul\":6634:6635   */\n      0x01\n        /* \"#utility.yul\":6624:6632   */\n      dup6\n        /* \"#utility.yul\":6620:6636   */\n      and\n        /* \"#utility.yul\":6617:7068   */\n      iszero\n      tag_229\n      jumpi\n        /* \"#utility.yul\":7049:7053   */\n      dup1\n        /* \"#utility.yul\":7042:7047   */\n      dup3\n        /* \"#utility.yul\":7038:7054   */\n      mul\n        /* \"#utility.yul\":7029:7054   */\n      swap2\n      pop\n        /* \"#utility.yul\":6617:7068   */\n    tag_229:\n        /* \"#utility.yul\":7099:7103   */\n      dup1\n        /* \"#utility.yul\":7093:7097   */\n      dup2\n        /* \"#utility.yul\":7089:7104   */\n      mul\n        /* \"#utility.yul\":7081:7104   */\n      swap1\n      pop\n        /* \"#utility.yul\":7129:7161   */\n      tag_230\n        /* \"#utility.yul\":7152:7160   */\n      dup6\n        /* \"#utility.yul\":7129:7161   */\n      tag_151\n      jump\t// in\n    tag_230:\n        /* \"#utility.yul\":7117:7161   */\n      swap5\n      pop\n        /* \"#utility.yul\":6459:7171   */\n      jump(tag_224)\n    tag_226:\n        /* \"#utility.yul\":6329:7177   */\n      swap5\n      pop\n      swap5\n      swap3\n      pop\n      pop\n      pop\n      jump\t// out\n        /* \"#utility.yul\":7183:8256   */\n    tag_153:\n        /* \"#utility.yul\":7237:7242   */\n      0x00\n        /* \"#utility.yul\":7428:7436   */\n      dup3\n        /* \"#utility.yul\":7418:7458   */\n      tag_232\n      jumpi\n        /* \"#utility.yul\":7449:7450   */\n      0x01\n        /* \"#utility.yul\":7440:7450   */\n      swap1\n      pop\n        /* \"#utility.yul\":7451:7456   */\n      jump(tag_231)\n        /* \"#utility.yul\":7418:7458   */\n    tag_232:\n        /* \"#utility.yul\":7477:7481   */\n      dup2\n        /* \"#utility.yul\":7467:7503   */\n      tag_233\n      jumpi\n        /* \"#utility.yul\":7494:7495   */\n      0x00\n        /* \"#utility.yul\":7485:7495   */\n      swap1\n      pop\n        /* \"#utility.yul\":7496:7501   */\n      jump(tag_231)\n        /* \"#utility.yul\":7467:7503   */\n    tag_233:\n        /* \"#utility.yul\":7563:7567   */\n      dup2\n        /* \"#utility.yul\":7611:7612   */\n      0x01\n        /* \"#utility.yul\":7606:7633   */\n      dup2\n      eq\n      tag_235\n      jumpi\n        /* \"#utility.yul\":7647:7648   */\n      0x02\n        /* \"#utility.yul\":7642:7833   */\n      dup2\n      eq\n      tag_236\n      jumpi\n        /* \"#utility.yul\":7556:7833   */\n      jump(tag_234)\n        /* \"#utility.yul\":7606:7633   */\n    tag_235:\n        /* \"#utility.yul\":7624:7625   */\n      0x01\n        /* \"#utility.yul\":7615:7625   */\n      swap2\n      pop\n        /* \"#utility.yul\":7626:7631   */\n      pop\n      jump(tag_231)\n        /* \"#utility.yul\":7642:7833   */\n    tag_236:\n        /* \"#utility.yul\":7687:7690   */\n      0xff\n        /* \"#utility.yul\":7677:7685   */\n      dup5\n        /* \"#utility.yul\":7674:7691   */\n      gt\n        /* \"#utility.yul\":7671:7714   */\n      iszero\n      tag_237\n      jumpi\n        /* \"#utility.yul\":7694:7712   */\n      tag_238\n      tag_150\n      jump\t// in\n    tag_238:\n        /* \"#utility.yul\":7671:7714   */\n    tag_237:\n        /* \"#utility.yul\":7743:7751   */\n      dup4\n        /* \"#utility.yul\":7740:7741   */\n      0x02\n        /* \"#utility.yul\":7736:7752   */\n      exp\n        /* \"#utility.yul\":7727:7752   */\n      swap2\n      pop\n        /* \"#utility.yul\":7778:7781   */\n      dup5\n        /* \"#utility.yul\":7771:7776   */\n      dup3\n        /* \"#utility.yul\":7768:7782   */\n      gt\n        /* \"#utility.yul\":7765:7805   */\n      iszero\n      tag_239\n      jumpi\n        /* \"#utility.yul\":7785:7803   */\n      tag_240\n      tag_150\n      jump\t// in\n    tag_240:\n        /* \"#utility.yul\":7765:7805   */\n    tag_239:\n        /* \"#utility.yul\":7818:7823   */\n      pop\n      jump(tag_231)\n        /* \"#utility.yul\":7556:7833   */\n    tag_234:\n      pop\n        /* \"#utility.yul\":7942:7944   */\n      0x20\n        /* \"#utility.yul\":7932:7940   */\n      dup4\n        /* \"#utility.yul\":7929:7945   */\n      lt\n        /* \"#utility.yul\":7923:7926   */\n      0x0133\n        /* \"#utility.yul\":7917:7921   */\n      dup4\n        /* \"#utility.yul\":7914:7927   */\n      lt\n        /* \"#utility.yul\":7910:7946   */\n      and\n        /* \"#utility.yul\":7892:7894   */\n      0x4e\n        /* \"#utility.yul\":7882:7890   */\n      dup5\n        /* \"#utility.yul\":7879:7895   */\n      lt\n        /* \"#utility.yul\":7874:7876   */\n      0x0b\n        /* \"#utility.yul\":7868:7872   */\n      dup5\n        /* \"#utility.yul\":7865:7877   */\n      lt\n        /* \"#utility.yul\":7861:7896   */\n      and\n        /* \"#utility.yul\":7845:7956   */\n      or\n        /* \"#utility.yul\":7842:8088   */\n      iszero\n      tag_241\n      jumpi\n        /* \"#utility.yul\":7998:8006   */\n      dup3\n        /* \"#utility.yul\":7992:7996   */\n      dup3\n        /* \"#utility.yul\":7988:8007   */\n      exp\n        /* \"#utility.yul\":7979:8007   */\n      swap1\n      pop\n        /* \"#utility.yul\":8033:8036   */\n      dup4\n        /* \"#utility.yul\":8026:8031   */\n      dup2\n        /* \"#utility.yul\":8023:8037   */\n      gt\n        /* \"#utility.yul\":8020:8060   */\n      iszero\n      tag_242\n      jumpi\n        /* \"#utility.yul\":8040:8058   */\n      tag_243\n      tag_150\n      jump\t// in\n    tag_243:\n        /* \"#utility.yul\":8020:8060   */\n    tag_242:\n        /* \"#utility.yul\":8073:8078   */\n      jump(tag_231)\n        /* \"#utility.yul\":7842:8088   */\n    tag_241:\n        /* \"#utility.yul\":8113:8155   */\n      tag_244\n        /* \"#utility.yul\":8151:8154   */\n      dup5\n        /* \"#utility.yul\":8141:8149   */\n      dup5\n        /* \"#utility.yul\":8135:8139   */\n      dup5\n        /* \"#utility.yul\":8132:8133   */\n      0x01\n        /* \"#utility.yul\":8113:8155   */\n      tag_152\n      jump\t// in\n    tag_244:\n        /* \"#utility.yul\":8098:8155   */\n      swap3\n      pop\n      swap1\n      pop\n        /* \"#utility.yul\":8187:8191   */\n      dup2\n        /* \"#utility.yul\":8182:8185   */\n      dup5\n        /* \"#utility.yul\":8178:8192   */\n      div\n        /* \"#utility.yul\":8171:8176   */\n      dup2\n        /* \"#utility.yul\":8168:8193   */\n      gt\n        /* \"#utility.yul\":8165:8216   */\n      iszero\n      tag_245\n      jumpi\n        /* \"#utility.yul\":8196:8214   */\n      tag_246\n      tag_150\n      jump\t// in\n    tag_246:\n        /* \"#utility.yul\":8165:8216   */\n    tag_245:\n        /* \"#utility.yul\":8245:8249   */\n      dup2\n        /* \"#utility.yul\":8238:8243   */\n      dup2\n        /* \"#utility.yul\":8234:8250   */\n      mul\n        /* \"#utility.yul\":8225:8250   */\n      swap1\n      pop\n        /* \"#utility.yul\":7183:8256   */\n    tag_231:\n      swap4\n      swap3\n      pop\n      pop\n      pop\n      jump\t// out\n        /* \"#utility.yul\":8262:8547   */\n    tag_72:\n        /* \"#utility.yul\":8322:8327   */\n      0x00\n        /* \"#utility.yul\":8346:8369   */\n      tag_248\n        /* \"#utility.yul\":8364:8368   */\n      dup3\n        /* \"#utility.yul\":8346:8369   */\n      tag_142\n      jump\t// in\n    tag_248:\n        /* \"#utility.yul\":8338:8369   */\n      swap2\n      pop\n        /* \"#utility.yul\":8390:8417   */\n      tag_249\n        /* \"#utility.yul\":8408:8416   */\n      dup4\n        /* \"#utility.yul\":8390:8417   */\n      tag_142\n      jump\t// in\n    tag_249:\n        /* \"#utility.yul\":8378:8417   */\n      swap3\n      pop\n        /* \"#utility.yul\":8436:8540   */\n      tag_250\n        /* \"#utility.yul\":8473:8539   */\n      0xffffffffffffffffffffffffffffffffffffffffffffffffffffffffffffffff\n        /* \"#utility.yul\":8463:8471   */\n      dup5\n        /* \"#utility.yul\":8457:8461   */\n      dup5\n        /* \"#utility.yul\":8436:8540   */\n      tag_153\n      jump\t// in\n    tag_250:\n        /* \"#utility.yul\":8427:8540   */\n      swap1\n      pop\n        /* \"#utility.yul\":8262:8547   */\n      swap3\n      swap2\n      pop\n      pop\n      jump\t// out\n        /* \"#utility.yul\":8553:8963   */\n    tag_74:\n        /* \"#utility.yul\":8593:8600   */\n      0x00\n        /* \"#utility.yul\":8616:8636   */\n      tag_252\n        /* \"#utility.yul\":8634:8635   */\n      dup3\n        /* \"#utility.yul\":8616:8636   */\n      tag_142\n      jump\t// in\n    tag_252:\n        /* \"#utility.yul\":8611:8636   */\n      swap2\n      pop\n        /* \"#utility.yul\":8650:8670   */\n      tag_253\n        /* \"#utility.yul\":8668:8669   */\n      dup4\n        /* \"#utility.yul\":8650:8670   */\n      tag_142\n      jump\t// in\n    tag_253:\n        /* \"#utility.yul\":8645:8670   */\n      swap3\n      pop\n        /* \"#utility.yul\":8705:8706   */\n      dup3\n        /* \"#utility.yul\":8702:8703   */\n      dup3\n        /* \"#utility.yul\":8698:8707   */\n      mul\n        /* \"#utility.yul\":8727:8757   */\n      tag_254\n        /* \"#utility.yul\":8745:8756   */\n      dup2\n        /* \"#utility.yul\":8727:8757   */\n      tag_142\n      jump\t// in\n    tag_254:\n        /* \"#utility.yul\":8716:8757   */\n      swap2\n      pop\n        /* \"#utility.yul\":8906:8907   */\n      dup3\n        /* \"#utility.yul\":8897:8904   */\n      dup3\n        /* \"#utility.yul\":8893:8908   */\n      div\n        /* \"#utility.yul\":8890:8891   */\n      dup5\n        /* \"#utility.yul\":8887:8909   */\n      eq\n        /* \"#utility.yul\":8867:8868   */\n      dup4\n        /* \"#utility.yul\":8860:8869   */\n      iszero\n        /* \"#utility.yul\":8840:8923   */\n      or\n        /* \"#utility.yul\":8817:8956   */\n      tag_255\n      jumpi\n        /* \"#utility.yul\":8936:8954   */\n      tag_256\n      tag_150\n      jump\t// in\n    tag_256:\n        /* \"#utility.yul\":8817:8956   */\n    tag_255:\n        /* \"#utility.yul\":8601:8963   */\n      pop\n        /* \"#utility.yul\":8553:8963   */\n      swap3\n      swap2\n      pop\n      pop\n      jump\t// out\n        /* \"#utility.yul\":8969:9160   */\n    tag_76:\n        /* \"#utility.yul\":9009:9012   */\n      0x00\n        /* \"#utility.yul\":9028:9048   */\n      tag_258\n        /* \"#utility.yul\":9046:9047   */\n      dup3\n        /* \"#utility.yul\":9028:9048   */\n      tag_142\n      jump\t// in\n    tag_258:\n        /* \"#utility.yul\":9023:9048   */\n      swap2\n      pop\n        /* \"#utility.yul\":9062:9082   */\n      tag_259\n        /* \"#utility.yul\":9080:9081   */\n      dup4\n        /* \"#utility.yul\":9062:9082   */\n      tag_142\n      jump\t// in\n    tag_259:\n        /* \"#utility.yul\":9057:9082   */\n      swap3\n      pop\n        /* \"#utility.yul\":9105:9106   */\n      dup3\n        /* \"#utility.yul\":9102:9103   */\n      dup3\n        /* \"#utility.yul\":9098:9107   */\n      add\n        /* \"#utility.yul\":9091:9107   */\n      swap1\n      pop\n        /* \"#utility.yul\":9126:9129   */\n      dup1\n        /* \"#utility.yul\":9123:9124   */\n      dup3\n        /* \"#utility.yul\":9120:9130   */\n      gt\n        /* \"#utility.yul\":9117:9153   */\n      iszero\n      tag_260\n      jumpi\n        /* \"#utility.yul\":9133:9151   */\n      tag_261\n      tag_150\n      jump\t// in\n    tag_261:\n        /* \"#utility.yul\":9117:9153   */\n    tag_260:\n        /* \"#utility.yul\":8969:9160   */\n      swap3\n      swap2\n      pop\n      pop\n      jump\t// out\n        /* \"#utility.yul\":9166:9339   */\n    tag_154:\n        /* \"#utility.yul\":9306:9331   */\n      0x496e73756666696369656e74206d617820737570706c79000000000000000000\n        /* \"#utility.yul\":9302:9303   */\n      0x00\n        /* \"#utility.yul\":9294:9300   */\n      dup3\n        /* \"#utility.yul\":9290:9304   */\n      add\n        /* \"#utility.yul\":9283:9332   */\n      mstore\n        /* \"#utility.yul\":9166:9339   */\n      pop\n      jump\t// out\n        /* \"#utility.yul\":9345:9711   */\n    tag_155:\n        /* \"#utility.yul\":9487:9490   */\n      0x00\n        /* \"#utility.yul\":9508:9575   */\n      tag_264\n        /* \"#utility.yul\":9572:9574   */\n      0x17\n        /* \"#utility.yul\":9567:9570   */\n      dup4\n        /* \"#utility.yul\":9508:9575   */\n      tag_129\n      jump\t// in\n    tag_264:\n        /* \"#utility.yul\":9501:9575   */\n      swap2\n      pop\n        /* \"#utility.yul\":9584:9677   */\n      tag_265\n        /* \"#utility.yul\":9673:9676   */\n      dup3\n        /* \"#utility.yul\":9584:9677   */\n      tag_154\n      jump\t// in\n    tag_265:\n        /* \"#utility.yul\":9702:9704   */\n      0x20\n        /* \"#utility.yul\":9697:9700   */\n      dup3\n        /* \"#utility.yul\":9693:9705   */\n      add\n        /* \"#utility.yul\":9686:9705   */\n      swap1\n      pop\n        /* \"#utility.yul\":9345:9711   */\n      swap2\n      swap1\n      pop\n      jump\t// out\n        /* \"#utility.yul\":9717:10136   */\n    tag_79:\n        /* \"#utility.yul\":9883:9887   */\n      0x00\n        /* \"#utility.yul\":9921:9923   */\n      0x20\n        /* \"#utility.yul\":9910:9919   */\n      dup3\n        /* \"#utility.yul\":9906:9924   */\n      add\n        /* \"#utility.yul\":9898:9924   */\n      swap1\n      pop\n        /* \"#utility.yul\":9970:9979   */\n      dup2\n        /* \"#utility.yul\":9964:9968   */\n      dup2\n        /* \"#utility.yul\":9960:9980   */\n      sub\n        /* \"#utility.yul\":9956:9957   */\n      0x00\n        /* \"#utility.yul\":9945:9954   */\n      dup4\n        /* \"#utility.yul\":9941:9958   */\n      add\n        /* \"#utility.yul\":9934:9981   */\n      mstore\n        /* \"#utility.yul\":9998:10129   */\n      tag_267\n        /* \"#utility.yul\":10124:10128   */\n      dup2\n        /* \"#utility.yul\":9998:10129   */\n      tag_155\n      jump\t// in\n    tag_267:\n        /* \"#utility.yul\":9990:10129   */\n      swap1\n      pop\n        /* \"#utility.yul\":9717:10136   */\n      swap2\n      swap1\n      pop\n      jump\t// out\n        /* \"#utility.yul\":10142:10323   */\n    tag_156:\n        /* \"#utility.yul\":10282:10315   */\n      0x52656e7472616e742063616c6c7320617265206e6f7420616c6c6f7765642e00\n        /* \"#utility.yul\":10278:10279   */\n      0x00\n        /* \"#utility.yul\":10270:10276   */\n      dup3\n        /* \"#utility.yul\":10266:10280   */\n      add\n        /* \"#utility.yul\":10259:10316   */\n      mstore\n        /* \"#utility.yul\":10142:10323   */\n      pop\n      jump\t// out\n        /* \"#utility.yul\":10329:10695   */\n    tag_157:\n        /* \"#utility.yul\":10471:10474   */\n      0x00\n        /* \"#utility.yul\":10492:10559   */\n      tag_270\n        /* \"#utility.yul\":10556:10558   */\n      0x1f\n        /* \"#utility.yul\":10551:10554   */\n      dup4\n        /* \"#utility.yul\":10492:10559   */\n      tag_129\n      jump\t// in\n    tag_270:\n        /* \"#utility.yul\":10485:10559   */\n      swap2\n      pop\n        /* \"#utility.yul\":10568:10661   */\n      tag_271\n        /* \"#utility.yul\":10657:10660   */\n      dup3\n        /* \"#utility.yul\":10568:10661   */\n      tag_156\n      jump\t// in\n    tag_271:\n        /* \"#utility.yul\":10686:10688   */\n      0x20\n        /* \"#utility.yul\":10681:10684   */\n      dup3\n        /* \"#utility.yul\":10677:10689   */\n      add\n        /* \"#utility.yul\":10670:10689   */\n      swap1\n      pop\n        /* \"#utility.yul\":10329:10695   */\n      swap2\n      swap1\n      pop\n      jump\t// out\n        /* \"#utility.yul\":10701:11120   */\n    tag_83:\n        /* \"#utility.yul\":10867:10871   */\n      0x00\n        /* \"#utility.yul\":10905:10907   */\n      0x20\n        /* \"#utility.yul\":10894:10903   */\n      dup3\n        /* \"#utility.yul\":10890:10908   */\n      add\n        /* \"#utility.yul\":10882:10908   */\n      swap1\n      pop\n        /* \"#utility.yul\":10954:10963   */\n      dup2\n        /* \"#utility.yul\":10948:10952   */\n      dup2\n        /* \"#utility.yul\":10944:10964   */\n      sub\n        /* \"#utility.yul\":10940:10941   */\n      0x00\n        /* \"#utility.yul\":10929:10938   */\n      dup4\n        /* \"#utility.yul\":10925:10942   */\n      add\n        /* \"#utility.yul\":10918:10965   */\n      mstore\n        /* \"#utility.yul\":10982:11113   */\n      tag_273\n        /* \"#utility.yul\":11108:11112   */\n      dup2\n        /* \"#utility.yul\":10982:11113   */\n      tag_157\n      jump\t// in\n    tag_273:\n        /* \"#utility.yul\":10974:11113   */\n      swap1\n      pop\n        /* \"#utility.yul\":10701:11120   */\n      swap2\n      swap1\n      pop\n      jump\t// out\n        /* \"#utility.yul\":11126:11302   */\n    tag_158:\n        /* \"#utility.yul\":11266:11294   */\n      0x496e73756666696369656e742066756e647320746f206275726e000000000000\n        /* \"#utility.yul\":11262:11263   */\n      0x00\n        /* \"#utility.yul\":11254:11260   */\n      dup3\n        /* \"#utility.yul\":11250:11264   */\n      add\n        /* \"#utility.yul\":11243:11295   */\n      mstore\n        /* \"#utility.yul\":11126:11302   */\n      pop\n      jump\t// out\n        /* \"#utility.yul\":11308:11674   */\n    tag_159:\n        /* \"#utility.yul\":11450:11453   */\n      0x00\n        /* \"#utility.yul\":11471:11538   */\n      tag_276\n        /* \"#utility.yul\":11535:11537   */\n      0x1a\n        /* \"#utility.yul\":11530:11533   */\n      dup4\n        /* \"#utility.yul\":11471:11538   */\n      tag_129\n      jump\t// in\n    tag_276:\n        /* \"#utility.yul\":11464:11538   */\n      swap2\n      pop\n        /* \"#utility.yul\":11547:11640   */\n      tag_277\n        /* \"#utility.yul\":11636:11639   */\n      dup3\n        /* \"#utility.yul\":11547:11640   */\n      tag_158\n      jump\t// in\n    tag_277:\n        /* \"#utility.yul\":11665:11667   */\n      0x20\n        /* \"#utility.yul\":11660:11663   */\n      dup3\n        /* \"#utility.yul\":11656:11668   */\n      add\n        /* \"#utility.yul\":11649:11668   */\n      swap1\n      pop\n        /* \"#utility.yul\":11308:11674   */\n      swap2\n      swap1\n      pop\n      jump\t// out\n        /* \"#utility.yul\":11680:12099   */\n    tag_95:\n        /* \"#utility.yul\":11846:11850   */\n      0x00\n        /* \"#utility.yul\":11884:11886   */\n      0x20\n        /* \"#utility.yul\":11873:11882   */\n      dup3\n        /* \"#utility.yul\":11869:11887   */\n      add\n        /* \"#utility.yul\":11861:11887   */\n      swap1\n      pop\n        /* \"#utility.yul\":11933:11942   */\n      dup2\n        /* \"#utility.yul\":11927:11931   */\n      dup2\n        /* \"#utility.yul\":11923:11943   */\n      sub\n        /* \"#utility.yul\":11919:11920   */\n      0x00\n        /* \"#utility.yul\":11908:11917   */\n      dup4\n        /* \"#utility.yul\":11904:11921   */\n      add\n        /* \"#utility.yul\":11897:11944   */\n      mstore\n        /* \"#utility.yul\":11961:12092   */\n      tag_279\n        /* \"#utility.yul\":12087:12091   */\n      dup2\n        /* \"#utility.yul\":11961:12092   */\n      tag_159\n      jump\t// in\n    tag_279:\n        /* \"#utility.yul\":11953:12092   */\n      swap1\n      pop\n        /* \"#utility.yul\":11680:12099   */\n      swap2\n      swap1\n      pop\n      jump\t// out\n        /* \"#utility.yul\":12105:12280   */\n    tag_160:\n        /* \"#utility.yul\":12245:12272   */\n      0x496e73756666696369656e7420746f74616c20737570706c7900000000000000\n        /* \"#utility.yul\":12241:12242   */\n      0x00\n        /* \"#utility.yul\":12233:12239   */\n      dup3\n        /* \"#utility.yul\":12229:12243   */\n      add\n        /* \"#utility.yul\":12222:12273   */\n      mstore\n        /* \"#utility.yul\":12105:12280   */\n      pop\n      jump\t// out\n        /* \"#utility.yul\":12286:12652   */\n    tag_161:\n        /* \"#utility.yul\":12428:12431   */\n      0x00\n        /* \"#utility.yul\":12449:12516   */\n      tag_282\n        /* \"#utility.yul\":12513:12515   */\n      0x19\n        /* \"#utility.yul\":12508:12511   */\n      dup4\n        /* \"#utility.yul\":12449:12516   */\n      tag_129\n      jump\t// in\n    tag_282:\n        /* \"#utility.yul\":12442:12516   */\n      swap2\n      pop\n        /* \"#utility.yul\":12525:12618   */\n      tag_283\n        /* \"#utility.yul\":12614:12617   */\n      dup3\n        /* \"#utility.yul\":12525:12618   */\n      tag_160\n      jump\t// in\n    tag_283:\n        /* \"#utility.yul\":12643:12645   */\n      0x20\n        /* \"#utility.yul\":12638:12641   */\n      dup3\n        /* \"#utility.yul\":12634:12646   */\n      add\n        /* \"#utility.yul\":12627:12646   */\n      swap1\n      pop\n        /* \"#utility.yul\":12286:12652   */\n      swap2\n      swap1\n      pop\n      jump\t// out\n        /* \"#utility.yul\":12658:13077   */\n    tag_99:\n        /* \"#utility.yul\":12824:12828   */\n      0x00\n        /* \"#utility.yul\":12862:12864   */\n      0x20\n        /* \"#utility.yul\":12851:12860   */\n      dup3\n        /* \"#utility.yul\":12847:12865   */\n      add\n        /* \"#utility.yul\":12839:12865   */\n      swap1\n      pop\n        /* \"#utility.yul\":12911:12920   */\n      dup2\n        /* \"#utility.yul\":12905:12909   */\n      dup2\n        /* \"#utility.yul\":12901:12921   */\n      sub\n        /* \"#utility.yul\":12897:12898   */\n      0x00\n        /* \"#utility.yul\":12886:12895   */\n      dup4\n        /* \"#utility.yul\":12882:12899   */\n      add\n        /* \"#utility.yul\":12875:12922   */\n      mstore\n        /* \"#utility.yul\":12939:13070   */\n      tag_285\n        /* \"#utility.yul\":13065:13069   */\n      dup2\n        /* \"#utility.yul\":12939:13070   */\n      tag_161\n      jump\t// in\n    tag_285:\n        /* \"#utility.yul\":12931:13070   */\n      swap1\n      pop\n        /* \"#utility.yul\":12658:13077   */\n      swap2\n      swap1\n      pop\n      jump\t// out\n        /* \"#utility.yul\":13083:13277   */\n    tag_105:\n        /* \"#utility.yul\":13123:13127   */\n      0x00\n        /* \"#utility.yul\":13143:13163   */\n      tag_287\n        /* \"#utility.yul\":13161:13162   */\n      dup3\n        /* \"#utility.yul\":13143:13163   */\n      tag_142\n      jump\t// in\n    tag_287:\n        /* \"#utility.yul\":13138:13163   */\n      swap2\n      pop\n        /* \"#utility.yul\":13177:13197   */\n      tag_288\n        /* \"#utility.yul\":13195:13196   */\n      dup4\n        /* \"#utility.yul\":13177:13197   */\n      tag_142\n      jump\t// in\n    tag_288:\n        /* \"#utility.yul\":13172:13197   */\n      swap3\n      pop\n        /* \"#utility.yul\":13221:13222   */\n      dup3\n        /* \"#utility.yul\":13218:13219   */\n      dup3\n        /* \"#utility.yul\":13214:13223   */\n      sub\n        /* \"#utility.yul\":13206:13223   */\n      swap1\n      pop\n        /* \"#utility.yul\":13245:13246   */\n      dup2\n        /* \"#utility.yul\":13239:13243   */\n      dup2\n        /* \"#utility.yul\":13236:13247   */\n      gt\n        /* \"#utility.yul\":13233:13270   */\n      iszero\n      tag_289\n      jumpi\n        /* \"#utility.yul\":13250:13268   */\n      tag_290\n      tag_150\n      jump\t// in\n    tag_290:\n        /* \"#utility.yul\":13233:13270   */\n    tag_289:\n        /* \"#utility.yul\":13083:13277   */\n      swap3\n      swap2\n      pop\n      pop\n      jump\t// out\n\n    auxdata: 0xa26469706673582212204e36723790c60721950228380305d17c2bd11cbe759c845738c8a92dd7b0466264736f6c634300081a0033\n}\n",
				"bytecode": {
					"linkReferences": {},
					"object": "60a06040525f80555f60025f6101000a81548160ff02191690831515021790555034801561002b575f80fd5b5060405161175f38038061175f833981810160405281019061004d9190610140565b601260ff16600a61005e91906102c7565b620f424061006c9190610311565b601260ff16600a61007d91906102c7565b826100889190610311565b11156100c9576040517f08c379a00000000000000000000000000000000000000000000000000000000081526004016100c0906103d2565b60405180910390fd5b3373ffffffffffffffffffffffffffffffffffffffff1660808173ffffffffffffffffffffffffffffffffffffffff1681525050805f81905550506103f0565b5f80fd5b5f819050919050565b61011f8161010d565b8114610129575f80fd5b50565b5f8151905061013a81610116565b92915050565b5f6020828403121561015557610154610109565b5b5f6101628482850161012c565b91505092915050565b7f4e487b71000000000000000000000000000000000000000000000000000000005f52601160045260245ffd5b5f8160011c9050919050565b5f808291508390505b60018511156101ed578086048111156101c9576101c861016b565b5b60018516156101d85780820291505b80810290506101e685610198565b94506101ad565b94509492505050565b5f8261020557600190506102c0565b81610212575f90506102c0565b8160018114610228576002811461023257610261565b60019150506102c0565b60ff8411156102445761024361016b565b5b8360020a91508482111561025b5761025a61016b565b5b506102c0565b5060208310610133831016604e8410600b84101617156102965782820a9050838111156102915761029061016b565b5b6102c0565b6102a384848460016101a4565b925090508184048111156102ba576102b961016b565b5b81810290505b9392505050565b5f6102d18261010d565b91506102dc8361010d565b92506103097fffffffffffffffffffffffffffffffffffffffffffffffffffffffffffffffff84846101f6565b905092915050565b5f61031b8261010d565b91506103268361010d565b92508282026103348161010d565b9150828204841483151761034b5761034a61016b565b5b5092915050565b5f82825260208201905092915050565b7f696e697469616c5f737570706c792063616e206e6f7420657863656564206d615f8201527f78696d756d2e0000000000000000000000000000000000000000000000000000602082015250565b5f6103bc602683610352565b91506103c782610362565b604082019050919050565b5f6020820190508181035f8301526103e9816103b0565b9050919050565b6080516113496104165f395f8181610246015281816102d4015261033a01526113495ff3fe608060405260043610610089575f3560e01c80638a333b50116100585780638a333b5014610126578063947a3168146101505780639dc29fac1461017a578063a9059cbb146101a2578063e3d670d7146101ca57610090565b80631f772a3414610094578063313ce567146100be5780633ccfd60b146100e857806340c10f19146100fe57610090565b3661009057005b5f80fd5b34801561009f575f80fd5b506100a8610206565b6040516100b59190610cba565b60405180910390f35b3480156100c9575f80fd5b506100d261023f565b6040516100df9190610cf5565b60405180910390f35b3480156100f3575f80fd5b506100fc610244565b005b348015610109575f80fd5b50610124600480360381019061011f9190610d9f565b610338565b005b348015610131575f80fd5b5061013a6105cc565b6040516101479190610dec565b60405180910390f35b34801561015b575f80fd5b506101646105ee565b6040516101719190610cba565b60405180910390f35b348015610185575f80fd5b506101a0600480360381019061019b9190610d9f565b610627565b005b3480156101ad575f80fd5b506101c860048036038101906101c39190610d9f565b61089f565b005b3480156101d5575f80fd5b506101f060048036038101906101eb9190610e05565b610b94565b6040516101fd9190610dec565b60405180910390f35b6040518060400160405280600381526020017f4d4f54000000000000000000000000000000000000000000000000000000000081525081565b601281565b7f000000000000000000000000000000000000000000000000000000000000000073ffffffffffffffffffffffffffffffffffffffff163373ffffffffffffffffffffffffffffffffffffffff16146102d2576040517f08c379a00000000000000000000000000000000000000000000000000000000081526004016102c990610ea0565b60405180910390fd5b7f000000000000000000000000000000000000000000000000000000000000000073ffffffffffffffffffffffffffffffffffffffff166108fc4790811502906040515f60405180830381858888f19350505050158015610335573d5f803e3d5ffd5b50565b7f000000000000000000000000000000000000000000000000000000000000000073ffffffffffffffffffffffffffffffffffffffff163373ffffffffffffffffffffffffffffffffffffffff16146103c6576040517f08c379a00000000000000000000000000000000000000000000000000000000081526004016103bd90610ea0565b60405180910390fd5b815f73ffffffffffffffffffffffffffffffffffffffff168173ffffffffffffffffffffffffffffffffffffffff1603610435576040517f08c379a000000000000000000000000000000000000000000000000000000000815260040161042c90610f08565b60405180910390fd5b81601260ff16600a6104479190611082565b620f424061045591906110cc565b815f54610462919061110d565b11156104a3576040517f08c379a000000000000000000000000000000000000000000000000000000000815260040161049a9061118a565b60405180910390fd5b60025f9054906101000a900460ff16156104f2576040517f08c379a00000000000000000000000000000000000000000000000000000000081526004016104e9906111f2565b60405180910390fd5b600160025f6101000a81548160ff0219169083151502179055508260015f8673ffffffffffffffffffffffffffffffffffffffff1673ffffffffffffffffffffffffffffffffffffffff1681526020019081526020015f205f828254610558919061110d565b925050819055508373ffffffffffffffffffffffffffffffffffffffff167f0f6798a560793a54c3bcfe86a93cde1e73087d944c0ea20544137d4121396885846040516105a59190610dec565b60405180910390a25f60025f6101000a81548160ff02191690831515021790555050505050565b601260ff16600a6105dd9190611082565b620f42406105eb91906110cc565b81565b6040518060400160405280600c81526020017f4d794f74686572546f6b656e000000000000000000000000000000000000000081525081565b815f73ffffffffffffffffffffffffffffffffffffffff168173ffffffffffffffffffffffffffffffffffffffff1603610696576040517f08c379a000000000000000000000000000000000000000000000000000000000815260040161068d90610f08565b60405180910390fd5b82828060015f8473ffffffffffffffffffffffffffffffffffffffff1673ffffffffffffffffffffffffffffffffffffffff1681526020019081526020015f20541015610718576040517f08c379a000000000000000000000000000000000000000000000000000000000815260040161070f9061125a565b60405180910390fd5b835f5481111561075d576040517f08c379a0000000000000000000000000000000000000000000000000000000008152600401610754906112c2565b60405180910390fd5b60025f9054906101000a900460ff16156107ac576040517f08c379a00000000000000000000000000000000000000000000000000000000081526004016107a3906111f2565b60405180910390fd5b600160025f6101000a81548160ff0219169083151502179055508460015f8873ffffffffffffffffffffffffffffffffffffffff1673ffffffffffffffffffffffffffffffffffffffff1681526020019081526020015f205f82825461081291906112e0565b92505081905550845f8082825461082991906112e0565b925050819055508573ffffffffffffffffffffffffffffffffffffffff167fcc16f5dbb4873280815c1ee09dbd06736cffcc184412cf7a71a0fdb75d397ca5866040516108769190610dec565b60405180910390a25f60025f6101000a81548160ff021916908315150217905550505050505050565b335f73ffffffffffffffffffffffffffffffffffffffff168173ffffffffffffffffffffffffffffffffffffffff160361090e576040517f08c379a000000000000000000000000000000000000000000000000000000000815260040161090590610f08565b60405180910390fd5b825f73ffffffffffffffffffffffffffffffffffffffff168173ffffffffffffffffffffffffffffffffffffffff160361097d576040517f08c379a000000000000000000000000000000000000000000000000000000000815260040161097490610f08565b60405180910390fd5b33838060015f8473ffffffffffffffffffffffffffffffffffffffff1673ffffffffffffffffffffffffffffffffffffffff1681526020019081526020015f205410156109ff576040517f08c379a00000000000000000000000000000000000000000000000000000000081526004016109f69061125a565b60405180910390fd5b60025f9054906101000a900460ff1615610a4e576040517f08c379a0000000000000000000000000000000000000000000000000000000008152600401610a45906111f2565b60405180910390fd5b600160025f6101000a81548160ff0219169083151502179055508460015f3373ffffffffffffffffffffffffffffffffffffffff1673ffffffffffffffffffffffffffffffffffffffff1681526020019081526020015f205f828254610ab491906112e0565b925050819055508460015f8873ffffffffffffffffffffffffffffffffffffffff1673ffffffffffffffffffffffffffffffffffffffff1681526020019081526020015f205f828254610b07919061110d565b925050819055508573ffffffffffffffffffffffffffffffffffffffff163373ffffffffffffffffffffffffffffffffffffffff167fddf252ad1be2c89b69c2b068fc378daa952ba7f163c4a11628f55a4df523b3ef87604051610b6b9190610dec565b60405180910390a35f60025f6101000a81548160ff021916908315150217905550505050505050565b5f815f73ffffffffffffffffffffffffffffffffffffffff168173ffffffffffffffffffffffffffffffffffffffff1603610c04576040517f08c379a0000000000000000000000000000000000000000000000000000000008152600401610bfb90610f08565b60405180910390fd5b60015f8473ffffffffffffffffffffffffffffffffffffffff1673ffffffffffffffffffffffffffffffffffffffff1681526020019081526020015f2054915050919050565b5f81519050919050565b5f82825260208201905092915050565b8281835e5f83830152505050565b5f601f19601f8301169050919050565b5f610c8c82610c4a565b610c968185610c54565b9350610ca6818560208601610c64565b610caf81610c72565b840191505092915050565b5f6020820190508181035f830152610cd28184610c82565b905092915050565b5f60ff82169050919050565b610cef81610cda565b82525050565b5f602082019050610d085f830184610ce6565b92915050565b5f80fd5b5f73ffffffffffffffffffffffffffffffffffffffff82169050919050565b5f610d3b82610d12565b9050919050565b610d4b81610d31565b8114610d55575f80fd5b50565b5f81359050610d6681610d42565b92915050565b5f819050919050565b610d7e81610d6c565b8114610d88575f80fd5b50565b5f81359050610d9981610d75565b92915050565b5f8060408385031215610db557610db4610d0e565b5b5f610dc285828601610d58565b9250506020610dd385828601610d8b565b9150509250929050565b610de681610d6c565b82525050565b5f602082019050610dff5f830184610ddd565b92915050565b5f60208284031215610e1a57610e19610d0e565b5b5f610e2784828501610d58565b91505092915050565b7f4f6e6c79206f776e65722063616e20616363657373207468697320616374696f5f8201527f6e2e000000000000000000000000000000000000000000000000000000000000602082015250565b5f610e8a602283610c54565b9150610e9582610e30565b604082019050919050565b5f6020820190508181035f830152610eb781610e7e565b9050919050565b7f4d757374207370656369667920612076616c696420616464726573732e0000005f82015250565b5f610ef2601d83610c54565b9150610efd82610ebe565b602082019050919050565b5f6020820190508181035f830152610f1f81610ee6565b9050919050565b7f4e487b71000000000000000000000000000000000000000000000000000000005f52601160045260245ffd5b5f8160011c9050919050565b5f808291508390505b6001851115610fa857808604811115610f8457610f83610f26565b5b6001851615610f935780820291505b8081029050610fa185610f53565b9450610f68565b94509492505050565b5f82610fc0576001905061107b565b81610fcd575f905061107b565b8160018114610fe35760028114610fed5761101c565b600191505061107b565b60ff841115610fff57610ffe610f26565b5b8360020a91508482111561101657611015610f26565b5b5061107b565b5060208310610133831016604e8410600b84101617156110515782820a90508381111561104c5761104b610f26565b5b61107b565b61105e8484846001610f5f565b9250905081840481111561107557611074610f26565b5b81810290505b9392505050565b5f61108c82610d6c565b915061109783610d6c565b92506110c47fffffffffffffffffffffffffffffffffffffffffffffffffffffffffffffffff8484610fb1565b905092915050565b5f6110d682610d6c565b91506110e183610d6c565b92508282026110ef81610d6c565b9150828204841483151761110657611105610f26565b5b5092915050565b5f61111782610d6c565b915061112283610d6c565b925082820190508082111561113a57611139610f26565b5b92915050565b7f496e73756666696369656e74206d617820737570706c790000000000000000005f82015250565b5f611174601783610c54565b915061117f82611140565b602082019050919050565b5f6020820190508181035f8301526111a181611168565b9050919050565b7f52656e7472616e742063616c6c7320617265206e6f7420616c6c6f7765642e005f82015250565b5f6111dc601f83610c54565b91506111e7826111a8565b602082019050919050565b5f6020820190508181035f830152611209816111d0565b9050919050565b7f496e73756666696369656e742066756e647320746f206275726e0000000000005f82015250565b5f611244601a83610c54565b915061124f82611210565b602082019050919050565b5f6020820190508181035f83015261127181611238565b9050919050565b7f496e73756666696369656e7420746f74616c20737570706c79000000000000005f82015250565b5f6112ac601983610c54565b91506112b782611278565b602082019050919050565b5f6020820190508181035f8301526112d9816112a0565b9050919050565b5f6112ea82610d6c565b91506112f583610d6c565b925082820390508181111561130d5761130c610f26565b5b9291505056fea26469706673582212204e36723790c60721950228380305d17c2bd11cbe759c845738c8a92dd7b0466264736f6c634300081a0033",
					"opcodes": "PUSH1 0xA0 PUSH1 0x40 MSTORE PUSH0 DUP1 SSTORE PUSH0 PUSH1 0x2 PUSH0 PUSH2 0x100 EXP DUP2 SLOAD DUP2 PUSH1 0xFF MUL NOT AND SWAP1 DUP4 ISZERO ISZERO MUL OR SWAP1 SSTORE POP CALLVALUE DUP1 ISZERO PUSH2 0x2B JUMPI PUSH0 DUP1 REVERT JUMPDEST POP PUSH1 0x40 MLOAD PUSH2 0x175F CODESIZE SUB DUP1 PUSH2 0x175F DUP4 CODECOPY DUP2 DUP2 ADD PUSH1 0x40 MSTORE DUP2 ADD SWAP1 PUSH2 0x4D SWAP2 SWAP1 PUSH2 0x140 JUMP JUMPDEST PUSH1 0x12 PUSH1 0xFF AND PUSH1 0xA PUSH2 0x5E SWAP2 SWAP1 PUSH2 0x2C7 JUMP JUMPDEST PUSH3 0xF4240 PUSH2 0x6C SWAP2 SWAP1 PUSH2 0x311 JUMP JUMPDEST PUSH1 0x12 PUSH1 0xFF AND PUSH1 0xA PUSH2 0x7D SWAP2 SWAP1 PUSH2 0x2C7 JUMP JUMPDEST DUP3 PUSH2 0x88 SWAP2 SWAP1 PUSH2 0x311 JUMP JUMPDEST GT ISZERO PUSH2 0xC9 JUMPI PUSH1 0x40 MLOAD PUSH32 0x8C379A000000000000000000000000000000000000000000000000000000000 DUP2 MSTORE PUSH1 0x4 ADD PUSH2 0xC0 SWAP1 PUSH2 0x3D2 JUMP JUMPDEST PUSH1 0x40 MLOAD DUP1 SWAP2 SUB SWAP1 REVERT JUMPDEST CALLER PUSH20 0xFFFFFFFFFFFFFFFFFFFFFFFFFFFFFFFFFFFFFFFF AND PUSH1 0x80 DUP2 PUSH20 0xFFFFFFFFFFFFFFFFFFFFFFFFFFFFFFFFFFFFFFFF AND DUP2 MSTORE POP POP DUP1 PUSH0 DUP2 SWAP1 SSTORE POP POP PUSH2 0x3F0 JUMP JUMPDEST PUSH0 DUP1 REVERT JUMPDEST PUSH0 DUP2 SWAP1 POP SWAP2 SWAP1 POP JUMP JUMPDEST PUSH2 0x11F DUP2 PUSH2 0x10D JUMP JUMPDEST DUP2 EQ PUSH2 0x129 JUMPI PUSH0 DUP1 REVERT JUMPDEST POP JUMP JUMPDEST PUSH0 DUP2 MLOAD SWAP1 POP PUSH2 0x13A DUP2 PUSH2 0x116 JUMP JUMPDEST SWAP3 SWAP2 POP POP JUMP JUMPDEST PUSH0 PUSH1 0x20 DUP3 DUP5 SUB SLT ISZERO PUSH2 0x155 JUMPI PUSH2 0x154 PUSH2 0x109 JUMP JUMPDEST JUMPDEST PUSH0 PUSH2 0x162 DUP5 DUP3 DUP6 ADD PUSH2 0x12C JUMP JUMPDEST SWAP2 POP POP SWAP3 SWAP2 POP POP JUMP JUMPDEST PUSH32 0x4E487B7100000000000000000000000000000000000000000000000000000000 PUSH0 MSTORE PUSH1 0x11 PUSH1 0x4 MSTORE PUSH1 0x24 PUSH0 REVERT JUMPDEST PUSH0 DUP2 PUSH1 0x1 SHR SWAP1 POP SWAP2 SWAP1 POP JUMP JUMPDEST PUSH0 DUP1 DUP3 SWAP2 POP DUP4 SWAP1 POP JUMPDEST PUSH1 0x1 DUP6 GT ISZERO PUSH2 0x1ED JUMPI DUP1 DUP7 DIV DUP2 GT ISZERO PUSH2 0x1C9 JUMPI PUSH2 0x1C8 PUSH2 0x16B JUMP JUMPDEST JUMPDEST PUSH1 0x1 DUP6 AND ISZERO PUSH2 0x1D8 JUMPI DUP1 DUP3 MUL SWAP2 POP JUMPDEST DUP1 DUP2 MUL SWAP1 POP PUSH2 0x1E6 DUP6 PUSH2 0x198 JUMP JUMPDEST SWAP5 POP PUSH2 0x1AD JUMP JUMPDEST SWAP5 POP SWAP5 SWAP3 POP POP POP JUMP JUMPDEST PUSH0 DUP3 PUSH2 0x205 JUMPI PUSH1 0x1 SWAP1 POP PUSH2 0x2C0 JUMP JUMPDEST DUP2 PUSH2 0x212 JUMPI PUSH0 SWAP1 POP PUSH2 0x2C0 JUMP JUMPDEST DUP2 PUSH1 0x1 DUP2 EQ PUSH2 0x228 JUMPI PUSH1 0x2 DUP2 EQ PUSH2 0x232 JUMPI PUSH2 0x261 JUMP JUMPDEST PUSH1 0x1 SWAP2 POP POP PUSH2 0x2C0 JUMP JUMPDEST PUSH1 0xFF DUP5 GT ISZERO PUSH2 0x244 JUMPI PUSH2 0x243 PUSH2 0x16B JUMP JUMPDEST JUMPDEST DUP4 PUSH1 0x2 EXP SWAP2 POP DUP5 DUP3 GT ISZERO PUSH2 0x25B JUMPI PUSH2 0x25A PUSH2 0x16B JUMP JUMPDEST JUMPDEST POP PUSH2 0x2C0 JUMP JUMPDEST POP PUSH1 0x20 DUP4 LT PUSH2 0x133 DUP4 LT AND PUSH1 0x4E DUP5 LT PUSH1 0xB DUP5 LT AND OR ISZERO PUSH2 0x296 JUMPI DUP3 DUP3 EXP SWAP1 POP DUP4 DUP2 GT ISZERO PUSH2 0x291 JUMPI PUSH2 0x290 PUSH2 0x16B JUMP JUMPDEST JUMPDEST PUSH2 0x2C0 JUMP JUMPDEST PUSH2 0x2A3 DUP5 DUP5 DUP5 PUSH1 0x1 PUSH2 0x1A4 JUMP JUMPDEST SWAP3 POP SWAP1 POP DUP2 DUP5 DIV DUP2 GT ISZERO PUSH2 0x2BA JUMPI PUSH2 0x2B9 PUSH2 0x16B JUMP JUMPDEST JUMPDEST DUP2 DUP2 MUL SWAP1 POP JUMPDEST SWAP4 SWAP3 POP POP POP JUMP JUMPDEST PUSH0 PUSH2 0x2D1 DUP3 PUSH2 0x10D JUMP JUMPDEST SWAP2 POP PUSH2 0x2DC DUP4 PUSH2 0x10D JUMP JUMPDEST SWAP3 POP PUSH2 0x309 PUSH32 0xFFFFFFFFFFFFFFFFFFFFFFFFFFFFFFFFFFFFFFFFFFFFFFFFFFFFFFFFFFFFFFFF DUP5 DUP5 PUSH2 0x1F6 JUMP JUMPDEST SWAP1 POP SWAP3 SWAP2 POP POP JUMP JUMPDEST PUSH0 PUSH2 0x31B DUP3 PUSH2 0x10D JUMP JUMPDEST SWAP2 POP PUSH2 0x326 DUP4 PUSH2 0x10D JUMP JUMPDEST SWAP3 POP DUP3 DUP3 MUL PUSH2 0x334 DUP2 PUSH2 0x10D JUMP JUMPDEST SWAP2 POP DUP3 DUP3 DIV DUP5 EQ DUP4 ISZERO OR PUSH2 0x34B JUMPI PUSH2 0x34A PUSH2 0x16B JUMP JUMPDEST JUMPDEST POP SWAP3 SWAP2 POP POP JUMP JUMPDEST PUSH0 DUP3 DUP3 MSTORE PUSH1 0x20 DUP3 ADD SWAP1 POP SWAP3 SWAP2 POP POP JUMP JUMPDEST PUSH32 0x696E697469616C5F737570706C792063616E206E6F7420657863656564206D61 PUSH0 DUP3 ADD MSTORE PUSH32 0x78696D756D2E0000000000000000000000000000000000000000000000000000 PUSH1 0x20 DUP3 ADD MSTORE POP JUMP JUMPDEST PUSH0 PUSH2 0x3BC PUSH1 0x26 DUP4 PUSH2 0x352 JUMP JUMPDEST SWAP2 POP PUSH2 0x3C7 DUP3 PUSH2 0x362 JUMP JUMPDEST PUSH1 0x40 DUP3 ADD SWAP1 POP SWAP2 SWAP1 POP JUMP JUMPDEST PUSH0 PUSH1 0x20 DUP3 ADD SWAP1 POP DUP2 DUP2 SUB PUSH0 DUP4 ADD MSTORE PUSH2 0x3E9 DUP2 PUSH2 0x3B0 JUMP JUMPDEST SWAP1 POP SWAP2 SWAP1 POP JUMP JUMPDEST PUSH1 0x80 MLOAD PUSH2 0x1349 PUSH2 0x416 PUSH0 CODECOPY PUSH0 DUP2 DUP2 PUSH2 0x246 ADD MSTORE DUP2 DUP2 PUSH2 0x2D4 ADD MSTORE PUSH2 0x33A ADD MSTORE PUSH2 0x1349 PUSH0 RETURN INVALID PUSH1 0x80 PUSH1 0x40 MSTORE PUSH1 0x4 CALLDATASIZE LT PUSH2 0x89 JUMPI PUSH0 CALLDATALOAD PUSH1 0xE0 SHR DUP1 PUSH4 0x8A333B50 GT PUSH2 0x58 JUMPI DUP1 PUSH4 0x8A333B50 EQ PUSH2 0x126 JUMPI DUP1 PUSH4 0x947A3168 EQ PUSH2 0x150 JUMPI DUP1 PUSH4 0x9DC29FAC EQ PUSH2 0x17A JUMPI DUP1 PUSH4 0xA9059CBB EQ PUSH2 0x1A2 JUMPI DUP1 PUSH4 0xE3D670D7 EQ PUSH2 0x1CA JUMPI PUSH2 0x90 JUMP JUMPDEST DUP1 PUSH4 0x1F772A34 EQ PUSH2 0x94 JUMPI DUP1 PUSH4 0x313CE567 EQ PUSH2 0xBE JUMPI DUP1 PUSH4 0x3CCFD60B EQ PUSH2 0xE8 JUMPI DUP1 PUSH4 0x40C10F19 EQ PUSH2 0xFE JUMPI PUSH2 0x90 JUMP JUMPDEST CALLDATASIZE PUSH2 0x90 JUMPI STOP JUMPDEST PUSH0 DUP1 REVERT JUMPDEST CALLVALUE DUP1 ISZERO PUSH2 0x9F JUMPI PUSH0 DUP1 REVERT JUMPDEST POP PUSH2 0xA8 PUSH2 0x206 JUMP JUMPDEST PUSH1 0x40 MLOAD PUSH2 0xB5 SWAP2 SWAP1 PUSH2 0xCBA JUMP JUMPDEST PUSH1 0x40 MLOAD DUP1 SWAP2 SUB SWAP1 RETURN JUMPDEST CALLVALUE DUP1 ISZERO PUSH2 0xC9 JUMPI PUSH0 DUP1 REVERT JUMPDEST POP PUSH2 0xD2 PUSH2 0x23F JUMP JUMPDEST PUSH1 0x40 MLOAD PUSH2 0xDF SWAP2 SWAP1 PUSH2 0xCF5 JUMP JUMPDEST PUSH1 0x40 MLOAD DUP1 SWAP2 SUB SWAP1 RETURN JUMPDEST CALLVALUE DUP1 ISZERO PUSH2 0xF3 JUMPI PUSH0 DUP1 REVERT JUMPDEST POP PUSH2 0xFC PUSH2 0x244 JUMP JUMPDEST STOP JUMPDEST CALLVALUE DUP1 ISZERO PUSH2 0x109 JUMPI PUSH0 DUP1 REVERT JUMPDEST POP PUSH2 0x124 PUSH1 0x4 DUP1 CALLDATASIZE SUB DUP2 ADD SWAP1 PUSH2 0x11F SWAP2 SWAP1 PUSH2 0xD9F JUMP JUMPDEST PUSH2 0x338 JUMP JUMPDEST STOP JUMPDEST CALLVALUE DUP1 ISZERO PUSH2 0x131 JUMPI PUSH0 DUP1 REVERT JUMPDEST POP PUSH2 0x13A PUSH2 0x5CC JUMP JUMPDEST PUSH1 0x40 MLOAD PUSH2 0x147 SWAP2 SWAP1 PUSH2 0xDEC JUMP JUMPDEST PUSH1 0x40 MLOAD DUP1 SWAP2 SUB SWAP1 RETURN JUMPDEST CALLVALUE DUP1 ISZERO PUSH2 0x15B JUMPI PUSH0 DUP1 REVERT JUMPDEST POP PUSH2 0x164 PUSH2 0x5EE JUMP JUMPDEST PUSH1 0x40 MLOAD PUSH2 0x171 SWAP2 SWAP1 PUSH2 0xCBA JUMP JUMPDEST PUSH1 0x40 MLOAD DUP1 SWAP2 SUB SWAP1 RETURN JUMPDEST CALLVALUE DUP1 ISZERO PUSH2 0x185 JUMPI PUSH0 DUP1 REVERT JUMPDEST POP PUSH2 0x1A0 PUSH1 0x4 DUP1 CALLDATASIZE SUB DUP2 ADD SWAP1 PUSH2 0x19B SWAP2 SWAP1 PUSH2 0xD9F JUMP JUMPDEST PUSH2 0x627 JUMP JUMPDEST STOP JUMPDEST CALLVALUE DUP1 ISZERO PUSH2 0x1AD JUMPI PUSH0 DUP1 REVERT JUMPDEST POP PUSH2 0x1C8 PUSH1 0x4 DUP1 CALLDATASIZE SUB DUP2 ADD SWAP1 PUSH2 0x1C3 SWAP2 SWAP1 PUSH2 0xD9F JUMP JUMPDEST PUSH2 0x89F JUMP JUMPDEST STOP JUMPDEST CALLVALUE DUP1 ISZERO PUSH2 0x1D5 JUMPI PUSH0 DUP1 REVERT JUMPDEST POP PUSH2 0x1F0 PUSH1 0x4 DUP1 CALLDATASIZE SUB DUP2 ADD SWAP1 PUSH2 0x1EB SWAP2 SWAP1 PUSH2 0xE05 JUMP JUMPDEST PUSH2 0xB94 JUMP JUMPDEST PUSH1 0x40 MLOAD PUSH2 0x1FD SWAP2 SWAP1 PUSH2 0xDEC JUMP JUMPDEST PUSH1 0x40 MLOAD DUP1 SWAP2 SUB SWAP1 RETURN JUMPDEST PUSH1 0x40 MLOAD DUP1 PUSH1 0x40 ADD PUSH1 0x40 MSTORE DUP1 PUSH1 0x3 DUP2 MSTORE PUSH1 0x20 ADD PUSH32 0x4D4F540000000000000000000000000000000000000000000000000000000000 DUP2 MSTORE POP DUP2 JUMP JUMPDEST PUSH1 0x12 DUP2 JUMP JUMPDEST PUSH32 0x0 PUSH20 0xFFFFFFFFFFFFFFFFFFFFFFFFFFFFFFFFFFFFFFFF AND CALLER PUSH20 0xFFFFFFFFFFFFFFFFFFFFFFFFFFFFFFFFFFFFFFFF AND EQ PUSH2 0x2D2 JUMPI PUSH1 0x40 MLOAD PUSH32 0x8C379A000000000000000000000000000000000000000000000000000000000 DUP2 MSTORE PUSH1 0x4 ADD PUSH2 0x2C9 SWAP1 PUSH2 0xEA0 JUMP JUMPDEST PUSH1 0x40 MLOAD DUP1 SWAP2 SUB SWAP1 REVERT JUMPDEST PUSH32 0x0 PUSH20 0xFFFFFFFFFFFFFFFFFFFFFFFFFFFFFFFFFFFFFFFF AND PUSH2 0x8FC SELFBALANCE SWAP1 DUP2 ISZERO MUL SWAP1 PUSH1 0x40 MLOAD PUSH0 PUSH1 0x40 MLOAD DUP1 DUP4 SUB DUP2 DUP6 DUP9 DUP9 CALL SWAP4 POP POP POP POP ISZERO DUP1 ISZERO PUSH2 0x335 JUMPI RETURNDATASIZE PUSH0 DUP1 RETURNDATACOPY RETURNDATASIZE PUSH0 REVERT JUMPDEST POP JUMP JUMPDEST PUSH32 0x0 PUSH20 0xFFFFFFFFFFFFFFFFFFFFFFFFFFFFFFFFFFFFFFFF AND CALLER PUSH20 0xFFFFFFFFFFFFFFFFFFFFFFFFFFFFFFFFFFFFFFFF AND EQ PUSH2 0x3C6 JUMPI PUSH1 0x40 MLOAD PUSH32 0x8C379A000000000000000000000000000000000000000000000000000000000 DUP2 MSTORE PUSH1 0x4 ADD PUSH2 0x3BD SWAP1 PUSH2 0xEA0 JUMP JUMPDEST PUSH1 0x40 MLOAD DUP1 SWAP2 SUB SWAP1 REVERT JUMPDEST DUP2 PUSH0 PUSH20 0xFFFFFFFFFFFFFFFFFFFFFFFFFFFFFFFFFFFFFFFF AND DUP2 PUSH20 0xFFFFFFFFFFFFFFFFFFFFFFFFFFFFFFFFFFFFFFFF AND SUB PUSH2 0x435 JUMPI PUSH1 0x40 MLOAD PUSH32 0x8C379A000000000000000000000000000000000000000000000000000000000 DUP2 MSTORE PUSH1 0x4 ADD PUSH2 0x42C SWAP1 PUSH2 0xF08 JUMP JUMPDEST PUSH1 0x40 MLOAD DUP1 SWAP2 SUB SWAP1 REVERT JUMPDEST DUP2 PUSH1 0x12 PUSH1 0xFF AND PUSH1 0xA PUSH2 0x447 SWAP2 SWAP1 PUSH2 0x1082 JUMP JUMPDEST PUSH3 0xF4240 PUSH2 0x455 SWAP2 SWAP1 PUSH2 0x10CC JUMP JUMPDEST DUP2 PUSH0 SLOAD PUSH2 0x462 SWAP2 SWAP1 PUSH2 0x110D JUMP JUMPDEST GT ISZERO PUSH2 0x4A3 JUMPI PUSH1 0x40 MLOAD PUSH32 0x8C379A000000000000000000000000000000000000000000000000000000000 DUP2 MSTORE PUSH1 0x4 ADD PUSH2 0x49A SWAP1 PUSH2 0x118A JUMP JUMPDEST PUSH1 0x40 MLOAD DUP1 SWAP2 SUB SWAP1 REVERT JUMPDEST PUSH1 0x2 PUSH0 SWAP1 SLOAD SWAP1 PUSH2 0x100 EXP SWAP1 DIV PUSH1 0xFF AND ISZERO PUSH2 0x4F2 JUMPI PUSH1 0x40 MLOAD PUSH32 0x8C379A000000000000000000000000000000000000000000000000000000000 DUP2 MSTORE PUSH1 0x4 ADD PUSH2 0x4E9 SWAP1 PUSH2 0x11F2 JUMP JUMPDEST PUSH1 0x40 MLOAD DUP1 SWAP2 SUB SWAP1 REVERT JUMPDEST PUSH1 0x1 PUSH1 0x2 PUSH0 PUSH2 0x100 EXP DUP2 SLOAD DUP2 PUSH1 0xFF MUL NOT AND SWAP1 DUP4 ISZERO ISZERO MUL OR SWAP1 SSTORE POP DUP3 PUSH1 0x1 PUSH0 DUP7 PUSH20 0xFFFFFFFFFFFFFFFFFFFFFFFFFFFFFFFFFFFFFFFF AND PUSH20 0xFFFFFFFFFFFFFFFFFFFFFFFFFFFFFFFFFFFFFFFF AND DUP2 MSTORE PUSH1 0x20 ADD SWAP1 DUP2 MSTORE PUSH1 0x20 ADD PUSH0 KECCAK256 PUSH0 DUP3 DUP3 SLOAD PUSH2 0x558 SWAP2 SWAP1 PUSH2 0x110D JUMP JUMPDEST SWAP3 POP POP DUP2 SWAP1 SSTORE POP DUP4 PUSH20 0xFFFFFFFFFFFFFFFFFFFFFFFFFFFFFFFFFFFFFFFF AND PUSH32 0xF6798A560793A54C3BCFE86A93CDE1E73087D944C0EA20544137D4121396885 DUP5 PUSH1 0x40 MLOAD PUSH2 0x5A5 SWAP2 SWAP1 PUSH2 0xDEC JUMP JUMPDEST PUSH1 0x40 MLOAD DUP1 SWAP2 SUB SWAP1 LOG2 PUSH0 PUSH1 0x2 PUSH0 PUSH2 0x100 EXP DUP2 SLOAD DUP2 PUSH1 0xFF MUL NOT AND SWAP1 DUP4 ISZERO ISZERO MUL OR SWAP1 SSTORE POP POP POP POP POP JUMP JUMPDEST PUSH1 0x12 PUSH1 0xFF AND PUSH1 0xA PUSH2 0x5DD SWAP2 SWAP1 PUSH2 0x1082 JUMP JUMPDEST PUSH3 0xF4240 PUSH2 0x5EB SWAP2 SWAP1 PUSH2 0x10CC JUMP JUMPDEST DUP2 JUMP JUMPDEST PUSH1 0x40 MLOAD DUP1 PUSH1 0x40 ADD PUSH1 0x40 MSTORE DUP1 PUSH1 0xC DUP2 MSTORE PUSH1 0x20 ADD PUSH32 0x4D794F74686572546F6B656E0000000000000000000000000000000000000000 DUP2 MSTORE POP DUP2 JUMP JUMPDEST DUP2 PUSH0 PUSH20 0xFFFFFFFFFFFFFFFFFFFFFFFFFFFFFFFFFFFFFFFF AND DUP2 PUSH20 0xFFFFFFFFFFFFFFFFFFFFFFFFFFFFFFFFFFFFFFFF AND SUB PUSH2 0x696 JUMPI PUSH1 0x40 MLOAD PUSH32 0x8C379A000000000000000000000000000000000000000000000000000000000 DUP2 MSTORE PUSH1 0x4 ADD PUSH2 0x68D SWAP1 PUSH2 0xF08 JUMP JUMPDEST PUSH1 0x40 MLOAD DUP1 SWAP2 SUB SWAP1 REVERT JUMPDEST DUP3 DUP3 DUP1 PUSH1 0x1 PUSH0 DUP5 PUSH20 0xFFFFFFFFFFFFFFFFFFFFFFFFFFFFFFFFFFFFFFFF AND PUSH20 0xFFFFFFFFFFFFFFFFFFFFFFFFFFFFFFFFFFFFFFFF AND DUP2 MSTORE PUSH1 0x20 ADD SWAP1 DUP2 MSTORE PUSH1 0x20 ADD PUSH0 KECCAK256 SLOAD LT ISZERO PUSH2 0x718 JUMPI PUSH1 0x40 MLOAD PUSH32 0x8C379A000000000000000000000000000000000000000000000000000000000 DUP2 MSTORE PUSH1 0x4 ADD PUSH2 0x70F SWAP1 PUSH2 0x125A JUMP JUMPDEST PUSH1 0x40 MLOAD DUP1 SWAP2 SUB SWAP1 REVERT JUMPDEST DUP4 PUSH0 SLOAD DUP2 GT ISZERO PUSH2 0x75D JUMPI PUSH1 0x40 MLOAD PUSH32 0x8C379A000000000000000000000000000000000000000000000000000000000 DUP2 MSTORE PUSH1 0x4 ADD PUSH2 0x754 SWAP1 PUSH2 0x12C2 JUMP JUMPDEST PUSH1 0x40 MLOAD DUP1 SWAP2 SUB SWAP1 REVERT JUMPDEST PUSH1 0x2 PUSH0 SWAP1 SLOAD SWAP1 PUSH2 0x100 EXP SWAP1 DIV PUSH1 0xFF AND ISZERO PUSH2 0x7AC JUMPI PUSH1 0x40 MLOAD PUSH32 0x8C379A000000000000000000000000000000000000000000000000000000000 DUP2 MSTORE PUSH1 0x4 ADD PUSH2 0x7A3 SWAP1 PUSH2 0x11F2 JUMP JUMPDEST PUSH1 0x40 MLOAD DUP1 SWAP2 SUB SWAP1 REVERT JUMPDEST PUSH1 0x1 PUSH1 0x2 PUSH0 PUSH2 0x100 EXP DUP2 SLOAD DUP2 PUSH1 0xFF MUL NOT AND SWAP1 DUP4 ISZERO ISZERO MUL OR SWAP1 SSTORE POP DUP5 PUSH1 0x1 PUSH0 DUP9 PUSH20 0xFFFFFFFFFFFFFFFFFFFFFFFFFFFFFFFFFFFFFFFF AND PUSH20 0xFFFFFFFFFFFFFFFFFFFFFFFFFFFFFFFFFFFFFFFF AND DUP2 MSTORE PUSH1 0x20 ADD SWAP1 DUP2 MSTORE PUSH1 0x20 ADD PUSH0 KECCAK256 PUSH0 DUP3 DUP3 SLOAD PUSH2 0x812 SWAP2 SWAP1 PUSH2 0x12E0 JUMP JUMPDEST SWAP3 POP POP DUP2 SWAP1 SSTORE POP DUP5 PUSH0 DUP1 DUP3 DUP3 SLOAD PUSH2 0x829 SWAP2 SWAP1 PUSH2 0x12E0 JUMP JUMPDEST SWAP3 POP POP DUP2 SWAP1 SSTORE POP DUP6 PUSH20 0xFFFFFFFFFFFFFFFFFFFFFFFFFFFFFFFFFFFFFFFF AND PUSH32 0xCC16F5DBB4873280815C1EE09DBD06736CFFCC184412CF7A71A0FDB75D397CA5 DUP7 PUSH1 0x40 MLOAD PUSH2 0x876 SWAP2 SWAP1 PUSH2 0xDEC JUMP JUMPDEST PUSH1 0x40 MLOAD DUP1 SWAP2 SUB SWAP1 LOG2 PUSH0 PUSH1 0x2 PUSH0 PUSH2 0x100 EXP DUP2 SLOAD DUP2 PUSH1 0xFF MUL NOT AND SWAP1 DUP4 ISZERO ISZERO MUL OR SWAP1 SSTORE POP POP POP POP POP POP POP JUMP JUMPDEST CALLER PUSH0 PUSH20 0xFFFFFFFFFFFFFFFFFFFFFFFFFFFFFFFFFFFFFFFF AND DUP2 PUSH20 0xFFFFFFFFFFFFFFFFFFFFFFFFFFFFFFFFFFFFFFFF AND SUB PUSH2 0x90E JUMPI PUSH1 0x40 MLOAD PUSH32 0x8C379A000000000000000000000000000000000000000000000000000000000 DUP2 MSTORE PUSH1 0x4 ADD PUSH2 0x905 SWAP1 PUSH2 0xF08 JUMP JUMPDEST PUSH1 0x40 MLOAD DUP1 SWAP2 SUB SWAP1 REVERT JUMPDEST DUP3 PUSH0 PUSH20 0xFFFFFFFFFFFFFFFFFFFFFFFFFFFFFFFFFFFFFFFF AND DUP2 PUSH20 0xFFFFFFFFFFFFFFFFFFFFFFFFFFFFFFFFFFFFFFFF AND SUB PUSH2 0x97D JUMPI PUSH1 0x40 MLOAD PUSH32 0x8C379A000000000000000000000000000000000000000000000000000000000 DUP2 MSTORE PUSH1 0x4 ADD PUSH2 0x974 SWAP1 PUSH2 0xF08 JUMP JUMPDEST PUSH1 0x40 MLOAD DUP1 SWAP2 SUB SWAP1 REVERT JUMPDEST CALLER DUP4 DUP1 PUSH1 0x1 PUSH0 DUP5 PUSH20 0xFFFFFFFFFFFFFFFFFFFFFFFFFFFFFFFFFFFFFFFF AND PUSH20 0xFFFFFFFFFFFFFFFFFFFFFFFFFFFFFFFFFFFFFFFF AND DUP2 MSTORE PUSH1 0x20 ADD SWAP1 DUP2 MSTORE PUSH1 0x20 ADD PUSH0 KECCAK256 SLOAD LT ISZERO PUSH2 0x9FF JUMPI PUSH1 0x40 MLOAD PUSH32 0x8C379A000000000000000000000000000000000000000000000000000000000 DUP2 MSTORE PUSH1 0x4 ADD PUSH2 0x9F6 SWAP1 PUSH2 0x125A JUMP JUMPDEST PUSH1 0x40 MLOAD DUP1 SWAP2 SUB SWAP1 REVERT JUMPDEST PUSH1 0x2 PUSH0 SWAP1 SLOAD SWAP1 PUSH2 0x100 EXP SWAP1 DIV PUSH1 0xFF AND ISZERO PUSH2 0xA4E JUMPI PUSH1 0x40 MLOAD PUSH32 0x8C379A000000000000000000000000000000000000000000000000000000000 DUP2 MSTORE PUSH1 0x4 ADD PUSH2 0xA45 SWAP1 PUSH2 0x11F2 JUMP JUMPDEST PUSH1 0x40 MLOAD DUP1 SWAP2 SUB SWAP1 REVERT JUMPDEST PUSH1 0x1 PUSH1 0x2 PUSH0 PUSH2 0x100 EXP DUP2 SLOAD DUP2 PUSH1 0xFF MUL NOT AND SWAP1 DUP4 ISZERO ISZERO MUL OR SWAP1 SSTORE POP DUP5 PUSH1 0x1 PUSH0 CALLER PUSH20 0xFFFFFFFFFFFFFFFFFFFFFFFFFFFFFFFFFFFFFFFF AND PUSH20 0xFFFFFFFFFFFFFFFFFFFFFFFFFFFFFFFFFFFFFFFF AND DUP2 MSTORE PUSH1 0x20 ADD SWAP1 DUP2 MSTORE PUSH1 0x20 ADD PUSH0 KECCAK256 PUSH0 DUP3 DUP3 SLOAD PUSH2 0xAB4 SWAP2 SWAP1 PUSH2 0x12E0 JUMP JUMPDEST SWAP3 POP POP DUP2 SWAP1 SSTORE POP DUP5 PUSH1 0x1 PUSH0 DUP9 PUSH20 0xFFFFFFFFFFFFFFFFFFFFFFFFFFFFFFFFFFFFFFFF AND PUSH20 0xFFFFFFFFFFFFFFFFFFFFFFFFFFFFFFFFFFFFFFFF AND DUP2 MSTORE PUSH1 0x20 ADD SWAP1 DUP2 MSTORE PUSH1 0x20 ADD PUSH0 KECCAK256 PUSH0 DUP3 DUP3 SLOAD PUSH2 0xB07 SWAP2 SWAP1 PUSH2 0x110D JUMP JUMPDEST SWAP3 POP POP DUP2 SWAP1 SSTORE POP DUP6 PUSH20 0xFFFFFFFFFFFFFFFFFFFFFFFFFFFFFFFFFFFFFFFF AND CALLER PUSH20 0xFFFFFFFFFFFFFFFFFFFFFFFFFFFFFFFFFFFFFFFF AND PUSH32 0xDDF252AD1BE2C89B69C2B068FC378DAA952BA7F163C4A11628F55A4DF523B3EF DUP8 PUSH1 0x40 MLOAD PUSH2 0xB6B SWAP2 SWAP1 PUSH2 0xDEC JUMP JUMPDEST PUSH1 0x40 MLOAD DUP1 SWAP2 SUB SWAP1 LOG3 PUSH0 PUSH1 0x2 PUSH0 PUSH2 0x100 EXP DUP2 SLOAD DUP2 PUSH1 0xFF MUL NOT AND SWAP1 DUP4 ISZERO ISZERO MUL OR SWAP1 SSTORE POP POP POP POP POP POP POP JUMP JUMPDEST PUSH0 DUP2 PUSH0 PUSH20 0xFFFFFFFFFFFFFFFFFFFFFFFFFFFFFFFFFFFFFFFF AND DUP2 PUSH20 0xFFFFFFFFFFFFFFFFFFFFFFFFFFFFFFFFFFFFFFFF AND SUB PUSH2 0xC04 JUMPI PUSH1 0x40 MLOAD PUSH32 0x8C379A000000000000000000000000000000000000000000000000000000000 DUP2 MSTORE PUSH1 0x4 ADD PUSH2 0xBFB SWAP1 PUSH2 0xF08 JUMP JUMPDEST PUSH1 0x40 MLOAD DUP1 SWAP2 SUB SWAP1 REVERT JUMPDEST PUSH1 0x1 PUSH0 DUP5 PUSH20 0xFFFFFFFFFFFFFFFFFFFFFFFFFFFFFFFFFFFFFFFF AND PUSH20 0xFFFFFFFFFFFFFFFFFFFFFFFFFFFFFFFFFFFFFFFF AND DUP2 MSTORE PUSH1 0x20 ADD SWAP1 DUP2 MSTORE PUSH1 0x20 ADD PUSH0 KECCAK256 SLOAD SWAP2 POP POP SWAP2 SWAP1 POP JUMP JUMPDEST PUSH0 DUP2 MLOAD SWAP1 POP SWAP2 SWAP1 POP JUMP JUMPDEST PUSH0 DUP3 DUP3 MSTORE PUSH1 0x20 DUP3 ADD SWAP1 POP SWAP3 SWAP2 POP POP JUMP JUMPDEST DUP3 DUP2 DUP4 MCOPY PUSH0 DUP4 DUP4 ADD MSTORE POP POP POP JUMP JUMPDEST PUSH0 PUSH1 0x1F NOT PUSH1 0x1F DUP4 ADD AND SWAP1 POP SWAP2 SWAP1 POP JUMP JUMPDEST PUSH0 PUSH2 0xC8C DUP3 PUSH2 0xC4A JUMP JUMPDEST PUSH2 0xC96 DUP2 DUP6 PUSH2 0xC54 JUMP JUMPDEST SWAP4 POP PUSH2 0xCA6 DUP2 DUP6 PUSH1 0x20 DUP7 ADD PUSH2 0xC64 JUMP JUMPDEST PUSH2 0xCAF DUP2 PUSH2 0xC72 JUMP JUMPDEST DUP5 ADD SWAP2 POP POP SWAP3 SWAP2 POP POP JUMP JUMPDEST PUSH0 PUSH1 0x20 DUP3 ADD SWAP1 POP DUP2 DUP2 SUB PUSH0 DUP4 ADD MSTORE PUSH2 0xCD2 DUP2 DUP5 PUSH2 0xC82 JUMP JUMPDEST SWAP1 POP SWAP3 SWAP2 POP POP JUMP JUMPDEST PUSH0 PUSH1 0xFF DUP3 AND SWAP1 POP SWAP2 SWAP1 POP JUMP JUMPDEST PUSH2 0xCEF DUP2 PUSH2 0xCDA JUMP JUMPDEST DUP3 MSTORE POP POP JUMP JUMPDEST PUSH0 PUSH1 0x20 DUP3 ADD SWAP1 POP PUSH2 0xD08 PUSH0 DUP4 ADD DUP5 PUSH2 0xCE6 JUMP JUMPDEST SWAP3 SWAP2 POP POP JUMP JUMPDEST PUSH0 DUP1 REVERT JUMPDEST PUSH0 PUSH20 0xFFFFFFFFFFFFFFFFFFFFFFFFFFFFFFFFFFFFFFFF DUP3 AND SWAP1 POP SWAP2 SWAP1 POP JUMP JUMPDEST PUSH0 PUSH2 0xD3B DUP3 PUSH2 0xD12 JUMP JUMPDEST SWAP1 POP SWAP2 SWAP1 POP JUMP JUMPDEST PUSH2 0xD4B DUP2 PUSH2 0xD31 JUMP JUMPDEST DUP2 EQ PUSH2 0xD55 JUMPI PUSH0 DUP1 REVERT JUMPDEST POP JUMP JUMPDEST PUSH0 DUP2 CALLDATALOAD SWAP1 POP PUSH2 0xD66 DUP2 PUSH2 0xD42 JUMP JUMPDEST SWAP3 SWAP2 POP POP JUMP JUMPDEST PUSH0 DUP2 SWAP1 POP SWAP2 SWAP1 POP JUMP JUMPDEST PUSH2 0xD7E DUP2 PUSH2 0xD6C JUMP JUMPDEST DUP2 EQ PUSH2 0xD88 JUMPI PUSH0 DUP1 REVERT JUMPDEST POP JUMP JUMPDEST PUSH0 DUP2 CALLDATALOAD SWAP1 POP PUSH2 0xD99 DUP2 PUSH2 0xD75 JUMP JUMPDEST SWAP3 SWAP2 POP POP JUMP JUMPDEST PUSH0 DUP1 PUSH1 0x40 DUP4 DUP6 SUB SLT ISZERO PUSH2 0xDB5 JUMPI PUSH2 0xDB4 PUSH2 0xD0E JUMP JUMPDEST JUMPDEST PUSH0 PUSH2 0xDC2 DUP6 DUP3 DUP7 ADD PUSH2 0xD58 JUMP JUMPDEST SWAP3 POP POP PUSH1 0x20 PUSH2 0xDD3 DUP6 DUP3 DUP7 ADD PUSH2 0xD8B JUMP JUMPDEST SWAP2 POP POP SWAP3 POP SWAP3 SWAP1 POP JUMP JUMPDEST PUSH2 0xDE6 DUP2 PUSH2 0xD6C JUMP JUMPDEST DUP3 MSTORE POP POP JUMP JUMPDEST PUSH0 PUSH1 0x20 DUP3 ADD SWAP1 POP PUSH2 0xDFF PUSH0 DUP4 ADD DUP5 PUSH2 0xDDD JUMP JUMPDEST SWAP3 SWAP2 POP POP JUMP JUMPDEST PUSH0 PUSH1 0x20 DUP3 DUP5 SUB SLT ISZERO PUSH2 0xE1A JUMPI PUSH2 0xE19 PUSH2 0xD0E JUMP JUMPDEST JUMPDEST PUSH0 PUSH2 0xE27 DUP5 DUP3 DUP6 ADD PUSH2 0xD58 JUMP JUMPDEST SWAP2 POP POP SWAP3 SWAP2 POP POP JUMP JUMPDEST PUSH32 0x4F6E6C79206F776E65722063616E20616363657373207468697320616374696F PUSH0 DUP3 ADD MSTORE PUSH32 0x6E2E000000000000000000000000000000000000000000000000000000000000 PUSH1 0x20 DUP3 ADD MSTORE POP JUMP JUMPDEST PUSH0 PUSH2 0xE8A PUSH1 0x22 DUP4 PUSH2 0xC54 JUMP JUMPDEST SWAP2 POP PUSH2 0xE95 DUP3 PUSH2 0xE30 JUMP JUMPDEST PUSH1 0x40 DUP3 ADD SWAP1 POP SWAP2 SWAP1 POP JUMP JUMPDEST PUSH0 PUSH1 0x20 DUP3 ADD SWAP1 POP DUP2 DUP2 SUB PUSH0 DUP4 ADD MSTORE PUSH2 0xEB7 DUP2 PUSH2 0xE7E JUMP JUMPDEST SWAP1 POP SWAP2 SWAP1 POP JUMP JUMPDEST PUSH32 0x4D757374207370656369667920612076616C696420616464726573732E000000 PUSH0 DUP3 ADD MSTORE POP JUMP JUMPDEST PUSH0 PUSH2 0xEF2 PUSH1 0x1D DUP4 PUSH2 0xC54 JUMP JUMPDEST SWAP2 POP PUSH2 0xEFD DUP3 PUSH2 0xEBE JUMP JUMPDEST PUSH1 0x20 DUP3 ADD SWAP1 POP SWAP2 SWAP1 POP JUMP JUMPDEST PUSH0 PUSH1 0x20 DUP3 ADD SWAP1 POP DUP2 DUP2 SUB PUSH0 DUP4 ADD MSTORE PUSH2 0xF1F DUP2 PUSH2 0xEE6 JUMP JUMPDEST SWAP1 POP SWAP2 SWAP1 POP JUMP JUMPDEST PUSH32 0x4E487B7100000000000000000000000000000000000000000000000000000000 PUSH0 MSTORE PUSH1 0x11 PUSH1 0x4 MSTORE PUSH1 0x24 PUSH0 REVERT JUMPDEST PUSH0 DUP2 PUSH1 0x1 SHR SWAP1 POP SWAP2 SWAP1 POP JUMP JUMPDEST PUSH0 DUP1 DUP3 SWAP2 POP DUP4 SWAP1 POP JUMPDEST PUSH1 0x1 DUP6 GT ISZERO PUSH2 0xFA8 JUMPI DUP1 DUP7 DIV DUP2 GT ISZERO PUSH2 0xF84 JUMPI PUSH2 0xF83 PUSH2 0xF26 JUMP JUMPDEST JUMPDEST PUSH1 0x1 DUP6 AND ISZERO PUSH2 0xF93 JUMPI DUP1 DUP3 MUL SWAP2 POP JUMPDEST DUP1 DUP2 MUL SWAP1 POP PUSH2 0xFA1 DUP6 PUSH2 0xF53 JUMP JUMPDEST SWAP5 POP PUSH2 0xF68 JUMP JUMPDEST SWAP5 POP SWAP5 SWAP3 POP POP POP JUMP JUMPDEST PUSH0 DUP3 PUSH2 0xFC0 JUMPI PUSH1 0x1 SWAP1 POP PUSH2 0x107B JUMP JUMPDEST DUP2 PUSH2 0xFCD JUMPI PUSH0 SWAP1 POP PUSH2 0x107B JUMP JUMPDEST DUP2 PUSH1 0x1 DUP2 EQ PUSH2 0xFE3 JUMPI PUSH1 0x2 DUP2 EQ PUSH2 0xFED JUMPI PUSH2 0x101C JUMP JUMPDEST PUSH1 0x1 SWAP2 POP POP PUSH2 0x107B JUMP JUMPDEST PUSH1 0xFF DUP5 GT ISZERO PUSH2 0xFFF JUMPI PUSH2 0xFFE PUSH2 0xF26 JUMP JUMPDEST JUMPDEST DUP4 PUSH1 0x2 EXP SWAP2 POP DUP5 DUP3 GT ISZERO PUSH2 0x1016 JUMPI PUSH2 0x1015 PUSH2 0xF26 JUMP JUMPDEST JUMPDEST POP PUSH2 0x107B JUMP JUMPDEST POP PUSH1 0x20 DUP4 LT PUSH2 0x133 DUP4 LT AND PUSH1 0x4E DUP5 LT PUSH1 0xB DUP5 LT AND OR ISZERO PUSH2 0x1051 JUMPI DUP3 DUP3 EXP SWAP1 POP DUP4 DUP2 GT ISZERO PUSH2 0x104C JUMPI PUSH2 0x104B PUSH2 0xF26 JUMP JUMPDEST JUMPDEST PUSH2 0x107B JUMP JUMPDEST PUSH2 0x105E DUP5 DUP5 DUP5 PUSH1 0x1 PUSH2 0xF5F JUMP JUMPDEST SWAP3 POP SWAP1 POP DUP2 DUP5 DIV DUP2 GT ISZERO PUSH2 0x1075 JUMPI PUSH2 0x1074 PUSH2 0xF26 JUMP JUMPDEST JUMPDEST DUP2 DUP2 MUL SWAP1 POP JUMPDEST SWAP4 SWAP3 POP POP POP JUMP JUMPDEST PUSH0 PUSH2 0x108C DUP3 PUSH2 0xD6C JUMP JUMPDEST SWAP2 POP PUSH2 0x1097 DUP4 PUSH2 0xD6C JUMP JUMPDEST SWAP3 POP PUSH2 0x10C4 PUSH32 0xFFFFFFFFFFFFFFFFFFFFFFFFFFFFFFFFFFFFFFFFFFFFFFFFFFFFFFFFFFFFFFFF DUP5 DUP5 PUSH2 0xFB1 JUMP JUMPDEST SWAP1 POP SWAP3 SWAP2 POP POP JUMP JUMPDEST PUSH0 PUSH2 0x10D6 DUP3 PUSH2 0xD6C JUMP JUMPDEST SWAP2 POP PUSH2 0x10E1 DUP4 PUSH2 0xD6C JUMP JUMPDEST SWAP3 POP DUP3 DUP3 MUL PUSH2 0x10EF DUP2 PUSH2 0xD6C JUMP JUMPDEST SWAP2 POP DUP3 DUP3 DIV DUP5 EQ DUP4 ISZERO OR PUSH2 0x1106 JUMPI PUSH2 0x1105 PUSH2 0xF26 JUMP JUMPDEST JUMPDEST POP SWAP3 SWAP2 POP POP JUMP JUMPDEST PUSH0 PUSH2 0x1117 DUP3 PUSH2 0xD6C JUMP JUMPDEST SWAP2 POP PUSH2 0x1122 DUP4 PUSH2 0xD6C JUMP JUMPDEST SWAP3 POP DUP3 DUP3 ADD SWAP1 POP DUP1 DUP3 GT ISZERO PUSH2 0x113A JUMPI PUSH2 0x1139 PUSH2 0xF26 JUMP JUMPDEST JUMPDEST SWAP3 SWAP2 POP POP JUMP JUMPDEST PUSH32 0x496E73756666696369656E74206D617820737570706C79000000000000000000 PUSH0 DUP3 ADD MSTORE POP JUMP JUMPDEST PUSH0 PUSH2 0x1174 PUSH1 0x17 DUP4 PUSH2 0xC54 JUMP JUMPDEST SWAP2 POP PUSH2 0x117F DUP3 PUSH2 0x1140 JUMP JUMPDEST PUSH1 0x20 DUP3 ADD SWAP1 POP SWAP2 SWAP1 POP JUMP JUMPDEST PUSH0 PUSH1 0x20 DUP3 ADD SWAP1 POP DUP2 DUP2 SUB PUSH0 DUP4 ADD MSTORE PUSH2 0x11A1 DUP2 PUSH2 0x1168 JUMP JUMPDEST SWAP1 POP SWAP2 SWAP1 POP JUMP JUMPDEST PUSH32 0x52656E7472616E742063616C6C7320617265206E6F7420616C6C6F7765642E00 PUSH0 DUP3 ADD MSTORE POP JUMP JUMPDEST PUSH0 PUSH2 0x11DC PUSH1 0x1F DUP4 PUSH2 0xC54 JUMP JUMPDEST SWAP2 POP PUSH2 0x11E7 DUP3 PUSH2 0x11A8 JUMP JUMPDEST PUSH1 0x20 DUP3 ADD SWAP1 POP SWAP2 SWAP1 POP JUMP JUMPDEST PUSH0 PUSH1 0x20 DUP3 ADD SWAP1 POP DUP2 DUP2 SUB PUSH0 DUP4 ADD MSTORE PUSH2 0x1209 DUP2 PUSH2 0x11D0 JUMP JUMPDEST SWAP1 POP SWAP2 SWAP1 POP JUMP JUMPDEST PUSH32 0x496E73756666696369656E742066756E647320746F206275726E000000000000 PUSH0 DUP3 ADD MSTORE POP JUMP JUMPDEST PUSH0 PUSH2 0x1244 PUSH1 0x1A DUP4 PUSH2 0xC54 JUMP JUMPDEST SWAP2 POP PUSH2 0x124F DUP3 PUSH2 0x1210 JUMP JUMPDEST PUSH1 0x20 DUP3 ADD SWAP1 POP SWAP2 SWAP1 POP JUMP JUMPDEST PUSH0 PUSH1 0x20 DUP3 ADD SWAP1 POP DUP2 DUP2 SUB PUSH0 DUP4 ADD MSTORE PUSH2 0x1271 DUP2 PUSH2 0x1238 JUMP JUMPDEST SWAP1 POP SWAP2 SWAP1 POP JUMP JUMPDEST PUSH32 0x496E73756666696369656E7420746F74616C20737570706C7900000000000000 PUSH0 DUP3 ADD MSTORE POP JUMP JUMPDEST PUSH0 PUSH2 0x12AC PUSH1 0x19 DUP4 PUSH2 0xC54 JUMP JUMPDEST SWAP2 POP PUSH2 0x12B7 DUP3 PUSH2 0x1278 JUMP JUMPDEST PUSH1 0x20 DUP3 ADD SWAP1 POP SWAP2 SWAP1 POP JUMP JUMPDEST PUSH0 PUSH1 0x20 DUP3 ADD SWAP1 POP DUP2 DUP2 SUB PUSH0 DUP4 ADD MSTORE PUSH2 0x12D9 DUP2 PUSH2 0x12A0 JUMP JUMPDEST SWAP1 POP SWAP2 SWAP1 POP JUMP JUMPDEST PUSH0 PUSH2 0x12EA DUP3 PUSH2 0xD6C JUMP JUMPDEST SWAP2 POP PUSH2 0x12F5 DUP4 PUSH2 0xD6C JUMP JUMPDEST SWAP3 POP DUP3 DUP3 SUB SWAP1 POP DUP2 DUP2 GT ISZERO PUSH2 0x130D JUMPI PUSH2 0x130C PUSH2 0xF26 JUMP JUMPDEST JUMPDEST SWAP3 SWAP2 POP POP JUMP INVALID LOG2 PUSH5 0x6970667358 0x22 SLT KECCAK256 0x4E CALLDATASIZE PUSH19 0x3790C60721950228380305D17C2BD11CBE759C DUP5 JUMPI CODESIZE 0xC8 0xA9 0x2D 0xD7 0xB0 CHAINID PUSH3 0x64736F PUSH13 0x634300081A0033000000000000 "
				},
				"gasEstimates": {
					"creation": {
						"codeDepositCost": "987400",
						"executionCost": "infinite",
						"totalCost": "infinite"
					},
					"external": {
						"balance(address)": "2956",
						"burn(address,uint256)": "infinite",
						"decimals()": "354",
						"max_supply()": "infinite",
						"mint(address,uint256)": "infinite",
						"token_name()": "infinite",
						"token_symbol()": "infinite",
						"transfer(address,uint256)": "infinite",
						"withdraw()": "infinite"
					}
				},
				"methodIdentifiers": {
					"balance(address)": "e3d670d7",
					"burn(address,uint256)": "9dc29fac",
					"decimals()": "313ce567",
					"max_supply()": "8a333b50",
					"mint(address,uint256)": "40c10f19",
					"token_name()": "947a3168",
					"token_symbol()": "1f772a34",
					"transfer(address,uint256)": "a9059cbb",
					"withdraw()": "3ccfd60b"
				}
			},
			"storageLayout": {
				"storage": [
					{
						"astId": 28,
						"contract": "contracts/MyOtherToken.sol:MyOtherToken",
						"label": "total_supply",
						"offset": 0,
						"slot": "0",
						"type": "t_uint256"
					},
					{
						"astId": 32,
						"contract": "contracts/MyOtherToken.sol:MyOtherToken",
						"label": "balances",
						"offset": 0,
						"slot": "1",
						"type": "t_mapping(t_address,t_uint256)"
					},
					{
						"astId": 35,
						"contract": "contracts/MyOtherToken.sol:MyOtherToken",
						"label": "locked",
						"offset": 0,
						"slot": "2",
						"type": "t_bool"
					}
				],
				"types": {
					"t_address": {
						"encoding": "inplace",
						"label": "address",
						"numberOfBytes": "20"
					},
					"t_bool": {
						"encoding": "inplace",
						"label": "bool",
						"numberOfBytes": "1"
					},
					"t_mapping(t_address,t_uint256)": {
						"encoding": "mapping",
						"key": "t_address",
						"label": "mapping(address => uint256)",
						"numberOfBytes": "32",
						"value": "t_uint256"
					},
					"t_uint256": {
						"encoding": "inplace",
						"label": "uint256",
						"numberOfBytes": "32"
					}
				}
			},
			"userdoc": {
				"kind": "user",
				"methods": {},
				"version": 1
			}
		}
	}
}