{
	"contracts/MyToken.sol": {
		"BSideToken": {
			"abi": [
				{
					"inputs": [
						{
							"internalType": "uint256",
							"name": "initial_supply",
							"type": "uint256"
						}
					],
					"stateMutability": "nonpayable",
					"type": "constructor"
				},
				{
					"anonymous": false,
					"inputs": [
						{
							"indexed": true,
							"internalType": "address",
							"name": "from",
							"type": "address"
						},
						{
							"indexed": false,
							"internalType": "uint256",
							"name": "value",
							"type": "uint256"
						}
					],
					"name": "Burn",
					"type": "event"
				},
				{
					"anonymous": false,
					"inputs": [
						{
							"indexed": true,
							"internalType": "address",
							"name": "to",
							"type": "address"
						},
						{
							"indexed": false,
							"internalType": "uint256",
							"name": "value",
							"type": "uint256"
						}
					],
					"name": "Mint",
					"type": "event"
				},
				{
					"anonymous": false,
					"inputs": [
						{
							"indexed": true,
							"internalType": "address",
							"name": "from",
							"type": "address"
						},
						{
							"indexed": true,
							"internalType": "address",
							"name": "to",
							"type": "address"
						},
						{
							"indexed": false,
							"internalType": "uint256",
							"name": "value",
							"type": "uint256"
						}
					],
					"name": "Transfer",
					"type": "event"
				},
				{
					"inputs": [
						{
							"internalType": "address",
							"name": "",
							"type": "address"
						}
					],
					"name": "balance_of",
					"outputs": [
						{
							"internalType": "uint256",
							"name": "",
							"type": "uint256"
						}
					],
					"stateMutability": "view",
					"type": "function"
				},
				{
					"inputs": [
						{
							"internalType": "address",
							"name": "from_",
							"type": "address"
						},
						{
							"internalType": "uint256",
							"name": "amount_",
							"type": "uint256"
						}
					],
					"name": "burn",
					"outputs": [],
					"stateMutability": "nonpayable",
					"type": "function"
				},
				{
					"inputs": [],
					"name": "decimals",
					"outputs": [
						{
							"internalType": "uint8",
							"name": "",
							"type": "uint8"
						}
					],
					"stateMutability": "view",
					"type": "function"
				},
				{
					"inputs": [
						{
							"internalType": "address",
							"name": "account_",
							"type": "address"
						}
					],
					"name": "get_balance",
					"outputs": [
						{
							"internalType": "uint256",
							"name": "",
							"type": "uint256"
						}
					],
					"stateMutability": "view",
					"type": "function"
				},
				{
					"inputs": [],
					"name": "max_supply",
					"outputs": [
						{
							"internalType": "uint256",
							"name": "",
							"type": "uint256"
						}
					],
					"stateMutability": "view",
					"type": "function"
				},
				{
					"inputs": [
						{
							"internalType": "address",
							"name": "to_",
							"type": "address"
						},
						{
							"internalType": "uint256",
							"name": "amount_",
							"type": "uint256"
						}
					],
					"name": "mint",
					"outputs": [],
					"stateMutability": "nonpayable",
					"type": "function"
				},
				{
					"inputs": [],
					"name": "name",
					"outputs": [
						{
							"internalType": "string",
							"name": "",
							"type": "string"
						}
					],
					"stateMutability": "view",
					"type": "function"
				},
				{
					"inputs": [],
					"name": "owner",
					"outputs": [
						{
							"internalType": "address",
							"name": "",
							"type": "address"
						}
					],
					"stateMutability": "view",
					"type": "function"
				},
				{
					"inputs": [],
					"name": "symbol",
					"outputs": [
						{
							"internalType": "string",
							"name": "",
							"type": "string"
						}
					],
					"stateMutability": "view",
					"type": "function"
				},
				{
					"inputs": [],
					"name": "total_supply",
					"outputs": [
						{
							"internalType": "uint256",
							"name": "",
							"type": "uint256"
						}
					],
					"stateMutability": "view",
					"type": "function"
				},
				{
					"inputs": [
						{
							"internalType": "address",
							"name": "to_",
							"type": "address"
						},
						{
							"internalType": "uint256",
							"name": "amount_",
							"type": "uint256"
						}
					],
					"name": "transfer",
					"outputs": [
						{
							"internalType": "bool",
							"name": "",
							"type": "bool"
						}
					],
					"stateMutability": "nonpayable",
					"type": "function"
				},
				{
					"inputs": [],
					"name": "withdraw_ether",
					"outputs": [],
					"stateMutability": "nonpayable",
					"type": "function"
				},
				{
					"stateMutability": "payable",
					"type": "receive"
				}
			],
			"devdoc": {
				"kind": "dev",
				"methods": {},
				"version": 1
			},
			"evm": {
				"assembly": "    /* \"contracts/MyToken.sol\":58:3780  contract BSideToken {... */\n  mstore(0x40, 0xa0)\n    /* \"contracts/MyToken.sol\":500:501  0 */\n  0x00\n    /* \"contracts/MyToken.sol\":470:501  uint256 public total_supply = 0 */\n  dup1\n  sstore\n    /* \"contracts/MyToken.sol\":582:587  false */\n  0x00\n    /* \"contracts/MyToken.sol\":560:587  bool private locked = false */\n  0x02\n  exp(0x0100, 0x00)\n  dup2\n  sload\n  dup2\n  0xff\n  mul\n  not\n  and\n  swap1\n  dup4\n  iszero\n  iszero\n  mul\n  or\n  swap1\n  sstore\n  pop\n    /* \"contracts/MyToken.sol\":894:1205  constructor(uint256 initial_supply) {... */\n  callvalue\n  dup1\n  iszero\n  tag_1\n  jumpi\n  0x00\n  dup1\n  revert\ntag_1:\n  pop\n  mload(0x40)\n  sub(codesize, bytecodeSize)\n  dup1\n  bytecodeSize\n  dup4\n  codecopy\n  dup2\n  dup2\n  add\n  0x40\n  mstore\n  dup2\n  add\n  swap1\n  tag_2\n  swap2\n  swap1\n  tag_3\n  jump\t// in\ntag_2:\n    /* \"contracts/MyToken.sol\":229:231  18 */\n  0x12\n    /* \"contracts/MyToken.sol\":290:307  uint256(decimals) */\n  0xff\n  and\n    /* \"contracts/MyToken.sol\":286:288  10 */\n  0x0a\n    /* \"contracts/MyToken.sol\":286:307  10**uint256(decimals) */\n  tag_6\n  swap2\n  swap1\n  tag_7\n  jump\t// in\ntag_6:\n    /* \"contracts/MyToken.sol\":274:283  1_000_000 */\n  0x0f4240\n    /* \"contracts/MyToken.sol\":274:307  1_000_000 * 10**uint256(decimals) */\n  tag_8\n  swap2\n  swap1\n  tag_9\n  jump\t// in\ntag_8:\n    /* \"contracts/MyToken.sol\":229:231  18 */\n  0x12\n    /* \"contracts/MyToken.sol\":982:999  uint256(decimals) */\n  0xff\n  and\n    /* \"contracts/MyToken.sol\":978:980  10 */\n  0x0a\n    /* \"contracts/MyToken.sol\":978:999  10**uint256(decimals) */\n  tag_10\n  swap2\n  swap1\n  tag_7\n  jump\t// in\ntag_10:\n    /* \"contracts/MyToken.sol\":961:975  initial_supply */\n  dup3\n    /* \"contracts/MyToken.sol\":961:999  initial_supply * 10**uint256(decimals) */\n  tag_11\n  swap2\n  swap1\n  tag_9\n  jump\t// in\ntag_11:\n    /* \"contracts/MyToken.sol\":961:1013  initial_supply * 10**uint256(decimals) <= max_supply */\n  gt\n  iszero\n    /* \"contracts/MyToken.sol\":940:1083  require(... */\n  tag_12\n  jumpi\n  mload(0x40)\n  0x08c379a000000000000000000000000000000000000000000000000000000000\n  dup2\n  mstore\n  0x04\n  add\n  tag_13\n  swap1\n  tag_14\n  jump\t// in\ntag_13:\n  mload(0x40)\n  dup1\n  swap2\n  sub\n  swap1\n  revert\ntag_12:\n    /* \"contracts/MyToken.sol\":1101:1111  msg.sender */\n  caller\n    /* \"contracts/MyToken.sol\":1093:1111  owner = msg.sender */\n  0xffffffffffffffffffffffffffffffffffffffff\n  and\n  0x80\n  dup2\n  0xffffffffffffffffffffffffffffffffffffffff\n  and\n  dup2\n  mstore\n  pop\n  pop\n    /* \"contracts/MyToken.sol\":1146:1198  mint_(owner, initial_supply * 10**uint256(decimals)) */\n  tag_15\n    /* \"contracts/MyToken.sol\":1152:1157  owner */\n  mload(0x80)\n    /* \"contracts/MyToken.sol\":229:231  18 */\n  0x12\n    /* \"contracts/MyToken.sol\":1180:1197  uint256(decimals) */\n  0xff\n  and\n    /* \"contracts/MyToken.sol\":1176:1178  10 */\n  0x0a\n    /* \"contracts/MyToken.sol\":1176:1197  10**uint256(decimals) */\n  tag_16\n  swap2\n  swap1\n  tag_7\n  jump\t// in\ntag_16:\n    /* \"contracts/MyToken.sol\":1159:1173  initial_supply */\n  dup4\n    /* \"contracts/MyToken.sol\":1159:1197  initial_supply * 10**uint256(decimals) */\n  tag_17\n  swap2\n  swap1\n  tag_9\n  jump\t// in\ntag_17:\n    /* \"contracts/MyToken.sol\":1146:1151  mint_ */\n  shl(0x20, tag_18)\n    /* \"contracts/MyToken.sol\":1146:1198  mint_(owner, initial_supply * 10**uint256(decimals)) */\n  0x20\n  shr\n  jump\t// in\ntag_15:\n    /* \"contracts/MyToken.sol\":894:1205  constructor(uint256 initial_supply) {... */\n  pop\n    /* \"contracts/MyToken.sol\":58:3780  contract BSideToken {... */\n  jump(tag_19)\n    /* \"contracts/MyToken.sol\":1764:2093  function mint_(address to_, uint256 amount_) internal {... */\ntag_18:\n    /* \"contracts/MyToken.sol\":229:231  18 */\n  0x12\n    /* \"contracts/MyToken.sol\":290:307  uint256(decimals) */\n  0xff\n  and\n    /* \"contracts/MyToken.sol\":286:288  10 */\n  0x0a\n    /* \"contracts/MyToken.sol\":286:307  10**uint256(decimals) */\n  tag_21\n  swap2\n  swap1\n  tag_7\n  jump\t// in\ntag_21:\n    /* \"contracts/MyToken.sol\":274:283  1_000_000 */\n  0x0f4240\n    /* \"contracts/MyToken.sol\":274:307  1_000_000 * 10**uint256(decimals) */\n  tag_22\n  swap2\n  swap1\n  tag_9\n  jump\t// in\ntag_22:\n    /* \"contracts/MyToken.sol\":1864:1871  amount_ */\n  dup2\n    /* \"contracts/MyToken.sol\":1849:1861  total_supply */\n  sload(0x00)\n    /* \"contracts/MyToken.sol\":1849:1871  total_supply + amount_ */\n  tag_23\n  swap2\n  swap1\n  tag_24\n  jump\t// in\ntag_23:\n    /* \"contracts/MyToken.sol\":1849:1885  total_supply + amount_ <= max_supply */\n  gt\n  iszero\n    /* \"contracts/MyToken.sol\":1828:1935  require(... */\n  tag_25\n  jumpi\n  mload(0x40)\n  0x08c379a000000000000000000000000000000000000000000000000000000000\n  dup2\n  mstore\n  0x04\n  add\n  tag_26\n  swap1\n  tag_27\n  jump\t// in\ntag_26:\n  mload(0x40)\n  dup1\n  swap2\n  sub\n  swap1\n  revert\ntag_25:\n    /* \"contracts/MyToken.sol\":1961:1968  amount_ */\n  dup1\n    /* \"contracts/MyToken.sol\":1945:1957  total_supply */\n  0x00\n  dup1\n    /* \"contracts/MyToken.sol\":1945:1968  total_supply += amount_ */\n  dup3\n  dup3\n  sload\n  tag_28\n  swap2\n  swap1\n  tag_24\n  jump\t// in\ntag_28:\n  swap3\n  pop\n  pop\n  dup2\n  swap1\n  sstore\n  pop\n    /* \"contracts/MyToken.sol\":1997:2004  amount_ */\n  dup1\n    /* \"contracts/MyToken.sol\":1978:1988  balance_of */\n  0x01\n    /* \"contracts/MyToken.sol\":1978:1993  balance_of[to_] */\n  0x00\n    /* \"contracts/MyToken.sol\":1989:1992  to_ */\n  dup5\n    /* \"contracts/MyToken.sol\":1978:1993  balance_of[to_] */\n  0xffffffffffffffffffffffffffffffffffffffff\n  and\n  0xffffffffffffffffffffffffffffffffffffffff\n  and\n  dup2\n  mstore\n  0x20\n  add\n  swap1\n  dup2\n  mstore\n  0x20\n  add\n  0x00\n  keccak256\n  0x00\n    /* \"contracts/MyToken.sol\":1978:2004  balance_of[to_] += amount_ */\n  dup3\n  dup3\n  sload\n  tag_29\n  swap2\n  swap1\n  tag_24\n  jump\t// in\ntag_29:\n  swap3\n  pop\n  pop\n  dup2\n  swap1\n  sstore\n  pop\n    /* \"contracts/MyToken.sol\":2024:2027  to_ */\n  dup2\n    /* \"contracts/MyToken.sol\":2019:2037  Mint(to_, amount_) */\n  0xffffffffffffffffffffffffffffffffffffffff\n  and\n  0x0f6798a560793a54c3bcfe86a93cde1e73087d944c0ea20544137d4121396885\n    /* \"contracts/MyToken.sol\":2029:2036  amount_ */\n  dup3\n    /* \"contracts/MyToken.sol\":2019:2037  Mint(to_, amount_) */\n  mload(0x40)\n  tag_30\n  swap2\n  swap1\n  tag_31\n  jump\t// in\ntag_30:\n  mload(0x40)\n  dup1\n  swap2\n  sub\n  swap1\n  log2\n    /* \"contracts/MyToken.sol\":2073:2076  to_ */\n  dup2\n    /* \"contracts/MyToken.sol\":2052:2086  Transfer(address(0), to_, amount_) */\n  0xffffffffffffffffffffffffffffffffffffffff\n  and\n    /* \"contracts/MyToken.sol\":2069:2070  0 */\n  0x00\n    /* \"contracts/MyToken.sol\":2052:2086  Transfer(address(0), to_, amount_) */\n  0xffffffffffffffffffffffffffffffffffffffff\n  and\n  0xddf252ad1be2c89b69c2b068fc378daa952ba7f163c4a11628f55a4df523b3ef\n    /* \"contracts/MyToken.sol\":2078:2085  amount_ */\n  dup4\n    /* \"contracts/MyToken.sol\":2052:2086  Transfer(address(0), to_, amount_) */\n  mload(0x40)\n  tag_32\n  swap2\n  swap1\n  tag_31\n  jump\t// in\ntag_32:\n  mload(0x40)\n  dup1\n  swap2\n  sub\n  swap1\n  log3\n    /* \"contracts/MyToken.sol\":1764:2093  function mint_(address to_, uint256 amount_) internal {... */\n  pop\n  pop\n  jump\t// out\n    /* \"#utility.yul\":88:205   */\ntag_34:\n    /* \"#utility.yul\":197:198   */\n  0x00\n    /* \"#utility.yul\":194:195   */\n  dup1\n    /* \"#utility.yul\":187:199   */\n  revert\n    /* \"#utility.yul\":334:411   */\ntag_36:\n    /* \"#utility.yul\":371:378   */\n  0x00\n    /* \"#utility.yul\":400:405   */\n  dup2\n    /* \"#utility.yul\":389:405   */\n  swap1\n  pop\n    /* \"#utility.yul\":334:411   */\n  swap2\n  swap1\n  pop\n  jump\t// out\n    /* \"#utility.yul\":417:539   */\ntag_37:\n    /* \"#utility.yul\":490:514   */\n  tag_55\n    /* \"#utility.yul\":508:513   */\n  dup2\n    /* \"#utility.yul\":490:514   */\n  tag_36\n  jump\t// in\ntag_55:\n    /* \"#utility.yul\":483:488   */\n  dup2\n    /* \"#utility.yul\":480:515   */\n  eq\n    /* \"#utility.yul\":470:533   */\n  tag_56\n  jumpi\n    /* \"#utility.yul\":529:530   */\n  0x00\n    /* \"#utility.yul\":526:527   */\n  dup1\n    /* \"#utility.yul\":519:531   */\n  revert\n    /* \"#utility.yul\":470:533   */\ntag_56:\n    /* \"#utility.yul\":417:539   */\n  pop\n  jump\t// out\n    /* \"#utility.yul\":545:688   */\ntag_38:\n    /* \"#utility.yul\":602:607   */\n  0x00\n    /* \"#utility.yul\":633:639   */\n  dup2\n    /* \"#utility.yul\":627:640   */\n  mload\n    /* \"#utility.yul\":618:640   */\n  swap1\n  pop\n    /* \"#utility.yul\":649:682   */\n  tag_58\n    /* \"#utility.yul\":676:681   */\n  dup2\n    /* \"#utility.yul\":649:682   */\n  tag_37\n  jump\t// in\ntag_58:\n    /* \"#utility.yul\":545:688   */\n  swap3\n  swap2\n  pop\n  pop\n  jump\t// out\n    /* \"#utility.yul\":694:1045   */\ntag_3:\n    /* \"#utility.yul\":764:770   */\n  0x00\n    /* \"#utility.yul\":813:815   */\n  0x20\n    /* \"#utility.yul\":801:810   */\n  dup3\n    /* \"#utility.yul\":792:799   */\n  dup5\n    /* \"#utility.yul\":788:811   */\n  sub\n    /* \"#utility.yul\":784:816   */\n  slt\n    /* \"#utility.yul\":781:900   */\n  iszero\n  tag_60\n  jumpi\n    /* \"#utility.yul\":819:898   */\n  tag_61\n  tag_34\n  jump\t// in\ntag_61:\n    /* \"#utility.yul\":781:900   */\ntag_60:\n    /* \"#utility.yul\":939:940   */\n  0x00\n    /* \"#utility.yul\":964:1028   */\n  tag_62\n    /* \"#utility.yul\":1020:1027   */\n  dup5\n    /* \"#utility.yul\":1011:1017   */\n  dup3\n    /* \"#utility.yul\":1000:1009   */\n  dup6\n    /* \"#utility.yul\":996:1018   */\n  add\n    /* \"#utility.yul\":964:1028   */\n  tag_38\n  jump\t// in\ntag_62:\n    /* \"#utility.yul\":954:1028   */\n  swap2\n  pop\n    /* \"#utility.yul\":910:1038   */\n  pop\n    /* \"#utility.yul\":694:1045   */\n  swap3\n  swap2\n  pop\n  pop\n  jump\t// out\n    /* \"#utility.yul\":1051:1231   */\ntag_39:\n    /* \"#utility.yul\":1099:1176   */\n  0x4e487b7100000000000000000000000000000000000000000000000000000000\n    /* \"#utility.yul\":1096:1097   */\n  0x00\n    /* \"#utility.yul\":1089:1177   */\n  mstore\n    /* \"#utility.yul\":1196:1200   */\n  0x11\n    /* \"#utility.yul\":1193:1194   */\n  0x04\n    /* \"#utility.yul\":1186:1201   */\n  mstore\n    /* \"#utility.yul\":1220:1224   */\n  0x24\n    /* \"#utility.yul\":1217:1218   */\n  0x00\n    /* \"#utility.yul\":1210:1225   */\n  revert\n    /* \"#utility.yul\":1237:1339   */\ntag_40:\n    /* \"#utility.yul\":1279:1287   */\n  0x00\n    /* \"#utility.yul\":1326:1331   */\n  dup2\n    /* \"#utility.yul\":1323:1324   */\n  0x01\n    /* \"#utility.yul\":1319:1332   */\n  shr\n    /* \"#utility.yul\":1298:1332   */\n  swap1\n  pop\n    /* \"#utility.yul\":1237:1339   */\n  swap2\n  swap1\n  pop\n  jump\t// out\n    /* \"#utility.yul\":1345:2193   */\ntag_41:\n    /* \"#utility.yul\":1406:1411   */\n  0x00\n    /* \"#utility.yul\":1413:1417   */\n  dup1\n    /* \"#utility.yul\":1437:1443   */\n  dup3\n    /* \"#utility.yul\":1428:1443   */\n  swap2\n  pop\n    /* \"#utility.yul\":1461:1466   */\n  dup4\n    /* \"#utility.yul\":1452:1466   */\n  swap1\n  pop\n    /* \"#utility.yul\":1475:2187   */\ntag_66:\n    /* \"#utility.yul\":1496:1497   */\n  0x01\n    /* \"#utility.yul\":1486:1494   */\n  dup6\n    /* \"#utility.yul\":1483:1498   */\n  gt\n    /* \"#utility.yul\":1475:2187   */\n  iszero\n  tag_68\n  jumpi\n    /* \"#utility.yul\":1591:1595   */\n  dup1\n    /* \"#utility.yul\":1586:1589   */\n  dup7\n    /* \"#utility.yul\":1582:1596   */\n  div\n    /* \"#utility.yul\":1576:1580   */\n  dup2\n    /* \"#utility.yul\":1573:1597   */\n  gt\n    /* \"#utility.yul\":1570:1620   */\n  iszero\n  tag_69\n  jumpi\n    /* \"#utility.yul\":1600:1618   */\n  tag_70\n  tag_39\n  jump\t// in\ntag_70:\n    /* \"#utility.yul\":1570:1620   */\ntag_69:\n    /* \"#utility.yul\":1650:1651   */\n  0x01\n    /* \"#utility.yul\":1640:1648   */\n  dup6\n    /* \"#utility.yul\":1636:1652   */\n  and\n    /* \"#utility.yul\":1633:2084   */\n  iszero\n  tag_71\n  jumpi\n    /* \"#utility.yul\":2065:2069   */\n  dup1\n    /* \"#utility.yul\":2058:2063   */\n  dup3\n    /* \"#utility.yul\":2054:2070   */\n  mul\n    /* \"#utility.yul\":2045:2070   */\n  swap2\n  pop\n    /* \"#utility.yul\":1633:2084   */\ntag_71:\n    /* \"#utility.yul\":2115:2119   */\n  dup1\n    /* \"#utility.yul\":2109:2113   */\n  dup2\n    /* \"#utility.yul\":2105:2120   */\n  mul\n    /* \"#utility.yul\":2097:2120   */\n  swap1\n  pop\n    /* \"#utility.yul\":2145:2177   */\n  tag_72\n    /* \"#utility.yul\":2168:2176   */\n  dup6\n    /* \"#utility.yul\":2145:2177   */\n  tag_40\n  jump\t// in\ntag_72:\n    /* \"#utility.yul\":2133:2177   */\n  swap5\n  pop\n    /* \"#utility.yul\":1475:2187   */\n  jump(tag_66)\ntag_68:\n    /* \"#utility.yul\":1345:2193   */\n  swap5\n  pop\n  swap5\n  swap3\n  pop\n  pop\n  pop\n  jump\t// out\n    /* \"#utility.yul\":2199:3272   */\ntag_42:\n    /* \"#utility.yul\":2253:2258   */\n  0x00\n    /* \"#utility.yul\":2444:2452   */\n  dup3\n    /* \"#utility.yul\":2434:2474   */\n  tag_74\n  jumpi\n    /* \"#utility.yul\":2465:2466   */\n  0x01\n    /* \"#utility.yul\":2456:2466   */\n  swap1\n  pop\n    /* \"#utility.yul\":2467:2472   */\n  jump(tag_73)\n    /* \"#utility.yul\":2434:2474   */\ntag_74:\n    /* \"#utility.yul\":2493:2497   */\n  dup2\n    /* \"#utility.yul\":2483:2519   */\n  tag_75\n  jumpi\n    /* \"#utility.yul\":2510:2511   */\n  0x00\n    /* \"#utility.yul\":2501:2511   */\n  swap1\n  pop\n    /* \"#utility.yul\":2512:2517   */\n  jump(tag_73)\n    /* \"#utility.yul\":2483:2519   */\ntag_75:\n    /* \"#utility.yul\":2579:2583   */\n  dup2\n    /* \"#utility.yul\":2627:2628   */\n  0x01\n    /* \"#utility.yul\":2622:2649   */\n  dup2\n  eq\n  tag_77\n  jumpi\n    /* \"#utility.yul\":2663:2664   */\n  0x02\n    /* \"#utility.yul\":2658:2849   */\n  dup2\n  eq\n  tag_78\n  jumpi\n    /* \"#utility.yul\":2572:2849   */\n  jump(tag_76)\n    /* \"#utility.yul\":2622:2649   */\ntag_77:\n    /* \"#utility.yul\":2640:2641   */\n  0x01\n    /* \"#utility.yul\":2631:2641   */\n  swap2\n  pop\n    /* \"#utility.yul\":2642:2647   */\n  pop\n  jump(tag_73)\n    /* \"#utility.yul\":2658:2849   */\ntag_78:\n    /* \"#utility.yul\":2703:2706   */\n  0xff\n    /* \"#utility.yul\":2693:2701   */\n  dup5\n    /* \"#utility.yul\":2690:2707   */\n  gt\n    /* \"#utility.yul\":2687:2730   */\n  iszero\n  tag_79\n  jumpi\n    /* \"#utility.yul\":2710:2728   */\n  tag_80\n  tag_39\n  jump\t// in\ntag_80:\n    /* \"#utility.yul\":2687:2730   */\ntag_79:\n    /* \"#utility.yul\":2759:2767   */\n  dup4\n    /* \"#utility.yul\":2756:2757   */\n  0x02\n    /* \"#utility.yul\":2752:2768   */\n  exp\n    /* \"#utility.yul\":2743:2768   */\n  swap2\n  pop\n    /* \"#utility.yul\":2794:2797   */\n  dup5\n    /* \"#utility.yul\":2787:2792   */\n  dup3\n    /* \"#utility.yul\":2784:2798   */\n  gt\n    /* \"#utility.yul\":2781:2821   */\n  iszero\n  tag_81\n  jumpi\n    /* \"#utility.yul\":2801:2819   */\n  tag_82\n  tag_39\n  jump\t// in\ntag_82:\n    /* \"#utility.yul\":2781:2821   */\ntag_81:\n    /* \"#utility.yul\":2834:2839   */\n  pop\n  jump(tag_73)\n    /* \"#utility.yul\":2572:2849   */\ntag_76:\n  pop\n    /* \"#utility.yul\":2958:2960   */\n  0x20\n    /* \"#utility.yul\":2948:2956   */\n  dup4\n    /* \"#utility.yul\":2945:2961   */\n  lt\n    /* \"#utility.yul\":2939:2942   */\n  0x0133\n    /* \"#utility.yul\":2933:2937   */\n  dup4\n    /* \"#utility.yul\":2930:2943   */\n  lt\n    /* \"#utility.yul\":2926:2962   */\n  and\n    /* \"#utility.yul\":2908:2910   */\n  0x4e\n    /* \"#utility.yul\":2898:2906   */\n  dup5\n    /* \"#utility.yul\":2895:2911   */\n  lt\n    /* \"#utility.yul\":2890:2892   */\n  0x0b\n    /* \"#utility.yul\":2884:2888   */\n  dup5\n    /* \"#utility.yul\":2881:2893   */\n  lt\n    /* \"#utility.yul\":2877:2912   */\n  and\n    /* \"#utility.yul\":2861:2972   */\n  or\n    /* \"#utility.yul\":2858:3104   */\n  iszero\n  tag_83\n  jumpi\n    /* \"#utility.yul\":3014:3022   */\n  dup3\n    /* \"#utility.yul\":3008:3012   */\n  dup3\n    /* \"#utility.yul\":3004:3023   */\n  exp\n    /* \"#utility.yul\":2995:3023   */\n  swap1\n  pop\n    /* \"#utility.yul\":3049:3052   */\n  dup4\n    /* \"#utility.yul\":3042:3047   */\n  dup2\n    /* \"#utility.yul\":3039:3053   */\n  gt\n    /* \"#utility.yul\":3036:3076   */\n  iszero\n  tag_84\n  jumpi\n    /* \"#utility.yul\":3056:3074   */\n  tag_85\n  tag_39\n  jump\t// in\ntag_85:\n    /* \"#utility.yul\":3036:3076   */\ntag_84:\n    /* \"#utility.yul\":3089:3094   */\n  jump(tag_73)\n    /* \"#utility.yul\":2858:3104   */\ntag_83:\n    /* \"#utility.yul\":3129:3171   */\n  tag_86\n    /* \"#utility.yul\":3167:3170   */\n  dup5\n    /* \"#utility.yul\":3157:3165   */\n  dup5\n    /* \"#utility.yul\":3151:3155   */\n  dup5\n    /* \"#utility.yul\":3148:3149   */\n  0x01\n    /* \"#utility.yul\":3129:3171   */\n  tag_41\n  jump\t// in\ntag_86:\n    /* \"#utility.yul\":3114:3171   */\n  swap3\n  pop\n  swap1\n  pop\n    /* \"#utility.yul\":3203:3207   */\n  dup2\n    /* \"#utility.yul\":3198:3201   */\n  dup5\n    /* \"#utility.yul\":3194:3208   */\n  div\n    /* \"#utility.yul\":3187:3192   */\n  dup2\n    /* \"#utility.yul\":3184:3209   */\n  gt\n    /* \"#utility.yul\":3181:3232   */\n  iszero\n  tag_87\n  jumpi\n    /* \"#utility.yul\":3212:3230   */\n  tag_88\n  tag_39\n  jump\t// in\ntag_88:\n    /* \"#utility.yul\":3181:3232   */\ntag_87:\n    /* \"#utility.yul\":3261:3265   */\n  dup2\n    /* \"#utility.yul\":3254:3259   */\n  dup2\n    /* \"#utility.yul\":3250:3266   */\n  mul\n    /* \"#utility.yul\":3241:3266   */\n  swap1\n  pop\n    /* \"#utility.yul\":2199:3272   */\ntag_73:\n  swap4\n  swap3\n  pop\n  pop\n  pop\n  jump\t// out\n    /* \"#utility.yul\":3278:3563   */\ntag_7:\n    /* \"#utility.yul\":3338:3343   */\n  0x00\n    /* \"#utility.yul\":3362:3385   */\n  tag_90\n    /* \"#utility.yul\":3380:3384   */\n  dup3\n    /* \"#utility.yul\":3362:3385   */\n  tag_36\n  jump\t// in\ntag_90:\n    /* \"#utility.yul\":3354:3385   */\n  swap2\n  pop\n    /* \"#utility.yul\":3406:3433   */\n  tag_91\n    /* \"#utility.yul\":3424:3432   */\n  dup4\n    /* \"#utility.yul\":3406:3433   */\n  tag_36\n  jump\t// in\ntag_91:\n    /* \"#utility.yul\":3394:3433   */\n  swap3\n  pop\n    /* \"#utility.yul\":3452:3556   */\n  tag_92\n    /* \"#utility.yul\":3489:3555   */\n  0xffffffffffffffffffffffffffffffffffffffffffffffffffffffffffffffff\n    /* \"#utility.yul\":3479:3487   */\n  dup5\n    /* \"#utility.yul\":3473:3477   */\n  dup5\n    /* \"#utility.yul\":3452:3556   */\n  tag_42\n  jump\t// in\ntag_92:\n    /* \"#utility.yul\":3443:3556   */\n  swap1\n  pop\n    /* \"#utility.yul\":3278:3563   */\n  swap3\n  swap2\n  pop\n  pop\n  jump\t// out\n    /* \"#utility.yul\":3569:3979   */\ntag_9:\n    /* \"#utility.yul\":3609:3616   */\n  0x00\n    /* \"#utility.yul\":3632:3652   */\n  tag_94\n    /* \"#utility.yul\":3650:3651   */\n  dup3\n    /* \"#utility.yul\":3632:3652   */\n  tag_36\n  jump\t// in\ntag_94:\n    /* \"#utility.yul\":3627:3652   */\n  swap2\n  pop\n    /* \"#utility.yul\":3666:3686   */\n  tag_95\n    /* \"#utility.yul\":3684:3685   */\n  dup4\n    /* \"#utility.yul\":3666:3686   */\n  tag_36\n  jump\t// in\ntag_95:\n    /* \"#utility.yul\":3661:3686   */\n  swap3\n  pop\n    /* \"#utility.yul\":3721:3722   */\n  dup3\n    /* \"#utility.yul\":3718:3719   */\n  dup3\n    /* \"#utility.yul\":3714:3723   */\n  mul\n    /* \"#utility.yul\":3743:3773   */\n  tag_96\n    /* \"#utility.yul\":3761:3772   */\n  dup2\n    /* \"#utility.yul\":3743:3773   */\n  tag_36\n  jump\t// in\ntag_96:\n    /* \"#utility.yul\":3732:3773   */\n  swap2\n  pop\n    /* \"#utility.yul\":3922:3923   */\n  dup3\n    /* \"#utility.yul\":3913:3920   */\n  dup3\n    /* \"#utility.yul\":3909:3924   */\n  div\n    /* \"#utility.yul\":3906:3907   */\n  dup5\n    /* \"#utility.yul\":3903:3925   */\n  eq\n    /* \"#utility.yul\":3883:3884   */\n  dup4\n    /* \"#utility.yul\":3876:3885   */\n  iszero\n    /* \"#utility.yul\":3856:3939   */\n  or\n    /* \"#utility.yul\":3833:3972   */\n  tag_97\n  jumpi\n    /* \"#utility.yul\":3952:3970   */\n  tag_98\n  tag_39\n  jump\t// in\ntag_98:\n    /* \"#utility.yul\":3833:3972   */\ntag_97:\n    /* \"#utility.yul\":3617:3979   */\n  pop\n    /* \"#utility.yul\":3569:3979   */\n  swap3\n  swap2\n  pop\n  pop\n  jump\t// out\n    /* \"#utility.yul\":3985:4154   */\ntag_43:\n    /* \"#utility.yul\":4069:4080   */\n  0x00\n    /* \"#utility.yul\":4103:4109   */\n  dup3\n    /* \"#utility.yul\":4098:4101   */\n  dup3\n    /* \"#utility.yul\":4091:4110   */\n  mstore\n    /* \"#utility.yul\":4143:4147   */\n  0x20\n    /* \"#utility.yul\":4138:4141   */\n  dup3\n    /* \"#utility.yul\":4134:4148   */\n  add\n    /* \"#utility.yul\":4119:4148   */\n  swap1\n  pop\n    /* \"#utility.yul\":3985:4154   */\n  swap3\n  swap2\n  pop\n  pop\n  jump\t// out\n    /* \"#utility.yul\":4160:4391   */\ntag_44:\n    /* \"#utility.yul\":4300:4334   */\n  0x496e697469616c20737570706c792063616e206e6f7420657863656564206d61\n    /* \"#utility.yul\":4296:4297   */\n  0x00\n    /* \"#utility.yul\":4288:4294   */\n  dup3\n    /* \"#utility.yul\":4284:4298   */\n  add\n    /* \"#utility.yul\":4277:4335   */\n  mstore\n    /* \"#utility.yul\":4369:4383   */\n  0x78696d756d20737570706c790000000000000000000000000000000000000000\n    /* \"#utility.yul\":4364:4366   */\n  0x20\n    /* \"#utility.yul\":4356:4362   */\n  dup3\n    /* \"#utility.yul\":4352:4367   */\n  add\n    /* \"#utility.yul\":4345:4384   */\n  mstore\n    /* \"#utility.yul\":4160:4391   */\n  pop\n  jump\t// out\n    /* \"#utility.yul\":4397:4763   */\ntag_45:\n    /* \"#utility.yul\":4539:4542   */\n  0x00\n    /* \"#utility.yul\":4560:4627   */\n  tag_102\n    /* \"#utility.yul\":4624:4626   */\n  0x2c\n    /* \"#utility.yul\":4619:4622   */\n  dup4\n    /* \"#utility.yul\":4560:4627   */\n  tag_43\n  jump\t// in\ntag_102:\n    /* \"#utility.yul\":4553:4627   */\n  swap2\n  pop\n    /* \"#utility.yul\":4636:4729   */\n  tag_103\n    /* \"#utility.yul\":4725:4728   */\n  dup3\n    /* \"#utility.yul\":4636:4729   */\n  tag_44\n  jump\t// in\ntag_103:\n    /* \"#utility.yul\":4754:4756   */\n  0x40\n    /* \"#utility.yul\":4749:4752   */\n  dup3\n    /* \"#utility.yul\":4745:4757   */\n  add\n    /* \"#utility.yul\":4738:4757   */\n  swap1\n  pop\n    /* \"#utility.yul\":4397:4763   */\n  swap2\n  swap1\n  pop\n  jump\t// out\n    /* \"#utility.yul\":4769:5188   */\ntag_14:\n    /* \"#utility.yul\":4935:4939   */\n  0x00\n    /* \"#utility.yul\":4973:4975   */\n  0x20\n    /* \"#utility.yul\":4962:4971   */\n  dup3\n    /* \"#utility.yul\":4958:4976   */\n  add\n    /* \"#utility.yul\":4950:4976   */\n  swap1\n  pop\n    /* \"#utility.yul\":5022:5031   */\n  dup2\n    /* \"#utility.yul\":5016:5020   */\n  dup2\n    /* \"#utility.yul\":5012:5032   */\n  sub\n    /* \"#utility.yul\":5008:5009   */\n  0x00\n    /* \"#utility.yul\":4997:5006   */\n  dup4\n    /* \"#utility.yul\":4993:5010   */\n  add\n    /* \"#utility.yul\":4986:5033   */\n  mstore\n    /* \"#utility.yul\":5050:5181   */\n  tag_105\n    /* \"#utility.yul\":5176:5180   */\n  dup2\n    /* \"#utility.yul\":5050:5181   */\n  tag_45\n  jump\t// in\ntag_105:\n    /* \"#utility.yul\":5042:5181   */\n  swap1\n  pop\n    /* \"#utility.yul\":4769:5188   */\n  swap2\n  swap1\n  pop\n  jump\t// out\n    /* \"#utility.yul\":5194:5385   */\ntag_24:\n    /* \"#utility.yul\":5234:5237   */\n  0x00\n    /* \"#utility.yul\":5253:5273   */\n  tag_107\n    /* \"#utility.yul\":5271:5272   */\n  dup3\n    /* \"#utility.yul\":5253:5273   */\n  tag_36\n  jump\t// in\ntag_107:\n    /* \"#utility.yul\":5248:5273   */\n  swap2\n  pop\n    /* \"#utility.yul\":5287:5307   */\n  tag_108\n    /* \"#utility.yul\":5305:5306   */\n  dup4\n    /* \"#utility.yul\":5287:5307   */\n  tag_36\n  jump\t// in\ntag_108:\n    /* \"#utility.yul\":5282:5307   */\n  swap3\n  pop\n    /* \"#utility.yul\":5330:5331   */\n  dup3\n    /* \"#utility.yul\":5327:5328   */\n  dup3\n    /* \"#utility.yul\":5323:5332   */\n  add\n    /* \"#utility.yul\":5316:5332   */\n  swap1\n  pop\n    /* \"#utility.yul\":5351:5354   */\n  dup1\n    /* \"#utility.yul\":5348:5349   */\n  dup3\n    /* \"#utility.yul\":5345:5355   */\n  gt\n    /* \"#utility.yul\":5342:5378   */\n  iszero\n  tag_109\n  jumpi\n    /* \"#utility.yul\":5358:5376   */\n  tag_110\n  tag_39\n  jump\t// in\ntag_110:\n    /* \"#utility.yul\":5342:5378   */\ntag_109:\n    /* \"#utility.yul\":5194:5385   */\n  swap3\n  swap2\n  pop\n  pop\n  jump\t// out\n    /* \"#utility.yul\":5391:5565   */\ntag_46:\n    /* \"#utility.yul\":5531:5557   */\n  0x4d696e74696e672065786365656473206d6178696d756d2e0000000000000000\n    /* \"#utility.yul\":5527:5528   */\n  0x00\n    /* \"#utility.yul\":5519:5525   */\n  dup3\n    /* \"#utility.yul\":5515:5529   */\n  add\n    /* \"#utility.yul\":5508:5558   */\n  mstore\n    /* \"#utility.yul\":5391:5565   */\n  pop\n  jump\t// out\n    /* \"#utility.yul\":5571:5937   */\ntag_47:\n    /* \"#utility.yul\":5713:5716   */\n  0x00\n    /* \"#utility.yul\":5734:5801   */\n  tag_113\n    /* \"#utility.yul\":5798:5800   */\n  0x18\n    /* \"#utility.yul\":5793:5796   */\n  dup4\n    /* \"#utility.yul\":5734:5801   */\n  tag_43\n  jump\t// in\ntag_113:\n    /* \"#utility.yul\":5727:5801   */\n  swap2\n  pop\n    /* \"#utility.yul\":5810:5903   */\n  tag_114\n    /* \"#utility.yul\":5899:5902   */\n  dup3\n    /* \"#utility.yul\":5810:5903   */\n  tag_46\n  jump\t// in\ntag_114:\n    /* \"#utility.yul\":5928:5930   */\n  0x20\n    /* \"#utility.yul\":5923:5926   */\n  dup3\n    /* \"#utility.yul\":5919:5931   */\n  add\n    /* \"#utility.yul\":5912:5931   */\n  swap1\n  pop\n    /* \"#utility.yul\":5571:5937   */\n  swap2\n  swap1\n  pop\n  jump\t// out\n    /* \"#utility.yul\":5943:6362   */\ntag_27:\n    /* \"#utility.yul\":6109:6113   */\n  0x00\n    /* \"#utility.yul\":6147:6149   */\n  0x20\n    /* \"#utility.yul\":6136:6145   */\n  dup3\n    /* \"#utility.yul\":6132:6150   */\n  add\n    /* \"#utility.yul\":6124:6150   */\n  swap1\n  pop\n    /* \"#utility.yul\":6196:6205   */\n  dup2\n    /* \"#utility.yul\":6190:6194   */\n  dup2\n    /* \"#utility.yul\":6186:6206   */\n  sub\n    /* \"#utility.yul\":6182:6183   */\n  0x00\n    /* \"#utility.yul\":6171:6180   */\n  dup4\n    /* \"#utility.yul\":6167:6184   */\n  add\n    /* \"#utility.yul\":6160:6207   */\n  mstore\n    /* \"#utility.yul\":6224:6355   */\n  tag_116\n    /* \"#utility.yul\":6350:6354   */\n  dup2\n    /* \"#utility.yul\":6224:6355   */\n  tag_47\n  jump\t// in\ntag_116:\n    /* \"#utility.yul\":6216:6355   */\n  swap1\n  pop\n    /* \"#utility.yul\":5943:6362   */\n  swap2\n  swap1\n  pop\n  jump\t// out\n    /* \"#utility.yul\":6368:6486   */\ntag_48:\n    /* \"#utility.yul\":6455:6479   */\n  tag_118\n    /* \"#utility.yul\":6473:6478   */\n  dup2\n    /* \"#utility.yul\":6455:6479   */\n  tag_36\n  jump\t// in\ntag_118:\n    /* \"#utility.yul\":6450:6453   */\n  dup3\n    /* \"#utility.yul\":6443:6480   */\n  mstore\n    /* \"#utility.yul\":6368:6486   */\n  pop\n  pop\n  jump\t// out\n    /* \"#utility.yul\":6492:6714   */\ntag_31:\n    /* \"#utility.yul\":6585:6589   */\n  0x00\n    /* \"#utility.yul\":6623:6625   */\n  0x20\n    /* \"#utility.yul\":6612:6621   */\n  dup3\n    /* \"#utility.yul\":6608:6626   */\n  add\n    /* \"#utility.yul\":6600:6626   */\n  swap1\n  pop\n    /* \"#utility.yul\":6636:6707   */\n  tag_120\n    /* \"#utility.yul\":6704:6705   */\n  0x00\n    /* \"#utility.yul\":6693:6702   */\n  dup4\n    /* \"#utility.yul\":6689:6706   */\n  add\n    /* \"#utility.yul\":6680:6686   */\n  dup5\n    /* \"#utility.yul\":6636:6707   */\n  tag_48\n  jump\t// in\ntag_120:\n    /* \"#utility.yul\":6492:6714   */\n  swap3\n  swap2\n  pop\n  pop\n  jump\t// out\n    /* \"contracts/MyToken.sol\":58:3780  contract BSideToken {... */\ntag_19:\n  mload(0x80)\n  codecopy(0x00, dataOffset(sub_0), dataSize(sub_0))\n  0x00\n  assignImmutable(\"0xd4d1a59767271eefdc7830a772b9732a11d503531d972ab8c981a6b1c0e666e5\")\n  return(0x00, dataSize(sub_0))\nstop\n\nsub_0: assembly {\n        /* \"contracts/MyToken.sol\":58:3780  contract BSideToken {... */\n      mstore(0x40, 0x80)\n      jumpi(tag_1, lt(calldatasize, 0x04))\n      shr(0xe0, calldataload(0x00))\n      dup1\n      0x8a333b50\n      gt\n      tag_15\n      jumpi\n      dup1\n      0x8a333b50\n      eq\n      tag_9\n      jumpi\n      dup1\n      0x8da5cb5b\n      eq\n      tag_10\n      jumpi\n      dup1\n      0x95d89b41\n      eq\n      tag_11\n      jumpi\n      dup1\n      0x9dc29fac\n      eq\n      tag_12\n      jumpi\n      dup1\n      0xa9059cbb\n      eq\n      tag_13\n      jumpi\n      dup1\n      0xb144adfb\n      eq\n      tag_14\n      jumpi\n      jump(tag_2)\n    tag_15:\n      dup1\n      0x06fdde03\n      eq\n      tag_3\n      jumpi\n      dup1\n      0x1e279a37\n      eq\n      tag_4\n      jumpi\n      dup1\n      0x313ce567\n      eq\n      tag_5\n      jumpi\n      dup1\n      0x3940e9ee\n      eq\n      tag_6\n      jumpi\n      dup1\n      0x40c10f19\n      eq\n      tag_7\n      jumpi\n      dup1\n      0x79061e96\n      eq\n      tag_8\n      jumpi\n      jump(tag_2)\n    tag_1:\n      jumpi(tag_2, calldatasize)\n      stop\n    tag_2:\n      0x00\n      dup1\n      revert\n        /* \"contracts/MyToken.sol\":105:147  string public constant name = \"BSideToken\" */\n    tag_3:\n      callvalue\n      dup1\n      iszero\n      tag_18\n      jumpi\n      0x00\n      dup1\n      revert\n    tag_18:\n      pop\n      tag_19\n      tag_20\n      jump\t// in\n    tag_19:\n      mload(0x40)\n      tag_21\n      swap2\n      swap1\n      tag_22\n      jump\t// in\n    tag_21:\n      mload(0x40)\n      dup1\n      swap2\n      sub\n      swap1\n      return\n        /* \"contracts/MyToken.sol\":3469:3584  function get_balance(address account_) external view returns (uint256) {... */\n    tag_4:\n      callvalue\n      dup1\n      iszero\n      tag_23\n      jumpi\n      0x00\n      dup1\n      revert\n    tag_23:\n      pop\n      tag_24\n      0x04\n      dup1\n      calldatasize\n      sub\n      dup2\n      add\n      swap1\n      tag_25\n      swap2\n      swap1\n      tag_26\n      jump\t// in\n    tag_25:\n      tag_27\n      jump\t// in\n    tag_24:\n      mload(0x40)\n      tag_28\n      swap2\n      swap1\n      tag_29\n      jump\t// in\n    tag_28:\n      mload(0x40)\n      dup1\n      swap2\n      sub\n      swap1\n      return\n        /* \"contracts/MyToken.sol\":196:231  uint8 public constant decimals = 18 */\n    tag_5:\n      callvalue\n      dup1\n      iszero\n      tag_30\n      jumpi\n      0x00\n      dup1\n      revert\n    tag_30:\n      pop\n      tag_31\n      tag_32\n      jump\t// in\n    tag_31:\n      mload(0x40)\n      tag_33\n      swap2\n      swap1\n      tag_34\n      jump\t// in\n    tag_33:\n      mload(0x40)\n      dup1\n      swap2\n      sub\n      swap1\n      return\n        /* \"contracts/MyToken.sol\":470:501  uint256 public total_supply = 0 */\n    tag_6:\n      callvalue\n      dup1\n      iszero\n      tag_35\n      jumpi\n      0x00\n      dup1\n      revert\n    tag_35:\n      pop\n      tag_36\n      tag_37\n      jump\t// in\n    tag_36:\n      mload(0x40)\n      tag_38\n      swap2\n      swap1\n      tag_29\n      jump\t// in\n    tag_38:\n      mload(0x40)\n      dup1\n      swap2\n      sub\n      swap1\n      return\n        /* \"contracts/MyToken.sol\":2099:2263  function mint(address to_, uint256 amount_)... */\n    tag_7:\n      callvalue\n      dup1\n      iszero\n      tag_39\n      jumpi\n      0x00\n      dup1\n      revert\n    tag_39:\n      pop\n      tag_40\n      0x04\n      dup1\n      calldatasize\n      sub\n      dup2\n      add\n      swap1\n      tag_41\n      swap2\n      swap1\n      tag_42\n      jump\t// in\n    tag_41:\n      tag_43\n      jump\t// in\n    tag_40:\n      stop\n        /* \"contracts/MyToken.sol\":3625:3778  function withdraw_ether() external only_owner {... */\n    tag_8:\n      callvalue\n      dup1\n      iszero\n      tag_44\n      jumpi\n      0x00\n      dup1\n      revert\n    tag_44:\n      pop\n      tag_45\n      tag_46\n      jump\t// in\n    tag_45:\n      stop\n        /* \"contracts/MyToken.sol\":237:307  uint256 public constant max_supply = 1_000_000 * 10**uint256(decimals) */\n    tag_9:\n      callvalue\n      dup1\n      iszero\n      tag_47\n      jumpi\n      0x00\n      dup1\n      revert\n    tag_47:\n      pop\n      tag_48\n      tag_49\n      jump\t// in\n    tag_48:\n      mload(0x40)\n      tag_50\n      swap2\n      swap1\n      tag_29\n      jump\t// in\n    tag_50:\n      mload(0x40)\n      dup1\n      swap2\n      sub\n      swap1\n      return\n        /* \"contracts/MyToken.sol\":433:463  address public immutable owner */\n    tag_10:\n      callvalue\n      dup1\n      iszero\n      tag_51\n      jumpi\n      0x00\n      dup1\n      revert\n    tag_51:\n      pop\n      tag_52\n      tag_53\n      jump\t// in\n    tag_52:\n      mload(0x40)\n      tag_54\n      swap2\n      swap1\n      tag_55\n      jump\t// in\n    tag_54:\n      mload(0x40)\n      dup1\n      swap2\n      sub\n      swap1\n      return\n        /* \"contracts/MyToken.sol\":153:190  string public constant symbol = \"BST\" */\n    tag_11:\n      callvalue\n      dup1\n      iszero\n      tag_56\n      jumpi\n      0x00\n      dup1\n      revert\n    tag_56:\n      pop\n      tag_57\n      tag_58\n      jump\t// in\n    tag_57:\n      mload(0x40)\n      tag_59\n      swap2\n      swap1\n      tag_22\n      jump\t// in\n    tag_59:\n      mload(0x40)\n      dup1\n      swap2\n      sub\n      swap1\n      return\n        /* \"contracts/MyToken.sol\":2829:2998  function burn(address from_, uint256 amount_) external no_reentry valid_address(msg.sender) {... */\n    tag_12:\n      callvalue\n      dup1\n      iszero\n      tag_60\n      jumpi\n      0x00\n      dup1\n      revert\n    tag_60:\n      pop\n      tag_61\n      0x04\n      dup1\n      calldatasize\n      sub\n      dup2\n      add\n      swap1\n      tag_62\n      swap2\n      swap1\n      tag_42\n      jump\t// in\n    tag_62:\n      tag_63\n      jump\t// in\n    tag_61:\n      stop\n        /* \"contracts/MyToken.sol\":3004:3463  function transfer(address to_, uint256 amount_)... */\n    tag_13:\n      callvalue\n      dup1\n      iszero\n      tag_64\n      jumpi\n      0x00\n      dup1\n      revert\n    tag_64:\n      pop\n      tag_65\n      0x04\n      dup1\n      calldatasize\n      sub\n      dup2\n      add\n      swap1\n      tag_66\n      swap2\n      swap1\n      tag_42\n      jump\t// in\n    tag_66:\n      tag_67\n      jump\t// in\n    tag_65:\n      mload(0x40)\n      tag_68\n      swap2\n      swap1\n      tag_69\n      jump\t// in\n    tag_68:\n      mload(0x40)\n      dup1\n      swap2\n      sub\n      swap1\n      return\n        /* \"contracts/MyToken.sol\":508:553  mapping(address => uint256) public balance_of */\n    tag_14:\n      callvalue\n      dup1\n      iszero\n      tag_70\n      jumpi\n      0x00\n      dup1\n      revert\n    tag_70:\n      pop\n      tag_71\n      0x04\n      dup1\n      calldatasize\n      sub\n      dup2\n      add\n      swap1\n      tag_72\n      swap2\n      swap1\n      tag_26\n      jump\t// in\n    tag_72:\n      tag_73\n      jump\t// in\n    tag_71:\n      mload(0x40)\n      tag_74\n      swap2\n      swap1\n      tag_29\n      jump\t// in\n    tag_74:\n      mload(0x40)\n      dup1\n      swap2\n      sub\n      swap1\n      return\n        /* \"contracts/MyToken.sol\":105:147  string public constant name = \"BSideToken\" */\n    tag_20:\n      mload(0x40)\n      dup1\n      0x40\n      add\n      0x40\n      mstore\n      dup1\n      0x0a\n      dup2\n      mstore\n      0x20\n      add\n      0x4253696465546f6b656e00000000000000000000000000000000000000000000\n      dup2\n      mstore\n      pop\n      dup2\n      jump\t// out\n        /* \"contracts/MyToken.sol\":3469:3584  function get_balance(address account_) external view returns (uint256) {... */\n    tag_27:\n        /* \"contracts/MyToken.sol\":3531:3538  uint256 */\n      0x00\n        /* \"contracts/MyToken.sol\":3557:3567  balance_of */\n      0x01\n        /* \"contracts/MyToken.sol\":3557:3577  balance_of[account_] */\n      0x00\n        /* \"contracts/MyToken.sol\":3568:3576  account_ */\n      dup4\n        /* \"contracts/MyToken.sol\":3557:3577  balance_of[account_] */\n      0xffffffffffffffffffffffffffffffffffffffff\n      and\n      0xffffffffffffffffffffffffffffffffffffffff\n      and\n      dup2\n      mstore\n      0x20\n      add\n      swap1\n      dup2\n      mstore\n      0x20\n      add\n      0x00\n      keccak256\n      sload\n        /* \"contracts/MyToken.sol\":3550:3577  return balance_of[account_] */\n      swap1\n      pop\n        /* \"contracts/MyToken.sol\":3469:3584  function get_balance(address account_) external view returns (uint256) {... */\n      swap2\n      swap1\n      pop\n      jump\t// out\n        /* \"contracts/MyToken.sol\":196:231  uint8 public constant decimals = 18 */\n    tag_32:\n        /* \"contracts/MyToken.sol\":229:231  18 */\n      0x12\n        /* \"contracts/MyToken.sol\":196:231  uint8 public constant decimals = 18 */\n      dup2\n      jump\t// out\n        /* \"contracts/MyToken.sol\":470:501  uint256 public total_supply = 0 */\n    tag_37:\n      sload(0x00)\n      dup2\n      jump\t// out\n        /* \"contracts/MyToken.sol\":2099:2263  function mint(address to_, uint256 amount_)... */\n    tag_43:\n        /* \"contracts/MyToken.sol\":1319:1324  owner */\n      immutable(\"0xd4d1a59767271eefdc7830a772b9732a11d503531d972ab8c981a6b1c0e666e5\")\n        /* \"contracts/MyToken.sol\":1305:1324  msg.sender == owner */\n      0xffffffffffffffffffffffffffffffffffffffff\n      and\n        /* \"contracts/MyToken.sol\":1305:1315  msg.sender */\n      caller\n        /* \"contracts/MyToken.sol\":1305:1324  msg.sender == owner */\n      0xffffffffffffffffffffffffffffffffffffffff\n      and\n      eq\n        /* \"contracts/MyToken.sol\":1297:1356  require(msg.sender == owner, \"Restricted to owner account\") */\n      tag_77\n      jumpi\n      mload(0x40)\n      0x08c379a000000000000000000000000000000000000000000000000000000000\n      dup2\n      mstore\n      0x04\n      add\n      tag_78\n      swap1\n      tag_79\n      jump\t// in\n    tag_78:\n      mload(0x40)\n      dup1\n      swap2\n      sub\n      swap1\n      revert\n    tag_77:\n        /* \"contracts/MyToken.sol\":1649:1655  locked */\n      0x02\n      0x00\n      swap1\n      sload\n      swap1\n      0x0100\n      exp\n      swap1\n      div\n      0xff\n      and\n        /* \"contracts/MyToken.sol\":1648:1655  !locked */\n      iszero\n        /* \"contracts/MyToken.sol\":1640:1693  require(!locked, \"Re-entrant call is not supported.\") */\n      tag_81\n      jumpi\n      mload(0x40)\n      0x08c379a000000000000000000000000000000000000000000000000000000000\n      dup2\n      mstore\n      0x04\n      add\n      tag_82\n      swap1\n      tag_83\n      jump\t// in\n    tag_82:\n      mload(0x40)\n      dup1\n      swap2\n      sub\n      swap1\n      revert\n    tag_81:\n        /* \"contracts/MyToken.sol\":1712:1716  true */\n      0x01\n        /* \"contracts/MyToken.sol\":1703:1709  locked */\n      0x02\n      0x00\n        /* \"contracts/MyToken.sol\":1703:1716  locked = true */\n      0x0100\n      exp\n      dup2\n      sload\n      dup2\n      0xff\n      mul\n      not\n      and\n      swap1\n      dup4\n      iszero\n      iszero\n      mul\n      or\n      swap1\n      sstore\n      pop\n        /* \"contracts/MyToken.sol\":2218:2221  to_ */\n      dup2\n        /* \"contracts/MyToken.sol\":1445:1446  0 */\n      0x00\n        /* \"contracts/MyToken.sol\":1432:1447  a != address(0) */\n      0xffffffffffffffffffffffffffffffffffffffff\n      and\n        /* \"contracts/MyToken.sol\":1432:1433  a */\n      dup2\n        /* \"contracts/MyToken.sol\":1432:1447  a != address(0) */\n      0xffffffffffffffffffffffffffffffffffffffff\n      and\n      sub\n        /* \"contracts/MyToken.sol\":1424:1476  require(a != address(0), \"Can not use null address\") */\n      tag_85\n      jumpi\n      mload(0x40)\n      0x08c379a000000000000000000000000000000000000000000000000000000000\n      dup2\n      mstore\n      0x04\n      add\n      tag_86\n      swap1\n      tag_87\n      jump\t// in\n    tag_86:\n      mload(0x40)\n      dup1\n      swap2\n      sub\n      swap1\n      revert\n    tag_85:\n        /* \"contracts/MyToken.sol\":2237:2256  mint_(to_, amount_) */\n      tag_89\n        /* \"contracts/MyToken.sol\":2243:2246  to_ */\n      dup4\n        /* \"contracts/MyToken.sol\":2248:2255  amount_ */\n      dup4\n        /* \"contracts/MyToken.sol\":2237:2242  mint_ */\n      tag_90\n        /* \"contracts/MyToken.sol\":2237:2256  mint_(to_, amount_) */\n      jump\t// in\n    tag_89:\n        /* \"contracts/MyToken.sol\":1726:1727  _ */\n      pop\n        /* \"contracts/MyToken.sol\":1746:1751  false */\n      0x00\n        /* \"contracts/MyToken.sol\":1737:1743  locked */\n      0x02\n      0x00\n        /* \"contracts/MyToken.sol\":1737:1751  locked = false */\n      0x0100\n      exp\n      dup2\n      sload\n      dup2\n      0xff\n      mul\n      not\n      and\n      swap1\n      dup4\n      iszero\n      iszero\n      mul\n      or\n      swap1\n      sstore\n      pop\n        /* \"contracts/MyToken.sol\":2099:2263  function mint(address to_, uint256 amount_)... */\n      pop\n      pop\n      jump\t// out\n        /* \"contracts/MyToken.sol\":3625:3778  function withdraw_ether() external only_owner {... */\n    tag_46:\n        /* \"contracts/MyToken.sol\":1319:1324  owner */\n      immutable(\"0xd4d1a59767271eefdc7830a772b9732a11d503531d972ab8c981a6b1c0e666e5\")\n        /* \"contracts/MyToken.sol\":1305:1324  msg.sender == owner */\n      0xffffffffffffffffffffffffffffffffffffffff\n      and\n        /* \"contracts/MyToken.sol\":1305:1315  msg.sender */\n      caller\n        /* \"contracts/MyToken.sol\":1305:1324  msg.sender == owner */\n      0xffffffffffffffffffffffffffffffffffffffff\n      and\n      eq\n        /* \"contracts/MyToken.sol\":1297:1356  require(msg.sender == owner, \"Restricted to owner account\") */\n      tag_92\n      jumpi\n      mload(0x40)\n      0x08c379a000000000000000000000000000000000000000000000000000000000\n      dup2\n      mstore\n      0x04\n      add\n      tag_93\n      swap1\n      tag_79\n      jump\t// in\n    tag_93:\n      mload(0x40)\n      dup1\n      swap2\n      sub\n      swap1\n      revert\n    tag_92:\n        /* \"contracts/MyToken.sol\":3733:3738  owner */\n      immutable(\"0xd4d1a59767271eefdc7830a772b9732a11d503531d972ab8c981a6b1c0e666e5\")\n        /* \"contracts/MyToken.sol\":3725:3748  payable(owner).transfer */\n      0xffffffffffffffffffffffffffffffffffffffff\n      and\n        /* \"contracts/MyToken.sol\":3725:3771  payable(owner).transfer(address(this).balance) */\n      0x08fc\n        /* \"contracts/MyToken.sol\":3749:3770  address(this).balance */\n      selfbalance\n        /* \"contracts/MyToken.sol\":3725:3771  payable(owner).transfer(address(this).balance) */\n      swap1\n      dup2\n      iszero\n      mul\n      swap1\n      mload(0x40)\n      0x00\n      mload(0x40)\n      dup1\n      dup4\n      sub\n      dup2\n      dup6\n      dup9\n      dup9\n      call\n      swap4\n      pop\n      pop\n      pop\n      pop\n      iszero\n      dup1\n      iszero\n      tag_96\n      jumpi\n      returndatasize\n      0x00\n      dup1\n      returndatacopy\n      revert(0x00, returndatasize)\n    tag_96:\n      pop\n        /* \"contracts/MyToken.sol\":3625:3778  function withdraw_ether() external only_owner {... */\n      jump\t// out\n        /* \"contracts/MyToken.sol\":237:307  uint256 public constant max_supply = 1_000_000 * 10**uint256(decimals) */\n    tag_49:\n        /* \"contracts/MyToken.sol\":229:231  18 */\n      0x12\n        /* \"contracts/MyToken.sol\":290:307  uint256(decimals) */\n      0xff\n      and\n        /* \"contracts/MyToken.sol\":286:288  10 */\n      0x0a\n        /* \"contracts/MyToken.sol\":286:307  10**uint256(decimals) */\n      tag_97\n      swap2\n      swap1\n      tag_98\n      jump\t// in\n    tag_97:\n        /* \"contracts/MyToken.sol\":274:283  1_000_000 */\n      0x0f4240\n        /* \"contracts/MyToken.sol\":274:307  1_000_000 * 10**uint256(decimals) */\n      tag_99\n      swap2\n      swap1\n      tag_100\n      jump\t// in\n    tag_99:\n        /* \"contracts/MyToken.sol\":237:307  uint256 public constant max_supply = 1_000_000 * 10**uint256(decimals) */\n      dup2\n      jump\t// out\n        /* \"contracts/MyToken.sol\":433:463  address public immutable owner */\n    tag_53:\n      immutable(\"0xd4d1a59767271eefdc7830a772b9732a11d503531d972ab8c981a6b1c0e666e5\")\n      dup2\n      jump\t// out\n        /* \"contracts/MyToken.sol\":153:190  string public constant symbol = \"BST\" */\n    tag_58:\n      mload(0x40)\n      dup1\n      0x40\n      add\n      0x40\n      mstore\n      dup1\n      0x03\n      dup2\n      mstore\n      0x20\n      add\n      0x4253540000000000000000000000000000000000000000000000000000000000\n      dup2\n      mstore\n      pop\n      dup2\n      jump\t// out\n        /* \"contracts/MyToken.sol\":2829:2998  function burn(address from_, uint256 amount_) external no_reentry valid_address(msg.sender) {... */\n    tag_63:\n        /* \"contracts/MyToken.sol\":1649:1655  locked */\n      0x02\n      0x00\n      swap1\n      sload\n      swap1\n      0x0100\n      exp\n      swap1\n      div\n      0xff\n      and\n        /* \"contracts/MyToken.sol\":1648:1655  !locked */\n      iszero\n        /* \"contracts/MyToken.sol\":1640:1693  require(!locked, \"Re-entrant call is not supported.\") */\n      tag_102\n      jumpi\n      mload(0x40)\n      0x08c379a000000000000000000000000000000000000000000000000000000000\n      dup2\n      mstore\n      0x04\n      add\n      tag_103\n      swap1\n      tag_83\n      jump\t// in\n    tag_103:\n      mload(0x40)\n      dup1\n      swap2\n      sub\n      swap1\n      revert\n    tag_102:\n        /* \"contracts/MyToken.sol\":1712:1716  true */\n      0x01\n        /* \"contracts/MyToken.sol\":1703:1709  locked */\n      0x02\n      0x00\n        /* \"contracts/MyToken.sol\":1703:1716  locked = true */\n      0x0100\n      exp\n      dup2\n      sload\n      dup2\n      0xff\n      mul\n      not\n      and\n      swap1\n      dup4\n      iszero\n      iszero\n      mul\n      or\n      swap1\n      sstore\n      pop\n        /* \"contracts/MyToken.sol\":2909:2919  msg.sender */\n      caller\n        /* \"contracts/MyToken.sol\":1445:1446  0 */\n      0x00\n        /* \"contracts/MyToken.sol\":1432:1447  a != address(0) */\n      0xffffffffffffffffffffffffffffffffffffffff\n      and\n        /* \"contracts/MyToken.sol\":1432:1433  a */\n      dup2\n        /* \"contracts/MyToken.sol\":1432:1447  a != address(0) */\n      0xffffffffffffffffffffffffffffffffffffffff\n      and\n      sub\n        /* \"contracts/MyToken.sol\":1424:1476  require(a != address(0), \"Can not use null address\") */\n      tag_105\n      jumpi\n      mload(0x40)\n      0x08c379a000000000000000000000000000000000000000000000000000000000\n      dup2\n      mstore\n      0x04\n      add\n      tag_106\n      swap1\n      tag_87\n      jump\t// in\n    tag_106:\n      mload(0x40)\n      dup1\n      swap2\n      sub\n      swap1\n      revert\n    tag_105:\n        /* \"contracts/MyToken.sol\":2970:2991  burn_(from_, amount_) */\n      tag_108\n        /* \"contracts/MyToken.sol\":2976:2981  from_ */\n      dup4\n        /* \"contracts/MyToken.sol\":2983:2990  amount_ */\n      dup4\n        /* \"contracts/MyToken.sol\":2970:2975  burn_ */\n      tag_109\n        /* \"contracts/MyToken.sol\":2970:2991  burn_(from_, amount_) */\n      jump\t// in\n    tag_108:\n        /* \"contracts/MyToken.sol\":1726:1727  _ */\n      pop\n        /* \"contracts/MyToken.sol\":1746:1751  false */\n      0x00\n        /* \"contracts/MyToken.sol\":1737:1743  locked */\n      0x02\n      0x00\n        /* \"contracts/MyToken.sol\":1737:1751  locked = false */\n      0x0100\n      exp\n      dup2\n      sload\n      dup2\n      0xff\n      mul\n      not\n      and\n      swap1\n      dup4\n      iszero\n      iszero\n      mul\n      or\n      swap1\n      sstore\n      pop\n        /* \"contracts/MyToken.sol\":2829:2998  function burn(address from_, uint256 amount_) external no_reentry valid_address(msg.sender) {... */\n      pop\n      pop\n      jump\t// out\n        /* \"contracts/MyToken.sol\":3004:3463  function transfer(address to_, uint256 amount_)... */\n    tag_67:\n        /* \"contracts/MyToken.sol\":3166:3170  bool */\n      0x00\n        /* \"contracts/MyToken.sol\":1649:1655  locked */\n      0x02\n      0x00\n      swap1\n      sload\n      swap1\n      0x0100\n      exp\n      swap1\n      div\n      0xff\n      and\n        /* \"contracts/MyToken.sol\":1648:1655  !locked */\n      iszero\n        /* \"contracts/MyToken.sol\":1640:1693  require(!locked, \"Re-entrant call is not supported.\") */\n      tag_111\n      jumpi\n      mload(0x40)\n      0x08c379a000000000000000000000000000000000000000000000000000000000\n      dup2\n      mstore\n      0x04\n      add\n      tag_112\n      swap1\n      tag_83\n      jump\t// in\n    tag_112:\n      mload(0x40)\n      dup1\n      swap2\n      sub\n      swap1\n      revert\n    tag_111:\n        /* \"contracts/MyToken.sol\":1712:1716  true */\n      0x01\n        /* \"contracts/MyToken.sol\":1703:1709  locked */\n      0x02\n      0x00\n        /* \"contracts/MyToken.sol\":1703:1716  locked = true */\n      0x0100\n      exp\n      dup2\n      sload\n      dup2\n      0xff\n      mul\n      not\n      and\n      swap1\n      dup4\n      iszero\n      iszero\n      mul\n      or\n      swap1\n      sstore\n      pop\n        /* \"contracts/MyToken.sol\":3110:3120  msg.sender */\n      caller\n        /* \"contracts/MyToken.sol\":1445:1446  0 */\n      0x00\n        /* \"contracts/MyToken.sol\":1432:1447  a != address(0) */\n      0xffffffffffffffffffffffffffffffffffffffff\n      and\n        /* \"contracts/MyToken.sol\":1432:1433  a */\n      dup2\n        /* \"contracts/MyToken.sol\":1432:1447  a != address(0) */\n      0xffffffffffffffffffffffffffffffffffffffff\n      and\n      sub\n        /* \"contracts/MyToken.sol\":1424:1476  require(a != address(0), \"Can not use null address\") */\n      tag_114\n      jumpi\n      mload(0x40)\n      0x08c379a000000000000000000000000000000000000000000000000000000000\n      dup2\n      mstore\n      0x04\n      add\n      tag_115\n      swap1\n      tag_87\n      jump\t// in\n    tag_115:\n      mload(0x40)\n      dup1\n      swap2\n      sub\n      swap1\n      revert\n    tag_114:\n        /* \"contracts/MyToken.sol\":3144:3147  to_ */\n      dup4\n        /* \"contracts/MyToken.sol\":1445:1446  0 */\n      0x00\n        /* \"contracts/MyToken.sol\":1432:1447  a != address(0) */\n      0xffffffffffffffffffffffffffffffffffffffff\n      and\n        /* \"contracts/MyToken.sol\":1432:1433  a */\n      dup2\n        /* \"contracts/MyToken.sol\":1432:1447  a != address(0) */\n      0xffffffffffffffffffffffffffffffffffffffff\n      and\n      sub\n        /* \"contracts/MyToken.sol\":1424:1476  require(a != address(0), \"Can not use null address\") */\n      tag_117\n      jumpi\n      mload(0x40)\n      0x08c379a000000000000000000000000000000000000000000000000000000000\n      dup2\n      mstore\n      0x04\n      add\n      tag_118\n      swap1\n      tag_87\n      jump\t// in\n    tag_118:\n      mload(0x40)\n      dup1\n      swap2\n      sub\n      swap1\n      revert\n    tag_117:\n        /* \"contracts/MyToken.sol\":3209:3210  0 */\n      0x00\n        /* \"contracts/MyToken.sol\":3194:3211  to_ != address(0) */\n      0xffffffffffffffffffffffffffffffffffffffff\n      and\n        /* \"contracts/MyToken.sol\":3194:3197  to_ */\n      dup6\n        /* \"contracts/MyToken.sol\":3194:3211  to_ != address(0) */\n      0xffffffffffffffffffffffffffffffffffffffff\n      and\n      sub\n        /* \"contracts/MyToken.sol\":3186:3231  require(to_ != address(0), \"Invalid address\") */\n      tag_120\n      jumpi\n      mload(0x40)\n      0x08c379a000000000000000000000000000000000000000000000000000000000\n      dup2\n      mstore\n      0x04\n      add\n      tag_121\n      swap1\n      tag_122\n      jump\t// in\n    tag_121:\n      mload(0x40)\n      dup1\n      swap2\n      sub\n      swap1\n      revert\n    tag_120:\n        /* \"contracts/MyToken.sol\":3275:3282  amount_ */\n      dup4\n        /* \"contracts/MyToken.sol\":3249:3259  balance_of */\n      0x01\n        /* \"contracts/MyToken.sol\":3249:3271  balance_of[msg.sender] */\n      0x00\n        /* \"contracts/MyToken.sol\":3260:3270  msg.sender */\n      caller\n        /* \"contracts/MyToken.sol\":3249:3271  balance_of[msg.sender] */\n      0xffffffffffffffffffffffffffffffffffffffff\n      and\n      0xffffffffffffffffffffffffffffffffffffffff\n      and\n      dup2\n      mstore\n      0x20\n      add\n      swap1\n      dup2\n      mstore\n      0x20\n      add\n      0x00\n      keccak256\n      sload\n        /* \"contracts/MyToken.sol\":3249:3282  balance_of[msg.sender] >= amount_ */\n      lt\n      iszero\n        /* \"contracts/MyToken.sol\":3241:3305  require(balance_of[msg.sender] >= amount_, \"Insufficient funds\") */\n      tag_123\n      jumpi\n      mload(0x40)\n      0x08c379a000000000000000000000000000000000000000000000000000000000\n      dup2\n      mstore\n      0x04\n      add\n      tag_124\n      swap1\n      tag_125\n      jump\t// in\n    tag_124:\n      mload(0x40)\n      dup1\n      swap2\n      sub\n      swap1\n      revert\n    tag_123:\n        /* \"contracts/MyToken.sol\":3342:3349  amount_ */\n      dup4\n        /* \"contracts/MyToken.sol\":3316:3326  balance_of */\n      0x01\n        /* \"contracts/MyToken.sol\":3316:3338  balance_of[msg.sender] */\n      0x00\n        /* \"contracts/MyToken.sol\":3327:3337  msg.sender */\n      caller\n        /* \"contracts/MyToken.sol\":3316:3338  balance_of[msg.sender] */\n      0xffffffffffffffffffffffffffffffffffffffff\n      and\n      0xffffffffffffffffffffffffffffffffffffffff\n      and\n      dup2\n      mstore\n      0x20\n      add\n      swap1\n      dup2\n      mstore\n      0x20\n      add\n      0x00\n      keccak256\n      0x00\n        /* \"contracts/MyToken.sol\":3316:3349  balance_of[msg.sender] -= amount_ */\n      dup3\n      dup3\n      sload\n      tag_126\n      swap2\n      swap1\n      tag_127\n      jump\t// in\n    tag_126:\n      swap3\n      pop\n      pop\n      dup2\n      swap1\n      sstore\n      pop\n        /* \"contracts/MyToken.sol\":3378:3385  amount_ */\n      dup4\n        /* \"contracts/MyToken.sol\":3359:3369  balance_of */\n      0x01\n        /* \"contracts/MyToken.sol\":3359:3374  balance_of[to_] */\n      0x00\n        /* \"contracts/MyToken.sol\":3370:3373  to_ */\n      dup8\n        /* \"contracts/MyToken.sol\":3359:3374  balance_of[to_] */\n      0xffffffffffffffffffffffffffffffffffffffff\n      and\n      0xffffffffffffffffffffffffffffffffffffffff\n      and\n      dup2\n      mstore\n      0x20\n      add\n      swap1\n      dup2\n      mstore\n      0x20\n      add\n      0x00\n      keccak256\n      0x00\n        /* \"contracts/MyToken.sol\":3359:3385  balance_of[to_] += amount_ */\n      dup3\n      dup3\n      sload\n      tag_128\n      swap2\n      swap1\n      tag_129\n      jump\t// in\n    tag_128:\n      swap3\n      pop\n      pop\n      dup2\n      swap1\n      sstore\n      pop\n        /* \"contracts/MyToken.sol\":3422:3425  to_ */\n      dup5\n        /* \"contracts/MyToken.sol\":3401:3435  Transfer(msg.sender, to_, amount_) */\n      0xffffffffffffffffffffffffffffffffffffffff\n      and\n        /* \"contracts/MyToken.sol\":3410:3420  msg.sender */\n      caller\n        /* \"contracts/MyToken.sol\":3401:3435  Transfer(msg.sender, to_, amount_) */\n      0xffffffffffffffffffffffffffffffffffffffff\n      and\n      0xddf252ad1be2c89b69c2b068fc378daa952ba7f163c4a11628f55a4df523b3ef\n        /* \"contracts/MyToken.sol\":3427:3434  amount_ */\n      dup7\n        /* \"contracts/MyToken.sol\":3401:3435  Transfer(msg.sender, to_, amount_) */\n      mload(0x40)\n      tag_130\n      swap2\n      swap1\n      tag_29\n      jump\t// in\n    tag_130:\n      mload(0x40)\n      dup1\n      swap2\n      sub\n      swap1\n      log3\n        /* \"contracts/MyToken.sol\":3452:3456  true */\n      0x01\n        /* \"contracts/MyToken.sol\":3445:3456  return true */\n      swap3\n      pop\n        /* \"contracts/MyToken.sol\":1486:1487  _ */\n      pop\n        /* \"contracts/MyToken.sol\":1726:1727  _ */\n      pop\n        /* \"contracts/MyToken.sol\":1746:1751  false */\n      0x00\n        /* \"contracts/MyToken.sol\":1737:1743  locked */\n      0x02\n      0x00\n        /* \"contracts/MyToken.sol\":1737:1751  locked = false */\n      0x0100\n      exp\n      dup2\n      sload\n      dup2\n      0xff\n      mul\n      not\n      and\n      swap1\n      dup4\n      iszero\n      iszero\n      mul\n      or\n      swap1\n      sstore\n      pop\n        /* \"contracts/MyToken.sol\":3004:3463  function transfer(address to_, uint256 amount_)... */\n      swap3\n      swap2\n      pop\n      pop\n      jump\t// out\n        /* \"contracts/MyToken.sol\":508:553  mapping(address => uint256) public balance_of */\n    tag_73:\n      mstore(0x20, 0x01)\n      dup1\n      0x00\n      mstore\n      keccak256(0x00, 0x40)\n      0x00\n      swap2\n      pop\n      swap1\n      pop\n      sload\n      dup2\n      jump\t// out\n        /* \"contracts/MyToken.sol\":1764:2093  function mint_(address to_, uint256 amount_) internal {... */\n    tag_90:\n        /* \"contracts/MyToken.sol\":229:231  18 */\n      0x12\n        /* \"contracts/MyToken.sol\":290:307  uint256(decimals) */\n      0xff\n      and\n        /* \"contracts/MyToken.sol\":286:288  10 */\n      0x0a\n        /* \"contracts/MyToken.sol\":286:307  10**uint256(decimals) */\n      tag_132\n      swap2\n      swap1\n      tag_98\n      jump\t// in\n    tag_132:\n        /* \"contracts/MyToken.sol\":274:283  1_000_000 */\n      0x0f4240\n        /* \"contracts/MyToken.sol\":274:307  1_000_000 * 10**uint256(decimals) */\n      tag_133\n      swap2\n      swap1\n      tag_100\n      jump\t// in\n    tag_133:\n        /* \"contracts/MyToken.sol\":1864:1871  amount_ */\n      dup2\n        /* \"contracts/MyToken.sol\":1849:1861  total_supply */\n      sload(0x00)\n        /* \"contracts/MyToken.sol\":1849:1871  total_supply + amount_ */\n      tag_134\n      swap2\n      swap1\n      tag_129\n      jump\t// in\n    tag_134:\n        /* \"contracts/MyToken.sol\":1849:1885  total_supply + amount_ <= max_supply */\n      gt\n      iszero\n        /* \"contracts/MyToken.sol\":1828:1935  require(... */\n      tag_135\n      jumpi\n      mload(0x40)\n      0x08c379a000000000000000000000000000000000000000000000000000000000\n      dup2\n      mstore\n      0x04\n      add\n      tag_136\n      swap1\n      tag_137\n      jump\t// in\n    tag_136:\n      mload(0x40)\n      dup1\n      swap2\n      sub\n      swap1\n      revert\n    tag_135:\n        /* \"contracts/MyToken.sol\":1961:1968  amount_ */\n      dup1\n        /* \"contracts/MyToken.sol\":1945:1957  total_supply */\n      0x00\n      dup1\n        /* \"contracts/MyToken.sol\":1945:1968  total_supply += amount_ */\n      dup3\n      dup3\n      sload\n      tag_138\n      swap2\n      swap1\n      tag_129\n      jump\t// in\n    tag_138:\n      swap3\n      pop\n      pop\n      dup2\n      swap1\n      sstore\n      pop\n        /* \"contracts/MyToken.sol\":1997:2004  amount_ */\n      dup1\n        /* \"contracts/MyToken.sol\":1978:1988  balance_of */\n      0x01\n        /* \"contracts/MyToken.sol\":1978:1993  balance_of[to_] */\n      0x00\n        /* \"contracts/MyToken.sol\":1989:1992  to_ */\n      dup5\n        /* \"contracts/MyToken.sol\":1978:1993  balance_of[to_] */\n      0xffffffffffffffffffffffffffffffffffffffff\n      and\n      0xffffffffffffffffffffffffffffffffffffffff\n      and\n      dup2\n      mstore\n      0x20\n      add\n      swap1\n      dup2\n      mstore\n      0x20\n      add\n      0x00\n      keccak256\n      0x00\n        /* \"contracts/MyToken.sol\":1978:2004  balance_of[to_] += amount_ */\n      dup3\n      dup3\n      sload\n      tag_139\n      swap2\n      swap1\n      tag_129\n      jump\t// in\n    tag_139:\n      swap3\n      pop\n      pop\n      dup2\n      swap1\n      sstore\n      pop\n        /* \"contracts/MyToken.sol\":2024:2027  to_ */\n      dup2\n        /* \"contracts/MyToken.sol\":2019:2037  Mint(to_, amount_) */\n      0xffffffffffffffffffffffffffffffffffffffff\n      and\n      0x0f6798a560793a54c3bcfe86a93cde1e73087d944c0ea20544137d4121396885\n        /* \"contracts/MyToken.sol\":2029:2036  amount_ */\n      dup3\n        /* \"contracts/MyToken.sol\":2019:2037  Mint(to_, amount_) */\n      mload(0x40)\n      tag_140\n      swap2\n      swap1\n      tag_29\n      jump\t// in\n    tag_140:\n      mload(0x40)\n      dup1\n      swap2\n      sub\n      swap1\n      log2\n        /* \"contracts/MyToken.sol\":2073:2076  to_ */\n      dup2\n        /* \"contracts/MyToken.sol\":2052:2086  Transfer(address(0), to_, amount_) */\n      0xffffffffffffffffffffffffffffffffffffffff\n      and\n        /* \"contracts/MyToken.sol\":2069:2070  0 */\n      0x00\n        /* \"contracts/MyToken.sol\":2052:2086  Transfer(address(0), to_, amount_) */\n      0xffffffffffffffffffffffffffffffffffffffff\n      and\n      0xddf252ad1be2c89b69c2b068fc378daa952ba7f163c4a11628f55a4df523b3ef\n        /* \"contracts/MyToken.sol\":2078:2085  amount_ */\n      dup4\n        /* \"contracts/MyToken.sol\":2052:2086  Transfer(address(0), to_, amount_) */\n      mload(0x40)\n      tag_141\n      swap2\n      swap1\n      tag_29\n      jump\t// in\n    tag_141:\n      mload(0x40)\n      dup1\n      swap2\n      sub\n      swap1\n      log3\n        /* \"contracts/MyToken.sol\":1764:2093  function mint_(address to_, uint256 amount_) internal {... */\n      pop\n      pop\n      jump\t// out\n        /* \"contracts/MyToken.sol\":2269:2692  function burn_(address from_, uint256 amount_) internal {... */\n    tag_109:\n        /* \"contracts/MyToken.sol\":2444:2451  amount_ */\n      dup1\n        /* \"contracts/MyToken.sol\":2423:2433  balance_of */\n      0x01\n        /* \"contracts/MyToken.sol\":2423:2440  balance_of[from_] */\n      0x00\n        /* \"contracts/MyToken.sol\":2434:2439  from_ */\n      dup5\n        /* \"contracts/MyToken.sol\":2423:2440  balance_of[from_] */\n      0xffffffffffffffffffffffffffffffffffffffff\n      and\n      0xffffffffffffffffffffffffffffffffffffffff\n      and\n      dup2\n      mstore\n      0x20\n      add\n      swap1\n      dup2\n      mstore\n      0x20\n      add\n      0x00\n      keccak256\n      sload\n        /* \"contracts/MyToken.sol\":2423:2451  balance_of[from_] >= amount_ */\n      lt\n      iszero\n        /* \"contracts/MyToken.sol\":2415:2472  require(balance_of[from_] >= amount_, \"Insuffient funds\") */\n      tag_143\n      jumpi\n      mload(0x40)\n      0x08c379a000000000000000000000000000000000000000000000000000000000\n      dup2\n      mstore\n      0x04\n      add\n      tag_144\n      swap1\n      tag_145\n      jump\t// in\n    tag_144:\n      mload(0x40)\n      dup1\n      swap2\n      sub\n      swap1\n      revert\n    tag_143:\n        /* \"contracts/MyToken.sol\":2498:2505  amount_ */\n      dup1\n        /* \"contracts/MyToken.sol\":2482:2494  total_supply */\n      0x00\n      dup1\n        /* \"contracts/MyToken.sol\":2482:2505  total_supply -= amount_ */\n      dup3\n      dup3\n      sload\n      tag_146\n      swap2\n      swap1\n      tag_127\n      jump\t// in\n    tag_146:\n      swap3\n      pop\n      pop\n      dup2\n      swap1\n      sstore\n      pop\n        /* \"contracts/MyToken.sol\":2536:2543  amount_ */\n      dup1\n        /* \"contracts/MyToken.sol\":2515:2525  balance_of */\n      0x01\n        /* \"contracts/MyToken.sol\":2515:2532  balance_of[from_] */\n      0x00\n        /* \"contracts/MyToken.sol\":2526:2531  from_ */\n      dup5\n        /* \"contracts/MyToken.sol\":2515:2532  balance_of[from_] */\n      0xffffffffffffffffffffffffffffffffffffffff\n      and\n      0xffffffffffffffffffffffffffffffffffffffff\n      and\n      dup2\n      mstore\n      0x20\n      add\n      swap1\n      dup2\n      mstore\n      0x20\n      add\n      0x00\n      keccak256\n      0x00\n        /* \"contracts/MyToken.sol\":2515:2543  balance_of[from_] -= amount_ */\n      dup3\n      dup3\n      sload\n      tag_147\n      swap2\n      swap1\n      tag_127\n      jump\t// in\n    tag_147:\n      swap3\n      pop\n      pop\n      dup2\n      swap1\n      sstore\n      pop\n        /* \"contracts/MyToken.sol\":2553:2573  mint(from_, amount_) */\n      tag_148\n        /* \"contracts/MyToken.sol\":2558:2563  from_ */\n      dup3\n        /* \"contracts/MyToken.sol\":2565:2572  amount_ */\n      dup3\n        /* \"contracts/MyToken.sol\":2553:2557  mint */\n      tag_43\n        /* \"contracts/MyToken.sol\":2553:2573  mint(from_, amount_) */\n      jump\t// in\n    tag_148:\n        /* \"contracts/MyToken.sol\":2593:2598  from_ */\n      dup2\n        /* \"contracts/MyToken.sol\":2588:2608  Burn(from_, amount_) */\n      0xffffffffffffffffffffffffffffffffffffffff\n      and\n      0xcc16f5dbb4873280815c1ee09dbd06736cffcc184412cf7a71a0fdb75d397ca5\n        /* \"contracts/MyToken.sol\":2600:2607  amount_ */\n      dup3\n        /* \"contracts/MyToken.sol\":2588:2608  Burn(from_, amount_) */\n      mload(0x40)\n      tag_149\n      swap2\n      swap1\n      tag_29\n      jump\t// in\n    tag_149:\n      mload(0x40)\n      dup1\n      swap2\n      sub\n      swap1\n      log2\n        /* \"contracts/MyToken.sol\":2647:2648  0 */\n      0x00\n        /* \"contracts/MyToken.sol\":2623:2659  Transfer(from_, address(0), amount_) */\n      0xffffffffffffffffffffffffffffffffffffffff\n      and\n        /* \"contracts/MyToken.sol\":2632:2637  from_ */\n      dup3\n        /* \"contracts/MyToken.sol\":2623:2659  Transfer(from_, address(0), amount_) */\n      0xffffffffffffffffffffffffffffffffffffffff\n      and\n      0xddf252ad1be2c89b69c2b068fc378daa952ba7f163c4a11628f55a4df523b3ef\n        /* \"contracts/MyToken.sol\":2651:2658  amount_ */\n      dup4\n        /* \"contracts/MyToken.sol\":2623:2659  Transfer(from_, address(0), amount_) */\n      mload(0x40)\n      tag_150\n      swap2\n      swap1\n      tag_29\n      jump\t// in\n    tag_150:\n      mload(0x40)\n      dup1\n      swap2\n      sub\n      swap1\n      log3\n        /* \"contracts/MyToken.sol\":2269:2692  function burn_(address from_, uint256 amount_) internal {... */\n      pop\n      pop\n      jump\t// out\n        /* \"#utility.yul\":7:106   */\n    tag_151:\n        /* \"#utility.yul\":59:65   */\n      0x00\n        /* \"#utility.yul\":93:98   */\n      dup2\n        /* \"#utility.yul\":87:99   */\n      mload\n        /* \"#utility.yul\":77:99   */\n      swap1\n      pop\n        /* \"#utility.yul\":7:106   */\n      swap2\n      swap1\n      pop\n      jump\t// out\n        /* \"#utility.yul\":112:281   */\n    tag_152:\n        /* \"#utility.yul\":196:207   */\n      0x00\n        /* \"#utility.yul\":230:236   */\n      dup3\n        /* \"#utility.yul\":225:228   */\n      dup3\n        /* \"#utility.yul\":218:237   */\n      mstore\n        /* \"#utility.yul\":270:274   */\n      0x20\n        /* \"#utility.yul\":265:268   */\n      dup3\n        /* \"#utility.yul\":261:275   */\n      add\n        /* \"#utility.yul\":246:275   */\n      swap1\n      pop\n        /* \"#utility.yul\":112:281   */\n      swap3\n      swap2\n      pop\n      pop\n      jump\t// out\n        /* \"#utility.yul\":287:426   */\n    tag_153:\n        /* \"#utility.yul\":376:382   */\n      dup3\n        /* \"#utility.yul\":371:374   */\n      dup2\n        /* \"#utility.yul\":366:369   */\n      dup4\n        /* \"#utility.yul\":360:383   */\n      mcopy\n        /* \"#utility.yul\":417:418   */\n      0x00\n        /* \"#utility.yul\":408:414   */\n      dup4\n        /* \"#utility.yul\":403:406   */\n      dup4\n        /* \"#utility.yul\":399:415   */\n      add\n        /* \"#utility.yul\":392:419   */\n      mstore\n        /* \"#utility.yul\":287:426   */\n      pop\n      pop\n      pop\n      jump\t// out\n        /* \"#utility.yul\":432:534   */\n    tag_154:\n        /* \"#utility.yul\":473:479   */\n      0x00\n        /* \"#utility.yul\":524:526   */\n      0x1f\n        /* \"#utility.yul\":520:527   */\n      not\n        /* \"#utility.yul\":515:517   */\n      0x1f\n        /* \"#utility.yul\":508:513   */\n      dup4\n        /* \"#utility.yul\":504:518   */\n      add\n        /* \"#utility.yul\":500:528   */\n      and\n        /* \"#utility.yul\":490:528   */\n      swap1\n      pop\n        /* \"#utility.yul\":432:534   */\n      swap2\n      swap1\n      pop\n      jump\t// out\n        /* \"#utility.yul\":540:917   */\n    tag_155:\n        /* \"#utility.yul\":628:631   */\n      0x00\n        /* \"#utility.yul\":656:695   */\n      tag_196\n        /* \"#utility.yul\":689:694   */\n      dup3\n        /* \"#utility.yul\":656:695   */\n      tag_151\n      jump\t// in\n    tag_196:\n        /* \"#utility.yul\":711:782   */\n      tag_197\n        /* \"#utility.yul\":775:781   */\n      dup2\n        /* \"#utility.yul\":770:773   */\n      dup6\n        /* \"#utility.yul\":711:782   */\n      tag_152\n      jump\t// in\n    tag_197:\n        /* \"#utility.yul\":704:782   */\n      swap4\n      pop\n        /* \"#utility.yul\":791:856   */\n      tag_198\n        /* \"#utility.yul\":849:855   */\n      dup2\n        /* \"#utility.yul\":844:847   */\n      dup6\n        /* \"#utility.yul\":837:841   */\n      0x20\n        /* \"#utility.yul\":830:835   */\n      dup7\n        /* \"#utility.yul\":826:842   */\n      add\n        /* \"#utility.yul\":791:856   */\n      tag_153\n      jump\t// in\n    tag_198:\n        /* \"#utility.yul\":881:910   */\n      tag_199\n        /* \"#utility.yul\":903:909   */\n      dup2\n        /* \"#utility.yul\":881:910   */\n      tag_154\n      jump\t// in\n    tag_199:\n        /* \"#utility.yul\":876:879   */\n      dup5\n        /* \"#utility.yul\":872:911   */\n      add\n        /* \"#utility.yul\":865:911   */\n      swap2\n      pop\n        /* \"#utility.yul\":632:917   */\n      pop\n        /* \"#utility.yul\":540:917   */\n      swap3\n      swap2\n      pop\n      pop\n      jump\t// out\n        /* \"#utility.yul\":923:1236   */\n    tag_22:\n        /* \"#utility.yul\":1036:1040   */\n      0x00\n        /* \"#utility.yul\":1074:1076   */\n      0x20\n        /* \"#utility.yul\":1063:1072   */\n      dup3\n        /* \"#utility.yul\":1059:1077   */\n      add\n        /* \"#utility.yul\":1051:1077   */\n      swap1\n      pop\n        /* \"#utility.yul\":1123:1132   */\n      dup2\n        /* \"#utility.yul\":1117:1121   */\n      dup2\n        /* \"#utility.yul\":1113:1133   */\n      sub\n        /* \"#utility.yul\":1109:1110   */\n      0x00\n        /* \"#utility.yul\":1098:1107   */\n      dup4\n        /* \"#utility.yul\":1094:1111   */\n      add\n        /* \"#utility.yul\":1087:1134   */\n      mstore\n        /* \"#utility.yul\":1151:1229   */\n      tag_201\n        /* \"#utility.yul\":1224:1228   */\n      dup2\n        /* \"#utility.yul\":1215:1221   */\n      dup5\n        /* \"#utility.yul\":1151:1229   */\n      tag_155\n      jump\t// in\n    tag_201:\n        /* \"#utility.yul\":1143:1229   */\n      swap1\n      pop\n        /* \"#utility.yul\":923:1236   */\n      swap3\n      swap2\n      pop\n      pop\n      jump\t// out\n        /* \"#utility.yul\":1323:1440   */\n    tag_157:\n        /* \"#utility.yul\":1432:1433   */\n      0x00\n        /* \"#utility.yul\":1429:1430   */\n      dup1\n        /* \"#utility.yul\":1422:1434   */\n      revert\n        /* \"#utility.yul\":1569:1695   */\n    tag_159:\n        /* \"#utility.yul\":1606:1613   */\n      0x00\n        /* \"#utility.yul\":1646:1688   */\n      0xffffffffffffffffffffffffffffffffffffffff\n        /* \"#utility.yul\":1639:1644   */\n      dup3\n        /* \"#utility.yul\":1635:1689   */\n      and\n        /* \"#utility.yul\":1624:1689   */\n      swap1\n      pop\n        /* \"#utility.yul\":1569:1695   */\n      swap2\n      swap1\n      pop\n      jump\t// out\n        /* \"#utility.yul\":1701:1797   */\n    tag_160:\n        /* \"#utility.yul\":1738:1745   */\n      0x00\n        /* \"#utility.yul\":1767:1791   */\n      tag_207\n        /* \"#utility.yul\":1785:1790   */\n      dup3\n        /* \"#utility.yul\":1767:1791   */\n      tag_159\n      jump\t// in\n    tag_207:\n        /* \"#utility.yul\":1756:1791   */\n      swap1\n      pop\n        /* \"#utility.yul\":1701:1797   */\n      swap2\n      swap1\n      pop\n      jump\t// out\n        /* \"#utility.yul\":1803:1925   */\n    tag_161:\n        /* \"#utility.yul\":1876:1900   */\n      tag_209\n        /* \"#utility.yul\":1894:1899   */\n      dup2\n        /* \"#utility.yul\":1876:1900   */\n      tag_160\n      jump\t// in\n    tag_209:\n        /* \"#utility.yul\":1869:1874   */\n      dup2\n        /* \"#utility.yul\":1866:1901   */\n      eq\n        /* \"#utility.yul\":1856:1919   */\n      tag_210\n      jumpi\n        /* \"#utility.yul\":1915:1916   */\n      0x00\n        /* \"#utility.yul\":1912:1913   */\n      dup1\n        /* \"#utility.yul\":1905:1917   */\n      revert\n        /* \"#utility.yul\":1856:1919   */\n    tag_210:\n        /* \"#utility.yul\":1803:1925   */\n      pop\n      jump\t// out\n        /* \"#utility.yul\":1931:2070   */\n    tag_162:\n        /* \"#utility.yul\":1977:1982   */\n      0x00\n        /* \"#utility.yul\":2015:2021   */\n      dup2\n        /* \"#utility.yul\":2002:2022   */\n      calldataload\n        /* \"#utility.yul\":1993:2022   */\n      swap1\n      pop\n        /* \"#utility.yul\":2031:2064   */\n      tag_212\n        /* \"#utility.yul\":2058:2063   */\n      dup2\n        /* \"#utility.yul\":2031:2064   */\n      tag_161\n      jump\t// in\n    tag_212:\n        /* \"#utility.yul\":1931:2070   */\n      swap3\n      swap2\n      pop\n      pop\n      jump\t// out\n        /* \"#utility.yul\":2076:2405   */\n    tag_26:\n        /* \"#utility.yul\":2135:2141   */\n      0x00\n        /* \"#utility.yul\":2184:2186   */\n      0x20\n        /* \"#utility.yul\":2172:2181   */\n      dup3\n        /* \"#utility.yul\":2163:2170   */\n      dup5\n        /* \"#utility.yul\":2159:2182   */\n      sub\n        /* \"#utility.yul\":2155:2187   */\n      slt\n        /* \"#utility.yul\":2152:2271   */\n      iszero\n      tag_214\n      jumpi\n        /* \"#utility.yul\":2190:2269   */\n      tag_215\n      tag_157\n      jump\t// in\n    tag_215:\n        /* \"#utility.yul\":2152:2271   */\n    tag_214:\n        /* \"#utility.yul\":2310:2311   */\n      0x00\n        /* \"#utility.yul\":2335:2388   */\n      tag_216\n        /* \"#utility.yul\":2380:2387   */\n      dup5\n        /* \"#utility.yul\":2371:2377   */\n      dup3\n        /* \"#utility.yul\":2360:2369   */\n      dup6\n        /* \"#utility.yul\":2356:2378   */\n      add\n        /* \"#utility.yul\":2335:2388   */\n      tag_162\n      jump\t// in\n    tag_216:\n        /* \"#utility.yul\":2325:2388   */\n      swap2\n      pop\n        /* \"#utility.yul\":2281:2398   */\n      pop\n        /* \"#utility.yul\":2076:2405   */\n      swap3\n      swap2\n      pop\n      pop\n      jump\t// out\n        /* \"#utility.yul\":2411:2488   */\n    tag_163:\n        /* \"#utility.yul\":2448:2455   */\n      0x00\n        /* \"#utility.yul\":2477:2482   */\n      dup2\n        /* \"#utility.yul\":2466:2482   */\n      swap1\n      pop\n        /* \"#utility.yul\":2411:2488   */\n      swap2\n      swap1\n      pop\n      jump\t// out\n        /* \"#utility.yul\":2494:2612   */\n    tag_164:\n        /* \"#utility.yul\":2581:2605   */\n      tag_219\n        /* \"#utility.yul\":2599:2604   */\n      dup2\n        /* \"#utility.yul\":2581:2605   */\n      tag_163\n      jump\t// in\n    tag_219:\n        /* \"#utility.yul\":2576:2579   */\n      dup3\n        /* \"#utility.yul\":2569:2606   */\n      mstore\n        /* \"#utility.yul\":2494:2612   */\n      pop\n      pop\n      jump\t// out\n        /* \"#utility.yul\":2618:2840   */\n    tag_29:\n        /* \"#utility.yul\":2711:2715   */\n      0x00\n        /* \"#utility.yul\":2749:2751   */\n      0x20\n        /* \"#utility.yul\":2738:2747   */\n      dup3\n        /* \"#utility.yul\":2734:2752   */\n      add\n        /* \"#utility.yul\":2726:2752   */\n      swap1\n      pop\n        /* \"#utility.yul\":2762:2833   */\n      tag_221\n        /* \"#utility.yul\":2830:2831   */\n      0x00\n        /* \"#utility.yul\":2819:2828   */\n      dup4\n        /* \"#utility.yul\":2815:2832   */\n      add\n        /* \"#utility.yul\":2806:2812   */\n      dup5\n        /* \"#utility.yul\":2762:2833   */\n      tag_164\n      jump\t// in\n    tag_221:\n        /* \"#utility.yul\":2618:2840   */\n      swap3\n      swap2\n      pop\n      pop\n      jump\t// out\n        /* \"#utility.yul\":2846:2932   */\n    tag_165:\n        /* \"#utility.yul\":2881:2888   */\n      0x00\n        /* \"#utility.yul\":2921:2925   */\n      0xff\n        /* \"#utility.yul\":2914:2919   */\n      dup3\n        /* \"#utility.yul\":2910:2926   */\n      and\n        /* \"#utility.yul\":2899:2926   */\n      swap1\n      pop\n        /* \"#utility.yul\":2846:2932   */\n      swap2\n      swap1\n      pop\n      jump\t// out\n        /* \"#utility.yul\":2938:3050   */\n    tag_166:\n        /* \"#utility.yul\":3021:3043   */\n      tag_224\n        /* \"#utility.yul\":3037:3042   */\n      dup2\n        /* \"#utility.yul\":3021:3043   */\n      tag_165\n      jump\t// in\n    tag_224:\n        /* \"#utility.yul\":3016:3019   */\n      dup3\n        /* \"#utility.yul\":3009:3044   */\n      mstore\n        /* \"#utility.yul\":2938:3050   */\n      pop\n      pop\n      jump\t// out\n        /* \"#utility.yul\":3056:3270   */\n    tag_34:\n        /* \"#utility.yul\":3145:3149   */\n      0x00\n        /* \"#utility.yul\":3183:3185   */\n      0x20\n        /* \"#utility.yul\":3172:3181   */\n      dup3\n        /* \"#utility.yul\":3168:3186   */\n      add\n        /* \"#utility.yul\":3160:3186   */\n      swap1\n      pop\n        /* \"#utility.yul\":3196:3263   */\n      tag_226\n        /* \"#utility.yul\":3260:3261   */\n      0x00\n        /* \"#utility.yul\":3249:3258   */\n      dup4\n        /* \"#utility.yul\":3245:3262   */\n      add\n        /* \"#utility.yul\":3236:3242   */\n      dup5\n        /* \"#utility.yul\":3196:3263   */\n      tag_166\n      jump\t// in\n    tag_226:\n        /* \"#utility.yul\":3056:3270   */\n      swap3\n      swap2\n      pop\n      pop\n      jump\t// out\n        /* \"#utility.yul\":3276:3398   */\n    tag_167:\n        /* \"#utility.yul\":3349:3373   */\n      tag_228\n        /* \"#utility.yul\":3367:3372   */\n      dup2\n        /* \"#utility.yul\":3349:3373   */\n      tag_163\n      jump\t// in\n    tag_228:\n        /* \"#utility.yul\":3342:3347   */\n      dup2\n        /* \"#utility.yul\":3339:3374   */\n      eq\n        /* \"#utility.yul\":3329:3392   */\n      tag_229\n      jumpi\n        /* \"#utility.yul\":3388:3389   */\n      0x00\n        /* \"#utility.yul\":3385:3386   */\n      dup1\n        /* \"#utility.yul\":3378:3390   */\n      revert\n        /* \"#utility.yul\":3329:3392   */\n    tag_229:\n        /* \"#utility.yul\":3276:3398   */\n      pop\n      jump\t// out\n        /* \"#utility.yul\":3404:3543   */\n    tag_168:\n        /* \"#utility.yul\":3450:3455   */\n      0x00\n        /* \"#utility.yul\":3488:3494   */\n      dup2\n        /* \"#utility.yul\":3475:3495   */\n      calldataload\n        /* \"#utility.yul\":3466:3495   */\n      swap1\n      pop\n        /* \"#utility.yul\":3504:3537   */\n      tag_231\n        /* \"#utility.yul\":3531:3536   */\n      dup2\n        /* \"#utility.yul\":3504:3537   */\n      tag_167\n      jump\t// in\n    tag_231:\n        /* \"#utility.yul\":3404:3543   */\n      swap3\n      swap2\n      pop\n      pop\n      jump\t// out\n        /* \"#utility.yul\":3549:4023   */\n    tag_42:\n        /* \"#utility.yul\":3617:3623   */\n      0x00\n        /* \"#utility.yul\":3625:3631   */\n      dup1\n        /* \"#utility.yul\":3674:3676   */\n      0x40\n        /* \"#utility.yul\":3662:3671   */\n      dup4\n        /* \"#utility.yul\":3653:3660   */\n      dup6\n        /* \"#utility.yul\":3649:3672   */\n      sub\n        /* \"#utility.yul\":3645:3677   */\n      slt\n        /* \"#utility.yul\":3642:3761   */\n      iszero\n      tag_233\n      jumpi\n        /* \"#utility.yul\":3680:3759   */\n      tag_234\n      tag_157\n      jump\t// in\n    tag_234:\n        /* \"#utility.yul\":3642:3761   */\n    tag_233:\n        /* \"#utility.yul\":3800:3801   */\n      0x00\n        /* \"#utility.yul\":3825:3878   */\n      tag_235\n        /* \"#utility.yul\":3870:3877   */\n      dup6\n        /* \"#utility.yul\":3861:3867   */\n      dup3\n        /* \"#utility.yul\":3850:3859   */\n      dup7\n        /* \"#utility.yul\":3846:3868   */\n      add\n        /* \"#utility.yul\":3825:3878   */\n      tag_162\n      jump\t// in\n    tag_235:\n        /* \"#utility.yul\":3815:3878   */\n      swap3\n      pop\n        /* \"#utility.yul\":3771:3888   */\n      pop\n        /* \"#utility.yul\":3927:3929   */\n      0x20\n        /* \"#utility.yul\":3953:4006   */\n      tag_236\n        /* \"#utility.yul\":3998:4005   */\n      dup6\n        /* \"#utility.yul\":3989:3995   */\n      dup3\n        /* \"#utility.yul\":3978:3987   */\n      dup7\n        /* \"#utility.yul\":3974:3996   */\n      add\n        /* \"#utility.yul\":3953:4006   */\n      tag_168\n      jump\t// in\n    tag_236:\n        /* \"#utility.yul\":3943:4006   */\n      swap2\n      pop\n        /* \"#utility.yul\":3898:4016   */\n      pop\n        /* \"#utility.yul\":3549:4023   */\n      swap3\n      pop\n      swap3\n      swap1\n      pop\n      jump\t// out\n        /* \"#utility.yul\":4029:4147   */\n    tag_169:\n        /* \"#utility.yul\":4116:4140   */\n      tag_238\n        /* \"#utility.yul\":4134:4139   */\n      dup2\n        /* \"#utility.yul\":4116:4140   */\n      tag_160\n      jump\t// in\n    tag_238:\n        /* \"#utility.yul\":4111:4114   */\n      dup3\n        /* \"#utility.yul\":4104:4141   */\n      mstore\n        /* \"#utility.yul\":4029:4147   */\n      pop\n      pop\n      jump\t// out\n        /* \"#utility.yul\":4153:4375   */\n    tag_55:\n        /* \"#utility.yul\":4246:4250   */\n      0x00\n        /* \"#utility.yul\":4284:4286   */\n      0x20\n        /* \"#utility.yul\":4273:4282   */\n      dup3\n        /* \"#utility.yul\":4269:4287   */\n      add\n        /* \"#utility.yul\":4261:4287   */\n      swap1\n      pop\n        /* \"#utility.yul\":4297:4368   */\n      tag_240\n        /* \"#utility.yul\":4365:4366   */\n      0x00\n        /* \"#utility.yul\":4354:4363   */\n      dup4\n        /* \"#utility.yul\":4350:4367   */\n      add\n        /* \"#utility.yul\":4341:4347   */\n      dup5\n        /* \"#utility.yul\":4297:4368   */\n      tag_169\n      jump\t// in\n    tag_240:\n        /* \"#utility.yul\":4153:4375   */\n      swap3\n      swap2\n      pop\n      pop\n      jump\t// out\n        /* \"#utility.yul\":4381:4471   */\n    tag_170:\n        /* \"#utility.yul\":4415:4422   */\n      0x00\n        /* \"#utility.yul\":4458:4463   */\n      dup2\n        /* \"#utility.yul\":4451:4464   */\n      iszero\n        /* \"#utility.yul\":4444:4465   */\n      iszero\n        /* \"#utility.yul\":4433:4465   */\n      swap1\n      pop\n        /* \"#utility.yul\":4381:4471   */\n      swap2\n      swap1\n      pop\n      jump\t// out\n        /* \"#utility.yul\":4477:4586   */\n    tag_171:\n        /* \"#utility.yul\":4558:4579   */\n      tag_243\n        /* \"#utility.yul\":4573:4578   */\n      dup2\n        /* \"#utility.yul\":4558:4579   */\n      tag_170\n      jump\t// in\n    tag_243:\n        /* \"#utility.yul\":4553:4556   */\n      dup3\n        /* \"#utility.yul\":4546:4580   */\n      mstore\n        /* \"#utility.yul\":4477:4586   */\n      pop\n      pop\n      jump\t// out\n        /* \"#utility.yul\":4592:4802   */\n    tag_69:\n        /* \"#utility.yul\":4679:4683   */\n      0x00\n        /* \"#utility.yul\":4717:4719   */\n      0x20\n        /* \"#utility.yul\":4706:4715   */\n      dup3\n        /* \"#utility.yul\":4702:4720   */\n      add\n        /* \"#utility.yul\":4694:4720   */\n      swap1\n      pop\n        /* \"#utility.yul\":4730:4795   */\n      tag_245\n        /* \"#utility.yul\":4792:4793   */\n      0x00\n        /* \"#utility.yul\":4781:4790   */\n      dup4\n        /* \"#utility.yul\":4777:4794   */\n      add\n        /* \"#utility.yul\":4768:4774   */\n      dup5\n        /* \"#utility.yul\":4730:4795   */\n      tag_171\n      jump\t// in\n    tag_245:\n        /* \"#utility.yul\":4592:4802   */\n      swap3\n      swap2\n      pop\n      pop\n      jump\t// out\n        /* \"#utility.yul\":4808:4985   */\n    tag_172:\n        /* \"#utility.yul\":4948:4977   */\n      0x5265737472696374656420746f206f776e6572206163636f756e740000000000\n        /* \"#utility.yul\":4944:4945   */\n      0x00\n        /* \"#utility.yul\":4936:4942   */\n      dup3\n        /* \"#utility.yul\":4932:4946   */\n      add\n        /* \"#utility.yul\":4925:4978   */\n      mstore\n        /* \"#utility.yul\":4808:4985   */\n      pop\n      jump\t// out\n        /* \"#utility.yul\":4991:5357   */\n    tag_173:\n        /* \"#utility.yul\":5133:5136   */\n      0x00\n        /* \"#utility.yul\":5154:5221   */\n      tag_248\n        /* \"#utility.yul\":5218:5220   */\n      0x1b\n        /* \"#utility.yul\":5213:5216   */\n      dup4\n        /* \"#utility.yul\":5154:5221   */\n      tag_152\n      jump\t// in\n    tag_248:\n        /* \"#utility.yul\":5147:5221   */\n      swap2\n      pop\n        /* \"#utility.yul\":5230:5323   */\n      tag_249\n        /* \"#utility.yul\":5319:5322   */\n      dup3\n        /* \"#utility.yul\":5230:5323   */\n      tag_172\n      jump\t// in\n    tag_249:\n        /* \"#utility.yul\":5348:5350   */\n      0x20\n        /* \"#utility.yul\":5343:5346   */\n      dup3\n        /* \"#utility.yul\":5339:5351   */\n      add\n        /* \"#utility.yul\":5332:5351   */\n      swap1\n      pop\n        /* \"#utility.yul\":4991:5357   */\n      swap2\n      swap1\n      pop\n      jump\t// out\n        /* \"#utility.yul\":5363:5782   */\n    tag_79:\n        /* \"#utility.yul\":5529:5533   */\n      0x00\n        /* \"#utility.yul\":5567:5569   */\n      0x20\n        /* \"#utility.yul\":5556:5565   */\n      dup3\n        /* \"#utility.yul\":5552:5570   */\n      add\n        /* \"#utility.yul\":5544:5570   */\n      swap1\n      pop\n        /* \"#utility.yul\":5616:5625   */\n      dup2\n        /* \"#utility.yul\":5610:5614   */\n      dup2\n        /* \"#utility.yul\":5606:5626   */\n      sub\n        /* \"#utility.yul\":5602:5603   */\n      0x00\n        /* \"#utility.yul\":5591:5600   */\n      dup4\n        /* \"#utility.yul\":5587:5604   */\n      add\n        /* \"#utility.yul\":5580:5627   */\n      mstore\n        /* \"#utility.yul\":5644:5775   */\n      tag_251\n        /* \"#utility.yul\":5770:5774   */\n      dup2\n        /* \"#utility.yul\":5644:5775   */\n      tag_173\n      jump\t// in\n    tag_251:\n        /* \"#utility.yul\":5636:5775   */\n      swap1\n      pop\n        /* \"#utility.yul\":5363:5782   */\n      swap2\n      swap1\n      pop\n      jump\t// out\n        /* \"#utility.yul\":5788:6008   */\n    tag_174:\n        /* \"#utility.yul\":5928:5962   */\n      0x52652d656e7472616e742063616c6c206973206e6f7420737570706f72746564\n        /* \"#utility.yul\":5924:5925   */\n      0x00\n        /* \"#utility.yul\":5916:5922   */\n      dup3\n        /* \"#utility.yul\":5912:5926   */\n      add\n        /* \"#utility.yul\":5905:5963   */\n      mstore\n        /* \"#utility.yul\":5997:6000   */\n      0x2e00000000000000000000000000000000000000000000000000000000000000\n        /* \"#utility.yul\":5992:5994   */\n      0x20\n        /* \"#utility.yul\":5984:5990   */\n      dup3\n        /* \"#utility.yul\":5980:5995   */\n      add\n        /* \"#utility.yul\":5973:6001   */\n      mstore\n        /* \"#utility.yul\":5788:6008   */\n      pop\n      jump\t// out\n        /* \"#utility.yul\":6014:6380   */\n    tag_175:\n        /* \"#utility.yul\":6156:6159   */\n      0x00\n        /* \"#utility.yul\":6177:6244   */\n      tag_254\n        /* \"#utility.yul\":6241:6243   */\n      0x21\n        /* \"#utility.yul\":6236:6239   */\n      dup4\n        /* \"#utility.yul\":6177:6244   */\n      tag_152\n      jump\t// in\n    tag_254:\n        /* \"#utility.yul\":6170:6244   */\n      swap2\n      pop\n        /* \"#utility.yul\":6253:6346   */\n      tag_255\n        /* \"#utility.yul\":6342:6345   */\n      dup3\n        /* \"#utility.yul\":6253:6346   */\n      tag_174\n      jump\t// in\n    tag_255:\n        /* \"#utility.yul\":6371:6373   */\n      0x40\n        /* \"#utility.yul\":6366:6369   */\n      dup3\n        /* \"#utility.yul\":6362:6374   */\n      add\n        /* \"#utility.yul\":6355:6374   */\n      swap1\n      pop\n        /* \"#utility.yul\":6014:6380   */\n      swap2\n      swap1\n      pop\n      jump\t// out\n        /* \"#utility.yul\":6386:6805   */\n    tag_83:\n        /* \"#utility.yul\":6552:6556   */\n      0x00\n        /* \"#utility.yul\":6590:6592   */\n      0x20\n        /* \"#utility.yul\":6579:6588   */\n      dup3\n        /* \"#utility.yul\":6575:6593   */\n      add\n        /* \"#utility.yul\":6567:6593   */\n      swap1\n      pop\n        /* \"#utility.yul\":6639:6648   */\n      dup2\n        /* \"#utility.yul\":6633:6637   */\n      dup2\n        /* \"#utility.yul\":6629:6649   */\n      sub\n        /* \"#utility.yul\":6625:6626   */\n      0x00\n        /* \"#utility.yul\":6614:6623   */\n      dup4\n        /* \"#utility.yul\":6610:6627   */\n      add\n        /* \"#utility.yul\":6603:6650   */\n      mstore\n        /* \"#utility.yul\":6667:6798   */\n      tag_257\n        /* \"#utility.yul\":6793:6797   */\n      dup2\n        /* \"#utility.yul\":6667:6798   */\n      tag_175\n      jump\t// in\n    tag_257:\n        /* \"#utility.yul\":6659:6798   */\n      swap1\n      pop\n        /* \"#utility.yul\":6386:6805   */\n      swap2\n      swap1\n      pop\n      jump\t// out\n        /* \"#utility.yul\":6811:6985   */\n    tag_176:\n        /* \"#utility.yul\":6951:6977   */\n      0x43616e206e6f7420757365206e756c6c20616464726573730000000000000000\n        /* \"#utility.yul\":6947:6948   */\n      0x00\n        /* \"#utility.yul\":6939:6945   */\n      dup3\n        /* \"#utility.yul\":6935:6949   */\n      add\n        /* \"#utility.yul\":6928:6978   */\n      mstore\n        /* \"#utility.yul\":6811:6985   */\n      pop\n      jump\t// out\n        /* \"#utility.yul\":6991:7357   */\n    tag_177:\n        /* \"#utility.yul\":7133:7136   */\n      0x00\n        /* \"#utility.yul\":7154:7221   */\n      tag_260\n        /* \"#utility.yul\":7218:7220   */\n      0x18\n        /* \"#utility.yul\":7213:7216   */\n      dup4\n        /* \"#utility.yul\":7154:7221   */\n      tag_152\n      jump\t// in\n    tag_260:\n        /* \"#utility.yul\":7147:7221   */\n      swap2\n      pop\n        /* \"#utility.yul\":7230:7323   */\n      tag_261\n        /* \"#utility.yul\":7319:7322   */\n      dup3\n        /* \"#utility.yul\":7230:7323   */\n      tag_176\n      jump\t// in\n    tag_261:\n        /* \"#utility.yul\":7348:7350   */\n      0x20\n        /* \"#utility.yul\":7343:7346   */\n      dup3\n        /* \"#utility.yul\":7339:7351   */\n      add\n        /* \"#utility.yul\":7332:7351   */\n      swap1\n      pop\n        /* \"#utility.yul\":6991:7357   */\n      swap2\n      swap1\n      pop\n      jump\t// out\n        /* \"#utility.yul\":7363:7782   */\n    tag_87:\n        /* \"#utility.yul\":7529:7533   */\n      0x00\n        /* \"#utility.yul\":7567:7569   */\n      0x20\n        /* \"#utility.yul\":7556:7565   */\n      dup3\n        /* \"#utility.yul\":7552:7570   */\n      add\n        /* \"#utility.yul\":7544:7570   */\n      swap1\n      pop\n        /* \"#utility.yul\":7616:7625   */\n      dup2\n        /* \"#utility.yul\":7610:7614   */\n      dup2\n        /* \"#utility.yul\":7606:7626   */\n      sub\n        /* \"#utility.yul\":7602:7603   */\n      0x00\n        /* \"#utility.yul\":7591:7600   */\n      dup4\n        /* \"#utility.yul\":7587:7604   */\n      add\n        /* \"#utility.yul\":7580:7627   */\n      mstore\n        /* \"#utility.yul\":7644:7775   */\n      tag_263\n        /* \"#utility.yul\":7770:7774   */\n      dup2\n        /* \"#utility.yul\":7644:7775   */\n      tag_177\n      jump\t// in\n    tag_263:\n        /* \"#utility.yul\":7636:7775   */\n      swap1\n      pop\n        /* \"#utility.yul\":7363:7782   */\n      swap2\n      swap1\n      pop\n      jump\t// out\n        /* \"#utility.yul\":7788:7968   */\n    tag_178:\n        /* \"#utility.yul\":7836:7913   */\n      0x4e487b7100000000000000000000000000000000000000000000000000000000\n        /* \"#utility.yul\":7833:7834   */\n      0x00\n        /* \"#utility.yul\":7826:7914   */\n      mstore\n        /* \"#utility.yul\":7933:7937   */\n      0x11\n        /* \"#utility.yul\":7930:7931   */\n      0x04\n        /* \"#utility.yul\":7923:7938   */\n      mstore\n        /* \"#utility.yul\":7957:7961   */\n      0x24\n        /* \"#utility.yul\":7954:7955   */\n      0x00\n        /* \"#utility.yul\":7947:7962   */\n      revert\n        /* \"#utility.yul\":7974:8076   */\n    tag_179:\n        /* \"#utility.yul\":8016:8024   */\n      0x00\n        /* \"#utility.yul\":8063:8068   */\n      dup2\n        /* \"#utility.yul\":8060:8061   */\n      0x01\n        /* \"#utility.yul\":8056:8069   */\n      shr\n        /* \"#utility.yul\":8035:8069   */\n      swap1\n      pop\n        /* \"#utility.yul\":7974:8076   */\n      swap2\n      swap1\n      pop\n      jump\t// out\n        /* \"#utility.yul\":8082:8930   */\n    tag_180:\n        /* \"#utility.yul\":8143:8148   */\n      0x00\n        /* \"#utility.yul\":8150:8154   */\n      dup1\n        /* \"#utility.yul\":8174:8180   */\n      dup3\n        /* \"#utility.yul\":8165:8180   */\n      swap2\n      pop\n        /* \"#utility.yul\":8198:8203   */\n      dup4\n        /* \"#utility.yul\":8189:8203   */\n      swap1\n      pop\n        /* \"#utility.yul\":8212:8924   */\n    tag_267:\n        /* \"#utility.yul\":8233:8234   */\n      0x01\n        /* \"#utility.yul\":8223:8231   */\n      dup6\n        /* \"#utility.yul\":8220:8235   */\n      gt\n        /* \"#utility.yul\":8212:8924   */\n      iszero\n      tag_269\n      jumpi\n        /* \"#utility.yul\":8328:8332   */\n      dup1\n        /* \"#utility.yul\":8323:8326   */\n      dup7\n        /* \"#utility.yul\":8319:8333   */\n      div\n        /* \"#utility.yul\":8313:8317   */\n      dup2\n        /* \"#utility.yul\":8310:8334   */\n      gt\n        /* \"#utility.yul\":8307:8357   */\n      iszero\n      tag_270\n      jumpi\n        /* \"#utility.yul\":8337:8355   */\n      tag_271\n      tag_178\n      jump\t// in\n    tag_271:\n        /* \"#utility.yul\":8307:8357   */\n    tag_270:\n        /* \"#utility.yul\":8387:8388   */\n      0x01\n        /* \"#utility.yul\":8377:8385   */\n      dup6\n        /* \"#utility.yul\":8373:8389   */\n      and\n        /* \"#utility.yul\":8370:8821   */\n      iszero\n      tag_272\n      jumpi\n        /* \"#utility.yul\":8802:8806   */\n      dup1\n        /* \"#utility.yul\":8795:8800   */\n      dup3\n        /* \"#utility.yul\":8791:8807   */\n      mul\n        /* \"#utility.yul\":8782:8807   */\n      swap2\n      pop\n        /* \"#utility.yul\":8370:8821   */\n    tag_272:\n        /* \"#utility.yul\":8852:8856   */\n      dup1\n        /* \"#utility.yul\":8846:8850   */\n      dup2\n        /* \"#utility.yul\":8842:8857   */\n      mul\n        /* \"#utility.yul\":8834:8857   */\n      swap1\n      pop\n        /* \"#utility.yul\":8882:8914   */\n      tag_273\n        /* \"#utility.yul\":8905:8913   */\n      dup6\n        /* \"#utility.yul\":8882:8914   */\n      tag_179\n      jump\t// in\n    tag_273:\n        /* \"#utility.yul\":8870:8914   */\n      swap5\n      pop\n        /* \"#utility.yul\":8212:8924   */\n      jump(tag_267)\n    tag_269:\n        /* \"#utility.yul\":8082:8930   */\n      swap5\n      pop\n      swap5\n      swap3\n      pop\n      pop\n      pop\n      jump\t// out\n        /* \"#utility.yul\":8936:10009   */\n    tag_181:\n        /* \"#utility.yul\":8990:8995   */\n      0x00\n        /* \"#utility.yul\":9181:9189   */\n      dup3\n        /* \"#utility.yul\":9171:9211   */\n      tag_275\n      jumpi\n        /* \"#utility.yul\":9202:9203   */\n      0x01\n        /* \"#utility.yul\":9193:9203   */\n      swap1\n      pop\n        /* \"#utility.yul\":9204:9209   */\n      jump(tag_274)\n        /* \"#utility.yul\":9171:9211   */\n    tag_275:\n        /* \"#utility.yul\":9230:9234   */\n      dup2\n        /* \"#utility.yul\":9220:9256   */\n      tag_276\n      jumpi\n        /* \"#utility.yul\":9247:9248   */\n      0x00\n        /* \"#utility.yul\":9238:9248   */\n      swap1\n      pop\n        /* \"#utility.yul\":9249:9254   */\n      jump(tag_274)\n        /* \"#utility.yul\":9220:9256   */\n    tag_276:\n        /* \"#utility.yul\":9316:9320   */\n      dup2\n        /* \"#utility.yul\":9364:9365   */\n      0x01\n        /* \"#utility.yul\":9359:9386   */\n      dup2\n      eq\n      tag_278\n      jumpi\n        /* \"#utility.yul\":9400:9401   */\n      0x02\n        /* \"#utility.yul\":9395:9586   */\n      dup2\n      eq\n      tag_279\n      jumpi\n        /* \"#utility.yul\":9309:9586   */\n      jump(tag_277)\n        /* \"#utility.yul\":9359:9386   */\n    tag_278:\n        /* \"#utility.yul\":9377:9378   */\n      0x01\n        /* \"#utility.yul\":9368:9378   */\n      swap2\n      pop\n        /* \"#utility.yul\":9379:9384   */\n      pop\n      jump(tag_274)\n        /* \"#utility.yul\":9395:9586   */\n    tag_279:\n        /* \"#utility.yul\":9440:9443   */\n      0xff\n        /* \"#utility.yul\":9430:9438   */\n      dup5\n        /* \"#utility.yul\":9427:9444   */\n      gt\n        /* \"#utility.yul\":9424:9467   */\n      iszero\n      tag_280\n      jumpi\n        /* \"#utility.yul\":9447:9465   */\n      tag_281\n      tag_178\n      jump\t// in\n    tag_281:\n        /* \"#utility.yul\":9424:9467   */\n    tag_280:\n        /* \"#utility.yul\":9496:9504   */\n      dup4\n        /* \"#utility.yul\":9493:9494   */\n      0x02\n        /* \"#utility.yul\":9489:9505   */\n      exp\n        /* \"#utility.yul\":9480:9505   */\n      swap2\n      pop\n        /* \"#utility.yul\":9531:9534   */\n      dup5\n        /* \"#utility.yul\":9524:9529   */\n      dup3\n        /* \"#utility.yul\":9521:9535   */\n      gt\n        /* \"#utility.yul\":9518:9558   */\n      iszero\n      tag_282\n      jumpi\n        /* \"#utility.yul\":9538:9556   */\n      tag_283\n      tag_178\n      jump\t// in\n    tag_283:\n        /* \"#utility.yul\":9518:9558   */\n    tag_282:\n        /* \"#utility.yul\":9571:9576   */\n      pop\n      jump(tag_274)\n        /* \"#utility.yul\":9309:9586   */\n    tag_277:\n      pop\n        /* \"#utility.yul\":9695:9697   */\n      0x20\n        /* \"#utility.yul\":9685:9693   */\n      dup4\n        /* \"#utility.yul\":9682:9698   */\n      lt\n        /* \"#utility.yul\":9676:9679   */\n      0x0133\n        /* \"#utility.yul\":9670:9674   */\n      dup4\n        /* \"#utility.yul\":9667:9680   */\n      lt\n        /* \"#utility.yul\":9663:9699   */\n      and\n        /* \"#utility.yul\":9645:9647   */\n      0x4e\n        /* \"#utility.yul\":9635:9643   */\n      dup5\n        /* \"#utility.yul\":9632:9648   */\n      lt\n        /* \"#utility.yul\":9627:9629   */\n      0x0b\n        /* \"#utility.yul\":9621:9625   */\n      dup5\n        /* \"#utility.yul\":9618:9630   */\n      lt\n        /* \"#utility.yul\":9614:9649   */\n      and\n        /* \"#utility.yul\":9598:9709   */\n      or\n        /* \"#utility.yul\":9595:9841   */\n      iszero\n      tag_284\n      jumpi\n        /* \"#utility.yul\":9751:9759   */\n      dup3\n        /* \"#utility.yul\":9745:9749   */\n      dup3\n        /* \"#utility.yul\":9741:9760   */\n      exp\n        /* \"#utility.yul\":9732:9760   */\n      swap1\n      pop\n        /* \"#utility.yul\":9786:9789   */\n      dup4\n        /* \"#utility.yul\":9779:9784   */\n      dup2\n        /* \"#utility.yul\":9776:9790   */\n      gt\n        /* \"#utility.yul\":9773:9813   */\n      iszero\n      tag_285\n      jumpi\n        /* \"#utility.yul\":9793:9811   */\n      tag_286\n      tag_178\n      jump\t// in\n    tag_286:\n        /* \"#utility.yul\":9773:9813   */\n    tag_285:\n        /* \"#utility.yul\":9826:9831   */\n      jump(tag_274)\n        /* \"#utility.yul\":9595:9841   */\n    tag_284:\n        /* \"#utility.yul\":9866:9908   */\n      tag_287\n        /* \"#utility.yul\":9904:9907   */\n      dup5\n        /* \"#utility.yul\":9894:9902   */\n      dup5\n        /* \"#utility.yul\":9888:9892   */\n      dup5\n        /* \"#utility.yul\":9885:9886   */\n      0x01\n        /* \"#utility.yul\":9866:9908   */\n      tag_180\n      jump\t// in\n    tag_287:\n        /* \"#utility.yul\":9851:9908   */\n      swap3\n      pop\n      swap1\n      pop\n        /* \"#utility.yul\":9940:9944   */\n      dup2\n        /* \"#utility.yul\":9935:9938   */\n      dup5\n        /* \"#utility.yul\":9931:9945   */\n      div\n        /* \"#utility.yul\":9924:9929   */\n      dup2\n        /* \"#utility.yul\":9921:9946   */\n      gt\n        /* \"#utility.yul\":9918:9969   */\n      iszero\n      tag_288\n      jumpi\n        /* \"#utility.yul\":9949:9967   */\n      tag_289\n      tag_178\n      jump\t// in\n    tag_289:\n        /* \"#utility.yul\":9918:9969   */\n    tag_288:\n        /* \"#utility.yul\":9998:10002   */\n      dup2\n        /* \"#utility.yul\":9991:9996   */\n      dup2\n        /* \"#utility.yul\":9987:10003   */\n      mul\n        /* \"#utility.yul\":9978:10003   */\n      swap1\n      pop\n        /* \"#utility.yul\":8936:10009   */\n    tag_274:\n      swap4\n      swap3\n      pop\n      pop\n      pop\n      jump\t// out\n        /* \"#utility.yul\":10015:10300   */\n    tag_98:\n        /* \"#utility.yul\":10075:10080   */\n      0x00\n        /* \"#utility.yul\":10099:10122   */\n      tag_291\n        /* \"#utility.yul\":10117:10121   */\n      dup3\n        /* \"#utility.yul\":10099:10122   */\n      tag_163\n      jump\t// in\n    tag_291:\n        /* \"#utility.yul\":10091:10122   */\n      swap2\n      pop\n        /* \"#utility.yul\":10143:10170   */\n      tag_292\n        /* \"#utility.yul\":10161:10169   */\n      dup4\n        /* \"#utility.yul\":10143:10170   */\n      tag_163\n      jump\t// in\n    tag_292:\n        /* \"#utility.yul\":10131:10170   */\n      swap3\n      pop\n        /* \"#utility.yul\":10189:10293   */\n      tag_293\n        /* \"#utility.yul\":10226:10292   */\n      0xffffffffffffffffffffffffffffffffffffffffffffffffffffffffffffffff\n        /* \"#utility.yul\":10216:10224   */\n      dup5\n        /* \"#utility.yul\":10210:10214   */\n      dup5\n        /* \"#utility.yul\":10189:10293   */\n      tag_181\n      jump\t// in\n    tag_293:\n        /* \"#utility.yul\":10180:10293   */\n      swap1\n      pop\n        /* \"#utility.yul\":10015:10300   */\n      swap3\n      swap2\n      pop\n      pop\n      jump\t// out\n        /* \"#utility.yul\":10306:10716   */\n    tag_100:\n        /* \"#utility.yul\":10346:10353   */\n      0x00\n        /* \"#utility.yul\":10369:10389   */\n      tag_295\n        /* \"#utility.yul\":10387:10388   */\n      dup3\n        /* \"#utility.yul\":10369:10389   */\n      tag_163\n      jump\t// in\n    tag_295:\n        /* \"#utility.yul\":10364:10389   */\n      swap2\n      pop\n        /* \"#utility.yul\":10403:10423   */\n      tag_296\n        /* \"#utility.yul\":10421:10422   */\n      dup4\n        /* \"#utility.yul\":10403:10423   */\n      tag_163\n      jump\t// in\n    tag_296:\n        /* \"#utility.yul\":10398:10423   */\n      swap3\n      pop\n        /* \"#utility.yul\":10458:10459   */\n      dup3\n        /* \"#utility.yul\":10455:10456   */\n      dup3\n        /* \"#utility.yul\":10451:10460   */\n      mul\n        /* \"#utility.yul\":10480:10510   */\n      tag_297\n        /* \"#utility.yul\":10498:10509   */\n      dup2\n        /* \"#utility.yul\":10480:10510   */\n      tag_163\n      jump\t// in\n    tag_297:\n        /* \"#utility.yul\":10469:10510   */\n      swap2\n      pop\n        /* \"#utility.yul\":10659:10660   */\n      dup3\n        /* \"#utility.yul\":10650:10657   */\n      dup3\n        /* \"#utility.yul\":10646:10661   */\n      div\n        /* \"#utility.yul\":10643:10644   */\n      dup5\n        /* \"#utility.yul\":10640:10662   */\n      eq\n        /* \"#utility.yul\":10620:10621   */\n      dup4\n        /* \"#utility.yul\":10613:10622   */\n      iszero\n        /* \"#utility.yul\":10593:10676   */\n      or\n        /* \"#utility.yul\":10570:10709   */\n      tag_298\n      jumpi\n        /* \"#utility.yul\":10689:10707   */\n      tag_299\n      tag_178\n      jump\t// in\n    tag_299:\n        /* \"#utility.yul\":10570:10709   */\n    tag_298:\n        /* \"#utility.yul\":10354:10716   */\n      pop\n        /* \"#utility.yul\":10306:10716   */\n      swap3\n      swap2\n      pop\n      pop\n      jump\t// out\n        /* \"#utility.yul\":10722:10887   */\n    tag_182:\n        /* \"#utility.yul\":10862:10879   */\n      0x496e76616c696420616464726573730000000000000000000000000000000000\n        /* \"#utility.yul\":10858:10859   */\n      0x00\n        /* \"#utility.yul\":10850:10856   */\n      dup3\n        /* \"#utility.yul\":10846:10860   */\n      add\n        /* \"#utility.yul\":10839:10880   */\n      mstore\n        /* \"#utility.yul\":10722:10887   */\n      pop\n      jump\t// out\n        /* \"#utility.yul\":10893:11259   */\n    tag_183:\n        /* \"#utility.yul\":11035:11038   */\n      0x00\n        /* \"#utility.yul\":11056:11123   */\n      tag_302\n        /* \"#utility.yul\":11120:11122   */\n      0x0f\n        /* \"#utility.yul\":11115:11118   */\n      dup4\n        /* \"#utility.yul\":11056:11123   */\n      tag_152\n      jump\t// in\n    tag_302:\n        /* \"#utility.yul\":11049:11123   */\n      swap2\n      pop\n        /* \"#utility.yul\":11132:11225   */\n      tag_303\n        /* \"#utility.yul\":11221:11224   */\n      dup3\n        /* \"#utility.yul\":11132:11225   */\n      tag_182\n      jump\t// in\n    tag_303:\n        /* \"#utility.yul\":11250:11252   */\n      0x20\n        /* \"#utility.yul\":11245:11248   */\n      dup3\n        /* \"#utility.yul\":11241:11253   */\n      add\n        /* \"#utility.yul\":11234:11253   */\n      swap1\n      pop\n        /* \"#utility.yul\":10893:11259   */\n      swap2\n      swap1\n      pop\n      jump\t// out\n        /* \"#utility.yul\":11265:11684   */\n    tag_122:\n        /* \"#utility.yul\":11431:11435   */\n      0x00\n        /* \"#utility.yul\":11469:11471   */\n      0x20\n        /* \"#utility.yul\":11458:11467   */\n      dup3\n        /* \"#utility.yul\":11454:11472   */\n      add\n        /* \"#utility.yul\":11446:11472   */\n      swap1\n      pop\n        /* \"#utility.yul\":11518:11527   */\n      dup2\n        /* \"#utility.yul\":11512:11516   */\n      dup2\n        /* \"#utility.yul\":11508:11528   */\n      sub\n        /* \"#utility.yul\":11504:11505   */\n      0x00\n        /* \"#utility.yul\":11493:11502   */\n      dup4\n        /* \"#utility.yul\":11489:11506   */\n      add\n        /* \"#utility.yul\":11482:11529   */\n      mstore\n        /* \"#utility.yul\":11546:11677   */\n      tag_305\n        /* \"#utility.yul\":11672:11676   */\n      dup2\n        /* \"#utility.yul\":11546:11677   */\n      tag_183\n      jump\t// in\n    tag_305:\n        /* \"#utility.yul\":11538:11677   */\n      swap1\n      pop\n        /* \"#utility.yul\":11265:11684   */\n      swap2\n      swap1\n      pop\n      jump\t// out\n        /* \"#utility.yul\":11690:11858   */\n    tag_184:\n        /* \"#utility.yul\":11830:11850   */\n      0x496e73756666696369656e742066756e64730000000000000000000000000000\n        /* \"#utility.yul\":11826:11827   */\n      0x00\n        /* \"#utility.yul\":11818:11824   */\n      dup3\n        /* \"#utility.yul\":11814:11828   */\n      add\n        /* \"#utility.yul\":11807:11851   */\n      mstore\n        /* \"#utility.yul\":11690:11858   */\n      pop\n      jump\t// out\n        /* \"#utility.yul\":11864:12230   */\n    tag_185:\n        /* \"#utility.yul\":12006:12009   */\n      0x00\n        /* \"#utility.yul\":12027:12094   */\n      tag_308\n        /* \"#utility.yul\":12091:12093   */\n      0x12\n        /* \"#utility.yul\":12086:12089   */\n      dup4\n        /* \"#utility.yul\":12027:12094   */\n      tag_152\n      jump\t// in\n    tag_308:\n        /* \"#utility.yul\":12020:12094   */\n      swap2\n      pop\n        /* \"#utility.yul\":12103:12196   */\n      tag_309\n        /* \"#utility.yul\":12192:12195   */\n      dup3\n        /* \"#utility.yul\":12103:12196   */\n      tag_184\n      jump\t// in\n    tag_309:\n        /* \"#utility.yul\":12221:12223   */\n      0x20\n        /* \"#utility.yul\":12216:12219   */\n      dup3\n        /* \"#utility.yul\":12212:12224   */\n      add\n        /* \"#utility.yul\":12205:12224   */\n      swap1\n      pop\n        /* \"#utility.yul\":11864:12230   */\n      swap2\n      swap1\n      pop\n      jump\t// out\n        /* \"#utility.yul\":12236:12655   */\n    tag_125:\n        /* \"#utility.yul\":12402:12406   */\n      0x00\n        /* \"#utility.yul\":12440:12442   */\n      0x20\n        /* \"#utility.yul\":12429:12438   */\n      dup3\n        /* \"#utility.yul\":12425:12443   */\n      add\n        /* \"#utility.yul\":12417:12443   */\n      swap1\n      pop\n        /* \"#utility.yul\":12489:12498   */\n      dup2\n        /* \"#utility.yul\":12483:12487   */\n      dup2\n        /* \"#utility.yul\":12479:12499   */\n      sub\n        /* \"#utility.yul\":12475:12476   */\n      0x00\n        /* \"#utility.yul\":12464:12473   */\n      dup4\n        /* \"#utility.yul\":12460:12477   */\n      add\n        /* \"#utility.yul\":12453:12500   */\n      mstore\n        /* \"#utility.yul\":12517:12648   */\n      tag_311\n        /* \"#utility.yul\":12643:12647   */\n      dup2\n        /* \"#utility.yul\":12517:12648   */\n      tag_185\n      jump\t// in\n    tag_311:\n        /* \"#utility.yul\":12509:12648   */\n      swap1\n      pop\n        /* \"#utility.yul\":12236:12655   */\n      swap2\n      swap1\n      pop\n      jump\t// out\n        /* \"#utility.yul\":12661:12855   */\n    tag_127:\n        /* \"#utility.yul\":12701:12705   */\n      0x00\n        /* \"#utility.yul\":12721:12741   */\n      tag_313\n        /* \"#utility.yul\":12739:12740   */\n      dup3\n        /* \"#utility.yul\":12721:12741   */\n      tag_163\n      jump\t// in\n    tag_313:\n        /* \"#utility.yul\":12716:12741   */\n      swap2\n      pop\n        /* \"#utility.yul\":12755:12775   */\n      tag_314\n        /* \"#utility.yul\":12773:12774   */\n      dup4\n        /* \"#utility.yul\":12755:12775   */\n      tag_163\n      jump\t// in\n    tag_314:\n        /* \"#utility.yul\":12750:12775   */\n      swap3\n      pop\n        /* \"#utility.yul\":12799:12800   */\n      dup3\n        /* \"#utility.yul\":12796:12797   */\n      dup3\n        /* \"#utility.yul\":12792:12801   */\n      sub\n        /* \"#utility.yul\":12784:12801   */\n      swap1\n      pop\n        /* \"#utility.yul\":12823:12824   */\n      dup2\n        /* \"#utility.yul\":12817:12821   */\n      dup2\n        /* \"#utility.yul\":12814:12825   */\n      gt\n        /* \"#utility.yul\":12811:12848   */\n      iszero\n      tag_315\n      jumpi\n        /* \"#utility.yul\":12828:12846   */\n      tag_316\n      tag_178\n      jump\t// in\n    tag_316:\n        /* \"#utility.yul\":12811:12848   */\n    tag_315:\n        /* \"#utility.yul\":12661:12855   */\n      swap3\n      swap2\n      pop\n      pop\n      jump\t// out\n        /* \"#utility.yul\":12861:13052   */\n    tag_129:\n        /* \"#utility.yul\":12901:12904   */\n      0x00\n        /* \"#utility.yul\":12920:12940   */\n      tag_318\n        /* \"#utility.yul\":12938:12939   */\n      dup3\n        /* \"#utility.yul\":12920:12940   */\n      tag_163\n      jump\t// in\n    tag_318:\n        /* \"#utility.yul\":12915:12940   */\n      swap2\n      pop\n        /* \"#utility.yul\":12954:12974   */\n      tag_319\n        /* \"#utility.yul\":12972:12973   */\n      dup4\n        /* \"#utility.yul\":12954:12974   */\n      tag_163\n      jump\t// in\n    tag_319:\n        /* \"#utility.yul\":12949:12974   */\n      swap3\n      pop\n        /* \"#utility.yul\":12997:12998   */\n      dup3\n        /* \"#utility.yul\":12994:12995   */\n      dup3\n        /* \"#utility.yul\":12990:12999   */\n      add\n        /* \"#utility.yul\":12983:12999   */\n      swap1\n      pop\n        /* \"#utility.yul\":13018:13021   */\n      dup1\n        /* \"#utility.yul\":13015:13016   */\n      dup3\n        /* \"#utility.yul\":13012:13022   */\n      gt\n        /* \"#utility.yul\":13009:13045   */\n      iszero\n      tag_320\n      jumpi\n        /* \"#utility.yul\":13025:13043   */\n      tag_321\n      tag_178\n      jump\t// in\n    tag_321:\n        /* \"#utility.yul\":13009:13045   */\n    tag_320:\n        /* \"#utility.yul\":12861:13052   */\n      swap3\n      swap2\n      pop\n      pop\n      jump\t// out\n        /* \"#utility.yul\":13058:13232   */\n    tag_186:\n        /* \"#utility.yul\":13198:13224   */\n      0x4d696e74696e672065786365656473206d6178696d756d2e0000000000000000\n        /* \"#utility.yul\":13194:13195   */\n      0x00\n        /* \"#utility.yul\":13186:13192   */\n      dup3\n        /* \"#utility.yul\":13182:13196   */\n      add\n        /* \"#utility.yul\":13175:13225   */\n      mstore\n        /* \"#utility.yul\":13058:13232   */\n      pop\n      jump\t// out\n        /* \"#utility.yul\":13238:13604   */\n    tag_187:\n        /* \"#utility.yul\":13380:13383   */\n      0x00\n        /* \"#utility.yul\":13401:13468   */\n      tag_324\n        /* \"#utility.yul\":13465:13467   */\n      0x18\n        /* \"#utility.yul\":13460:13463   */\n      dup4\n        /* \"#utility.yul\":13401:13468   */\n      tag_152\n      jump\t// in\n    tag_324:\n        /* \"#utility.yul\":13394:13468   */\n      swap2\n      pop\n        /* \"#utility.yul\":13477:13570   */\n      tag_325\n        /* \"#utility.yul\":13566:13569   */\n      dup3\n        /* \"#utility.yul\":13477:13570   */\n      tag_186\n      jump\t// in\n    tag_325:\n        /* \"#utility.yul\":13595:13597   */\n      0x20\n        /* \"#utility.yul\":13590:13593   */\n      dup3\n        /* \"#utility.yul\":13586:13598   */\n      add\n        /* \"#utility.yul\":13579:13598   */\n      swap1\n      pop\n        /* \"#utility.yul\":13238:13604   */\n      swap2\n      swap1\n      pop\n      jump\t// out\n        /* \"#utility.yul\":13610:14029   */\n    tag_137:\n        /* \"#utility.yul\":13776:13780   */\n      0x00\n        /* \"#utility.yul\":13814:13816   */\n      0x20\n        /* \"#utility.yul\":13803:13812   */\n      dup3\n        /* \"#utility.yul\":13799:13817   */\n      add\n        /* \"#utility.yul\":13791:13817   */\n      swap1\n      pop\n        /* \"#utility.yul\":13863:13872   */\n      dup2\n        /* \"#utility.yul\":13857:13861   */\n      dup2\n        /* \"#utility.yul\":13853:13873   */\n      sub\n        /* \"#utility.yul\":13849:13850   */\n      0x00\n        /* \"#utility.yul\":13838:13847   */\n      dup4\n        /* \"#utility.yul\":13834:13851   */\n      add\n        /* \"#utility.yul\":13827:13874   */\n      mstore\n        /* \"#utility.yul\":13891:14022   */\n      tag_327\n        /* \"#utility.yul\":14017:14021   */\n      dup2\n        /* \"#utility.yul\":13891:14022   */\n      tag_187\n      jump\t// in\n    tag_327:\n        /* \"#utility.yul\":13883:14022   */\n      swap1\n      pop\n        /* \"#utility.yul\":13610:14029   */\n      swap2\n      swap1\n      pop\n      jump\t// out\n        /* \"#utility.yul\":14035:14201   */\n    tag_188:\n        /* \"#utility.yul\":14175:14193   */\n      0x496e7375666669656e742066756e647300000000000000000000000000000000\n        /* \"#utility.yul\":14171:14172   */\n      0x00\n        /* \"#utility.yul\":14163:14169   */\n      dup3\n        /* \"#utility.yul\":14159:14173   */\n      add\n        /* \"#utility.yul\":14152:14194   */\n      mstore\n        /* \"#utility.yul\":14035:14201   */\n      pop\n      jump\t// out\n        /* \"#utility.yul\":14207:14573   */\n    tag_189:\n        /* \"#utility.yul\":14349:14352   */\n      0x00\n        /* \"#utility.yul\":14370:14437   */\n      tag_330\n        /* \"#utility.yul\":14434:14436   */\n      0x10\n        /* \"#utility.yul\":14429:14432   */\n      dup4\n        /* \"#utility.yul\":14370:14437   */\n      tag_152\n      jump\t// in\n    tag_330:\n        /* \"#utility.yul\":14363:14437   */\n      swap2\n      pop\n        /* \"#utility.yul\":14446:14539   */\n      tag_331\n        /* \"#utility.yul\":14535:14538   */\n      dup3\n        /* \"#utility.yul\":14446:14539   */\n      tag_188\n      jump\t// in\n    tag_331:\n        /* \"#utility.yul\":14564:14566   */\n      0x20\n        /* \"#utility.yul\":14559:14562   */\n      dup3\n        /* \"#utility.yul\":14555:14567   */\n      add\n        /* \"#utility.yul\":14548:14567   */\n      swap1\n      pop\n        /* \"#utility.yul\":14207:14573   */\n      swap2\n      swap1\n      pop\n      jump\t// out\n        /* \"#utility.yul\":14579:14998   */\n    tag_145:\n        /* \"#utility.yul\":14745:14749   */\n      0x00\n        /* \"#utility.yul\":14783:14785   */\n      0x20\n        /* \"#utility.yul\":14772:14781   */\n      dup3\n        /* \"#utility.yul\":14768:14786   */\n      add\n        /* \"#utility.yul\":14760:14786   */\n      swap1\n      pop\n        /* \"#utility.yul\":14832:14841   */\n      dup2\n        /* \"#utility.yul\":14826:14830   */\n      dup2\n        /* \"#utility.yul\":14822:14842   */\n      sub\n        /* \"#utility.yul\":14818:14819   */\n      0x00\n        /* \"#utility.yul\":14807:14816   */\n      dup4\n        /* \"#utility.yul\":14803:14820   */\n      add\n        /* \"#utility.yul\":14796:14843   */\n      mstore\n        /* \"#utility.yul\":14860:14991   */\n      tag_333\n        /* \"#utility.yul\":14986:14990   */\n      dup2\n        /* \"#utility.yul\":14860:14991   */\n      tag_189\n      jump\t// in\n    tag_333:\n        /* \"#utility.yul\":14852:14991   */\n      swap1\n      pop\n        /* \"#utility.yul\":14579:14998   */\n      swap2\n      swap1\n      pop\n      jump\t// out\n\n    auxdata: 0xa26469706673582212207281dae7f466b1adf599855871187619ea51dd49ea8b3664aa6e906d42e61c8c64736f6c634300081a0033\n}\n",
				"bytecode": {
					"linkReferences": {},
					"object": "60a06040525f80555f60025f6101000a81548160ff02191690831515021790555034801561002b575f80fd5b50604051611c60380380611c60833981810160405281019061004d91906102f5565b601260ff16600a61005e919061047c565b620f424061006c91906104c6565b601260ff16600a61007d919061047c565b8261008891906104c6565b11156100c9576040517f08c379a00000000000000000000000000000000000000000000000000000000081526004016100c090610587565b60405180910390fd5b3373ffffffffffffffffffffffffffffffffffffffff1660808173ffffffffffffffffffffffffffffffffffffffff168152505061012a608051601260ff16600a610114919061047c565b8361011f91906104c6565b61013060201b60201c565b50610668565b601260ff16600a610141919061047c565b620f424061014f91906104c6565b815f5461015c91906105a5565b111561019d576040517f08c379a000000000000000000000000000000000000000000000000000000000815260040161019490610622565b60405180910390fd5b805f808282546101ad91906105a5565b925050819055508060015f8473ffffffffffffffffffffffffffffffffffffffff1673ffffffffffffffffffffffffffffffffffffffff1681526020019081526020015f205f82825461020091906105a5565b925050819055508173ffffffffffffffffffffffffffffffffffffffff167f0f6798a560793a54c3bcfe86a93cde1e73087d944c0ea20544137d41213968858260405161024d919061064f565b60405180910390a28173ffffffffffffffffffffffffffffffffffffffff165f73ffffffffffffffffffffffffffffffffffffffff167fddf252ad1be2c89b69c2b068fc378daa952ba7f163c4a11628f55a4df523b3ef836040516102b2919061064f565b60405180910390a35050565b5f80fd5b5f819050919050565b6102d4816102c2565b81146102de575f80fd5b50565b5f815190506102ef816102cb565b92915050565b5f6020828403121561030a576103096102be565b5b5f610317848285016102e1565b91505092915050565b7f4e487b71000000000000000000000000000000000000000000000000000000005f52601160045260245ffd5b5f8160011c9050919050565b5f808291508390505b60018511156103a25780860481111561037e5761037d610320565b5b600185161561038d5780820291505b808102905061039b8561034d565b9450610362565b94509492505050565b5f826103ba5760019050610475565b816103c7575f9050610475565b81600181146103dd57600281146103e757610416565b6001915050610475565b60ff8411156103f9576103f8610320565b5b8360020a9150848211156104105761040f610320565b5b50610475565b5060208310610133831016604e8410600b841016171561044b5782820a90508381111561044657610445610320565b5b610475565b6104588484846001610359565b9250905081840481111561046f5761046e610320565b5b81810290505b9392505050565b5f610486826102c2565b9150610491836102c2565b92506104be7fffffffffffffffffffffffffffffffffffffffffffffffffffffffffffffffff84846103ab565b905092915050565b5f6104d0826102c2565b91506104db836102c2565b92508282026104e9816102c2565b91508282048414831517610500576104ff610320565b5b5092915050565b5f82825260208201905092915050565b7f496e697469616c20737570706c792063616e206e6f7420657863656564206d615f8201527f78696d756d20737570706c790000000000000000000000000000000000000000602082015250565b5f610571602c83610507565b915061057c82610517565b604082019050919050565b5f6020820190508181035f83015261059e81610565565b9050919050565b5f6105af826102c2565b91506105ba836102c2565b92508282019050808211156105d2576105d1610320565b5b92915050565b7f4d696e74696e672065786365656473206d6178696d756d2e00000000000000005f82015250565b5f61060c601883610507565b9150610617826105d8565b602082019050919050565b5f6020820190508181035f83015261063981610600565b9050919050565b610649816102c2565b82525050565b5f6020820190506106625f830184610640565b92915050565b6080516115cb6106955f395f8181610356015281816104e40152818161057201526105fa01526115cb5ff3fe6080604052600436106100aa575f3560e01c80638a333b50116100635780638a333b50146101ad5780638da5cb5b146101d757806395d89b41146102015780639dc29fac1461022b578063a9059cbb14610253578063b144adfb1461028f576100b1565b806306fdde03146100b55780631e279a37146100df578063313ce5671461011b5780633940e9ee1461014557806340c10f191461016f57806379061e9614610197576100b1565b366100b157005b5f80fd5b3480156100c0575f80fd5b506100c96102cb565b6040516100d69190610e79565b60405180910390f35b3480156100ea575f80fd5b5061010560048036038101906101009190610ef7565b610304565b6040516101129190610f3a565b60405180910390f35b348015610126575f80fd5b5061012f61034a565b60405161013c9190610f6e565b60405180910390f35b348015610150575f80fd5b5061015961034f565b6040516101669190610f3a565b60405180910390f35b34801561017a575f80fd5b5061019560048036038101906101909190610fb1565b610354565b005b3480156101a2575f80fd5b506101ab6104e2565b005b3480156101b8575f80fd5b506101c16105d6565b6040516101ce9190610f3a565b60405180910390f35b3480156101e2575f80fd5b506101eb6105f8565b6040516101f89190610ffe565b60405180910390f35b34801561020c575f80fd5b5061021561061c565b6040516102229190610e79565b60405180910390f35b348015610236575f80fd5b50610251600480360381019061024c9190610fb1565b610655565b005b34801561025e575f80fd5b5061027960048036038101906102749190610fb1565b610755565b6040516102869190611031565b60405180910390f35b34801561029a575f80fd5b506102b560048036038101906102b09190610ef7565b610abb565b6040516102c29190610f3a565b60405180910390f35b6040518060400160405280600a81526020017f4253696465546f6b656e0000000000000000000000000000000000000000000081525081565b5f60015f8373ffffffffffffffffffffffffffffffffffffffff1673ffffffffffffffffffffffffffffffffffffffff1681526020019081526020015f20549050919050565b601281565b5f5481565b7f000000000000000000000000000000000000000000000000000000000000000073ffffffffffffffffffffffffffffffffffffffff163373ffffffffffffffffffffffffffffffffffffffff16146103e2576040517f08c379a00000000000000000000000000000000000000000000000000000000081526004016103d990611094565b60405180910390fd5b60025f9054906101000a900460ff1615610431576040517f08c379a000000000000000000000000000000000000000000000000000000000815260040161042890611122565b60405180910390fd5b600160025f6101000a81548160ff021916908315150217905550815f73ffffffffffffffffffffffffffffffffffffffff168173ffffffffffffffffffffffffffffffffffffffff16036104ba576040517f08c379a00000000000000000000000000000000000000000000000000000000081526004016104b19061118a565b60405180910390fd5b6104c48383610ad0565b505f60025f6101000a81548160ff0219169083151502179055505050565b7f000000000000000000000000000000000000000000000000000000000000000073ffffffffffffffffffffffffffffffffffffffff163373ffffffffffffffffffffffffffffffffffffffff1614610570576040517f08c379a000000000000000000000000000000000000000000000000000000000815260040161056790611094565b60405180910390fd5b7f000000000000000000000000000000000000000000000000000000000000000073ffffffffffffffffffffffffffffffffffffffff166108fc4790811502906040515f60405180830381858888f193505050501580156105d3573d5f803e3d5ffd5b50565b601260ff16600a6105e79190611304565b620f42406105f5919061134e565b81565b7f000000000000000000000000000000000000000000000000000000000000000081565b6040518060400160405280600381526020017f425354000000000000000000000000000000000000000000000000000000000081525081565b60025f9054906101000a900460ff16156106a4576040517f08c379a000000000000000000000000000000000000000000000000000000000815260040161069b90611122565b60405180910390fd5b600160025f6101000a81548160ff021916908315150217905550335f73ffffffffffffffffffffffffffffffffffffffff168173ffffffffffffffffffffffffffffffffffffffff160361072d576040517f08c379a00000000000000000000000000000000000000000000000000000000081526004016107249061118a565b60405180910390fd5b6107378383610c5e565b505f60025f6101000a81548160ff0219169083151502179055505050565b5f60025f9054906101000a900460ff16156107a5576040517f08c379a000000000000000000000000000000000000000000000000000000000815260040161079c90611122565b60405180910390fd5b600160025f6101000a81548160ff021916908315150217905550335f73ffffffffffffffffffffffffffffffffffffffff168173ffffffffffffffffffffffffffffffffffffffff160361082e576040517f08c379a00000000000000000000000000000000000000000000000000000000081526004016108259061118a565b60405180910390fd5b835f73ffffffffffffffffffffffffffffffffffffffff168173ffffffffffffffffffffffffffffffffffffffff160361089d576040517f08c379a00000000000000000000000000000000000000000000000000000000081526004016108949061118a565b60405180910390fd5b5f73ffffffffffffffffffffffffffffffffffffffff168573ffffffffffffffffffffffffffffffffffffffff160361090b576040517f08c379a0000000000000000000000000000000000000000000000000000000008152600401610902906113d9565b60405180910390fd5b8360015f3373ffffffffffffffffffffffffffffffffffffffff1673ffffffffffffffffffffffffffffffffffffffff1681526020019081526020015f2054101561098b576040517f08c379a000000000000000000000000000000000000000000000000000000000815260040161098290611441565b60405180910390fd5b8360015f3373ffffffffffffffffffffffffffffffffffffffff1673ffffffffffffffffffffffffffffffffffffffff1681526020019081526020015f205f8282546109d7919061145f565b925050819055508360015f8773ffffffffffffffffffffffffffffffffffffffff1673ffffffffffffffffffffffffffffffffffffffff1681526020019081526020015f205f828254610a2a9190611492565b925050819055508473ffffffffffffffffffffffffffffffffffffffff163373ffffffffffffffffffffffffffffffffffffffff167fddf252ad1be2c89b69c2b068fc378daa952ba7f163c4a11628f55a4df523b3ef86604051610a8e9190610f3a565b60405180910390a36001925050505f60025f6101000a81548160ff02191690831515021790555092915050565b6001602052805f5260405f205f915090505481565b601260ff16600a610ae19190611304565b620f4240610aef919061134e565b815f54610afc9190611492565b1115610b3d576040517f08c379a0000000000000000000000000000000000000000000000000000000008152600401610b349061150f565b60405180910390fd5b805f80828254610b4d9190611492565b925050819055508060015f8473ffffffffffffffffffffffffffffffffffffffff1673ffffffffffffffffffffffffffffffffffffffff1681526020019081526020015f205f828254610ba09190611492565b925050819055508173ffffffffffffffffffffffffffffffffffffffff167f0f6798a560793a54c3bcfe86a93cde1e73087d944c0ea20544137d412139688582604051610bed9190610f3a565b60405180910390a28173ffffffffffffffffffffffffffffffffffffffff165f73ffffffffffffffffffffffffffffffffffffffff167fddf252ad1be2c89b69c2b068fc378daa952ba7f163c4a11628f55a4df523b3ef83604051610c529190610f3a565b60405180910390a35050565b8060015f8473ffffffffffffffffffffffffffffffffffffffff1673ffffffffffffffffffffffffffffffffffffffff1681526020019081526020015f20541015610cde576040517f08c379a0000000000000000000000000000000000000000000000000000000008152600401610cd590611577565b60405180910390fd5b805f80828254610cee919061145f565b925050819055508060015f8473ffffffffffffffffffffffffffffffffffffffff1673ffffffffffffffffffffffffffffffffffffffff1681526020019081526020015f205f828254610d41919061145f565b92505081905550610d528282610354565b8173ffffffffffffffffffffffffffffffffffffffff167fcc16f5dbb4873280815c1ee09dbd06736cffcc184412cf7a71a0fdb75d397ca582604051610d989190610f3a565b60405180910390a25f73ffffffffffffffffffffffffffffffffffffffff168273ffffffffffffffffffffffffffffffffffffffff167fddf252ad1be2c89b69c2b068fc378daa952ba7f163c4a11628f55a4df523b3ef83604051610dfd9190610f3a565b60405180910390a35050565b5f81519050919050565b5f82825260208201905092915050565b8281835e5f83830152505050565b5f601f19601f8301169050919050565b5f610e4b82610e09565b610e558185610e13565b9350610e65818560208601610e23565b610e6e81610e31565b840191505092915050565b5f6020820190508181035f830152610e918184610e41565b905092915050565b5f80fd5b5f73ffffffffffffffffffffffffffffffffffffffff82169050919050565b5f610ec682610e9d565b9050919050565b610ed681610ebc565b8114610ee0575f80fd5b50565b5f81359050610ef181610ecd565b92915050565b5f60208284031215610f0c57610f0b610e99565b5b5f610f1984828501610ee3565b91505092915050565b5f819050919050565b610f3481610f22565b82525050565b5f602082019050610f4d5f830184610f2b565b92915050565b5f60ff82169050919050565b610f6881610f53565b82525050565b5f602082019050610f815f830184610f5f565b92915050565b610f9081610f22565b8114610f9a575f80fd5b50565b5f81359050610fab81610f87565b92915050565b5f8060408385031215610fc757610fc6610e99565b5b5f610fd485828601610ee3565b9250506020610fe585828601610f9d565b9150509250929050565b610ff881610ebc565b82525050565b5f6020820190506110115f830184610fef565b92915050565b5f8115159050919050565b61102b81611017565b82525050565b5f6020820190506110445f830184611022565b92915050565b7f5265737472696374656420746f206f776e6572206163636f756e7400000000005f82015250565b5f61107e601b83610e13565b91506110898261104a565b602082019050919050565b5f6020820190508181035f8301526110ab81611072565b9050919050565b7f52652d656e7472616e742063616c6c206973206e6f7420737570706f727465645f8201527f2e00000000000000000000000000000000000000000000000000000000000000602082015250565b5f61110c602183610e13565b9150611117826110b2565b604082019050919050565b5f6020820190508181035f83015261113981611100565b9050919050565b7f43616e206e6f7420757365206e756c6c206164647265737300000000000000005f82015250565b5f611174601883610e13565b915061117f82611140565b602082019050919050565b5f6020820190508181035f8301526111a181611168565b9050919050565b7f4e487b71000000000000000000000000000000000000000000000000000000005f52601160045260245ffd5b5f8160011c9050919050565b5f808291508390505b600185111561122a57808604811115611206576112056111a8565b5b60018516156112155780820291505b8081029050611223856111d5565b94506111ea565b94509492505050565b5f8261124257600190506112fd565b8161124f575f90506112fd565b8160018114611265576002811461126f5761129e565b60019150506112fd565b60ff841115611281576112806111a8565b5b8360020a915084821115611298576112976111a8565b5b506112fd565b5060208310610133831016604e8410600b84101617156112d35782820a9050838111156112ce576112cd6111a8565b5b6112fd565b6112e084848460016111e1565b925090508184048111156112f7576112f66111a8565b5b81810290505b9392505050565b5f61130e82610f22565b915061131983610f22565b92506113467fffffffffffffffffffffffffffffffffffffffffffffffffffffffffffffffff8484611233565b905092915050565b5f61135882610f22565b915061136383610f22565b925082820261137181610f22565b91508282048414831517611388576113876111a8565b5b5092915050565b7f496e76616c6964206164647265737300000000000000000000000000000000005f82015250565b5f6113c3600f83610e13565b91506113ce8261138f565b602082019050919050565b5f6020820190508181035f8301526113f0816113b7565b9050919050565b7f496e73756666696369656e742066756e647300000000000000000000000000005f82015250565b5f61142b601283610e13565b9150611436826113f7565b602082019050919050565b5f6020820190508181035f8301526114588161141f565b9050919050565b5f61146982610f22565b915061147483610f22565b925082820390508181111561148c5761148b6111a8565b5b92915050565b5f61149c82610f22565b91506114a783610f22565b92508282019050808211156114bf576114be6111a8565b5b92915050565b7f4d696e74696e672065786365656473206d6178696d756d2e00000000000000005f82015250565b5f6114f9601883610e13565b9150611504826114c5565b602082019050919050565b5f6020820190508181035f830152611526816114ed565b9050919050565b7f496e7375666669656e742066756e6473000000000000000000000000000000005f82015250565b5f611561601083610e13565b915061156c8261152d565b602082019050919050565b5f6020820190508181035f83015261158e81611555565b905091905056fea26469706673582212207281dae7f466b1adf599855871187619ea51dd49ea8b3664aa6e906d42e61c8c64736f6c634300081a0033",
					"opcodes": "PUSH1 0xA0 PUSH1 0x40 MSTORE PUSH0 DUP1 SSTORE PUSH0 PUSH1 0x2 PUSH0 PUSH2 0x100 EXP DUP2 SLOAD DUP2 PUSH1 0xFF MUL NOT AND SWAP1 DUP4 ISZERO ISZERO MUL OR SWAP1 SSTORE POP CALLVALUE DUP1 ISZERO PUSH2 0x2B JUMPI PUSH0 DUP1 REVERT JUMPDEST POP PUSH1 0x40 MLOAD PUSH2 0x1C60 CODESIZE SUB DUP1 PUSH2 0x1C60 DUP4 CODECOPY DUP2 DUP2 ADD PUSH1 0x40 MSTORE DUP2 ADD SWAP1 PUSH2 0x4D SWAP2 SWAP1 PUSH2 0x2F5 JUMP JUMPDEST PUSH1 0x12 PUSH1 0xFF AND PUSH1 0xA PUSH2 0x5E SWAP2 SWAP1 PUSH2 0x47C JUMP JUMPDEST PUSH3 0xF4240 PUSH2 0x6C SWAP2 SWAP1 PUSH2 0x4C6 JUMP JUMPDEST PUSH1 0x12 PUSH1 0xFF AND PUSH1 0xA PUSH2 0x7D SWAP2 SWAP1 PUSH2 0x47C JUMP JUMPDEST DUP3 PUSH2 0x88 SWAP2 SWAP1 PUSH2 0x4C6 JUMP JUMPDEST GT ISZERO PUSH2 0xC9 JUMPI PUSH1 0x40 MLOAD PUSH32 0x8C379A000000000000000000000000000000000000000000000000000000000 DUP2 MSTORE PUSH1 0x4 ADD PUSH2 0xC0 SWAP1 PUSH2 0x587 JUMP JUMPDEST PUSH1 0x40 MLOAD DUP1 SWAP2 SUB SWAP1 REVERT JUMPDEST CALLER PUSH20 0xFFFFFFFFFFFFFFFFFFFFFFFFFFFFFFFFFFFFFFFF AND PUSH1 0x80 DUP2 PUSH20 0xFFFFFFFFFFFFFFFFFFFFFFFFFFFFFFFFFFFFFFFF AND DUP2 MSTORE POP POP PUSH2 0x12A PUSH1 0x80 MLOAD PUSH1 0x12 PUSH1 0xFF AND PUSH1 0xA PUSH2 0x114 SWAP2 SWAP1 PUSH2 0x47C JUMP JUMPDEST DUP4 PUSH2 0x11F SWAP2 SWAP1 PUSH2 0x4C6 JUMP JUMPDEST PUSH2 0x130 PUSH1 0x20 SHL PUSH1 0x20 SHR JUMP JUMPDEST POP PUSH2 0x668 JUMP JUMPDEST PUSH1 0x12 PUSH1 0xFF AND PUSH1 0xA PUSH2 0x141 SWAP2 SWAP1 PUSH2 0x47C JUMP JUMPDEST PUSH3 0xF4240 PUSH2 0x14F SWAP2 SWAP1 PUSH2 0x4C6 JUMP JUMPDEST DUP2 PUSH0 SLOAD PUSH2 0x15C SWAP2 SWAP1 PUSH2 0x5A5 JUMP JUMPDEST GT ISZERO PUSH2 0x19D JUMPI PUSH1 0x40 MLOAD PUSH32 0x8C379A000000000000000000000000000000000000000000000000000000000 DUP2 MSTORE PUSH1 0x4 ADD PUSH2 0x194 SWAP1 PUSH2 0x622 JUMP JUMPDEST PUSH1 0x40 MLOAD DUP1 SWAP2 SUB SWAP1 REVERT JUMPDEST DUP1 PUSH0 DUP1 DUP3 DUP3 SLOAD PUSH2 0x1AD SWAP2 SWAP1 PUSH2 0x5A5 JUMP JUMPDEST SWAP3 POP POP DUP2 SWAP1 SSTORE POP DUP1 PUSH1 0x1 PUSH0 DUP5 PUSH20 0xFFFFFFFFFFFFFFFFFFFFFFFFFFFFFFFFFFFFFFFF AND PUSH20 0xFFFFFFFFFFFFFFFFFFFFFFFFFFFFFFFFFFFFFFFF AND DUP2 MSTORE PUSH1 0x20 ADD SWAP1 DUP2 MSTORE PUSH1 0x20 ADD PUSH0 KECCAK256 PUSH0 DUP3 DUP3 SLOAD PUSH2 0x200 SWAP2 SWAP1 PUSH2 0x5A5 JUMP JUMPDEST SWAP3 POP POP DUP2 SWAP1 SSTORE POP DUP2 PUSH20 0xFFFFFFFFFFFFFFFFFFFFFFFFFFFFFFFFFFFFFFFF AND PUSH32 0xF6798A560793A54C3BCFE86A93CDE1E73087D944C0EA20544137D4121396885 DUP3 PUSH1 0x40 MLOAD PUSH2 0x24D SWAP2 SWAP1 PUSH2 0x64F JUMP JUMPDEST PUSH1 0x40 MLOAD DUP1 SWAP2 SUB SWAP1 LOG2 DUP2 PUSH20 0xFFFFFFFFFFFFFFFFFFFFFFFFFFFFFFFFFFFFFFFF AND PUSH0 PUSH20 0xFFFFFFFFFFFFFFFFFFFFFFFFFFFFFFFFFFFFFFFF AND PUSH32 0xDDF252AD1BE2C89B69C2B068FC378DAA952BA7F163C4A11628F55A4DF523B3EF DUP4 PUSH1 0x40 MLOAD PUSH2 0x2B2 SWAP2 SWAP1 PUSH2 0x64F JUMP JUMPDEST PUSH1 0x40 MLOAD DUP1 SWAP2 SUB SWAP1 LOG3 POP POP JUMP JUMPDEST PUSH0 DUP1 REVERT JUMPDEST PUSH0 DUP2 SWAP1 POP SWAP2 SWAP1 POP JUMP JUMPDEST PUSH2 0x2D4 DUP2 PUSH2 0x2C2 JUMP JUMPDEST DUP2 EQ PUSH2 0x2DE JUMPI PUSH0 DUP1 REVERT JUMPDEST POP JUMP JUMPDEST PUSH0 DUP2 MLOAD SWAP1 POP PUSH2 0x2EF DUP2 PUSH2 0x2CB JUMP JUMPDEST SWAP3 SWAP2 POP POP JUMP JUMPDEST PUSH0 PUSH1 0x20 DUP3 DUP5 SUB SLT ISZERO PUSH2 0x30A JUMPI PUSH2 0x309 PUSH2 0x2BE JUMP JUMPDEST JUMPDEST PUSH0 PUSH2 0x317 DUP5 DUP3 DUP6 ADD PUSH2 0x2E1 JUMP JUMPDEST SWAP2 POP POP SWAP3 SWAP2 POP POP JUMP JUMPDEST PUSH32 0x4E487B7100000000000000000000000000000000000000000000000000000000 PUSH0 MSTORE PUSH1 0x11 PUSH1 0x4 MSTORE PUSH1 0x24 PUSH0 REVERT JUMPDEST PUSH0 DUP2 PUSH1 0x1 SHR SWAP1 POP SWAP2 SWAP1 POP JUMP JUMPDEST PUSH0 DUP1 DUP3 SWAP2 POP DUP4 SWAP1 POP JUMPDEST PUSH1 0x1 DUP6 GT ISZERO PUSH2 0x3A2 JUMPI DUP1 DUP7 DIV DUP2 GT ISZERO PUSH2 0x37E JUMPI PUSH2 0x37D PUSH2 0x320 JUMP JUMPDEST JUMPDEST PUSH1 0x1 DUP6 AND ISZERO PUSH2 0x38D JUMPI DUP1 DUP3 MUL SWAP2 POP JUMPDEST DUP1 DUP2 MUL SWAP1 POP PUSH2 0x39B DUP6 PUSH2 0x34D JUMP JUMPDEST SWAP5 POP PUSH2 0x362 JUMP JUMPDEST SWAP5 POP SWAP5 SWAP3 POP POP POP JUMP JUMPDEST PUSH0 DUP3 PUSH2 0x3BA JUMPI PUSH1 0x1 SWAP1 POP PUSH2 0x475 JUMP JUMPDEST DUP2 PUSH2 0x3C7 JUMPI PUSH0 SWAP1 POP PUSH2 0x475 JUMP JUMPDEST DUP2 PUSH1 0x1 DUP2 EQ PUSH2 0x3DD JUMPI PUSH1 0x2 DUP2 EQ PUSH2 0x3E7 JUMPI PUSH2 0x416 JUMP JUMPDEST PUSH1 0x1 SWAP2 POP POP PUSH2 0x475 JUMP JUMPDEST PUSH1 0xFF DUP5 GT ISZERO PUSH2 0x3F9 JUMPI PUSH2 0x3F8 PUSH2 0x320 JUMP JUMPDEST JUMPDEST DUP4 PUSH1 0x2 EXP SWAP2 POP DUP5 DUP3 GT ISZERO PUSH2 0x410 JUMPI PUSH2 0x40F PUSH2 0x320 JUMP JUMPDEST JUMPDEST POP PUSH2 0x475 JUMP JUMPDEST POP PUSH1 0x20 DUP4 LT PUSH2 0x133 DUP4 LT AND PUSH1 0x4E DUP5 LT PUSH1 0xB DUP5 LT AND OR ISZERO PUSH2 0x44B JUMPI DUP3 DUP3 EXP SWAP1 POP DUP4 DUP2 GT ISZERO PUSH2 0x446 JUMPI PUSH2 0x445 PUSH2 0x320 JUMP JUMPDEST JUMPDEST PUSH2 0x475 JUMP JUMPDEST PUSH2 0x458 DUP5 DUP5 DUP5 PUSH1 0x1 PUSH2 0x359 JUMP JUMPDEST SWAP3 POP SWAP1 POP DUP2 DUP5 DIV DUP2 GT ISZERO PUSH2 0x46F JUMPI PUSH2 0x46E PUSH2 0x320 JUMP JUMPDEST JUMPDEST DUP2 DUP2 MUL SWAP1 POP JUMPDEST SWAP4 SWAP3 POP POP POP JUMP JUMPDEST PUSH0 PUSH2 0x486 DUP3 PUSH2 0x2C2 JUMP JUMPDEST SWAP2 POP PUSH2 0x491 DUP4 PUSH2 0x2C2 JUMP JUMPDEST SWAP3 POP PUSH2 0x4BE PUSH32 0xFFFFFFFFFFFFFFFFFFFFFFFFFFFFFFFFFFFFFFFFFFFFFFFFFFFFFFFFFFFFFFFF DUP5 DUP5 PUSH2 0x3AB JUMP JUMPDEST SWAP1 POP SWAP3 SWAP2 POP POP JUMP JUMPDEST PUSH0 PUSH2 0x4D0 DUP3 PUSH2 0x2C2 JUMP JUMPDEST SWAP2 POP PUSH2 0x4DB DUP4 PUSH2 0x2C2 JUMP JUMPDEST SWAP3 POP DUP3 DUP3 MUL PUSH2 0x4E9 DUP2 PUSH2 0x2C2 JUMP JUMPDEST SWAP2 POP DUP3 DUP3 DIV DUP5 EQ DUP4 ISZERO OR PUSH2 0x500 JUMPI PUSH2 0x4FF PUSH2 0x320 JUMP JUMPDEST JUMPDEST POP SWAP3 SWAP2 POP POP JUMP JUMPDEST PUSH0 DUP3 DUP3 MSTORE PUSH1 0x20 DUP3 ADD SWAP1 POP SWAP3 SWAP2 POP POP JUMP JUMPDEST PUSH32 0x496E697469616C20737570706C792063616E206E6F7420657863656564206D61 PUSH0 DUP3 ADD MSTORE PUSH32 0x78696D756D20737570706C790000000000000000000000000000000000000000 PUSH1 0x20 DUP3 ADD MSTORE POP JUMP JUMPDEST PUSH0 PUSH2 0x571 PUSH1 0x2C DUP4 PUSH2 0x507 JUMP JUMPDEST SWAP2 POP PUSH2 0x57C DUP3 PUSH2 0x517 JUMP JUMPDEST PUSH1 0x40 DUP3 ADD SWAP1 POP SWAP2 SWAP1 POP JUMP JUMPDEST PUSH0 PUSH1 0x20 DUP3 ADD SWAP1 POP DUP2 DUP2 SUB PUSH0 DUP4 ADD MSTORE PUSH2 0x59E DUP2 PUSH2 0x565 JUMP JUMPDEST SWAP1 POP SWAP2 SWAP1 POP JUMP JUMPDEST PUSH0 PUSH2 0x5AF DUP3 PUSH2 0x2C2 JUMP JUMPDEST SWAP2 POP PUSH2 0x5BA DUP4 PUSH2 0x2C2 JUMP JUMPDEST SWAP3 POP DUP3 DUP3 ADD SWAP1 POP DUP1 DUP3 GT ISZERO PUSH2 0x5D2 JUMPI PUSH2 0x5D1 PUSH2 0x320 JUMP JUMPDEST JUMPDEST SWAP3 SWAP2 POP POP JUMP JUMPDEST PUSH32 0x4D696E74696E672065786365656473206D6178696D756D2E0000000000000000 PUSH0 DUP3 ADD MSTORE POP JUMP JUMPDEST PUSH0 PUSH2 0x60C PUSH1 0x18 DUP4 PUSH2 0x507 JUMP JUMPDEST SWAP2 POP PUSH2 0x617 DUP3 PUSH2 0x5D8 JUMP JUMPDEST PUSH1 0x20 DUP3 ADD SWAP1 POP SWAP2 SWAP1 POP JUMP JUMPDEST PUSH0 PUSH1 0x20 DUP3 ADD SWAP1 POP DUP2 DUP2 SUB PUSH0 DUP4 ADD MSTORE PUSH2 0x639 DUP2 PUSH2 0x600 JUMP JUMPDEST SWAP1 POP SWAP2 SWAP1 POP JUMP JUMPDEST PUSH2 0x649 DUP2 PUSH2 0x2C2 JUMP JUMPDEST DUP3 MSTORE POP POP JUMP JUMPDEST PUSH0 PUSH1 0x20 DUP3 ADD SWAP1 POP PUSH2 0x662 PUSH0 DUP4 ADD DUP5 PUSH2 0x640 JUMP JUMPDEST SWAP3 SWAP2 POP POP JUMP JUMPDEST PUSH1 0x80 MLOAD PUSH2 0x15CB PUSH2 0x695 PUSH0 CODECOPY PUSH0 DUP2 DUP2 PUSH2 0x356 ADD MSTORE DUP2 DUP2 PUSH2 0x4E4 ADD MSTORE DUP2 DUP2 PUSH2 0x572 ADD MSTORE PUSH2 0x5FA ADD MSTORE PUSH2 0x15CB PUSH0 RETURN INVALID PUSH1 0x80 PUSH1 0x40 MSTORE PUSH1 0x4 CALLDATASIZE LT PUSH2 0xAA JUMPI PUSH0 CALLDATALOAD PUSH1 0xE0 SHR DUP1 PUSH4 0x8A333B50 GT PUSH2 0x63 JUMPI DUP1 PUSH4 0x8A333B50 EQ PUSH2 0x1AD JUMPI DUP1 PUSH4 0x8DA5CB5B EQ PUSH2 0x1D7 JUMPI DUP1 PUSH4 0x95D89B41 EQ PUSH2 0x201 JUMPI DUP1 PUSH4 0x9DC29FAC EQ PUSH2 0x22B JUMPI DUP1 PUSH4 0xA9059CBB EQ PUSH2 0x253 JUMPI DUP1 PUSH4 0xB144ADFB EQ PUSH2 0x28F JUMPI PUSH2 0xB1 JUMP JUMPDEST DUP1 PUSH4 0x6FDDE03 EQ PUSH2 0xB5 JUMPI DUP1 PUSH4 0x1E279A37 EQ PUSH2 0xDF JUMPI DUP1 PUSH4 0x313CE567 EQ PUSH2 0x11B JUMPI DUP1 PUSH4 0x3940E9EE EQ PUSH2 0x145 JUMPI DUP1 PUSH4 0x40C10F19 EQ PUSH2 0x16F JUMPI DUP1 PUSH4 0x79061E96 EQ PUSH2 0x197 JUMPI PUSH2 0xB1 JUMP JUMPDEST CALLDATASIZE PUSH2 0xB1 JUMPI STOP JUMPDEST PUSH0 DUP1 REVERT JUMPDEST CALLVALUE DUP1 ISZERO PUSH2 0xC0 JUMPI PUSH0 DUP1 REVERT JUMPDEST POP PUSH2 0xC9 PUSH2 0x2CB JUMP JUMPDEST PUSH1 0x40 MLOAD PUSH2 0xD6 SWAP2 SWAP1 PUSH2 0xE79 JUMP JUMPDEST PUSH1 0x40 MLOAD DUP1 SWAP2 SUB SWAP1 RETURN JUMPDEST CALLVALUE DUP1 ISZERO PUSH2 0xEA JUMPI PUSH0 DUP1 REVERT JUMPDEST POP PUSH2 0x105 PUSH1 0x4 DUP1 CALLDATASIZE SUB DUP2 ADD SWAP1 PUSH2 0x100 SWAP2 SWAP1 PUSH2 0xEF7 JUMP JUMPDEST PUSH2 0x304 JUMP JUMPDEST PUSH1 0x40 MLOAD PUSH2 0x112 SWAP2 SWAP1 PUSH2 0xF3A JUMP JUMPDEST PUSH1 0x40 MLOAD DUP1 SWAP2 SUB SWAP1 RETURN JUMPDEST CALLVALUE DUP1 ISZERO PUSH2 0x126 JUMPI PUSH0 DUP1 REVERT JUMPDEST POP PUSH2 0x12F PUSH2 0x34A JUMP JUMPDEST PUSH1 0x40 MLOAD PUSH2 0x13C SWAP2 SWAP1 PUSH2 0xF6E JUMP JUMPDEST PUSH1 0x40 MLOAD DUP1 SWAP2 SUB SWAP1 RETURN JUMPDEST CALLVALUE DUP1 ISZERO PUSH2 0x150 JUMPI PUSH0 DUP1 REVERT JUMPDEST POP PUSH2 0x159 PUSH2 0x34F JUMP JUMPDEST PUSH1 0x40 MLOAD PUSH2 0x166 SWAP2 SWAP1 PUSH2 0xF3A JUMP JUMPDEST PUSH1 0x40 MLOAD DUP1 SWAP2 SUB SWAP1 RETURN JUMPDEST CALLVALUE DUP1 ISZERO PUSH2 0x17A JUMPI PUSH0 DUP1 REVERT JUMPDEST POP PUSH2 0x195 PUSH1 0x4 DUP1 CALLDATASIZE SUB DUP2 ADD SWAP1 PUSH2 0x190 SWAP2 SWAP1 PUSH2 0xFB1 JUMP JUMPDEST PUSH2 0x354 JUMP JUMPDEST STOP JUMPDEST CALLVALUE DUP1 ISZERO PUSH2 0x1A2 JUMPI PUSH0 DUP1 REVERT JUMPDEST POP PUSH2 0x1AB PUSH2 0x4E2 JUMP JUMPDEST STOP JUMPDEST CALLVALUE DUP1 ISZERO PUSH2 0x1B8 JUMPI PUSH0 DUP1 REVERT JUMPDEST POP PUSH2 0x1C1 PUSH2 0x5D6 JUMP JUMPDEST PUSH1 0x40 MLOAD PUSH2 0x1CE SWAP2 SWAP1 PUSH2 0xF3A JUMP JUMPDEST PUSH1 0x40 MLOAD DUP1 SWAP2 SUB SWAP1 RETURN JUMPDEST CALLVALUE DUP1 ISZERO PUSH2 0x1E2 JUMPI PUSH0 DUP1 REVERT JUMPDEST POP PUSH2 0x1EB PUSH2 0x5F8 JUMP JUMPDEST PUSH1 0x40 MLOAD PUSH2 0x1F8 SWAP2 SWAP1 PUSH2 0xFFE JUMP JUMPDEST PUSH1 0x40 MLOAD DUP1 SWAP2 SUB SWAP1 RETURN JUMPDEST CALLVALUE DUP1 ISZERO PUSH2 0x20C JUMPI PUSH0 DUP1 REVERT JUMPDEST POP PUSH2 0x215 PUSH2 0x61C JUMP JUMPDEST PUSH1 0x40 MLOAD PUSH2 0x222 SWAP2 SWAP1 PUSH2 0xE79 JUMP JUMPDEST PUSH1 0x40 MLOAD DUP1 SWAP2 SUB SWAP1 RETURN JUMPDEST CALLVALUE DUP1 ISZERO PUSH2 0x236 JUMPI PUSH0 DUP1 REVERT JUMPDEST POP PUSH2 0x251 PUSH1 0x4 DUP1 CALLDATASIZE SUB DUP2 ADD SWAP1 PUSH2 0x24C SWAP2 SWAP1 PUSH2 0xFB1 JUMP JUMPDEST PUSH2 0x655 JUMP JUMPDEST STOP JUMPDEST CALLVALUE DUP1 ISZERO PUSH2 0x25E JUMPI PUSH0 DUP1 REVERT JUMPDEST POP PUSH2 0x279 PUSH1 0x4 DUP1 CALLDATASIZE SUB DUP2 ADD SWAP1 PUSH2 0x274 SWAP2 SWAP1 PUSH2 0xFB1 JUMP JUMPDEST PUSH2 0x755 JUMP JUMPDEST PUSH1 0x40 MLOAD PUSH2 0x286 SWAP2 SWAP1 PUSH2 0x1031 JUMP JUMPDEST PUSH1 0x40 MLOAD DUP1 SWAP2 SUB SWAP1 RETURN JUMPDEST CALLVALUE DUP1 ISZERO PUSH2 0x29A JUMPI PUSH0 DUP1 REVERT JUMPDEST POP PUSH2 0x2B5 PUSH1 0x4 DUP1 CALLDATASIZE SUB DUP2 ADD SWAP1 PUSH2 0x2B0 SWAP2 SWAP1 PUSH2 0xEF7 JUMP JUMPDEST PUSH2 0xABB JUMP JUMPDEST PUSH1 0x40 MLOAD PUSH2 0x2C2 SWAP2 SWAP1 PUSH2 0xF3A JUMP JUMPDEST PUSH1 0x40 MLOAD DUP1 SWAP2 SUB SWAP1 RETURN JUMPDEST PUSH1 0x40 MLOAD DUP1 PUSH1 0x40 ADD PUSH1 0x40 MSTORE DUP1 PUSH1 0xA DUP2 MSTORE PUSH1 0x20 ADD PUSH32 0x4253696465546F6B656E00000000000000000000000000000000000000000000 DUP2 MSTORE POP DUP2 JUMP JUMPDEST PUSH0 PUSH1 0x1 PUSH0 DUP4 PUSH20 0xFFFFFFFFFFFFFFFFFFFFFFFFFFFFFFFFFFFFFFFF AND PUSH20 0xFFFFFFFFFFFFFFFFFFFFFFFFFFFFFFFFFFFFFFFF AND DUP2 MSTORE PUSH1 0x20 ADD SWAP1 DUP2 MSTORE PUSH1 0x20 ADD PUSH0 KECCAK256 SLOAD SWAP1 POP SWAP2 SWAP1 POP JUMP JUMPDEST PUSH1 0x12 DUP2 JUMP JUMPDEST PUSH0 SLOAD DUP2 JUMP JUMPDEST PUSH32 0x0 PUSH20 0xFFFFFFFFFFFFFFFFFFFFFFFFFFFFFFFFFFFFFFFF AND CALLER PUSH20 0xFFFFFFFFFFFFFFFFFFFFFFFFFFFFFFFFFFFFFFFF AND EQ PUSH2 0x3E2 JUMPI PUSH1 0x40 MLOAD PUSH32 0x8C379A000000000000000000000000000000000000000000000000000000000 DUP2 MSTORE PUSH1 0x4 ADD PUSH2 0x3D9 SWAP1 PUSH2 0x1094 JUMP JUMPDEST PUSH1 0x40 MLOAD DUP1 SWAP2 SUB SWAP1 REVERT JUMPDEST PUSH1 0x2 PUSH0 SWAP1 SLOAD SWAP1 PUSH2 0x100 EXP SWAP1 DIV PUSH1 0xFF AND ISZERO PUSH2 0x431 JUMPI PUSH1 0x40 MLOAD PUSH32 0x8C379A000000000000000000000000000000000000000000000000000000000 DUP2 MSTORE PUSH1 0x4 ADD PUSH2 0x428 SWAP1 PUSH2 0x1122 JUMP JUMPDEST PUSH1 0x40 MLOAD DUP1 SWAP2 SUB SWAP1 REVERT JUMPDEST PUSH1 0x1 PUSH1 0x2 PUSH0 PUSH2 0x100 EXP DUP2 SLOAD DUP2 PUSH1 0xFF MUL NOT AND SWAP1 DUP4 ISZERO ISZERO MUL OR SWAP1 SSTORE POP DUP2 PUSH0 PUSH20 0xFFFFFFFFFFFFFFFFFFFFFFFFFFFFFFFFFFFFFFFF AND DUP2 PUSH20 0xFFFFFFFFFFFFFFFFFFFFFFFFFFFFFFFFFFFFFFFF AND SUB PUSH2 0x4BA JUMPI PUSH1 0x40 MLOAD PUSH32 0x8C379A000000000000000000000000000000000000000000000000000000000 DUP2 MSTORE PUSH1 0x4 ADD PUSH2 0x4B1 SWAP1 PUSH2 0x118A JUMP JUMPDEST PUSH1 0x40 MLOAD DUP1 SWAP2 SUB SWAP1 REVERT JUMPDEST PUSH2 0x4C4 DUP4 DUP4 PUSH2 0xAD0 JUMP JUMPDEST POP PUSH0 PUSH1 0x2 PUSH0 PUSH2 0x100 EXP DUP2 SLOAD DUP2 PUSH1 0xFF MUL NOT AND SWAP1 DUP4 ISZERO ISZERO MUL OR SWAP1 SSTORE POP POP POP JUMP JUMPDEST PUSH32 0x0 PUSH20 0xFFFFFFFFFFFFFFFFFFFFFFFFFFFFFFFFFFFFFFFF AND CALLER PUSH20 0xFFFFFFFFFFFFFFFFFFFFFFFFFFFFFFFFFFFFFFFF AND EQ PUSH2 0x570 JUMPI PUSH1 0x40 MLOAD PUSH32 0x8C379A000000000000000000000000000000000000000000000000000000000 DUP2 MSTORE PUSH1 0x4 ADD PUSH2 0x567 SWAP1 PUSH2 0x1094 JUMP JUMPDEST PUSH1 0x40 MLOAD DUP1 SWAP2 SUB SWAP1 REVERT JUMPDEST PUSH32 0x0 PUSH20 0xFFFFFFFFFFFFFFFFFFFFFFFFFFFFFFFFFFFFFFFF AND PUSH2 0x8FC SELFBALANCE SWAP1 DUP2 ISZERO MUL SWAP1 PUSH1 0x40 MLOAD PUSH0 PUSH1 0x40 MLOAD DUP1 DUP4 SUB DUP2 DUP6 DUP9 DUP9 CALL SWAP4 POP POP POP POP ISZERO DUP1 ISZERO PUSH2 0x5D3 JUMPI RETURNDATASIZE PUSH0 DUP1 RETURNDATACOPY RETURNDATASIZE PUSH0 REVERT JUMPDEST POP JUMP JUMPDEST PUSH1 0x12 PUSH1 0xFF AND PUSH1 0xA PUSH2 0x5E7 SWAP2 SWAP1 PUSH2 0x1304 JUMP JUMPDEST PUSH3 0xF4240 PUSH2 0x5F5 SWAP2 SWAP1 PUSH2 0x134E JUMP JUMPDEST DUP2 JUMP JUMPDEST PUSH32 0x0 DUP2 JUMP JUMPDEST PUSH1 0x40 MLOAD DUP1 PUSH1 0x40 ADD PUSH1 0x40 MSTORE DUP1 PUSH1 0x3 DUP2 MSTORE PUSH1 0x20 ADD PUSH32 0x4253540000000000000000000000000000000000000000000000000000000000 DUP2 MSTORE POP DUP2 JUMP JUMPDEST PUSH1 0x2 PUSH0 SWAP1 SLOAD SWAP1 PUSH2 0x100 EXP SWAP1 DIV PUSH1 0xFF AND ISZERO PUSH2 0x6A4 JUMPI PUSH1 0x40 MLOAD PUSH32 0x8C379A000000000000000000000000000000000000000000000000000000000 DUP2 MSTORE PUSH1 0x4 ADD PUSH2 0x69B SWAP1 PUSH2 0x1122 JUMP JUMPDEST PUSH1 0x40 MLOAD DUP1 SWAP2 SUB SWAP1 REVERT JUMPDEST PUSH1 0x1 PUSH1 0x2 PUSH0 PUSH2 0x100 EXP DUP2 SLOAD DUP2 PUSH1 0xFF MUL NOT AND SWAP1 DUP4 ISZERO ISZERO MUL OR SWAP1 SSTORE POP CALLER PUSH0 PUSH20 0xFFFFFFFFFFFFFFFFFFFFFFFFFFFFFFFFFFFFFFFF AND DUP2 PUSH20 0xFFFFFFFFFFFFFFFFFFFFFFFFFFFFFFFFFFFFFFFF AND SUB PUSH2 0x72D JUMPI PUSH1 0x40 MLOAD PUSH32 0x8C379A000000000000000000000000000000000000000000000000000000000 DUP2 MSTORE PUSH1 0x4 ADD PUSH2 0x724 SWAP1 PUSH2 0x118A JUMP JUMPDEST PUSH1 0x40 MLOAD DUP1 SWAP2 SUB SWAP1 REVERT JUMPDEST PUSH2 0x737 DUP4 DUP4 PUSH2 0xC5E JUMP JUMPDEST POP PUSH0 PUSH1 0x2 PUSH0 PUSH2 0x100 EXP DUP2 SLOAD DUP2 PUSH1 0xFF MUL NOT AND SWAP1 DUP4 ISZERO ISZERO MUL OR SWAP1 SSTORE POP POP POP JUMP JUMPDEST PUSH0 PUSH1 0x2 PUSH0 SWAP1 SLOAD SWAP1 PUSH2 0x100 EXP SWAP1 DIV PUSH1 0xFF AND ISZERO PUSH2 0x7A5 JUMPI PUSH1 0x40 MLOAD PUSH32 0x8C379A000000000000000000000000000000000000000000000000000000000 DUP2 MSTORE PUSH1 0x4 ADD PUSH2 0x79C SWAP1 PUSH2 0x1122 JUMP JUMPDEST PUSH1 0x40 MLOAD DUP1 SWAP2 SUB SWAP1 REVERT JUMPDEST PUSH1 0x1 PUSH1 0x2 PUSH0 PUSH2 0x100 EXP DUP2 SLOAD DUP2 PUSH1 0xFF MUL NOT AND SWAP1 DUP4 ISZERO ISZERO MUL OR SWAP1 SSTORE POP CALLER PUSH0 PUSH20 0xFFFFFFFFFFFFFFFFFFFFFFFFFFFFFFFFFFFFFFFF AND DUP2 PUSH20 0xFFFFFFFFFFFFFFFFFFFFFFFFFFFFFFFFFFFFFFFF AND SUB PUSH2 0x82E JUMPI PUSH1 0x40 MLOAD PUSH32 0x8C379A000000000000000000000000000000000000000000000000000000000 DUP2 MSTORE PUSH1 0x4 ADD PUSH2 0x825 SWAP1 PUSH2 0x118A JUMP JUMPDEST PUSH1 0x40 MLOAD DUP1 SWAP2 SUB SWAP1 REVERT JUMPDEST DUP4 PUSH0 PUSH20 0xFFFFFFFFFFFFFFFFFFFFFFFFFFFFFFFFFFFFFFFF AND DUP2 PUSH20 0xFFFFFFFFFFFFFFFFFFFFFFFFFFFFFFFFFFFFFFFF AND SUB PUSH2 0x89D JUMPI PUSH1 0x40 MLOAD PUSH32 0x8C379A000000000000000000000000000000000000000000000000000000000 DUP2 MSTORE PUSH1 0x4 ADD PUSH2 0x894 SWAP1 PUSH2 0x118A JUMP JUMPDEST PUSH1 0x40 MLOAD DUP1 SWAP2 SUB SWAP1 REVERT JUMPDEST PUSH0 PUSH20 0xFFFFFFFFFFFFFFFFFFFFFFFFFFFFFFFFFFFFFFFF AND DUP6 PUSH20 0xFFFFFFFFFFFFFFFFFFFFFFFFFFFFFFFFFFFFFFFF AND SUB PUSH2 0x90B JUMPI PUSH1 0x40 MLOAD PUSH32 0x8C379A000000000000000000000000000000000000000000000000000000000 DUP2 MSTORE PUSH1 0x4 ADD PUSH2 0x902 SWAP1 PUSH2 0x13D9 JUMP JUMPDEST PUSH1 0x40 MLOAD DUP1 SWAP2 SUB SWAP1 REVERT JUMPDEST DUP4 PUSH1 0x1 PUSH0 CALLER PUSH20 0xFFFFFFFFFFFFFFFFFFFFFFFFFFFFFFFFFFFFFFFF AND PUSH20 0xFFFFFFFFFFFFFFFFFFFFFFFFFFFFFFFFFFFFFFFF AND DUP2 MSTORE PUSH1 0x20 ADD SWAP1 DUP2 MSTORE PUSH1 0x20 ADD PUSH0 KECCAK256 SLOAD LT ISZERO PUSH2 0x98B JUMPI PUSH1 0x40 MLOAD PUSH32 0x8C379A000000000000000000000000000000000000000000000000000000000 DUP2 MSTORE PUSH1 0x4 ADD PUSH2 0x982 SWAP1 PUSH2 0x1441 JUMP JUMPDEST PUSH1 0x40 MLOAD DUP1 SWAP2 SUB SWAP1 REVERT JUMPDEST DUP4 PUSH1 0x1 PUSH0 CALLER PUSH20 0xFFFFFFFFFFFFFFFFFFFFFFFFFFFFFFFFFFFFFFFF AND PUSH20 0xFFFFFFFFFFFFFFFFFFFFFFFFFFFFFFFFFFFFFFFF AND DUP2 MSTORE PUSH1 0x20 ADD SWAP1 DUP2 MSTORE PUSH1 0x20 ADD PUSH0 KECCAK256 PUSH0 DUP3 DUP3 SLOAD PUSH2 0x9D7 SWAP2 SWAP1 PUSH2 0x145F JUMP JUMPDEST SWAP3 POP POP DUP2 SWAP1 SSTORE POP DUP4 PUSH1 0x1 PUSH0 DUP8 PUSH20 0xFFFFFFFFFFFFFFFFFFFFFFFFFFFFFFFFFFFFFFFF AND PUSH20 0xFFFFFFFFFFFFFFFFFFFFFFFFFFFFFFFFFFFFFFFF AND DUP2 MSTORE PUSH1 0x20 ADD SWAP1 DUP2 MSTORE PUSH1 0x20 ADD PUSH0 KECCAK256 PUSH0 DUP3 DUP3 SLOAD PUSH2 0xA2A SWAP2 SWAP1 PUSH2 0x1492 JUMP JUMPDEST SWAP3 POP POP DUP2 SWAP1 SSTORE POP DUP5 PUSH20 0xFFFFFFFFFFFFFFFFFFFFFFFFFFFFFFFFFFFFFFFF AND CALLER PUSH20 0xFFFFFFFFFFFFFFFFFFFFFFFFFFFFFFFFFFFFFFFF AND PUSH32 0xDDF252AD1BE2C89B69C2B068FC378DAA952BA7F163C4A11628F55A4DF523B3EF DUP7 PUSH1 0x40 MLOAD PUSH2 0xA8E SWAP2 SWAP1 PUSH2 0xF3A JUMP JUMPDEST PUSH1 0x40 MLOAD DUP1 SWAP2 SUB SWAP1 LOG3 PUSH1 0x1 SWAP3 POP POP POP PUSH0 PUSH1 0x2 PUSH0 PUSH2 0x100 EXP DUP2 SLOAD DUP2 PUSH1 0xFF MUL NOT AND SWAP1 DUP4 ISZERO ISZERO MUL OR SWAP1 SSTORE POP SWAP3 SWAP2 POP POP JUMP JUMPDEST PUSH1 0x1 PUSH1 0x20 MSTORE DUP1 PUSH0 MSTORE PUSH1 0x40 PUSH0 KECCAK256 PUSH0 SWAP2 POP SWAP1 POP SLOAD DUP2 JUMP JUMPDEST PUSH1 0x12 PUSH1 0xFF AND PUSH1 0xA PUSH2 0xAE1 SWAP2 SWAP1 PUSH2 0x1304 JUMP JUMPDEST PUSH3 0xF4240 PUSH2 0xAEF SWAP2 SWAP1 PUSH2 0x134E JUMP JUMPDEST DUP2 PUSH0 SLOAD PUSH2 0xAFC SWAP2 SWAP1 PUSH2 0x1492 JUMP JUMPDEST GT ISZERO PUSH2 0xB3D JUMPI PUSH1 0x40 MLOAD PUSH32 0x8C379A000000000000000000000000000000000000000000000000000000000 DUP2 MSTORE PUSH1 0x4 ADD PUSH2 0xB34 SWAP1 PUSH2 0x150F JUMP JUMPDEST PUSH1 0x40 MLOAD DUP1 SWAP2 SUB SWAP1 REVERT JUMPDEST DUP1 PUSH0 DUP1 DUP3 DUP3 SLOAD PUSH2 0xB4D SWAP2 SWAP1 PUSH2 0x1492 JUMP JUMPDEST SWAP3 POP POP DUP2 SWAP1 SSTORE POP DUP1 PUSH1 0x1 PUSH0 DUP5 PUSH20 0xFFFFFFFFFFFFFFFFFFFFFFFFFFFFFFFFFFFFFFFF AND PUSH20 0xFFFFFFFFFFFFFFFFFFFFFFFFFFFFFFFFFFFFFFFF AND DUP2 MSTORE PUSH1 0x20 ADD SWAP1 DUP2 MSTORE PUSH1 0x20 ADD PUSH0 KECCAK256 PUSH0 DUP3 DUP3 SLOAD PUSH2 0xBA0 SWAP2 SWAP1 PUSH2 0x1492 JUMP JUMPDEST SWAP3 POP POP DUP2 SWAP1 SSTORE POP DUP2 PUSH20 0xFFFFFFFFFFFFFFFFFFFFFFFFFFFFFFFFFFFFFFFF AND PUSH32 0xF6798A560793A54C3BCFE86A93CDE1E73087D944C0EA20544137D4121396885 DUP3 PUSH1 0x40 MLOAD PUSH2 0xBED SWAP2 SWAP1 PUSH2 0xF3A JUMP JUMPDEST PUSH1 0x40 MLOAD DUP1 SWAP2 SUB SWAP1 LOG2 DUP2 PUSH20 0xFFFFFFFFFFFFFFFFFFFFFFFFFFFFFFFFFFFFFFFF AND PUSH0 PUSH20 0xFFFFFFFFFFFFFFFFFFFFFFFFFFFFFFFFFFFFFFFF AND PUSH32 0xDDF252AD1BE2C89B69C2B068FC378DAA952BA7F163C4A11628F55A4DF523B3EF DUP4 PUSH1 0x40 MLOAD PUSH2 0xC52 SWAP2 SWAP1 PUSH2 0xF3A JUMP JUMPDEST PUSH1 0x40 MLOAD DUP1 SWAP2 SUB SWAP1 LOG3 POP POP JUMP JUMPDEST DUP1 PUSH1 0x1 PUSH0 DUP5 PUSH20 0xFFFFFFFFFFFFFFFFFFFFFFFFFFFFFFFFFFFFFFFF AND PUSH20 0xFFFFFFFFFFFFFFFFFFFFFFFFFFFFFFFFFFFFFFFF AND DUP2 MSTORE PUSH1 0x20 ADD SWAP1 DUP2 MSTORE PUSH1 0x20 ADD PUSH0 KECCAK256 SLOAD LT ISZERO PUSH2 0xCDE JUMPI PUSH1 0x40 MLOAD PUSH32 0x8C379A000000000000000000000000000000000000000000000000000000000 DUP2 MSTORE PUSH1 0x4 ADD PUSH2 0xCD5 SWAP1 PUSH2 0x1577 JUMP JUMPDEST PUSH1 0x40 MLOAD DUP1 SWAP2 SUB SWAP1 REVERT JUMPDEST DUP1 PUSH0 DUP1 DUP3 DUP3 SLOAD PUSH2 0xCEE SWAP2 SWAP1 PUSH2 0x145F JUMP JUMPDEST SWAP3 POP POP DUP2 SWAP1 SSTORE POP DUP1 PUSH1 0x1 PUSH0 DUP5 PUSH20 0xFFFFFFFFFFFFFFFFFFFFFFFFFFFFFFFFFFFFFFFF AND PUSH20 0xFFFFFFFFFFFFFFFFFFFFFFFFFFFFFFFFFFFFFFFF AND DUP2 MSTORE PUSH1 0x20 ADD SWAP1 DUP2 MSTORE PUSH1 0x20 ADD PUSH0 KECCAK256 PUSH0 DUP3 DUP3 SLOAD PUSH2 0xD41 SWAP2 SWAP1 PUSH2 0x145F JUMP JUMPDEST SWAP3 POP POP DUP2 SWAP1 SSTORE POP PUSH2 0xD52 DUP3 DUP3 PUSH2 0x354 JUMP JUMPDEST DUP2 PUSH20 0xFFFFFFFFFFFFFFFFFFFFFFFFFFFFFFFFFFFFFFFF AND PUSH32 0xCC16F5DBB4873280815C1EE09DBD06736CFFCC184412CF7A71A0FDB75D397CA5 DUP3 PUSH1 0x40 MLOAD PUSH2 0xD98 SWAP2 SWAP1 PUSH2 0xF3A JUMP JUMPDEST PUSH1 0x40 MLOAD DUP1 SWAP2 SUB SWAP1 LOG2 PUSH0 PUSH20 0xFFFFFFFFFFFFFFFFFFFFFFFFFFFFFFFFFFFFFFFF AND DUP3 PUSH20 0xFFFFFFFFFFFFFFFFFFFFFFFFFFFFFFFFFFFFFFFF AND PUSH32 0xDDF252AD1BE2C89B69C2B068FC378DAA952BA7F163C4A11628F55A4DF523B3EF DUP4 PUSH1 0x40 MLOAD PUSH2 0xDFD SWAP2 SWAP1 PUSH2 0xF3A JUMP JUMPDEST PUSH1 0x40 MLOAD DUP1 SWAP2 SUB SWAP1 LOG3 POP POP JUMP JUMPDEST PUSH0 DUP2 MLOAD SWAP1 POP SWAP2 SWAP1 POP JUMP JUMPDEST PUSH0 DUP3 DUP3 MSTORE PUSH1 0x20 DUP3 ADD SWAP1 POP SWAP3 SWAP2 POP POP JUMP JUMPDEST DUP3 DUP2 DUP4 MCOPY PUSH0 DUP4 DUP4 ADD MSTORE POP POP POP JUMP JUMPDEST PUSH0 PUSH1 0x1F NOT PUSH1 0x1F DUP4 ADD AND SWAP1 POP SWAP2 SWAP1 POP JUMP JUMPDEST PUSH0 PUSH2 0xE4B DUP3 PUSH2 0xE09 JUMP JUMPDEST PUSH2 0xE55 DUP2 DUP6 PUSH2 0xE13 JUMP JUMPDEST SWAP4 POP PUSH2 0xE65 DUP2 DUP6 PUSH1 0x20 DUP7 ADD PUSH2 0xE23 JUMP JUMPDEST PUSH2 0xE6E DUP2 PUSH2 0xE31 JUMP JUMPDEST DUP5 ADD SWAP2 POP POP SWAP3 SWAP2 POP POP JUMP JUMPDEST PUSH0 PUSH1 0x20 DUP3 ADD SWAP1 POP DUP2 DUP2 SUB PUSH0 DUP4 ADD MSTORE PUSH2 0xE91 DUP2 DUP5 PUSH2 0xE41 JUMP JUMPDEST SWAP1 POP SWAP3 SWAP2 POP POP JUMP JUMPDEST PUSH0 DUP1 REVERT JUMPDEST PUSH0 PUSH20 0xFFFFFFFFFFFFFFFFFFFFFFFFFFFFFFFFFFFFFFFF DUP3 AND SWAP1 POP SWAP2 SWAP1 POP JUMP JUMPDEST PUSH0 PUSH2 0xEC6 DUP3 PUSH2 0xE9D JUMP JUMPDEST SWAP1 POP SWAP2 SWAP1 POP JUMP JUMPDEST PUSH2 0xED6 DUP2 PUSH2 0xEBC JUMP JUMPDEST DUP2 EQ PUSH2 0xEE0 JUMPI PUSH0 DUP1 REVERT JUMPDEST POP JUMP JUMPDEST PUSH0 DUP2 CALLDATALOAD SWAP1 POP PUSH2 0xEF1 DUP2 PUSH2 0xECD JUMP JUMPDEST SWAP3 SWAP2 POP POP JUMP JUMPDEST PUSH0 PUSH1 0x20 DUP3 DUP5 SUB SLT ISZERO PUSH2 0xF0C JUMPI PUSH2 0xF0B PUSH2 0xE99 JUMP JUMPDEST JUMPDEST PUSH0 PUSH2 0xF19 DUP5 DUP3 DUP6 ADD PUSH2 0xEE3 JUMP JUMPDEST SWAP2 POP POP SWAP3 SWAP2 POP POP JUMP JUMPDEST PUSH0 DUP2 SWAP1 POP SWAP2 SWAP1 POP JUMP JUMPDEST PUSH2 0xF34 DUP2 PUSH2 0xF22 JUMP JUMPDEST DUP3 MSTORE POP POP JUMP JUMPDEST PUSH0 PUSH1 0x20 DUP3 ADD SWAP1 POP PUSH2 0xF4D PUSH0 DUP4 ADD DUP5 PUSH2 0xF2B JUMP JUMPDEST SWAP3 SWAP2 POP POP JUMP JUMPDEST PUSH0 PUSH1 0xFF DUP3 AND SWAP1 POP SWAP2 SWAP1 POP JUMP JUMPDEST PUSH2 0xF68 DUP2 PUSH2 0xF53 JUMP JUMPDEST DUP3 MSTORE POP POP JUMP JUMPDEST PUSH0 PUSH1 0x20 DUP3 ADD SWAP1 POP PUSH2 0xF81 PUSH0 DUP4 ADD DUP5 PUSH2 0xF5F JUMP JUMPDEST SWAP3 SWAP2 POP POP JUMP JUMPDEST PUSH2 0xF90 DUP2 PUSH2 0xF22 JUMP JUMPDEST DUP2 EQ PUSH2 0xF9A JUMPI PUSH0 DUP1 REVERT JUMPDEST POP JUMP JUMPDEST PUSH0 DUP2 CALLDATALOAD SWAP1 POP PUSH2 0xFAB DUP2 PUSH2 0xF87 JUMP JUMPDEST SWAP3 SWAP2 POP POP JUMP JUMPDEST PUSH0 DUP1 PUSH1 0x40 DUP4 DUP6 SUB SLT ISZERO PUSH2 0xFC7 JUMPI PUSH2 0xFC6 PUSH2 0xE99 JUMP JUMPDEST JUMPDEST PUSH0 PUSH2 0xFD4 DUP6 DUP3 DUP7 ADD PUSH2 0xEE3 JUMP JUMPDEST SWAP3 POP POP PUSH1 0x20 PUSH2 0xFE5 DUP6 DUP3 DUP7 ADD PUSH2 0xF9D JUMP JUMPDEST SWAP2 POP POP SWAP3 POP SWAP3 SWAP1 POP JUMP JUMPDEST PUSH2 0xFF8 DUP2 PUSH2 0xEBC JUMP JUMPDEST DUP3 MSTORE POP POP JUMP JUMPDEST PUSH0 PUSH1 0x20 DUP3 ADD SWAP1 POP PUSH2 0x1011 PUSH0 DUP4 ADD DUP5 PUSH2 0xFEF JUMP JUMPDEST SWAP3 SWAP2 POP POP JUMP JUMPDEST PUSH0 DUP2 ISZERO ISZERO SWAP1 POP SWAP2 SWAP1 POP JUMP JUMPDEST PUSH2 0x102B DUP2 PUSH2 0x1017 JUMP JUMPDEST DUP3 MSTORE POP POP JUMP JUMPDEST PUSH0 PUSH1 0x20 DUP3 ADD SWAP1 POP PUSH2 0x1044 PUSH0 DUP4 ADD DUP5 PUSH2 0x1022 JUMP JUMPDEST SWAP3 SWAP2 POP POP JUMP JUMPDEST PUSH32 0x5265737472696374656420746F206F776E6572206163636F756E740000000000 PUSH0 DUP3 ADD MSTORE POP JUMP JUMPDEST PUSH0 PUSH2 0x107E PUSH1 0x1B DUP4 PUSH2 0xE13 JUMP JUMPDEST SWAP2 POP PUSH2 0x1089 DUP3 PUSH2 0x104A JUMP JUMPDEST PUSH1 0x20 DUP3 ADD SWAP1 POP SWAP2 SWAP1 POP JUMP JUMPDEST PUSH0 PUSH1 0x20 DUP3 ADD SWAP1 POP DUP2 DUP2 SUB PUSH0 DUP4 ADD MSTORE PUSH2 0x10AB DUP2 PUSH2 0x1072 JUMP JUMPDEST SWAP1 POP SWAP2 SWAP1 POP JUMP JUMPDEST PUSH32 0x52652D656E7472616E742063616C6C206973206E6F7420737570706F72746564 PUSH0 DUP3 ADD MSTORE PUSH32 0x2E00000000000000000000000000000000000000000000000000000000000000 PUSH1 0x20 DUP3 ADD MSTORE POP JUMP JUMPDEST PUSH0 PUSH2 0x110C PUSH1 0x21 DUP4 PUSH2 0xE13 JUMP JUMPDEST SWAP2 POP PUSH2 0x1117 DUP3 PUSH2 0x10B2 JUMP JUMPDEST PUSH1 0x40 DUP3 ADD SWAP1 POP SWAP2 SWAP1 POP JUMP JUMPDEST PUSH0 PUSH1 0x20 DUP3 ADD SWAP1 POP DUP2 DUP2 SUB PUSH0 DUP4 ADD MSTORE PUSH2 0x1139 DUP2 PUSH2 0x1100 JUMP JUMPDEST SWAP1 POP SWAP2 SWAP1 POP JUMP JUMPDEST PUSH32 0x43616E206E6F7420757365206E756C6C20616464726573730000000000000000 PUSH0 DUP3 ADD MSTORE POP JUMP JUMPDEST PUSH0 PUSH2 0x1174 PUSH1 0x18 DUP4 PUSH2 0xE13 JUMP JUMPDEST SWAP2 POP PUSH2 0x117F DUP3 PUSH2 0x1140 JUMP JUMPDEST PUSH1 0x20 DUP3 ADD SWAP1 POP SWAP2 SWAP1 POP JUMP JUMPDEST PUSH0 PUSH1 0x20 DUP3 ADD SWAP1 POP DUP2 DUP2 SUB PUSH0 DUP4 ADD MSTORE PUSH2 0x11A1 DUP2 PUSH2 0x1168 JUMP JUMPDEST SWAP1 POP SWAP2 SWAP1 POP JUMP JUMPDEST PUSH32 0x4E487B7100000000000000000000000000000000000000000000000000000000 PUSH0 MSTORE PUSH1 0x11 PUSH1 0x4 MSTORE PUSH1 0x24 PUSH0 REVERT JUMPDEST PUSH0 DUP2 PUSH1 0x1 SHR SWAP1 POP SWAP2 SWAP1 POP JUMP JUMPDEST PUSH0 DUP1 DUP3 SWAP2 POP DUP4 SWAP1 POP JUMPDEST PUSH1 0x1 DUP6 GT ISZERO PUSH2 0x122A JUMPI DUP1 DUP7 DIV DUP2 GT ISZERO PUSH2 0x1206 JUMPI PUSH2 0x1205 PUSH2 0x11A8 JUMP JUMPDEST JUMPDEST PUSH1 0x1 DUP6 AND ISZERO PUSH2 0x1215 JUMPI DUP1 DUP3 MUL SWAP2 POP JUMPDEST DUP1 DUP2 MUL SWAP1 POP PUSH2 0x1223 DUP6 PUSH2 0x11D5 JUMP JUMPDEST SWAP5 POP PUSH2 0x11EA JUMP JUMPDEST SWAP5 POP SWAP5 SWAP3 POP POP POP JUMP JUMPDEST PUSH0 DUP3 PUSH2 0x1242 JUMPI PUSH1 0x1 SWAP1 POP PUSH2 0x12FD JUMP JUMPDEST DUP2 PUSH2 0x124F JUMPI PUSH0 SWAP1 POP PUSH2 0x12FD JUMP JUMPDEST DUP2 PUSH1 0x1 DUP2 EQ PUSH2 0x1265 JUMPI PUSH1 0x2 DUP2 EQ PUSH2 0x126F JUMPI PUSH2 0x129E JUMP JUMPDEST PUSH1 0x1 SWAP2 POP POP PUSH2 0x12FD JUMP JUMPDEST PUSH1 0xFF DUP5 GT ISZERO PUSH2 0x1281 JUMPI PUSH2 0x1280 PUSH2 0x11A8 JUMP JUMPDEST JUMPDEST DUP4 PUSH1 0x2 EXP SWAP2 POP DUP5 DUP3 GT ISZERO PUSH2 0x1298 JUMPI PUSH2 0x1297 PUSH2 0x11A8 JUMP JUMPDEST JUMPDEST POP PUSH2 0x12FD JUMP JUMPDEST POP PUSH1 0x20 DUP4 LT PUSH2 0x133 DUP4 LT AND PUSH1 0x4E DUP5 LT PUSH1 0xB DUP5 LT AND OR ISZERO PUSH2 0x12D3 JUMPI DUP3 DUP3 EXP SWAP1 POP DUP4 DUP2 GT ISZERO PUSH2 0x12CE JUMPI PUSH2 0x12CD PUSH2 0x11A8 JUMP JUMPDEST JUMPDEST PUSH2 0x12FD JUMP JUMPDEST PUSH2 0x12E0 DUP5 DUP5 DUP5 PUSH1 0x1 PUSH2 0x11E1 JUMP JUMPDEST SWAP3 POP SWAP1 POP DUP2 DUP5 DIV DUP2 GT ISZERO PUSH2 0x12F7 JUMPI PUSH2 0x12F6 PUSH2 0x11A8 JUMP JUMPDEST JUMPDEST DUP2 DUP2 MUL SWAP1 POP JUMPDEST SWAP4 SWAP3 POP POP POP JUMP JUMPDEST PUSH0 PUSH2 0x130E DUP3 PUSH2 0xF22 JUMP JUMPDEST SWAP2 POP PUSH2 0x1319 DUP4 PUSH2 0xF22 JUMP JUMPDEST SWAP3 POP PUSH2 0x1346 PUSH32 0xFFFFFFFFFFFFFFFFFFFFFFFFFFFFFFFFFFFFFFFFFFFFFFFFFFFFFFFFFFFFFFFF DUP5 DUP5 PUSH2 0x1233 JUMP JUMPDEST SWAP1 POP SWAP3 SWAP2 POP POP JUMP JUMPDEST PUSH0 PUSH2 0x1358 DUP3 PUSH2 0xF22 JUMP JUMPDEST SWAP2 POP PUSH2 0x1363 DUP4 PUSH2 0xF22 JUMP JUMPDEST SWAP3 POP DUP3 DUP3 MUL PUSH2 0x1371 DUP2 PUSH2 0xF22 JUMP JUMPDEST SWAP2 POP DUP3 DUP3 DIV DUP5 EQ DUP4 ISZERO OR PUSH2 0x1388 JUMPI PUSH2 0x1387 PUSH2 0x11A8 JUMP JUMPDEST JUMPDEST POP SWAP3 SWAP2 POP POP JUMP JUMPDEST PUSH32 0x496E76616C696420616464726573730000000000000000000000000000000000 PUSH0 DUP3 ADD MSTORE POP JUMP JUMPDEST PUSH0 PUSH2 0x13C3 PUSH1 0xF DUP4 PUSH2 0xE13 JUMP JUMPDEST SWAP2 POP PUSH2 0x13CE DUP3 PUSH2 0x138F JUMP JUMPDEST PUSH1 0x20 DUP3 ADD SWAP1 POP SWAP2 SWAP1 POP JUMP JUMPDEST PUSH0 PUSH1 0x20 DUP3 ADD SWAP1 POP DUP2 DUP2 SUB PUSH0 DUP4 ADD MSTORE PUSH2 0x13F0 DUP2 PUSH2 0x13B7 JUMP JUMPDEST SWAP1 POP SWAP2 SWAP1 POP JUMP JUMPDEST PUSH32 0x496E73756666696369656E742066756E64730000000000000000000000000000 PUSH0 DUP3 ADD MSTORE POP JUMP JUMPDEST PUSH0 PUSH2 0x142B PUSH1 0x12 DUP4 PUSH2 0xE13 JUMP JUMPDEST SWAP2 POP PUSH2 0x1436 DUP3 PUSH2 0x13F7 JUMP JUMPDEST PUSH1 0x20 DUP3 ADD SWAP1 POP SWAP2 SWAP1 POP JUMP JUMPDEST PUSH0 PUSH1 0x20 DUP3 ADD SWAP1 POP DUP2 DUP2 SUB PUSH0 DUP4 ADD MSTORE PUSH2 0x1458 DUP2 PUSH2 0x141F JUMP JUMPDEST SWAP1 POP SWAP2 SWAP1 POP JUMP JUMPDEST PUSH0 PUSH2 0x1469 DUP3 PUSH2 0xF22 JUMP JUMPDEST SWAP2 POP PUSH2 0x1474 DUP4 PUSH2 0xF22 JUMP JUMPDEST SWAP3 POP DUP3 DUP3 SUB SWAP1 POP DUP2 DUP2 GT ISZERO PUSH2 0x148C JUMPI PUSH2 0x148B PUSH2 0x11A8 JUMP JUMPDEST JUMPDEST SWAP3 SWAP2 POP POP JUMP JUMPDEST PUSH0 PUSH2 0x149C DUP3 PUSH2 0xF22 JUMP JUMPDEST SWAP2 POP PUSH2 0x14A7 DUP4 PUSH2 0xF22 JUMP JUMPDEST SWAP3 POP DUP3 DUP3 ADD SWAP1 POP DUP1 DUP3 GT ISZERO PUSH2 0x14BF JUMPI PUSH2 0x14BE PUSH2 0x11A8 JUMP JUMPDEST JUMPDEST SWAP3 SWAP2 POP POP JUMP JUMPDEST PUSH32 0x4D696E74696E672065786365656473206D6178696D756D2E0000000000000000 PUSH0 DUP3 ADD MSTORE POP JUMP JUMPDEST PUSH0 PUSH2 0x14F9 PUSH1 0x18 DUP4 PUSH2 0xE13 JUMP JUMPDEST SWAP2 POP PUSH2 0x1504 DUP3 PUSH2 0x14C5 JUMP JUMPDEST PUSH1 0x20 DUP3 ADD SWAP1 POP SWAP2 SWAP1 POP JUMP JUMPDEST PUSH0 PUSH1 0x20 DUP3 ADD SWAP1 POP DUP2 DUP2 SUB PUSH0 DUP4 ADD MSTORE PUSH2 0x1526 DUP2 PUSH2 0x14ED JUMP JUMPDEST SWAP1 POP SWAP2 SWAP1 POP JUMP JUMPDEST PUSH32 0x496E7375666669656E742066756E647300000000000000000000000000000000 PUSH0 DUP3 ADD MSTORE POP JUMP JUMPDEST PUSH0 PUSH2 0x1561 PUSH1 0x10 DUP4 PUSH2 0xE13 JUMP JUMPDEST SWAP2 POP PUSH2 0x156C DUP3 PUSH2 0x152D JUMP JUMPDEST PUSH1 0x20 DUP3 ADD SWAP1 POP SWAP2 SWAP1 POP JUMP JUMPDEST PUSH0 PUSH1 0x20 DUP3 ADD SWAP1 POP DUP2 DUP2 SUB PUSH0 DUP4 ADD MSTORE PUSH2 0x158E DUP2 PUSH2 0x1555 JUMP JUMPDEST SWAP1 POP SWAP2 SWAP1 POP JUMP INVALID LOG2 PUSH5 0x6970667358 0x22 SLT KECCAK256 PUSH19 0x81DAE7F466B1ADF599855871187619EA51DD49 0xEA DUP12 CALLDATASIZE PUSH5 0xAA6E906D42 0xE6 SHR DUP13 PUSH5 0x736F6C6343 STOP ADDMOD BYTE STOP CALLER "
				},
				"gasEstimates": {
					"creation": {
						"codeDepositCost": "1115800",
						"executionCost": "infinite",
						"totalCost": "infinite"
					},
					"external": {
						"balance_of(address)": "2912",
						"burn(address,uint256)": "infinite",
						"decimals()": "376",
						"get_balance(address)": "2852",
						"max_supply()": "infinite",
						"mint(address,uint256)": "infinite",
						"name()": "infinite",
						"owner()": "infinite",
						"symbol()": "infinite",
						"total_supply()": "2491",
						"transfer(address,uint256)": "infinite",
						"withdraw_ether()": "infinite"
					},
					"internal": {
						"burn_(address,uint256)": "infinite",
						"mint_(address,uint256)": "infinite"
					}
				},
				"methodIdentifiers": {
					"balance_of(address)": "b144adfb",
					"burn(address,uint256)": "9dc29fac",
					"decimals()": "313ce567",
					"get_balance(address)": "1e279a37",
					"max_supply()": "8a333b50",
					"mint(address,uint256)": "40c10f19",
					"name()": "06fdde03",
					"owner()": "8da5cb5b",
					"symbol()": "95d89b41",
					"total_supply()": "3940e9ee",
					"transfer(address,uint256)": "a9059cbb",
					"withdraw_ether()": "79061e96"
				}
			},
			"storageLayout": {
				"storage": [
					{
						"astId": 25,
						"contract": "contracts/MyToken.sol:BSideToken",
						"label": "total_supply",
						"offset": 0,
						"slot": "0",
						"type": "t_uint256"
					},
					{
						"astId": 29,
						"contract": "contracts/MyToken.sol:BSideToken",
						"label": "balance_of",
						"offset": 0,
						"slot": "1",
						"type": "t_mapping(t_address,t_uint256)"
					},
					{
						"astId": 32,
						"contract": "contracts/MyToken.sol:BSideToken",
						"label": "locked",
						"offset": 0,
						"slot": "2",
						"type": "t_bool"
					}
				],
				"types": {
					"t_address": {
						"encoding": "inplace",
						"label": "address",
						"numberOfBytes": "20"
					},
					"t_bool": {
						"encoding": "inplace",
						"label": "bool",
						"numberOfBytes": "1"
					},
					"t_mapping(t_address,t_uint256)": {
						"encoding": "mapping",
						"key": "t_address",
						"label": "mapping(address => uint256)",
						"numberOfBytes": "32",
						"value": "t_uint256"
					},
					"t_uint256": {
						"encoding": "inplace",
						"label": "uint256",
						"numberOfBytes": "32"
					}
				}
			},
			"userdoc": {
				"kind": "user",
				"methods": {},
				"version": 1
			}
		}
	}
}